{
	"Initial Coin Offering (ICO)/ICO.sol": {
		"Block": {
			"abi": [
				{
					"inputs": [],
					"stateMutability": "nonpayable",
					"type": "constructor"
				},
				{
					"anonymous": false,
					"inputs": [
						{
							"indexed": true,
							"internalType": "address",
							"name": "tokenOwner",
							"type": "address"
						},
						{
							"indexed": true,
							"internalType": "address",
							"name": "spender",
							"type": "address"
						},
						{
							"indexed": false,
							"internalType": "uint256",
							"name": "tokens",
							"type": "uint256"
						}
					],
					"name": "Approval",
					"type": "event"
				},
				{
					"anonymous": false,
					"inputs": [
						{
							"indexed": true,
							"internalType": "address",
							"name": "from",
							"type": "address"
						},
						{
							"indexed": true,
							"internalType": "address",
							"name": "to",
							"type": "address"
						},
						{
							"indexed": false,
							"internalType": "uint256",
							"name": "tokens",
							"type": "uint256"
						}
					],
					"name": "Transfer",
					"type": "event"
				},
				{
					"inputs": [
						{
							"internalType": "address",
							"name": "",
							"type": "address"
						},
						{
							"internalType": "address",
							"name": "",
							"type": "address"
						}
					],
					"name": "Allowed",
					"outputs": [
						{
							"internalType": "uint256",
							"name": "",
							"type": "uint256"
						}
					],
					"stateMutability": "view",
					"type": "function"
				},
				{
					"inputs": [],
					"name": "Decimal",
					"outputs": [
						{
							"internalType": "string",
							"name": "",
							"type": "string"
						}
					],
					"stateMutability": "view",
					"type": "function"
				},
				{
					"inputs": [],
					"name": "Founder",
					"outputs": [
						{
							"internalType": "address",
							"name": "",
							"type": "address"
						}
					],
					"stateMutability": "view",
					"type": "function"
				},
				{
					"inputs": [],
					"name": "Name",
					"outputs": [
						{
							"internalType": "string",
							"name": "",
							"type": "string"
						}
					],
					"stateMutability": "view",
					"type": "function"
				},
				{
					"inputs": [],
					"name": "Symbol",
					"outputs": [
						{
							"internalType": "string",
							"name": "",
							"type": "string"
						}
					],
					"stateMutability": "view",
					"type": "function"
				},
				{
					"inputs": [
						{
							"internalType": "address",
							"name": "tokenOwner",
							"type": "address"
						},
						{
							"internalType": "address",
							"name": "spender",
							"type": "address"
						}
					],
					"name": "allowance",
					"outputs": [
						{
							"internalType": "uint256",
							"name": "NoOfTokens",
							"type": "uint256"
						}
					],
					"stateMutability": "view",
					"type": "function"
				},
				{
					"inputs": [
						{
							"internalType": "address",
							"name": "spender",
							"type": "address"
						},
						{
							"internalType": "uint256",
							"name": "tokens",
							"type": "uint256"
						}
					],
					"name": "approve",
					"outputs": [
						{
							"internalType": "bool",
							"name": "success",
							"type": "bool"
						}
					],
					"stateMutability": "nonpayable",
					"type": "function"
				},
				{
					"inputs": [
						{
							"internalType": "address",
							"name": "tokenOwner",
							"type": "address"
						}
					],
					"name": "balanceOf",
					"outputs": [
						{
							"internalType": "uint256",
							"name": "balance",
							"type": "uint256"
						}
					],
					"stateMutability": "view",
					"type": "function"
				},
				{
					"inputs": [
						{
							"internalType": "address",
							"name": "",
							"type": "address"
						}
					],
					"name": "balances",
					"outputs": [
						{
							"internalType": "uint256",
							"name": "",
							"type": "uint256"
						}
					],
					"stateMutability": "view",
					"type": "function"
				},
				{
					"inputs": [],
					"name": "totalSupply",
					"outputs": [
						{
							"internalType": "uint256",
							"name": "",
							"type": "uint256"
						}
					],
					"stateMutability": "view",
					"type": "function"
				},
				{
					"inputs": [
						{
							"internalType": "address",
							"name": "to",
							"type": "address"
						},
						{
							"internalType": "uint256",
							"name": "tokens",
							"type": "uint256"
						}
					],
					"name": "transfer",
					"outputs": [
						{
							"internalType": "bool",
							"name": "success",
							"type": "bool"
						}
					],
					"stateMutability": "nonpayable",
					"type": "function"
				},
				{
					"inputs": [
						{
							"internalType": "address",
							"name": "From",
							"type": "address"
						},
						{
							"internalType": "address",
							"name": "To",
							"type": "address"
						},
						{
							"internalType": "uint256",
							"name": "tokens",
							"type": "uint256"
						}
					],
					"name": "transferForm",
					"outputs": [
						{
							"internalType": "bool",
							"name": "success",
							"type": "bool"
						}
					],
					"stateMutability": "nonpayable",
					"type": "function"
				}
			],
			"devdoc": {
				"kind": "dev",
				"methods": {},
				"version": 1
			},
			"evm": {
				"assembly": "    /* \"Initial Coin Offering (ICO)/ICO.sol\":1058:2986  contract Block is ERC20Interface\r... */\n  mstore(0x40, 0x80)\n    /* \"Initial Coin Offering (ICO)/ICO.sol\":1125:1153  string public Name = \"Block\" */\n  mload(0x40)\n  dup1\n  0x40\n  add\n  0x40\n  mstore\n  dup1\n  0x05\n  dup2\n  mstore\n  0x20\n  add\n  0x426c6f636b000000000000000000000000000000000000000000000000000000\n  dup2\n  mstore\n  pop\n  0x00\n  swap1\n  dup1\n  mload\n  swap1\n  0x20\n  add\n  swap1\n  tag_1\n  swap3\n  swap2\n  swap1\n  tag_2\n  jump\t// in\ntag_1:\n  pop\n    /* \"Initial Coin Offering (ICO)/ICO.sol\":1160:1188  string public Symbol = \"BLK\" */\n  mload(0x40)\n  dup1\n  0x40\n  add\n  0x40\n  mstore\n  dup1\n  0x03\n  dup2\n  mstore\n  0x20\n  add\n  0x424c4b0000000000000000000000000000000000000000000000000000000000\n  dup2\n  mstore\n  pop\n  0x01\n  swap1\n  dup1\n  mload\n  swap1\n  0x20\n  add\n  swap1\n  tag_3\n  swap3\n  swap2\n  swap1\n  tag_2\n  jump\t// in\ntag_3:\n  pop\n    /* \"Initial Coin Offering (ICO)/ICO.sol\":1197:1224  string public Decimal = '0' */\n  mload(0x40)\n  dup1\n  0x40\n  add\n  0x40\n  mstore\n  dup1\n  0x01\n  dup2\n  mstore\n  0x20\n  add\n  0x3000000000000000000000000000000000000000000000000000000000000000\n  dup2\n  mstore\n  pop\n  0x02\n  swap1\n  dup1\n  mload\n  swap1\n  0x20\n  add\n  swap1\n  tag_4\n  swap3\n  swap2\n  swap1\n  tag_2\n  jump\t// in\ntag_4:\n  pop\n    /* \"Initial Coin Offering (ICO)/ICO.sol\":1486:1617  constructor()\r... */\n  callvalue\n  dup1\n  iszero\n  tag_5\n  jumpi\n  0x00\n  dup1\n  revert\ntag_5:\n  pop\n    /* \"Initial Coin Offering (ICO)/ICO.sol\":1530:1536  100000 */\n  0x0186a0\n    /* \"Initial Coin Offering (ICO)/ICO.sol\":1516:1527  totalSupply */\n  0x03\n    /* \"Initial Coin Offering (ICO)/ICO.sol\":1516:1536  totalSupply = 100000 */\n  dup2\n  swap1\n  sstore\n  pop\n    /* \"Initial Coin Offering (ICO)/ICO.sol\":1557:1567  msg.sender */\n  caller\n    /* \"Initial Coin Offering (ICO)/ICO.sol\":1547:1554  Founder */\n  0x04\n  0x00\n    /* \"Initial Coin Offering (ICO)/ICO.sol\":1547:1567  Founder = msg.sender */\n  0x0100\n  exp\n  dup2\n  sload\n  dup2\n  0xffffffffffffffffffffffffffffffffffffffff\n  mul\n  not\n  and\n  swap1\n  dup4\n  0xffffffffffffffffffffffffffffffffffffffff\n  and\n  mul\n  or\n  swap1\n  sstore\n  pop\n    /* \"Initial Coin Offering (ICO)/ICO.sol\":1598:1609  totalSupply */\n  sload(0x03)\n    /* \"Initial Coin Offering (ICO)/ICO.sol\":1578:1586  balances */\n  0x05\n    /* \"Initial Coin Offering (ICO)/ICO.sol\":1578:1595  balances[Founder] */\n  0x00\n    /* \"Initial Coin Offering (ICO)/ICO.sol\":1587:1594  Founder */\n  0x04\n  0x00\n  swap1\n  sload\n  swap1\n  0x0100\n  exp\n  swap1\n  div\n  0xffffffffffffffffffffffffffffffffffffffff\n  and\n    /* \"Initial Coin Offering (ICO)/ICO.sol\":1578:1595  balances[Founder] */\n  0xffffffffffffffffffffffffffffffffffffffff\n  and\n  0xffffffffffffffffffffffffffffffffffffffff\n  and\n  dup2\n  mstore\n  0x20\n  add\n  swap1\n  dup2\n  mstore\n  0x20\n  add\n  0x00\n  keccak256\n    /* \"Initial Coin Offering (ICO)/ICO.sol\":1578:1609  balances[Founder] = totalSupply */\n  dup2\n  swap1\n  sstore\n  pop\n    /* \"Initial Coin Offering (ICO)/ICO.sol\":1058:2986  contract Block is ERC20Interface\r... */\n  jump(tag_8)\ntag_2:\n  dup3\n  dup1\n  sload\n  tag_9\n  swap1\n  tag_10\n  jump\t// in\ntag_9:\n  swap1\n  0x00\n  mstore\n  keccak256(0x00, 0x20)\n  swap1\n  0x1f\n  add\n  0x20\n  swap1\n  div\n  dup2\n  add\n  swap3\n  dup3\n  tag_12\n  jumpi\n  0x00\n  dup6\n  sstore\n  jump(tag_11)\ntag_12:\n  dup3\n  0x1f\n  lt\n  tag_13\n  jumpi\n  dup1\n  mload\n  not(0xff)\n  and\n  dup4\n  dup1\n  add\n  or\n  dup6\n  sstore\n  jump(tag_11)\ntag_13:\n  dup3\n  dup1\n  add\n  0x01\n  add\n  dup6\n  sstore\n  dup3\n  iszero\n  tag_11\n  jumpi\n  swap2\n  dup3\n  add\ntag_14:\n  dup3\n  dup2\n  gt\n  iszero\n  tag_15\n  jumpi\n  dup3\n  mload\n  dup3\n  sstore\n  swap2\n  0x20\n  add\n  swap2\n  swap1\n  0x01\n  add\n  swap1\n  jump(tag_14)\ntag_15:\ntag_11:\n  pop\n  swap1\n  pop\n  tag_16\n  swap2\n  swap1\n  tag_17\n  jump\t// in\ntag_16:\n  pop\n  swap1\n  jump\t// out\ntag_17:\ntag_18:\n  dup1\n  dup3\n  gt\n  iszero\n  tag_19\n  jumpi\n  0x00\n  dup2\n  0x00\n  swap1\n  sstore\n  pop\n  0x01\n  add\n  jump(tag_18)\ntag_19:\n  pop\n  swap1\n  jump\t// out\n    /* \"#utility.yul\":7:327   */\ntag_10:\n    /* \"#utility.yul\":51:57   */\n  0x00\n    /* \"#utility.yul\":88:89   */\n  0x02\n    /* \"#utility.yul\":82:86   */\n  dup3\n    /* \"#utility.yul\":78:90   */\n  div\n    /* \"#utility.yul\":68:90   */\n  swap1\n  pop\n    /* \"#utility.yul\":135:136   */\n  0x01\n    /* \"#utility.yul\":129:133   */\n  dup3\n    /* \"#utility.yul\":125:137   */\n  and\n    /* \"#utility.yul\":156:174   */\n  dup1\n    /* \"#utility.yul\":146:227   */\n  tag_22\n  jumpi\n    /* \"#utility.yul\":212:216   */\n  0x7f\n    /* \"#utility.yul\":204:210   */\n  dup3\n    /* \"#utility.yul\":200:217   */\n  and\n    /* \"#utility.yul\":190:217   */\n  swap2\n  pop\n    /* \"#utility.yul\":146:227   */\ntag_22:\n    /* \"#utility.yul\":274:276   */\n  0x20\n    /* \"#utility.yul\":266:272   */\n  dup3\n    /* \"#utility.yul\":263:277   */\n  lt\n    /* \"#utility.yul\":243:261   */\n  dup2\n    /* \"#utility.yul\":240:278   */\n  eq\n    /* \"#utility.yul\":237:321   */\n  iszero\n  tag_23\n  jumpi\n    /* \"#utility.yul\":293:311   */\n  tag_24\n  tag_25\n  jump\t// in\ntag_24:\n    /* \"#utility.yul\":237:321   */\ntag_23:\n    /* \"#utility.yul\":58:327   */\n  pop\n    /* \"#utility.yul\":7:327   */\n  swap2\n  swap1\n  pop\n  jump\t// out\n    /* \"#utility.yul\":333:513   */\ntag_25:\n    /* \"#utility.yul\":381:458   */\n  0x4e487b7100000000000000000000000000000000000000000000000000000000\n    /* \"#utility.yul\":378:379   */\n  0x00\n    /* \"#utility.yul\":371:459   */\n  mstore\n    /* \"#utility.yul\":478:482   */\n  0x22\n    /* \"#utility.yul\":475:476   */\n  0x04\n    /* \"#utility.yul\":468:483   */\n  mstore\n    /* \"#utility.yul\":502:506   */\n  0x24\n    /* \"#utility.yul\":499:500   */\n  0x00\n    /* \"#utility.yul\":492:507   */\n  revert\n    /* \"Initial Coin Offering (ICO)/ICO.sol\":1058:2986  contract Block is ERC20Interface\r... */\ntag_8:\n  dataSize(sub_0)\n  dup1\n  dataOffset(sub_0)\n  0x00\n  codecopy\n  0x00\n  return\nstop\n\nsub_0: assembly {\n        /* \"Initial Coin Offering (ICO)/ICO.sol\":1058:2986  contract Block is ERC20Interface\r... */\n      mstore(0x40, 0x80)\n      callvalue\n      dup1\n      iszero\n      tag_1\n      jumpi\n      0x00\n      dup1\n      revert\n    tag_1:\n      pop\n      jumpi(tag_2, lt(calldatasize, 0x04))\n      shr(0xe0, calldataload(0x00))\n      dup1\n      0x3278dc67\n      gt\n      tag_15\n      jumpi\n      dup1\n      0x3278dc67\n      eq\n      tag_9\n      jumpi\n      dup1\n      0x70a08231\n      eq\n      tag_10\n      jumpi\n      dup1\n      0x8052474d\n      eq\n      tag_11\n      jumpi\n      dup1\n      0xa9059cbb\n      eq\n      tag_12\n      jumpi\n      dup1\n      0xbb4e1149\n      eq\n      tag_13\n      jumpi\n      dup1\n      0xdd62ed3e\n      eq\n      tag_14\n      jumpi\n      jump(tag_2)\n    tag_15:\n      dup1\n      0x095ea7b3\n      eq\n      tag_3\n      jumpi\n      dup1\n      0x18160ddd\n      eq\n      tag_4\n      jumpi\n      dup1\n      0x1fe50c39\n      eq\n      tag_5\n      jumpi\n      dup1\n      0x27e235e3\n      eq\n      tag_6\n      jumpi\n      dup1\n      0x3045aaf3\n      eq\n      tag_7\n      jumpi\n      dup1\n      0x3112ae5b\n      eq\n      tag_8\n      jumpi\n    tag_2:\n      0x00\n      dup1\n      revert\n        /* \"Initial Coin Offering (ICO)/ICO.sol\":2194:2499  function approve(address spender, uint tokens) external override returns(bool success)\r... */\n    tag_3:\n      tag_16\n      0x04\n      dup1\n      calldatasize\n      sub\n      dup2\n      add\n      swap1\n      tag_17\n      swap2\n      swap1\n      tag_18\n      jump\t// in\n    tag_17:\n      tag_19\n      jump\t// in\n    tag_16:\n      mload(0x40)\n      tag_20\n      swap2\n      swap1\n      tag_21\n      jump\t// in\n    tag_20:\n      mload(0x40)\n      dup1\n      swap2\n      sub\n      swap1\n      return\n        /* \"Initial Coin Offering (ICO)/ICO.sol\":1231:1263  uint public override totalSupply */\n    tag_4:\n      tag_22\n      tag_23\n      jump\t// in\n    tag_22:\n      mload(0x40)\n      tag_24\n      swap2\n      swap1\n      tag_25\n      jump\t// in\n    tag_24:\n      mload(0x40)\n      dup1\n      swap2\n      sub\n      swap1\n      return\n        /* \"Initial Coin Offering (ICO)/ICO.sol\":1197:1224  string public Decimal = '0' */\n    tag_5:\n      tag_26\n      tag_27\n      jump\t// in\n    tag_26:\n      mload(0x40)\n      tag_28\n      swap2\n      swap1\n      tag_29\n      jump\t// in\n    tag_28:\n      mload(0x40)\n      dup1\n      swap2\n      sub\n      swap1\n      return\n        /* \"Initial Coin Offering (ICO)/ICO.sol\":1347:1385  mapping(address=>uint) public balances */\n    tag_6:\n      tag_30\n      0x04\n      dup1\n      calldatasize\n      sub\n      dup2\n      add\n      swap1\n      tag_31\n      swap2\n      swap1\n      tag_32\n      jump\t// in\n    tag_31:\n      tag_33\n      jump\t// in\n    tag_30:\n      mload(0x40)\n      tag_34\n      swap2\n      swap1\n      tag_25\n      jump\t// in\n    tag_34:\n      mload(0x40)\n      dup1\n      swap2\n      sub\n      swap1\n      return\n        /* \"Initial Coin Offering (ICO)/ICO.sol\":1160:1188  string public Symbol = \"BLK\" */\n    tag_7:\n      tag_35\n      tag_36\n      jump\t// in\n    tag_35:\n      mload(0x40)\n      tag_37\n      swap2\n      swap1\n      tag_29\n      jump\t// in\n    tag_37:\n      mload(0x40)\n      dup1\n      swap2\n      sub\n      swap1\n      return\n        /* \"Initial Coin Offering (ICO)/ICO.sol\":2678:2983  function transferForm(address From, address To, uint tokens) public override virtual returns(bool success)\r... */\n    tag_8:\n      tag_38\n      0x04\n      dup1\n      calldatasize\n      sub\n      dup2\n      add\n      swap1\n      tag_39\n      swap2\n      swap1\n      tag_40\n      jump\t// in\n    tag_39:\n      tag_41\n      jump\t// in\n    tag_38:\n      mload(0x40)\n      tag_42\n      swap2\n      swap1\n      tag_21\n      jump\t// in\n    tag_42:\n      mload(0x40)\n      dup1\n      swap2\n      sub\n      swap1\n      return\n        /* \"Initial Coin Offering (ICO)/ICO.sol\":1270:1292  address public Founder */\n    tag_9:\n      tag_43\n      tag_44\n      jump\t// in\n    tag_43:\n      mload(0x40)\n      tag_45\n      swap2\n      swap1\n      tag_46\n      jump\t// in\n    tag_45:\n      mload(0x40)\n      dup1\n      swap2\n      sub\n      swap1\n      return\n        /* \"Initial Coin Offering (ICO)/ICO.sol\":1625:1760  function balanceOf(address tokenOwner) external view override returns(uint balance)\r... */\n    tag_10:\n      tag_47\n      0x04\n      dup1\n      calldatasize\n      sub\n      dup2\n      add\n      swap1\n      tag_48\n      swap2\n      swap1\n      tag_32\n      jump\t// in\n    tag_48:\n      tag_49\n      jump\t// in\n    tag_47:\n      mload(0x40)\n      tag_50\n      swap2\n      swap1\n      tag_25\n      jump\t// in\n    tag_50:\n      mload(0x40)\n      dup1\n      swap2\n      sub\n      swap1\n      return\n        /* \"Initial Coin Offering (ICO)/ICO.sol\":1125:1153  string public Name = \"Block\" */\n    tag_11:\n      tag_51\n      tag_52\n      jump\t// in\n    tag_51:\n      mload(0x40)\n      tag_53\n      swap2\n      swap1\n      tag_29\n      jump\t// in\n    tag_53:\n      mload(0x40)\n      dup1\n      swap2\n      sub\n      swap1\n      return\n        /* \"Initial Coin Offering (ICO)/ICO.sol\":1768:2186  function transfer(address to, uint tokens) public override virtual returns(bool success)\r... */\n    tag_12:\n      tag_54\n      0x04\n      dup1\n      calldatasize\n      sub\n      dup2\n      add\n      swap1\n      tag_55\n      swap2\n      swap1\n      tag_18\n      jump\t// in\n    tag_55:\n      tag_56\n      jump\t// in\n    tag_54:\n      mload(0x40)\n      tag_57\n      swap2\n      swap1\n      tag_21\n      jump\t// in\n    tag_57:\n      mload(0x40)\n      dup1\n      swap2\n      sub\n      swap1\n      return\n        /* \"Initial Coin Offering (ICO)/ICO.sol\":1418:1477  mapping(address => mapping(address => uint)) public Allowed */\n    tag_13:\n      tag_58\n      0x04\n      dup1\n      calldatasize\n      sub\n      dup2\n      add\n      swap1\n      tag_59\n      swap2\n      swap1\n      tag_60\n      jump\t// in\n    tag_59:\n      tag_61\n      jump\t// in\n    tag_58:\n      mload(0x40)\n      tag_62\n      swap2\n      swap1\n      tag_25\n      jump\t// in\n    tag_62:\n      mload(0x40)\n      dup1\n      swap2\n      sub\n      swap1\n      return\n        /* \"Initial Coin Offering (ICO)/ICO.sol\":2507:2670  function allowance(address tokenOwner, address spender) external view override returns(uint NoOfTokens)\r... */\n    tag_14:\n      tag_63\n      0x04\n      dup1\n      calldatasize\n      sub\n      dup2\n      add\n      swap1\n      tag_64\n      swap2\n      swap1\n      tag_60\n      jump\t// in\n    tag_64:\n      tag_65\n      jump\t// in\n    tag_63:\n      mload(0x40)\n      tag_66\n      swap2\n      swap1\n      tag_25\n      jump\t// in\n    tag_66:\n      mload(0x40)\n      dup1\n      swap2\n      sub\n      swap1\n      return\n        /* \"Initial Coin Offering (ICO)/ICO.sol\":2194:2499  function approve(address spender, uint tokens) external override returns(bool success)\r... */\n    tag_19:\n        /* \"Initial Coin Offering (ICO)/ICO.sol\":2267:2279  bool success */\n      0x00\n        /* \"Initial Coin Offering (ICO)/ICO.sol\":2329:2335  tokens */\n      dup2\n        /* \"Initial Coin Offering (ICO)/ICO.sol\":2305:2313  balances */\n      0x05\n        /* \"Initial Coin Offering (ICO)/ICO.sol\":2305:2325  balances[msg.sender] */\n      0x00\n        /* \"Initial Coin Offering (ICO)/ICO.sol\":2314:2324  msg.sender */\n      caller\n        /* \"Initial Coin Offering (ICO)/ICO.sol\":2305:2325  balances[msg.sender] */\n      0xffffffffffffffffffffffffffffffffffffffff\n      and\n      0xffffffffffffffffffffffffffffffffffffffff\n      and\n      dup2\n      mstore\n      0x20\n      add\n      swap1\n      dup2\n      mstore\n      0x20\n      add\n      0x00\n      keccak256\n      sload\n        /* \"Initial Coin Offering (ICO)/ICO.sol\":2305:2335  balances[msg.sender] >= tokens */\n      lt\n      iszero\n        /* \"Initial Coin Offering (ICO)/ICO.sol\":2297:2336  require(balances[msg.sender] >= tokens) */\n      tag_68\n      jumpi\n      0x00\n      dup1\n      revert\n    tag_68:\n        /* \"Initial Coin Offering (ICO)/ICO.sol\":2364:2365  0 */\n      0x00\n        /* \"Initial Coin Offering (ICO)/ICO.sol\":2355:2361  tokens */\n      dup3\n        /* \"Initial Coin Offering (ICO)/ICO.sol\":2355:2365  tokens > 0 */\n      gt\n        /* \"Initial Coin Offering (ICO)/ICO.sol\":2347:2366  require(tokens > 0) */\n      tag_69\n      jumpi\n      0x00\n      dup1\n      revert\n    tag_69:\n        /* \"Initial Coin Offering (ICO)/ICO.sol\":2410:2416  tokens */\n      dup2\n        /* \"Initial Coin Offering (ICO)/ICO.sol\":2379:2386  Allowed */\n      0x06\n        /* \"Initial Coin Offering (ICO)/ICO.sol\":2379:2398  Allowed[msg.sender] */\n      0x00\n        /* \"Initial Coin Offering (ICO)/ICO.sol\":2387:2397  msg.sender */\n      caller\n        /* \"Initial Coin Offering (ICO)/ICO.sol\":2379:2398  Allowed[msg.sender] */\n      0xffffffffffffffffffffffffffffffffffffffff\n      and\n      0xffffffffffffffffffffffffffffffffffffffff\n      and\n      dup2\n      mstore\n      0x20\n      add\n      swap1\n      dup2\n      mstore\n      0x20\n      add\n      0x00\n      keccak256\n        /* \"Initial Coin Offering (ICO)/ICO.sol\":2379:2407  Allowed[msg.sender][spender] */\n      0x00\n        /* \"Initial Coin Offering (ICO)/ICO.sol\":2399:2406  spender */\n      dup6\n        /* \"Initial Coin Offering (ICO)/ICO.sol\":2379:2407  Allowed[msg.sender][spender] */\n      0xffffffffffffffffffffffffffffffffffffffff\n      and\n      0xffffffffffffffffffffffffffffffffffffffff\n      and\n      dup2\n      mstore\n      0x20\n      add\n      swap1\n      dup2\n      mstore\n      0x20\n      add\n      0x00\n      keccak256\n        /* \"Initial Coin Offering (ICO)/ICO.sol\":2379:2416  Allowed[msg.sender][spender] = tokens */\n      dup2\n      swap1\n      sstore\n      pop\n        /* \"Initial Coin Offering (ICO)/ICO.sol\":2453:2460  spender */\n      dup3\n        /* \"Initial Coin Offering (ICO)/ICO.sol\":2432:2469  Approval(msg.sender, spender, tokens) */\n      0xffffffffffffffffffffffffffffffffffffffff\n      and\n        /* \"Initial Coin Offering (ICO)/ICO.sol\":2441:2451  msg.sender */\n      caller\n        /* \"Initial Coin Offering (ICO)/ICO.sol\":2432:2469  Approval(msg.sender, spender, tokens) */\n      0xffffffffffffffffffffffffffffffffffffffff\n      and\n      0x8c5be1e5ebec7d5bd14f71427d1e84f3dd0314c0f7b2291e5b200ac8c7c3b925\n        /* \"Initial Coin Offering (ICO)/ICO.sol\":2462:2468  tokens */\n      dup5\n        /* \"Initial Coin Offering (ICO)/ICO.sol\":2432:2469  Approval(msg.sender, spender, tokens) */\n      mload(0x40)\n      tag_70\n      swap2\n      swap1\n      tag_25\n      jump\t// in\n    tag_70:\n      mload(0x40)\n      dup1\n      swap2\n      sub\n      swap1\n      log3\n        /* \"Initial Coin Offering (ICO)/ICO.sol\":2487:2491  true */\n      0x01\n        /* \"Initial Coin Offering (ICO)/ICO.sol\":2480:2491  return true */\n      swap1\n      pop\n        /* \"Initial Coin Offering (ICO)/ICO.sol\":2194:2499  function approve(address spender, uint tokens) external override returns(bool success)\r... */\n      swap3\n      swap2\n      pop\n      pop\n      jump\t// out\n        /* \"Initial Coin Offering (ICO)/ICO.sol\":1231:1263  uint public override totalSupply */\n    tag_23:\n      sload(0x03)\n      dup2\n      jump\t// out\n        /* \"Initial Coin Offering (ICO)/ICO.sol\":1197:1224  string public Decimal = '0' */\n    tag_27:\n      0x02\n      dup1\n      sload\n      tag_71\n      swap1\n      tag_72\n      jump\t// in\n    tag_71:\n      dup1\n      0x1f\n      add\n      0x20\n      dup1\n      swap2\n      div\n      mul\n      0x20\n      add\n      mload(0x40)\n      swap1\n      dup2\n      add\n      0x40\n      mstore\n      dup1\n      swap3\n      swap2\n      swap1\n      dup2\n      dup2\n      mstore\n      0x20\n      add\n      dup3\n      dup1\n      sload\n      tag_73\n      swap1\n      tag_72\n      jump\t// in\n    tag_73:\n      dup1\n      iszero\n      tag_74\n      jumpi\n      dup1\n      0x1f\n      lt\n      tag_75\n      jumpi\n      0x0100\n      dup1\n      dup4\n      sload\n      div\n      mul\n      dup4\n      mstore\n      swap2\n      0x20\n      add\n      swap2\n      jump(tag_74)\n    tag_75:\n      dup3\n      add\n      swap2\n      swap1\n      0x00\n      mstore\n      keccak256(0x00, 0x20)\n      swap1\n    tag_76:\n      dup2\n      sload\n      dup2\n      mstore\n      swap1\n      0x01\n      add\n      swap1\n      0x20\n      add\n      dup1\n      dup4\n      gt\n      tag_76\n      jumpi\n      dup3\n      swap1\n      sub\n      0x1f\n      and\n      dup3\n      add\n      swap2\n    tag_74:\n      pop\n      pop\n      pop\n      pop\n      pop\n      dup2\n      jump\t// out\n        /* \"Initial Coin Offering (ICO)/ICO.sol\":1347:1385  mapping(address=>uint) public balances */\n    tag_33:\n      mstore(0x20, 0x05)\n      dup1\n      0x00\n      mstore\n      keccak256(0x00, 0x40)\n      0x00\n      swap2\n      pop\n      swap1\n      pop\n      sload\n      dup2\n      jump\t// out\n        /* \"Initial Coin Offering (ICO)/ICO.sol\":1160:1188  string public Symbol = \"BLK\" */\n    tag_36:\n      0x01\n      dup1\n      sload\n      tag_77\n      swap1\n      tag_72\n      jump\t// in\n    tag_77:\n      dup1\n      0x1f\n      add\n      0x20\n      dup1\n      swap2\n      div\n      mul\n      0x20\n      add\n      mload(0x40)\n      swap1\n      dup2\n      add\n      0x40\n      mstore\n      dup1\n      swap3\n      swap2\n      swap1\n      dup2\n      dup2\n      mstore\n      0x20\n      add\n      dup3\n      dup1\n      sload\n      tag_78\n      swap1\n      tag_72\n      jump\t// in\n    tag_78:\n      dup1\n      iszero\n      tag_79\n      jumpi\n      dup1\n      0x1f\n      lt\n      tag_80\n      jumpi\n      0x0100\n      dup1\n      dup4\n      sload\n      div\n      mul\n      dup4\n      mstore\n      swap2\n      0x20\n      add\n      swap2\n      jump(tag_79)\n    tag_80:\n      dup3\n      add\n      swap2\n      swap1\n      0x00\n      mstore\n      keccak256(0x00, 0x20)\n      swap1\n    tag_81:\n      dup2\n      sload\n      dup2\n      mstore\n      swap1\n      0x01\n      add\n      swap1\n      0x20\n      add\n      dup1\n      dup4\n      gt\n      tag_81\n      jumpi\n      dup3\n      swap1\n      sub\n      0x1f\n      and\n      dup3\n      add\n      swap2\n    tag_79:\n      pop\n      pop\n      pop\n      pop\n      pop\n      dup2\n      jump\t// out\n        /* \"Initial Coin Offering (ICO)/ICO.sol\":2678:2983  function transferForm(address From, address To, uint tokens) public override virtual returns(bool success)\r... */\n    tag_41:\n        /* \"Initial Coin Offering (ICO)/ICO.sol\":2771:2783  bool success */\n      0x00\n        /* \"Initial Coin Offering (ICO)/ICO.sol\":2830:2836  tokens */\n      dup2\n        /* \"Initial Coin Offering (ICO)/ICO.sol\":2809:2816  Allowed */\n      0x06\n        /* \"Initial Coin Offering (ICO)/ICO.sol\":2809:2822  Allowed[From] */\n      0x00\n        /* \"Initial Coin Offering (ICO)/ICO.sol\":2817:2821  From */\n      dup7\n        /* \"Initial Coin Offering (ICO)/ICO.sol\":2809:2822  Allowed[From] */\n      0xffffffffffffffffffffffffffffffffffffffff\n      and\n      0xffffffffffffffffffffffffffffffffffffffff\n      and\n      dup2\n      mstore\n      0x20\n      add\n      swap1\n      dup2\n      mstore\n      0x20\n      add\n      0x00\n      keccak256\n        /* \"Initial Coin Offering (ICO)/ICO.sol\":2809:2826  Allowed[From][To] */\n      0x00\n        /* \"Initial Coin Offering (ICO)/ICO.sol\":2823:2825  To */\n      dup6\n        /* \"Initial Coin Offering (ICO)/ICO.sol\":2809:2826  Allowed[From][To] */\n      0xffffffffffffffffffffffffffffffffffffffff\n      and\n      0xffffffffffffffffffffffffffffffffffffffff\n      and\n      dup2\n      mstore\n      0x20\n      add\n      swap1\n      dup2\n      mstore\n      0x20\n      add\n      0x00\n      keccak256\n      sload\n        /* \"Initial Coin Offering (ICO)/ICO.sol\":2809:2836  Allowed[From][To] >= tokens */\n      lt\n      iszero\n        /* \"Initial Coin Offering (ICO)/ICO.sol\":2801:2837  require(Allowed[From][To] >= tokens) */\n      tag_83\n      jumpi\n      0x00\n      dup1\n      revert\n    tag_83:\n        /* \"Initial Coin Offering (ICO)/ICO.sol\":2874:2880  tokens */\n      dup2\n        /* \"Initial Coin Offering (ICO)/ICO.sol\":2856:2864  balances */\n      0x05\n        /* \"Initial Coin Offering (ICO)/ICO.sol\":2856:2870  balances[From] */\n      0x00\n        /* \"Initial Coin Offering (ICO)/ICO.sol\":2865:2869  From */\n      dup7\n        /* \"Initial Coin Offering (ICO)/ICO.sol\":2856:2870  balances[From] */\n      0xffffffffffffffffffffffffffffffffffffffff\n      and\n      0xffffffffffffffffffffffffffffffffffffffff\n      and\n      dup2\n      mstore\n      0x20\n      add\n      swap1\n      dup2\n      mstore\n      0x20\n      add\n      0x00\n      keccak256\n      sload\n        /* \"Initial Coin Offering (ICO)/ICO.sol\":2856:2880  balances[From] >= tokens */\n      lt\n      iszero\n        /* \"Initial Coin Offering (ICO)/ICO.sol\":2848:2881  require(balances[From] >= tokens) */\n      tag_84\n      jumpi\n      0x00\n      dup1\n      revert\n    tag_84:\n        /* \"Initial Coin Offering (ICO)/ICO.sol\":2912:2918  tokens */\n      dup2\n        /* \"Initial Coin Offering (ICO)/ICO.sol\":2894:2902  balances */\n      0x05\n        /* \"Initial Coin Offering (ICO)/ICO.sol\":2894:2908  balances[From] */\n      0x00\n        /* \"Initial Coin Offering (ICO)/ICO.sol\":2903:2907  From */\n      dup7\n        /* \"Initial Coin Offering (ICO)/ICO.sol\":2894:2908  balances[From] */\n      0xffffffffffffffffffffffffffffffffffffffff\n      and\n      0xffffffffffffffffffffffffffffffffffffffff\n      and\n      dup2\n      mstore\n      0x20\n      add\n      swap1\n      dup2\n      mstore\n      0x20\n      add\n      0x00\n      keccak256\n      0x00\n        /* \"Initial Coin Offering (ICO)/ICO.sol\":2894:2918  balances[From] -= tokens */\n      dup3\n      dup3\n      sload\n      tag_85\n      swap2\n      swap1\n      tag_86\n      jump\t// in\n    tag_85:\n      swap3\n      pop\n      pop\n      dup2\n      swap1\n      sstore\n      pop\n        /* \"Initial Coin Offering (ICO)/ICO.sol\":2945:2951  tokens */\n      dup2\n        /* \"Initial Coin Offering (ICO)/ICO.sol\":2929:2937  balances */\n      0x05\n        /* \"Initial Coin Offering (ICO)/ICO.sol\":2929:2941  balances[To] */\n      0x00\n        /* \"Initial Coin Offering (ICO)/ICO.sol\":2938:2940  To */\n      dup6\n        /* \"Initial Coin Offering (ICO)/ICO.sol\":2929:2941  balances[To] */\n      0xffffffffffffffffffffffffffffffffffffffff\n      and\n      0xffffffffffffffffffffffffffffffffffffffff\n      and\n      dup2\n      mstore\n      0x20\n      add\n      swap1\n      dup2\n      mstore\n      0x20\n      add\n      0x00\n      keccak256\n      0x00\n        /* \"Initial Coin Offering (ICO)/ICO.sol\":2929:2951  balances[To] += tokens */\n      dup3\n      dup3\n      sload\n      tag_87\n      swap2\n      swap1\n      tag_88\n      jump\t// in\n    tag_87:\n      swap3\n      pop\n      pop\n      dup2\n      swap1\n      sstore\n      pop\n        /* \"Initial Coin Offering (ICO)/ICO.sol\":2971:2975  true */\n      0x01\n        /* \"Initial Coin Offering (ICO)/ICO.sol\":2964:2975  return true */\n      swap1\n      pop\n        /* \"Initial Coin Offering (ICO)/ICO.sol\":2678:2983  function transferForm(address From, address To, uint tokens) public override virtual returns(bool success)\r... */\n      swap4\n      swap3\n      pop\n      pop\n      pop\n      jump\t// out\n        /* \"Initial Coin Offering (ICO)/ICO.sol\":1270:1292  address public Founder */\n    tag_44:\n      0x04\n      0x00\n      swap1\n      sload\n      swap1\n      0x0100\n      exp\n      swap1\n      div\n      0xffffffffffffffffffffffffffffffffffffffff\n      and\n      dup2\n      jump\t// out\n        /* \"Initial Coin Offering (ICO)/ICO.sol\":1625:1760  function balanceOf(address tokenOwner) external view override returns(uint balance)\r... */\n    tag_49:\n        /* \"Initial Coin Offering (ICO)/ICO.sol\":1695:1707  uint balance */\n      0x00\n        /* \"Initial Coin Offering (ICO)/ICO.sol\":1732:1740  balances */\n      0x05\n        /* \"Initial Coin Offering (ICO)/ICO.sol\":1732:1752  balances[tokenOwner] */\n      0x00\n        /* \"Initial Coin Offering (ICO)/ICO.sol\":1741:1751  tokenOwner */\n      dup4\n        /* \"Initial Coin Offering (ICO)/ICO.sol\":1732:1752  balances[tokenOwner] */\n      0xffffffffffffffffffffffffffffffffffffffff\n      and\n      0xffffffffffffffffffffffffffffffffffffffff\n      and\n      dup2\n      mstore\n      0x20\n      add\n      swap1\n      dup2\n      mstore\n      0x20\n      add\n      0x00\n      keccak256\n      sload\n        /* \"Initial Coin Offering (ICO)/ICO.sol\":1725:1752  return balances[tokenOwner] */\n      swap1\n      pop\n        /* \"Initial Coin Offering (ICO)/ICO.sol\":1625:1760  function balanceOf(address tokenOwner) external view override returns(uint balance)\r... */\n      swap2\n      swap1\n      pop\n      jump\t// out\n        /* \"Initial Coin Offering (ICO)/ICO.sol\":1125:1153  string public Name = \"Block\" */\n    tag_52:\n      0x00\n      dup1\n      sload\n      tag_90\n      swap1\n      tag_72\n      jump\t// in\n    tag_90:\n      dup1\n      0x1f\n      add\n      0x20\n      dup1\n      swap2\n      div\n      mul\n      0x20\n      add\n      mload(0x40)\n      swap1\n      dup2\n      add\n      0x40\n      mstore\n      dup1\n      swap3\n      swap2\n      swap1\n      dup2\n      dup2\n      mstore\n      0x20\n      add\n      dup3\n      dup1\n      sload\n      tag_91\n      swap1\n      tag_72\n      jump\t// in\n    tag_91:\n      dup1\n      iszero\n      tag_92\n      jumpi\n      dup1\n      0x1f\n      lt\n      tag_93\n      jumpi\n      0x0100\n      dup1\n      dup4\n      sload\n      div\n      mul\n      dup4\n      mstore\n      swap2\n      0x20\n      add\n      swap2\n      jump(tag_92)\n    tag_93:\n      dup3\n      add\n      swap2\n      swap1\n      0x00\n      mstore\n      keccak256(0x00, 0x20)\n      swap1\n    tag_94:\n      dup2\n      sload\n      dup2\n      mstore\n      swap1\n      0x01\n      add\n      swap1\n      0x20\n      add\n      dup1\n      dup4\n      gt\n      tag_94\n      jumpi\n      dup3\n      swap1\n      sub\n      0x1f\n      and\n      dup3\n      add\n      swap2\n    tag_92:\n      pop\n      pop\n      pop\n      pop\n      pop\n      dup2\n      jump\t// out\n        /* \"Initial Coin Offering (ICO)/ICO.sol\":1768:2186  function transfer(address to, uint tokens) public override virtual returns(bool success)\r... */\n    tag_56:\n        /* \"Initial Coin Offering (ICO)/ICO.sol\":1843:1855  bool success */\n      0x00\n        /* \"Initial Coin Offering (ICO)/ICO.sol\":1905:1911  tokens */\n      dup2\n        /* \"Initial Coin Offering (ICO)/ICO.sol\":1881:1889  balances */\n      0x05\n        /* \"Initial Coin Offering (ICO)/ICO.sol\":1881:1901  balances[msg.sender] */\n      0x00\n        /* \"Initial Coin Offering (ICO)/ICO.sol\":1890:1900  msg.sender */\n      caller\n        /* \"Initial Coin Offering (ICO)/ICO.sol\":1881:1901  balances[msg.sender] */\n      0xffffffffffffffffffffffffffffffffffffffff\n      and\n      0xffffffffffffffffffffffffffffffffffffffff\n      and\n      dup2\n      mstore\n      0x20\n      add\n      swap1\n      dup2\n      mstore\n      0x20\n      add\n      0x00\n      keccak256\n      sload\n        /* \"Initial Coin Offering (ICO)/ICO.sol\":1881:1911  balances[msg.sender] >= tokens */\n      lt\n      iszero\n        /* \"Initial Coin Offering (ICO)/ICO.sol\":1873:1912  require(balances[msg.sender] >= tokens) */\n      tag_96\n      jumpi\n      0x00\n      dup1\n      revert\n    tag_96:\n        /* \"Initial Coin Offering (ICO)/ICO.sol\":1996:2002  tokens */\n      dup2\n        /* \"Initial Coin Offering (ICO)/ICO.sol\":1981:1989  balances */\n      0x05\n        /* \"Initial Coin Offering (ICO)/ICO.sol\":1981:1993  balances[to] */\n      0x00\n        /* \"Initial Coin Offering (ICO)/ICO.sol\":1990:1992  to */\n      dup6\n        /* \"Initial Coin Offering (ICO)/ICO.sol\":1981:1993  balances[to] */\n      0xffffffffffffffffffffffffffffffffffffffff\n      and\n      0xffffffffffffffffffffffffffffffffffffffff\n      and\n      dup2\n      mstore\n      0x20\n      add\n      swap1\n      dup2\n      mstore\n      0x20\n      add\n      0x00\n      keccak256\n      sload\n        /* \"Initial Coin Offering (ICO)/ICO.sol\":1981:2002  balances[to] + tokens */\n      tag_97\n      swap2\n      swap1\n      tag_88\n      jump\t// in\n    tag_97:\n        /* \"Initial Coin Offering (ICO)/ICO.sol\":1966:1974  balances */\n      0x05\n        /* \"Initial Coin Offering (ICO)/ICO.sol\":1966:1978  balances[to] */\n      0x00\n        /* \"Initial Coin Offering (ICO)/ICO.sol\":1975:1977  to */\n      dup6\n        /* \"Initial Coin Offering (ICO)/ICO.sol\":1966:1978  balances[to] */\n      0xffffffffffffffffffffffffffffffffffffffff\n      and\n      0xffffffffffffffffffffffffffffffffffffffff\n      and\n      dup2\n      mstore\n      0x20\n      add\n      swap1\n      dup2\n      mstore\n      0x20\n      add\n      0x00\n      keccak256\n        /* \"Initial Coin Offering (ICO)/ICO.sol\":1966:2002  balances[to] = balances[to] + tokens */\n      dup2\n      swap1\n      sstore\n      pop\n        /* \"Initial Coin Offering (ICO)/ICO.sol\":2100:2106  tokens */\n      dup2\n        /* \"Initial Coin Offering (ICO)/ICO.sol\":2077:2085  balances */\n      0x05\n        /* \"Initial Coin Offering (ICO)/ICO.sol\":2077:2097  balances[msg.sender] */\n      0x00\n        /* \"Initial Coin Offering (ICO)/ICO.sol\":2086:2096  msg.sender */\n      caller\n        /* \"Initial Coin Offering (ICO)/ICO.sol\":2077:2097  balances[msg.sender] */\n      0xffffffffffffffffffffffffffffffffffffffff\n      and\n      0xffffffffffffffffffffffffffffffffffffffff\n      and\n      dup2\n      mstore\n      0x20\n      add\n      swap1\n      dup2\n      mstore\n      0x20\n      add\n      0x00\n      keccak256\n      sload\n        /* \"Initial Coin Offering (ICO)/ICO.sol\":2077:2106  balances[msg.sender] - tokens */\n      tag_98\n      swap2\n      swap1\n      tag_86\n      jump\t// in\n    tag_98:\n        /* \"Initial Coin Offering (ICO)/ICO.sol\":2054:2062  balances */\n      0x05\n        /* \"Initial Coin Offering (ICO)/ICO.sol\":2054:2074  balances[msg.sender] */\n      0x00\n        /* \"Initial Coin Offering (ICO)/ICO.sol\":2063:2073  msg.sender */\n      caller\n        /* \"Initial Coin Offering (ICO)/ICO.sol\":2054:2074  balances[msg.sender] */\n      0xffffffffffffffffffffffffffffffffffffffff\n      and\n      0xffffffffffffffffffffffffffffffffffffffff\n      and\n      dup2\n      mstore\n      0x20\n      add\n      swap1\n      dup2\n      mstore\n      0x20\n      add\n      0x00\n      keccak256\n        /* \"Initial Coin Offering (ICO)/ICO.sol\":2054:2106  balances[msg.sender] = balances[msg.sender] - tokens */\n      dup2\n      swap1\n      sstore\n      pop\n        /* \"Initial Coin Offering (ICO)/ICO.sol\":2145:2147  to */\n      dup3\n        /* \"Initial Coin Offering (ICO)/ICO.sol\":2124:2156  Transfer(msg.sender, to, tokens) */\n      0xffffffffffffffffffffffffffffffffffffffff\n      and\n        /* \"Initial Coin Offering (ICO)/ICO.sol\":2133:2143  msg.sender */\n      caller\n        /* \"Initial Coin Offering (ICO)/ICO.sol\":2124:2156  Transfer(msg.sender, to, tokens) */\n      0xffffffffffffffffffffffffffffffffffffffff\n      and\n      0xddf252ad1be2c89b69c2b068fc378daa952ba7f163c4a11628f55a4df523b3ef\n        /* \"Initial Coin Offering (ICO)/ICO.sol\":2149:2155  tokens */\n      dup5\n        /* \"Initial Coin Offering (ICO)/ICO.sol\":2124:2156  Transfer(msg.sender, to, tokens) */\n      mload(0x40)\n      tag_99\n      swap2\n      swap1\n      tag_25\n      jump\t// in\n    tag_99:\n      mload(0x40)\n      dup1\n      swap2\n      sub\n      swap1\n      log3\n        /* \"Initial Coin Offering (ICO)/ICO.sol\":2174:2178  true */\n      0x01\n        /* \"Initial Coin Offering (ICO)/ICO.sol\":2167:2178  return true */\n      swap1\n      pop\n        /* \"Initial Coin Offering (ICO)/ICO.sol\":1768:2186  function transfer(address to, uint tokens) public override virtual returns(bool success)\r... */\n      swap3\n      swap2\n      pop\n      pop\n      jump\t// out\n        /* \"Initial Coin Offering (ICO)/ICO.sol\":1418:1477  mapping(address => mapping(address => uint)) public Allowed */\n    tag_61:\n      mstore(0x20, 0x06)\n      dup2\n      0x00\n      mstore\n      mstore(0x20, keccak256(0x00, 0x40))\n      dup1\n      0x00\n      mstore\n      keccak256(0x00, 0x40)\n      0x00\n      swap2\n      pop\n      swap2\n      pop\n      pop\n      sload\n      dup2\n      jump\t// out\n        /* \"Initial Coin Offering (ICO)/ICO.sol\":2507:2670  function allowance(address tokenOwner, address spender) external view override returns(uint NoOfTokens)\r... */\n    tag_65:\n        /* \"Initial Coin Offering (ICO)/ICO.sol\":2594:2609  uint NoOfTokens */\n      0x00\n        /* \"Initial Coin Offering (ICO)/ICO.sol\":2634:2641  Allowed */\n      0x06\n        /* \"Initial Coin Offering (ICO)/ICO.sol\":2634:2653  Allowed[tokenOwner] */\n      0x00\n        /* \"Initial Coin Offering (ICO)/ICO.sol\":2642:2652  tokenOwner */\n      dup5\n        /* \"Initial Coin Offering (ICO)/ICO.sol\":2634:2653  Allowed[tokenOwner] */\n      0xffffffffffffffffffffffffffffffffffffffff\n      and\n      0xffffffffffffffffffffffffffffffffffffffff\n      and\n      dup2\n      mstore\n      0x20\n      add\n      swap1\n      dup2\n      mstore\n      0x20\n      add\n      0x00\n      keccak256\n        /* \"Initial Coin Offering (ICO)/ICO.sol\":2634:2662  Allowed[tokenOwner][spender] */\n      0x00\n        /* \"Initial Coin Offering (ICO)/ICO.sol\":2654:2661  spender */\n      dup4\n        /* \"Initial Coin Offering (ICO)/ICO.sol\":2634:2662  Allowed[tokenOwner][spender] */\n      0xffffffffffffffffffffffffffffffffffffffff\n      and\n      0xffffffffffffffffffffffffffffffffffffffff\n      and\n      dup2\n      mstore\n      0x20\n      add\n      swap1\n      dup2\n      mstore\n      0x20\n      add\n      0x00\n      keccak256\n      sload\n        /* \"Initial Coin Offering (ICO)/ICO.sol\":2627:2662  return Allowed[tokenOwner][spender] */\n      swap1\n      pop\n        /* \"Initial Coin Offering (ICO)/ICO.sol\":2507:2670  function allowance(address tokenOwner, address spender) external view override returns(uint NoOfTokens)\r... */\n      swap3\n      swap2\n      pop\n      pop\n      jump\t// out\n        /* \"#utility.yul\":7:146   */\n    tag_102:\n        /* \"#utility.yul\":53:58   */\n      0x00\n        /* \"#utility.yul\":91:97   */\n      dup2\n        /* \"#utility.yul\":78:98   */\n      calldataload\n        /* \"#utility.yul\":69:98   */\n      swap1\n      pop\n        /* \"#utility.yul\":107:140   */\n      tag_104\n        /* \"#utility.yul\":134:139   */\n      dup2\n        /* \"#utility.yul\":107:140   */\n      tag_105\n      jump\t// in\n    tag_104:\n        /* \"#utility.yul\":7:146   */\n      swap3\n      swap2\n      pop\n      pop\n      jump\t// out\n        /* \"#utility.yul\":152:291   */\n    tag_106:\n        /* \"#utility.yul\":198:203   */\n      0x00\n        /* \"#utility.yul\":236:242   */\n      dup2\n        /* \"#utility.yul\":223:243   */\n      calldataload\n        /* \"#utility.yul\":214:243   */\n      swap1\n      pop\n        /* \"#utility.yul\":252:285   */\n      tag_108\n        /* \"#utility.yul\":279:284   */\n      dup2\n        /* \"#utility.yul\":252:285   */\n      tag_109\n      jump\t// in\n    tag_108:\n        /* \"#utility.yul\":152:291   */\n      swap3\n      swap2\n      pop\n      pop\n      jump\t// out\n        /* \"#utility.yul\":297:626   */\n    tag_32:\n        /* \"#utility.yul\":356:362   */\n      0x00\n        /* \"#utility.yul\":405:407   */\n      0x20\n        /* \"#utility.yul\":393:402   */\n      dup3\n        /* \"#utility.yul\":384:391   */\n      dup5\n        /* \"#utility.yul\":380:403   */\n      sub\n        /* \"#utility.yul\":376:408   */\n      slt\n        /* \"#utility.yul\":373:492   */\n      iszero\n      tag_111\n      jumpi\n        /* \"#utility.yul\":411:490   */\n      tag_112\n      tag_113\n      jump\t// in\n    tag_112:\n        /* \"#utility.yul\":373:492   */\n    tag_111:\n        /* \"#utility.yul\":531:532   */\n      0x00\n        /* \"#utility.yul\":556:609   */\n      tag_114\n        /* \"#utility.yul\":601:608   */\n      dup5\n        /* \"#utility.yul\":592:598   */\n      dup3\n        /* \"#utility.yul\":581:590   */\n      dup6\n        /* \"#utility.yul\":577:599   */\n      add\n        /* \"#utility.yul\":556:609   */\n      tag_102\n      jump\t// in\n    tag_114:\n        /* \"#utility.yul\":546:609   */\n      swap2\n      pop\n        /* \"#utility.yul\":502:619   */\n      pop\n        /* \"#utility.yul\":297:626   */\n      swap3\n      swap2\n      pop\n      pop\n      jump\t// out\n        /* \"#utility.yul\":632:1106   */\n    tag_60:\n        /* \"#utility.yul\":700:706   */\n      0x00\n        /* \"#utility.yul\":708:714   */\n      dup1\n        /* \"#utility.yul\":757:759   */\n      0x40\n        /* \"#utility.yul\":745:754   */\n      dup4\n        /* \"#utility.yul\":736:743   */\n      dup6\n        /* \"#utility.yul\":732:755   */\n      sub\n        /* \"#utility.yul\":728:760   */\n      slt\n        /* \"#utility.yul\":725:844   */\n      iszero\n      tag_116\n      jumpi\n        /* \"#utility.yul\":763:842   */\n      tag_117\n      tag_113\n      jump\t// in\n    tag_117:\n        /* \"#utility.yul\":725:844   */\n    tag_116:\n        /* \"#utility.yul\":883:884   */\n      0x00\n        /* \"#utility.yul\":908:961   */\n      tag_118\n        /* \"#utility.yul\":953:960   */\n      dup6\n        /* \"#utility.yul\":944:950   */\n      dup3\n        /* \"#utility.yul\":933:942   */\n      dup7\n        /* \"#utility.yul\":929:951   */\n      add\n        /* \"#utility.yul\":908:961   */\n      tag_102\n      jump\t// in\n    tag_118:\n        /* \"#utility.yul\":898:961   */\n      swap3\n      pop\n        /* \"#utility.yul\":854:971   */\n      pop\n        /* \"#utility.yul\":1010:1012   */\n      0x20\n        /* \"#utility.yul\":1036:1089   */\n      tag_119\n        /* \"#utility.yul\":1081:1088   */\n      dup6\n        /* \"#utility.yul\":1072:1078   */\n      dup3\n        /* \"#utility.yul\":1061:1070   */\n      dup7\n        /* \"#utility.yul\":1057:1079   */\n      add\n        /* \"#utility.yul\":1036:1089   */\n      tag_102\n      jump\t// in\n    tag_119:\n        /* \"#utility.yul\":1026:1089   */\n      swap2\n      pop\n        /* \"#utility.yul\":981:1099   */\n      pop\n        /* \"#utility.yul\":632:1106   */\n      swap3\n      pop\n      swap3\n      swap1\n      pop\n      jump\t// out\n        /* \"#utility.yul\":1112:1731   */\n    tag_40:\n        /* \"#utility.yul\":1189:1195   */\n      0x00\n        /* \"#utility.yul\":1197:1203   */\n      dup1\n        /* \"#utility.yul\":1205:1211   */\n      0x00\n        /* \"#utility.yul\":1254:1256   */\n      0x60\n        /* \"#utility.yul\":1242:1251   */\n      dup5\n        /* \"#utility.yul\":1233:1240   */\n      dup7\n        /* \"#utility.yul\":1229:1252   */\n      sub\n        /* \"#utility.yul\":1225:1257   */\n      slt\n        /* \"#utility.yul\":1222:1341   */\n      iszero\n      tag_121\n      jumpi\n        /* \"#utility.yul\":1260:1339   */\n      tag_122\n      tag_113\n      jump\t// in\n    tag_122:\n        /* \"#utility.yul\":1222:1341   */\n    tag_121:\n        /* \"#utility.yul\":1380:1381   */\n      0x00\n        /* \"#utility.yul\":1405:1458   */\n      tag_123\n        /* \"#utility.yul\":1450:1457   */\n      dup7\n        /* \"#utility.yul\":1441:1447   */\n      dup3\n        /* \"#utility.yul\":1430:1439   */\n      dup8\n        /* \"#utility.yul\":1426:1448   */\n      add\n        /* \"#utility.yul\":1405:1458   */\n      tag_102\n      jump\t// in\n    tag_123:\n        /* \"#utility.yul\":1395:1458   */\n      swap4\n      pop\n        /* \"#utility.yul\":1351:1468   */\n      pop\n        /* \"#utility.yul\":1507:1509   */\n      0x20\n        /* \"#utility.yul\":1533:1586   */\n      tag_124\n        /* \"#utility.yul\":1578:1585   */\n      dup7\n        /* \"#utility.yul\":1569:1575   */\n      dup3\n        /* \"#utility.yul\":1558:1567   */\n      dup8\n        /* \"#utility.yul\":1554:1576   */\n      add\n        /* \"#utility.yul\":1533:1586   */\n      tag_102\n      jump\t// in\n    tag_124:\n        /* \"#utility.yul\":1523:1586   */\n      swap3\n      pop\n        /* \"#utility.yul\":1478:1596   */\n      pop\n        /* \"#utility.yul\":1635:1637   */\n      0x40\n        /* \"#utility.yul\":1661:1714   */\n      tag_125\n        /* \"#utility.yul\":1706:1713   */\n      dup7\n        /* \"#utility.yul\":1697:1703   */\n      dup3\n        /* \"#utility.yul\":1686:1695   */\n      dup8\n        /* \"#utility.yul\":1682:1704   */\n      add\n        /* \"#utility.yul\":1661:1714   */\n      tag_106\n      jump\t// in\n    tag_125:\n        /* \"#utility.yul\":1651:1714   */\n      swap2\n      pop\n        /* \"#utility.yul\":1606:1724   */\n      pop\n        /* \"#utility.yul\":1112:1731   */\n      swap3\n      pop\n      swap3\n      pop\n      swap3\n      jump\t// out\n        /* \"#utility.yul\":1737:2211   */\n    tag_18:\n        /* \"#utility.yul\":1805:1811   */\n      0x00\n        /* \"#utility.yul\":1813:1819   */\n      dup1\n        /* \"#utility.yul\":1862:1864   */\n      0x40\n        /* \"#utility.yul\":1850:1859   */\n      dup4\n        /* \"#utility.yul\":1841:1848   */\n      dup6\n        /* \"#utility.yul\":1837:1860   */\n      sub\n        /* \"#utility.yul\":1833:1865   */\n      slt\n        /* \"#utility.yul\":1830:1949   */\n      iszero\n      tag_127\n      jumpi\n        /* \"#utility.yul\":1868:1947   */\n      tag_128\n      tag_113\n      jump\t// in\n    tag_128:\n        /* \"#utility.yul\":1830:1949   */\n    tag_127:\n        /* \"#utility.yul\":1988:1989   */\n      0x00\n        /* \"#utility.yul\":2013:2066   */\n      tag_129\n        /* \"#utility.yul\":2058:2065   */\n      dup6\n        /* \"#utility.yul\":2049:2055   */\n      dup3\n        /* \"#utility.yul\":2038:2047   */\n      dup7\n        /* \"#utility.yul\":2034:2056   */\n      add\n        /* \"#utility.yul\":2013:2066   */\n      tag_102\n      jump\t// in\n    tag_129:\n        /* \"#utility.yul\":2003:2066   */\n      swap3\n      pop\n        /* \"#utility.yul\":1959:2076   */\n      pop\n        /* \"#utility.yul\":2115:2117   */\n      0x20\n        /* \"#utility.yul\":2141:2194   */\n      tag_130\n        /* \"#utility.yul\":2186:2193   */\n      dup6\n        /* \"#utility.yul\":2177:2183   */\n      dup3\n        /* \"#utility.yul\":2166:2175   */\n      dup7\n        /* \"#utility.yul\":2162:2184   */\n      add\n        /* \"#utility.yul\":2141:2194   */\n      tag_106\n      jump\t// in\n    tag_130:\n        /* \"#utility.yul\":2131:2194   */\n      swap2\n      pop\n        /* \"#utility.yul\":2086:2204   */\n      pop\n        /* \"#utility.yul\":1737:2211   */\n      swap3\n      pop\n      swap3\n      swap1\n      pop\n      jump\t// out\n        /* \"#utility.yul\":2217:2335   */\n    tag_131:\n        /* \"#utility.yul\":2304:2328   */\n      tag_133\n        /* \"#utility.yul\":2322:2327   */\n      dup2\n        /* \"#utility.yul\":2304:2328   */\n      tag_134\n      jump\t// in\n    tag_133:\n        /* \"#utility.yul\":2299:2302   */\n      dup3\n        /* \"#utility.yul\":2292:2329   */\n      mstore\n        /* \"#utility.yul\":2217:2335   */\n      pop\n      pop\n      jump\t// out\n        /* \"#utility.yul\":2341:2450   */\n    tag_135:\n        /* \"#utility.yul\":2422:2443   */\n      tag_137\n        /* \"#utility.yul\":2437:2442   */\n      dup2\n        /* \"#utility.yul\":2422:2443   */\n      tag_138\n      jump\t// in\n    tag_137:\n        /* \"#utility.yul\":2417:2420   */\n      dup3\n        /* \"#utility.yul\":2410:2444   */\n      mstore\n        /* \"#utility.yul\":2341:2450   */\n      pop\n      pop\n      jump\t// out\n        /* \"#utility.yul\":2456:2820   */\n    tag_139:\n        /* \"#utility.yul\":2544:2547   */\n      0x00\n        /* \"#utility.yul\":2572:2611   */\n      tag_141\n        /* \"#utility.yul\":2605:2610   */\n      dup3\n        /* \"#utility.yul\":2572:2611   */\n      tag_142\n      jump\t// in\n    tag_141:\n        /* \"#utility.yul\":2627:2698   */\n      tag_143\n        /* \"#utility.yul\":2691:2697   */\n      dup2\n        /* \"#utility.yul\":2686:2689   */\n      dup6\n        /* \"#utility.yul\":2627:2698   */\n      tag_144\n      jump\t// in\n    tag_143:\n        /* \"#utility.yul\":2620:2698   */\n      swap4\n      pop\n        /* \"#utility.yul\":2707:2759   */\n      tag_145\n        /* \"#utility.yul\":2752:2758   */\n      dup2\n        /* \"#utility.yul\":2747:2750   */\n      dup6\n        /* \"#utility.yul\":2740:2744   */\n      0x20\n        /* \"#utility.yul\":2733:2738   */\n      dup7\n        /* \"#utility.yul\":2729:2745   */\n      add\n        /* \"#utility.yul\":2707:2759   */\n      tag_146\n      jump\t// in\n    tag_145:\n        /* \"#utility.yul\":2784:2813   */\n      tag_147\n        /* \"#utility.yul\":2806:2812   */\n      dup2\n        /* \"#utility.yul\":2784:2813   */\n      tag_148\n      jump\t// in\n    tag_147:\n        /* \"#utility.yul\":2779:2782   */\n      dup5\n        /* \"#utility.yul\":2775:2814   */\n      add\n        /* \"#utility.yul\":2768:2814   */\n      swap2\n      pop\n        /* \"#utility.yul\":2548:2820   */\n      pop\n        /* \"#utility.yul\":2456:2820   */\n      swap3\n      swap2\n      pop\n      pop\n      jump\t// out\n        /* \"#utility.yul\":2826:2944   */\n    tag_149:\n        /* \"#utility.yul\":2913:2937   */\n      tag_151\n        /* \"#utility.yul\":2931:2936   */\n      dup2\n        /* \"#utility.yul\":2913:2937   */\n      tag_152\n      jump\t// in\n    tag_151:\n        /* \"#utility.yul\":2908:2911   */\n      dup3\n        /* \"#utility.yul\":2901:2938   */\n      mstore\n        /* \"#utility.yul\":2826:2944   */\n      pop\n      pop\n      jump\t// out\n        /* \"#utility.yul\":2950:3172   */\n    tag_46:\n        /* \"#utility.yul\":3043:3047   */\n      0x00\n        /* \"#utility.yul\":3081:3083   */\n      0x20\n        /* \"#utility.yul\":3070:3079   */\n      dup3\n        /* \"#utility.yul\":3066:3084   */\n      add\n        /* \"#utility.yul\":3058:3084   */\n      swap1\n      pop\n        /* \"#utility.yul\":3094:3165   */\n      tag_154\n        /* \"#utility.yul\":3162:3163   */\n      0x00\n        /* \"#utility.yul\":3151:3160   */\n      dup4\n        /* \"#utility.yul\":3147:3164   */\n      add\n        /* \"#utility.yul\":3138:3144   */\n      dup5\n        /* \"#utility.yul\":3094:3165   */\n      tag_131\n      jump\t// in\n    tag_154:\n        /* \"#utility.yul\":2950:3172   */\n      swap3\n      swap2\n      pop\n      pop\n      jump\t// out\n        /* \"#utility.yul\":3178:3388   */\n    tag_21:\n        /* \"#utility.yul\":3265:3269   */\n      0x00\n        /* \"#utility.yul\":3303:3305   */\n      0x20\n        /* \"#utility.yul\":3292:3301   */\n      dup3\n        /* \"#utility.yul\":3288:3306   */\n      add\n        /* \"#utility.yul\":3280:3306   */\n      swap1\n      pop\n        /* \"#utility.yul\":3316:3381   */\n      tag_156\n        /* \"#utility.yul\":3378:3379   */\n      0x00\n        /* \"#utility.yul\":3367:3376   */\n      dup4\n        /* \"#utility.yul\":3363:3380   */\n      add\n        /* \"#utility.yul\":3354:3360   */\n      dup5\n        /* \"#utility.yul\":3316:3381   */\n      tag_135\n      jump\t// in\n    tag_156:\n        /* \"#utility.yul\":3178:3388   */\n      swap3\n      swap2\n      pop\n      pop\n      jump\t// out\n        /* \"#utility.yul\":3394:3707   */\n    tag_29:\n        /* \"#utility.yul\":3507:3511   */\n      0x00\n        /* \"#utility.yul\":3545:3547   */\n      0x20\n        /* \"#utility.yul\":3534:3543   */\n      dup3\n        /* \"#utility.yul\":3530:3548   */\n      add\n        /* \"#utility.yul\":3522:3548   */\n      swap1\n      pop\n        /* \"#utility.yul\":3594:3603   */\n      dup2\n        /* \"#utility.yul\":3588:3592   */\n      dup2\n        /* \"#utility.yul\":3584:3604   */\n      sub\n        /* \"#utility.yul\":3580:3581   */\n      0x00\n        /* \"#utility.yul\":3569:3578   */\n      dup4\n        /* \"#utility.yul\":3565:3582   */\n      add\n        /* \"#utility.yul\":3558:3605   */\n      mstore\n        /* \"#utility.yul\":3622:3700   */\n      tag_158\n        /* \"#utility.yul\":3695:3699   */\n      dup2\n        /* \"#utility.yul\":3686:3692   */\n      dup5\n        /* \"#utility.yul\":3622:3700   */\n      tag_139\n      jump\t// in\n    tag_158:\n        /* \"#utility.yul\":3614:3700   */\n      swap1\n      pop\n        /* \"#utility.yul\":3394:3707   */\n      swap3\n      swap2\n      pop\n      pop\n      jump\t// out\n        /* \"#utility.yul\":3713:3935   */\n    tag_25:\n        /* \"#utility.yul\":3806:3810   */\n      0x00\n        /* \"#utility.yul\":3844:3846   */\n      0x20\n        /* \"#utility.yul\":3833:3842   */\n      dup3\n        /* \"#utility.yul\":3829:3847   */\n      add\n        /* \"#utility.yul\":3821:3847   */\n      swap1\n      pop\n        /* \"#utility.yul\":3857:3928   */\n      tag_160\n        /* \"#utility.yul\":3925:3926   */\n      0x00\n        /* \"#utility.yul\":3914:3923   */\n      dup4\n        /* \"#utility.yul\":3910:3927   */\n      add\n        /* \"#utility.yul\":3901:3907   */\n      dup5\n        /* \"#utility.yul\":3857:3928   */\n      tag_149\n      jump\t// in\n    tag_160:\n        /* \"#utility.yul\":3713:3935   */\n      swap3\n      swap2\n      pop\n      pop\n      jump\t// out\n        /* \"#utility.yul\":4022:4121   */\n    tag_142:\n        /* \"#utility.yul\":4074:4080   */\n      0x00\n        /* \"#utility.yul\":4108:4113   */\n      dup2\n        /* \"#utility.yul\":4102:4114   */\n      mload\n        /* \"#utility.yul\":4092:4114   */\n      swap1\n      pop\n        /* \"#utility.yul\":4022:4121   */\n      swap2\n      swap1\n      pop\n      jump\t// out\n        /* \"#utility.yul\":4127:4296   */\n    tag_144:\n        /* \"#utility.yul\":4211:4222   */\n      0x00\n        /* \"#utility.yul\":4245:4251   */\n      dup3\n        /* \"#utility.yul\":4240:4243   */\n      dup3\n        /* \"#utility.yul\":4233:4252   */\n      mstore\n        /* \"#utility.yul\":4285:4289   */\n      0x20\n        /* \"#utility.yul\":4280:4283   */\n      dup3\n        /* \"#utility.yul\":4276:4290   */\n      add\n        /* \"#utility.yul\":4261:4290   */\n      swap1\n      pop\n        /* \"#utility.yul\":4127:4296   */\n      swap3\n      swap2\n      pop\n      pop\n      jump\t// out\n        /* \"#utility.yul\":4302:4607   */\n    tag_88:\n        /* \"#utility.yul\":4342:4345   */\n      0x00\n        /* \"#utility.yul\":4361:4381   */\n      tag_166\n        /* \"#utility.yul\":4379:4380   */\n      dup3\n        /* \"#utility.yul\":4361:4381   */\n      tag_152\n      jump\t// in\n    tag_166:\n        /* \"#utility.yul\":4356:4381   */\n      swap2\n      pop\n        /* \"#utility.yul\":4395:4415   */\n      tag_167\n        /* \"#utility.yul\":4413:4414   */\n      dup4\n        /* \"#utility.yul\":4395:4415   */\n      tag_152\n      jump\t// in\n    tag_167:\n        /* \"#utility.yul\":4390:4415   */\n      swap3\n      pop\n        /* \"#utility.yul\":4549:4550   */\n      dup3\n        /* \"#utility.yul\":4481:4547   */\n      0xffffffffffffffffffffffffffffffffffffffffffffffffffffffffffffffff\n        /* \"#utility.yul\":4477:4551   */\n      sub\n        /* \"#utility.yul\":4474:4475   */\n      dup3\n        /* \"#utility.yul\":4471:4552   */\n      gt\n        /* \"#utility.yul\":4468:4575   */\n      iszero\n      tag_168\n      jumpi\n        /* \"#utility.yul\":4555:4573   */\n      tag_169\n      tag_170\n      jump\t// in\n    tag_169:\n        /* \"#utility.yul\":4468:4575   */\n    tag_168:\n        /* \"#utility.yul\":4599:4600   */\n      dup3\n        /* \"#utility.yul\":4596:4597   */\n      dup3\n        /* \"#utility.yul\":4592:4601   */\n      add\n        /* \"#utility.yul\":4585:4601   */\n      swap1\n      pop\n        /* \"#utility.yul\":4302:4607   */\n      swap3\n      swap2\n      pop\n      pop\n      jump\t// out\n        /* \"#utility.yul\":4613:4804   */\n    tag_86:\n        /* \"#utility.yul\":4653:4657   */\n      0x00\n        /* \"#utility.yul\":4673:4693   */\n      tag_172\n        /* \"#utility.yul\":4691:4692   */\n      dup3\n        /* \"#utility.yul\":4673:4693   */\n      tag_152\n      jump\t// in\n    tag_172:\n        /* \"#utility.yul\":4668:4693   */\n      swap2\n      pop\n        /* \"#utility.yul\":4707:4727   */\n      tag_173\n        /* \"#utility.yul\":4725:4726   */\n      dup4\n        /* \"#utility.yul\":4707:4727   */\n      tag_152\n      jump\t// in\n    tag_173:\n        /* \"#utility.yul\":4702:4727   */\n      swap3\n      pop\n        /* \"#utility.yul\":4746:4747   */\n      dup3\n        /* \"#utility.yul\":4743:4744   */\n      dup3\n        /* \"#utility.yul\":4740:4748   */\n      lt\n        /* \"#utility.yul\":4737:4771   */\n      iszero\n      tag_174\n      jumpi\n        /* \"#utility.yul\":4751:4769   */\n      tag_175\n      tag_170\n      jump\t// in\n    tag_175:\n        /* \"#utility.yul\":4737:4771   */\n    tag_174:\n        /* \"#utility.yul\":4796:4797   */\n      dup3\n        /* \"#utility.yul\":4793:4794   */\n      dup3\n        /* \"#utility.yul\":4789:4798   */\n      sub\n        /* \"#utility.yul\":4781:4798   */\n      swap1\n      pop\n        /* \"#utility.yul\":4613:4804   */\n      swap3\n      swap2\n      pop\n      pop\n      jump\t// out\n        /* \"#utility.yul\":4810:4906   */\n    tag_134:\n        /* \"#utility.yul\":4847:4854   */\n      0x00\n        /* \"#utility.yul\":4876:4900   */\n      tag_177\n        /* \"#utility.yul\":4894:4899   */\n      dup3\n        /* \"#utility.yul\":4876:4900   */\n      tag_178\n      jump\t// in\n    tag_177:\n        /* \"#utility.yul\":4865:4900   */\n      swap1\n      pop\n        /* \"#utility.yul\":4810:4906   */\n      swap2\n      swap1\n      pop\n      jump\t// out\n        /* \"#utility.yul\":4912:5002   */\n    tag_138:\n        /* \"#utility.yul\":4946:4953   */\n      0x00\n        /* \"#utility.yul\":4989:4994   */\n      dup2\n        /* \"#utility.yul\":4982:4995   */\n      iszero\n        /* \"#utility.yul\":4975:4996   */\n      iszero\n        /* \"#utility.yul\":4964:4996   */\n      swap1\n      pop\n        /* \"#utility.yul\":4912:5002   */\n      swap2\n      swap1\n      pop\n      jump\t// out\n        /* \"#utility.yul\":5008:5134   */\n    tag_178:\n        /* \"#utility.yul\":5045:5052   */\n      0x00\n        /* \"#utility.yul\":5085:5127   */\n      0xffffffffffffffffffffffffffffffffffffffff\n        /* \"#utility.yul\":5078:5083   */\n      dup3\n        /* \"#utility.yul\":5074:5128   */\n      and\n        /* \"#utility.yul\":5063:5128   */\n      swap1\n      pop\n        /* \"#utility.yul\":5008:5134   */\n      swap2\n      swap1\n      pop\n      jump\t// out\n        /* \"#utility.yul\":5140:5217   */\n    tag_152:\n        /* \"#utility.yul\":5177:5184   */\n      0x00\n        /* \"#utility.yul\":5206:5211   */\n      dup2\n        /* \"#utility.yul\":5195:5211   */\n      swap1\n      pop\n        /* \"#utility.yul\":5140:5217   */\n      swap2\n      swap1\n      pop\n      jump\t// out\n        /* \"#utility.yul\":5223:5530   */\n    tag_146:\n        /* \"#utility.yul\":5291:5292   */\n      0x00\n        /* \"#utility.yul\":5301:5414   */\n    tag_183:\n        /* \"#utility.yul\":5315:5321   */\n      dup4\n        /* \"#utility.yul\":5312:5313   */\n      dup2\n        /* \"#utility.yul\":5309:5322   */\n      lt\n        /* \"#utility.yul\":5301:5414   */\n      iszero\n      tag_185\n      jumpi\n        /* \"#utility.yul\":5400:5401   */\n      dup1\n        /* \"#utility.yul\":5395:5398   */\n      dup3\n        /* \"#utility.yul\":5391:5402   */\n      add\n        /* \"#utility.yul\":5385:5403   */\n      mload\n        /* \"#utility.yul\":5381:5382   */\n      dup2\n        /* \"#utility.yul\":5376:5379   */\n      dup5\n        /* \"#utility.yul\":5372:5383   */\n      add\n        /* \"#utility.yul\":5365:5404   */\n      mstore\n        /* \"#utility.yul\":5337:5339   */\n      0x20\n        /* \"#utility.yul\":5334:5335   */\n      dup2\n        /* \"#utility.yul\":5330:5340   */\n      add\n        /* \"#utility.yul\":5325:5340   */\n      swap1\n      pop\n        /* \"#utility.yul\":5301:5414   */\n      jump(tag_183)\n    tag_185:\n        /* \"#utility.yul\":5432:5438   */\n      dup4\n        /* \"#utility.yul\":5429:5430   */\n      dup2\n        /* \"#utility.yul\":5426:5439   */\n      gt\n        /* \"#utility.yul\":5423:5524   */\n      iszero\n      tag_186\n      jumpi\n        /* \"#utility.yul\":5512:5513   */\n      0x00\n        /* \"#utility.yul\":5503:5509   */\n      dup5\n        /* \"#utility.yul\":5498:5501   */\n      dup5\n        /* \"#utility.yul\":5494:5510   */\n      add\n        /* \"#utility.yul\":5487:5514   */\n      mstore\n        /* \"#utility.yul\":5423:5524   */\n    tag_186:\n        /* \"#utility.yul\":5272:5530   */\n      pop\n        /* \"#utility.yul\":5223:5530   */\n      pop\n      pop\n      pop\n      jump\t// out\n        /* \"#utility.yul\":5536:5856   */\n    tag_72:\n        /* \"#utility.yul\":5580:5586   */\n      0x00\n        /* \"#utility.yul\":5617:5618   */\n      0x02\n        /* \"#utility.yul\":5611:5615   */\n      dup3\n        /* \"#utility.yul\":5607:5619   */\n      div\n        /* \"#utility.yul\":5597:5619   */\n      swap1\n      pop\n        /* \"#utility.yul\":5664:5665   */\n      0x01\n        /* \"#utility.yul\":5658:5662   */\n      dup3\n        /* \"#utility.yul\":5654:5666   */\n      and\n        /* \"#utility.yul\":5685:5703   */\n      dup1\n        /* \"#utility.yul\":5675:5756   */\n      tag_188\n      jumpi\n        /* \"#utility.yul\":5741:5745   */\n      0x7f\n        /* \"#utility.yul\":5733:5739   */\n      dup3\n        /* \"#utility.yul\":5729:5746   */\n      and\n        /* \"#utility.yul\":5719:5746   */\n      swap2\n      pop\n        /* \"#utility.yul\":5675:5756   */\n    tag_188:\n        /* \"#utility.yul\":5803:5805   */\n      0x20\n        /* \"#utility.yul\":5795:5801   */\n      dup3\n        /* \"#utility.yul\":5792:5806   */\n      lt\n        /* \"#utility.yul\":5772:5790   */\n      dup2\n        /* \"#utility.yul\":5769:5807   */\n      eq\n        /* \"#utility.yul\":5766:5850   */\n      iszero\n      tag_189\n      jumpi\n        /* \"#utility.yul\":5822:5840   */\n      tag_190\n      tag_191\n      jump\t// in\n    tag_190:\n        /* \"#utility.yul\":5766:5850   */\n    tag_189:\n        /* \"#utility.yul\":5587:5856   */\n      pop\n        /* \"#utility.yul\":5536:5856   */\n      swap2\n      swap1\n      pop\n      jump\t// out\n        /* \"#utility.yul\":5862:6042   */\n    tag_170:\n        /* \"#utility.yul\":5910:5987   */\n      0x4e487b7100000000000000000000000000000000000000000000000000000000\n        /* \"#utility.yul\":5907:5908   */\n      0x00\n        /* \"#utility.yul\":5900:5988   */\n      mstore\n        /* \"#utility.yul\":6007:6011   */\n      0x11\n        /* \"#utility.yul\":6004:6005   */\n      0x04\n        /* \"#utility.yul\":5997:6012   */\n      mstore\n        /* \"#utility.yul\":6031:6035   */\n      0x24\n        /* \"#utility.yul\":6028:6029   */\n      0x00\n        /* \"#utility.yul\":6021:6036   */\n      revert\n        /* \"#utility.yul\":6048:6228   */\n    tag_191:\n        /* \"#utility.yul\":6096:6173   */\n      0x4e487b7100000000000000000000000000000000000000000000000000000000\n        /* \"#utility.yul\":6093:6094   */\n      0x00\n        /* \"#utility.yul\":6086:6174   */\n      mstore\n        /* \"#utility.yul\":6193:6197   */\n      0x22\n        /* \"#utility.yul\":6190:6191   */\n      0x04\n        /* \"#utility.yul\":6183:6198   */\n      mstore\n        /* \"#utility.yul\":6217:6221   */\n      0x24\n        /* \"#utility.yul\":6214:6215   */\n      0x00\n        /* \"#utility.yul\":6207:6222   */\n      revert\n        /* \"#utility.yul\":6357:6474   */\n    tag_113:\n        /* \"#utility.yul\":6466:6467   */\n      0x00\n        /* \"#utility.yul\":6463:6464   */\n      dup1\n        /* \"#utility.yul\":6456:6468   */\n      revert\n        /* \"#utility.yul\":6480:6582   */\n    tag_148:\n        /* \"#utility.yul\":6521:6527   */\n      0x00\n        /* \"#utility.yul\":6572:6574   */\n      0x1f\n        /* \"#utility.yul\":6568:6575   */\n      not\n        /* \"#utility.yul\":6563:6565   */\n      0x1f\n        /* \"#utility.yul\":6556:6561   */\n      dup4\n        /* \"#utility.yul\":6552:6566   */\n      add\n        /* \"#utility.yul\":6548:6576   */\n      and\n        /* \"#utility.yul\":6538:6576   */\n      swap1\n      pop\n        /* \"#utility.yul\":6480:6582   */\n      swap2\n      swap1\n      pop\n      jump\t// out\n        /* \"#utility.yul\":6588:6710   */\n    tag_105:\n        /* \"#utility.yul\":6661:6685   */\n      tag_199\n        /* \"#utility.yul\":6679:6684   */\n      dup2\n        /* \"#utility.yul\":6661:6685   */\n      tag_134\n      jump\t// in\n    tag_199:\n        /* \"#utility.yul\":6654:6659   */\n      dup2\n        /* \"#utility.yul\":6651:6686   */\n      eq\n        /* \"#utility.yul\":6641:6704   */\n      tag_200\n      jumpi\n        /* \"#utility.yul\":6700:6701   */\n      0x00\n        /* \"#utility.yul\":6697:6698   */\n      dup1\n        /* \"#utility.yul\":6690:6702   */\n      revert\n        /* \"#utility.yul\":6641:6704   */\n    tag_200:\n        /* \"#utility.yul\":6588:6710   */\n      pop\n      jump\t// out\n        /* \"#utility.yul\":6716:6838   */\n    tag_109:\n        /* \"#utility.yul\":6789:6813   */\n      tag_202\n        /* \"#utility.yul\":6807:6812   */\n      dup2\n        /* \"#utility.yul\":6789:6813   */\n      tag_152\n      jump\t// in\n    tag_202:\n        /* \"#utility.yul\":6782:6787   */\n      dup2\n        /* \"#utility.yul\":6779:6814   */\n      eq\n        /* \"#utility.yul\":6769:6832   */\n      tag_203\n      jumpi\n        /* \"#utility.yul\":6828:6829   */\n      0x00\n        /* \"#utility.yul\":6825:6826   */\n      dup1\n        /* \"#utility.yul\":6818:6830   */\n      revert\n        /* \"#utility.yul\":6769:6832   */\n    tag_203:\n        /* \"#utility.yul\":6716:6838   */\n      pop\n      jump\t// out\n\n    auxdata: 0xa2646970667358221220675d0bf64b2f41bd15ab9ef9b2b081f1fb5708d91a99580b38d7cf19a3a2622464736f6c63430008070033\n}\n",
				"bytecode": {
					"linkReferences": {},
					"object": "60806040526040518060400160405280600581526020017f426c6f636b0000000000000000000000000000000000000000000000000000008152506000908051906020019062000051929190620001b5565b506040518060400160405280600381526020017f424c4b0000000000000000000000000000000000000000000000000000000000815250600190805190602001906200009f929190620001b5565b506040518060400160405280600181526020017f300000000000000000000000000000000000000000000000000000000000000081525060029080519060200190620000ed929190620001b5565b50348015620000fb57600080fd5b50620186a060038190555033600460006101000a81548173ffffffffffffffffffffffffffffffffffffffff021916908373ffffffffffffffffffffffffffffffffffffffff16021790555060035460056000600460009054906101000a900473ffffffffffffffffffffffffffffffffffffffff1673ffffffffffffffffffffffffffffffffffffffff1673ffffffffffffffffffffffffffffffffffffffff16815260200190815260200160002081905550620002ca565b828054620001c39062000265565b90600052602060002090601f016020900481019282620001e7576000855562000233565b82601f106200020257805160ff191683800117855562000233565b8280016001018555821562000233579182015b828111156200023257825182559160200191906001019062000215565b5b50905062000242919062000246565b5090565b5b808211156200026157600081600090555060010162000247565b5090565b600060028204905060018216806200027e57607f821691505b602082108114156200029557620002946200029b565b5b50919050565b7f4e487b7100000000000000000000000000000000000000000000000000000000600052602260045260246000fd5b610e6280620002da6000396000f3fe608060405234801561001057600080fd5b50600436106100b45760003560e01c80633278dc67116100715780633278dc67146101a357806370a08231146101c15780638052474d146101f1578063a9059cbb1461020f578063bb4e11491461023f578063dd62ed3e1461026f576100b4565b8063095ea7b3146100b957806318160ddd146100e95780631fe50c391461010757806327e235e3146101255780633045aaf3146101555780633112ae5b14610173575b600080fd5b6100d360048036038101906100ce9190610b1e565b61029f565b6040516100e09190610bdf565b60405180910390f35b6100f16103ea565b6040516100fe9190610c1c565b60405180910390f35b61010f6103f0565b60405161011c9190610bfa565b60405180910390f35b61013f600480360381019061013a9190610a5e565b61047e565b60405161014c9190610c1c565b60405180910390f35b61015d610496565b60405161016a9190610bfa565b60405180910390f35b61018d60048036038101906101889190610acb565b610524565b60405161019a9190610bdf565b60405180910390f35b6101ab6106b2565b6040516101b89190610bc4565b60405180910390f35b6101db60048036038101906101d69190610a5e565b6106d8565b6040516101e89190610c1c565b60405180910390f35b6101f9610721565b6040516102069190610bfa565b60405180910390f35b61022960048036038101906102249190610b1e565b6107af565b6040516102369190610bdf565b60405180910390f35b61025960048036038101906102549190610a8b565b610988565b6040516102669190610c1c565b60405180910390f35b61028960048036038101906102849190610a8b565b6109ad565b6040516102969190610c1c565b60405180910390f35b600081600560003373ffffffffffffffffffffffffffffffffffffffff1673ffffffffffffffffffffffffffffffffffffffff1681526020019081526020016000205410156102ed57600080fd5b600082116102fa57600080fd5b81600660003373ffffffffffffffffffffffffffffffffffffffff1673ffffffffffffffffffffffffffffffffffffffff16815260200190815260200160002060008573ffffffffffffffffffffffffffffffffffffffff1673ffffffffffffffffffffffffffffffffffffffff168152602001908152602001600020819055508273ffffffffffffffffffffffffffffffffffffffff163373ffffffffffffffffffffffffffffffffffffffff167f8c5be1e5ebec7d5bd14f71427d1e84f3dd0314c0f7b2291e5b200ac8c7c3b925846040516103d89190610c1c565b60405180910390a36001905092915050565b60035481565b600280546103fd90610d58565b80601f016020809104026020016040519081016040528092919081815260200182805461042990610d58565b80156104765780601f1061044b57610100808354040283529160200191610476565b820191906000526020600020905b81548152906001019060200180831161045957829003601f168201915b505050505081565b60056020528060005260406000206000915090505481565b600180546104a390610d58565b80601f01602080910402602001604051908101604052809291908181526020018280546104cf90610d58565b801561051c5780601f106104f15761010080835404028352916020019161051c565b820191906000526020600020905b8154815290600101906020018083116104ff57829003601f168201915b505050505081565b600081600660008673ffffffffffffffffffffffffffffffffffffffff1673ffffffffffffffffffffffffffffffffffffffff16815260200190815260200160002060008573ffffffffffffffffffffffffffffffffffffffff1673ffffffffffffffffffffffffffffffffffffffff1681526020019081526020016000205410156105af57600080fd5b81600560008673ffffffffffffffffffffffffffffffffffffffff1673ffffffffffffffffffffffffffffffffffffffff1681526020019081526020016000205410156105fb57600080fd5b81600560008673ffffffffffffffffffffffffffffffffffffffff1673ffffffffffffffffffffffffffffffffffffffff168152602001908152602001600020600082825461064a9190610ca9565b9250508190555081600560008573ffffffffffffffffffffffffffffffffffffffff1673ffffffffffffffffffffffffffffffffffffffff16815260200190815260200160002060008282546106a09190610c53565b92505081905550600190509392505050565b600460009054906101000a900473ffffffffffffffffffffffffffffffffffffffff1681565b6000600560008373ffffffffffffffffffffffffffffffffffffffff1673ffffffffffffffffffffffffffffffffffffffff168152602001908152602001600020549050919050565b6000805461072e90610d58565b80601f016020809104026020016040519081016040528092919081815260200182805461075a90610d58565b80156107a75780601f1061077c576101008083540402835291602001916107a7565b820191906000526020600020905b81548152906001019060200180831161078a57829003601f168201915b505050505081565b600081600560003373ffffffffffffffffffffffffffffffffffffffff1673ffffffffffffffffffffffffffffffffffffffff1681526020019081526020016000205410156107fd57600080fd5b81600560008573ffffffffffffffffffffffffffffffffffffffff1673ffffffffffffffffffffffffffffffffffffffff168152602001908152602001600020546108489190610c53565b600560008573ffffffffffffffffffffffffffffffffffffffff1673ffffffffffffffffffffffffffffffffffffffff1681526020019081526020016000208190555081600560003373ffffffffffffffffffffffffffffffffffffffff1673ffffffffffffffffffffffffffffffffffffffff168152602001908152602001600020546108d69190610ca9565b600560003373ffffffffffffffffffffffffffffffffffffffff1673ffffffffffffffffffffffffffffffffffffffff168152602001908152602001600020819055508273ffffffffffffffffffffffffffffffffffffffff163373ffffffffffffffffffffffffffffffffffffffff167fddf252ad1be2c89b69c2b068fc378daa952ba7f163c4a11628f55a4df523b3ef846040516109769190610c1c565b60405180910390a36001905092915050565b6006602052816000526040600020602052806000526040600020600091509150505481565b6000600660008473ffffffffffffffffffffffffffffffffffffffff1673ffffffffffffffffffffffffffffffffffffffff16815260200190815260200160002060008373ffffffffffffffffffffffffffffffffffffffff1673ffffffffffffffffffffffffffffffffffffffff16815260200190815260200160002054905092915050565b600081359050610a4381610dfe565b92915050565b600081359050610a5881610e15565b92915050565b600060208284031215610a7457610a73610de8565b5b6000610a8284828501610a34565b91505092915050565b60008060408385031215610aa257610aa1610de8565b5b6000610ab085828601610a34565b9250506020610ac185828601610a34565b9150509250929050565b600080600060608486031215610ae457610ae3610de8565b5b6000610af286828701610a34565b9350506020610b0386828701610a34565b9250506040610b1486828701610a49565b9150509250925092565b60008060408385031215610b3557610b34610de8565b5b6000610b4385828601610a34565b9250506020610b5485828601610a49565b9150509250929050565b610b6781610cdd565b82525050565b610b7681610cef565b82525050565b6000610b8782610c37565b610b918185610c42565b9350610ba1818560208601610d25565b610baa81610ded565b840191505092915050565b610bbe81610d1b565b82525050565b6000602082019050610bd96000830184610b5e565b92915050565b6000602082019050610bf46000830184610b6d565b92915050565b60006020820190508181036000830152610c148184610b7c565b905092915050565b6000602082019050610c316000830184610bb5565b92915050565b600081519050919050565b600082825260208201905092915050565b6000610c5e82610d1b565b9150610c6983610d1b565b9250827fffffffffffffffffffffffffffffffffffffffffffffffffffffffffffffffff03821115610c9e57610c9d610d8a565b5b828201905092915050565b6000610cb482610d1b565b9150610cbf83610d1b565b925082821015610cd257610cd1610d8a565b5b828203905092915050565b6000610ce882610cfb565b9050919050565b60008115159050919050565b600073ffffffffffffffffffffffffffffffffffffffff82169050919050565b6000819050919050565b60005b83811015610d43578082015181840152602081019050610d28565b83811115610d52576000848401525b50505050565b60006002820490506001821680610d7057607f821691505b60208210811415610d8457610d83610db9565b5b50919050565b7f4e487b7100000000000000000000000000000000000000000000000000000000600052601160045260246000fd5b7f4e487b7100000000000000000000000000000000000000000000000000000000600052602260045260246000fd5b600080fd5b6000601f19601f8301169050919050565b610e0781610cdd565b8114610e1257600080fd5b50565b610e1e81610d1b565b8114610e2957600080fd5b5056fea2646970667358221220675d0bf64b2f41bd15ab9ef9b2b081f1fb5708d91a99580b38d7cf19a3a2622464736f6c63430008070033",
					"opcodes": "PUSH1 0x80 PUSH1 0x40 MSTORE PUSH1 0x40 MLOAD DUP1 PUSH1 0x40 ADD PUSH1 0x40 MSTORE DUP1 PUSH1 0x5 DUP2 MSTORE PUSH1 0x20 ADD PUSH32 0x426C6F636B000000000000000000000000000000000000000000000000000000 DUP2 MSTORE POP PUSH1 0x0 SWAP1 DUP1 MLOAD SWAP1 PUSH1 0x20 ADD SWAP1 PUSH3 0x51 SWAP3 SWAP2 SWAP1 PUSH3 0x1B5 JUMP JUMPDEST POP PUSH1 0x40 MLOAD DUP1 PUSH1 0x40 ADD PUSH1 0x40 MSTORE DUP1 PUSH1 0x3 DUP2 MSTORE PUSH1 0x20 ADD PUSH32 0x424C4B0000000000000000000000000000000000000000000000000000000000 DUP2 MSTORE POP PUSH1 0x1 SWAP1 DUP1 MLOAD SWAP1 PUSH1 0x20 ADD SWAP1 PUSH3 0x9F SWAP3 SWAP2 SWAP1 PUSH3 0x1B5 JUMP JUMPDEST POP PUSH1 0x40 MLOAD DUP1 PUSH1 0x40 ADD PUSH1 0x40 MSTORE DUP1 PUSH1 0x1 DUP2 MSTORE PUSH1 0x20 ADD PUSH32 0x3000000000000000000000000000000000000000000000000000000000000000 DUP2 MSTORE POP PUSH1 0x2 SWAP1 DUP1 MLOAD SWAP1 PUSH1 0x20 ADD SWAP1 PUSH3 0xED SWAP3 SWAP2 SWAP1 PUSH3 0x1B5 JUMP JUMPDEST POP CALLVALUE DUP1 ISZERO PUSH3 0xFB JUMPI PUSH1 0x0 DUP1 REVERT JUMPDEST POP PUSH3 0x186A0 PUSH1 0x3 DUP2 SWAP1 SSTORE POP CALLER PUSH1 0x4 PUSH1 0x0 PUSH2 0x100 EXP DUP2 SLOAD DUP2 PUSH20 0xFFFFFFFFFFFFFFFFFFFFFFFFFFFFFFFFFFFFFFFF MUL NOT AND SWAP1 DUP4 PUSH20 0xFFFFFFFFFFFFFFFFFFFFFFFFFFFFFFFFFFFFFFFF AND MUL OR SWAP1 SSTORE POP PUSH1 0x3 SLOAD PUSH1 0x5 PUSH1 0x0 PUSH1 0x4 PUSH1 0x0 SWAP1 SLOAD SWAP1 PUSH2 0x100 EXP SWAP1 DIV PUSH20 0xFFFFFFFFFFFFFFFFFFFFFFFFFFFFFFFFFFFFFFFF AND PUSH20 0xFFFFFFFFFFFFFFFFFFFFFFFFFFFFFFFFFFFFFFFF AND PUSH20 0xFFFFFFFFFFFFFFFFFFFFFFFFFFFFFFFFFFFFFFFF AND DUP2 MSTORE PUSH1 0x20 ADD SWAP1 DUP2 MSTORE PUSH1 0x20 ADD PUSH1 0x0 KECCAK256 DUP2 SWAP1 SSTORE POP PUSH3 0x2CA JUMP JUMPDEST DUP3 DUP1 SLOAD PUSH3 0x1C3 SWAP1 PUSH3 0x265 JUMP JUMPDEST SWAP1 PUSH1 0x0 MSTORE PUSH1 0x20 PUSH1 0x0 KECCAK256 SWAP1 PUSH1 0x1F ADD PUSH1 0x20 SWAP1 DIV DUP2 ADD SWAP3 DUP3 PUSH3 0x1E7 JUMPI PUSH1 0x0 DUP6 SSTORE PUSH3 0x233 JUMP JUMPDEST DUP3 PUSH1 0x1F LT PUSH3 0x202 JUMPI DUP1 MLOAD PUSH1 0xFF NOT AND DUP4 DUP1 ADD OR DUP6 SSTORE PUSH3 0x233 JUMP JUMPDEST DUP3 DUP1 ADD PUSH1 0x1 ADD DUP6 SSTORE DUP3 ISZERO PUSH3 0x233 JUMPI SWAP2 DUP3 ADD JUMPDEST DUP3 DUP2 GT ISZERO PUSH3 0x232 JUMPI DUP3 MLOAD DUP3 SSTORE SWAP2 PUSH1 0x20 ADD SWAP2 SWAP1 PUSH1 0x1 ADD SWAP1 PUSH3 0x215 JUMP JUMPDEST JUMPDEST POP SWAP1 POP PUSH3 0x242 SWAP2 SWAP1 PUSH3 0x246 JUMP JUMPDEST POP SWAP1 JUMP JUMPDEST JUMPDEST DUP1 DUP3 GT ISZERO PUSH3 0x261 JUMPI PUSH1 0x0 DUP2 PUSH1 0x0 SWAP1 SSTORE POP PUSH1 0x1 ADD PUSH3 0x247 JUMP JUMPDEST POP SWAP1 JUMP JUMPDEST PUSH1 0x0 PUSH1 0x2 DUP3 DIV SWAP1 POP PUSH1 0x1 DUP3 AND DUP1 PUSH3 0x27E JUMPI PUSH1 0x7F DUP3 AND SWAP2 POP JUMPDEST PUSH1 0x20 DUP3 LT DUP2 EQ ISZERO PUSH3 0x295 JUMPI PUSH3 0x294 PUSH3 0x29B JUMP JUMPDEST JUMPDEST POP SWAP2 SWAP1 POP JUMP JUMPDEST PUSH32 0x4E487B7100000000000000000000000000000000000000000000000000000000 PUSH1 0x0 MSTORE PUSH1 0x22 PUSH1 0x4 MSTORE PUSH1 0x24 PUSH1 0x0 REVERT JUMPDEST PUSH2 0xE62 DUP1 PUSH3 0x2DA PUSH1 0x0 CODECOPY PUSH1 0x0 RETURN INVALID PUSH1 0x80 PUSH1 0x40 MSTORE CALLVALUE DUP1 ISZERO PUSH2 0x10 JUMPI PUSH1 0x0 DUP1 REVERT JUMPDEST POP PUSH1 0x4 CALLDATASIZE LT PUSH2 0xB4 JUMPI PUSH1 0x0 CALLDATALOAD PUSH1 0xE0 SHR DUP1 PUSH4 0x3278DC67 GT PUSH2 0x71 JUMPI DUP1 PUSH4 0x3278DC67 EQ PUSH2 0x1A3 JUMPI DUP1 PUSH4 0x70A08231 EQ PUSH2 0x1C1 JUMPI DUP1 PUSH4 0x8052474D EQ PUSH2 0x1F1 JUMPI DUP1 PUSH4 0xA9059CBB EQ PUSH2 0x20F JUMPI DUP1 PUSH4 0xBB4E1149 EQ PUSH2 0x23F JUMPI DUP1 PUSH4 0xDD62ED3E EQ PUSH2 0x26F JUMPI PUSH2 0xB4 JUMP JUMPDEST DUP1 PUSH4 0x95EA7B3 EQ PUSH2 0xB9 JUMPI DUP1 PUSH4 0x18160DDD EQ PUSH2 0xE9 JUMPI DUP1 PUSH4 0x1FE50C39 EQ PUSH2 0x107 JUMPI DUP1 PUSH4 0x27E235E3 EQ PUSH2 0x125 JUMPI DUP1 PUSH4 0x3045AAF3 EQ PUSH2 0x155 JUMPI DUP1 PUSH4 0x3112AE5B EQ PUSH2 0x173 JUMPI JUMPDEST PUSH1 0x0 DUP1 REVERT JUMPDEST PUSH2 0xD3 PUSH1 0x4 DUP1 CALLDATASIZE SUB DUP2 ADD SWAP1 PUSH2 0xCE SWAP2 SWAP1 PUSH2 0xB1E JUMP JUMPDEST PUSH2 0x29F JUMP JUMPDEST PUSH1 0x40 MLOAD PUSH2 0xE0 SWAP2 SWAP1 PUSH2 0xBDF JUMP JUMPDEST PUSH1 0x40 MLOAD DUP1 SWAP2 SUB SWAP1 RETURN JUMPDEST PUSH2 0xF1 PUSH2 0x3EA JUMP JUMPDEST PUSH1 0x40 MLOAD PUSH2 0xFE SWAP2 SWAP1 PUSH2 0xC1C JUMP JUMPDEST PUSH1 0x40 MLOAD DUP1 SWAP2 SUB SWAP1 RETURN JUMPDEST PUSH2 0x10F PUSH2 0x3F0 JUMP JUMPDEST PUSH1 0x40 MLOAD PUSH2 0x11C SWAP2 SWAP1 PUSH2 0xBFA JUMP JUMPDEST PUSH1 0x40 MLOAD DUP1 SWAP2 SUB SWAP1 RETURN JUMPDEST PUSH2 0x13F PUSH1 0x4 DUP1 CALLDATASIZE SUB DUP2 ADD SWAP1 PUSH2 0x13A SWAP2 SWAP1 PUSH2 0xA5E JUMP JUMPDEST PUSH2 0x47E JUMP JUMPDEST PUSH1 0x40 MLOAD PUSH2 0x14C SWAP2 SWAP1 PUSH2 0xC1C JUMP JUMPDEST PUSH1 0x40 MLOAD DUP1 SWAP2 SUB SWAP1 RETURN JUMPDEST PUSH2 0x15D PUSH2 0x496 JUMP JUMPDEST PUSH1 0x40 MLOAD PUSH2 0x16A SWAP2 SWAP1 PUSH2 0xBFA JUMP JUMPDEST PUSH1 0x40 MLOAD DUP1 SWAP2 SUB SWAP1 RETURN JUMPDEST PUSH2 0x18D PUSH1 0x4 DUP1 CALLDATASIZE SUB DUP2 ADD SWAP1 PUSH2 0x188 SWAP2 SWAP1 PUSH2 0xACB JUMP JUMPDEST PUSH2 0x524 JUMP JUMPDEST PUSH1 0x40 MLOAD PUSH2 0x19A SWAP2 SWAP1 PUSH2 0xBDF JUMP JUMPDEST PUSH1 0x40 MLOAD DUP1 SWAP2 SUB SWAP1 RETURN JUMPDEST PUSH2 0x1AB PUSH2 0x6B2 JUMP JUMPDEST PUSH1 0x40 MLOAD PUSH2 0x1B8 SWAP2 SWAP1 PUSH2 0xBC4 JUMP JUMPDEST PUSH1 0x40 MLOAD DUP1 SWAP2 SUB SWAP1 RETURN JUMPDEST PUSH2 0x1DB PUSH1 0x4 DUP1 CALLDATASIZE SUB DUP2 ADD SWAP1 PUSH2 0x1D6 SWAP2 SWAP1 PUSH2 0xA5E JUMP JUMPDEST PUSH2 0x6D8 JUMP JUMPDEST PUSH1 0x40 MLOAD PUSH2 0x1E8 SWAP2 SWAP1 PUSH2 0xC1C JUMP JUMPDEST PUSH1 0x40 MLOAD DUP1 SWAP2 SUB SWAP1 RETURN JUMPDEST PUSH2 0x1F9 PUSH2 0x721 JUMP JUMPDEST PUSH1 0x40 MLOAD PUSH2 0x206 SWAP2 SWAP1 PUSH2 0xBFA JUMP JUMPDEST PUSH1 0x40 MLOAD DUP1 SWAP2 SUB SWAP1 RETURN JUMPDEST PUSH2 0x229 PUSH1 0x4 DUP1 CALLDATASIZE SUB DUP2 ADD SWAP1 PUSH2 0x224 SWAP2 SWAP1 PUSH2 0xB1E JUMP JUMPDEST PUSH2 0x7AF JUMP JUMPDEST PUSH1 0x40 MLOAD PUSH2 0x236 SWAP2 SWAP1 PUSH2 0xBDF JUMP JUMPDEST PUSH1 0x40 MLOAD DUP1 SWAP2 SUB SWAP1 RETURN JUMPDEST PUSH2 0x259 PUSH1 0x4 DUP1 CALLDATASIZE SUB DUP2 ADD SWAP1 PUSH2 0x254 SWAP2 SWAP1 PUSH2 0xA8B JUMP JUMPDEST PUSH2 0x988 JUMP JUMPDEST PUSH1 0x40 MLOAD PUSH2 0x266 SWAP2 SWAP1 PUSH2 0xC1C JUMP JUMPDEST PUSH1 0x40 MLOAD DUP1 SWAP2 SUB SWAP1 RETURN JUMPDEST PUSH2 0x289 PUSH1 0x4 DUP1 CALLDATASIZE SUB DUP2 ADD SWAP1 PUSH2 0x284 SWAP2 SWAP1 PUSH2 0xA8B JUMP JUMPDEST PUSH2 0x9AD JUMP JUMPDEST PUSH1 0x40 MLOAD PUSH2 0x296 SWAP2 SWAP1 PUSH2 0xC1C JUMP JUMPDEST PUSH1 0x40 MLOAD DUP1 SWAP2 SUB SWAP1 RETURN JUMPDEST PUSH1 0x0 DUP2 PUSH1 0x5 PUSH1 0x0 CALLER PUSH20 0xFFFFFFFFFFFFFFFFFFFFFFFFFFFFFFFFFFFFFFFF AND PUSH20 0xFFFFFFFFFFFFFFFFFFFFFFFFFFFFFFFFFFFFFFFF AND DUP2 MSTORE PUSH1 0x20 ADD SWAP1 DUP2 MSTORE PUSH1 0x20 ADD PUSH1 0x0 KECCAK256 SLOAD LT ISZERO PUSH2 0x2ED JUMPI PUSH1 0x0 DUP1 REVERT JUMPDEST PUSH1 0x0 DUP3 GT PUSH2 0x2FA JUMPI PUSH1 0x0 DUP1 REVERT JUMPDEST DUP2 PUSH1 0x6 PUSH1 0x0 CALLER PUSH20 0xFFFFFFFFFFFFFFFFFFFFFFFFFFFFFFFFFFFFFFFF AND PUSH20 0xFFFFFFFFFFFFFFFFFFFFFFFFFFFFFFFFFFFFFFFF AND DUP2 MSTORE PUSH1 0x20 ADD SWAP1 DUP2 MSTORE PUSH1 0x20 ADD PUSH1 0x0 KECCAK256 PUSH1 0x0 DUP6 PUSH20 0xFFFFFFFFFFFFFFFFFFFFFFFFFFFFFFFFFFFFFFFF AND PUSH20 0xFFFFFFFFFFFFFFFFFFFFFFFFFFFFFFFFFFFFFFFF AND DUP2 MSTORE PUSH1 0x20 ADD SWAP1 DUP2 MSTORE PUSH1 0x20 ADD PUSH1 0x0 KECCAK256 DUP2 SWAP1 SSTORE POP DUP3 PUSH20 0xFFFFFFFFFFFFFFFFFFFFFFFFFFFFFFFFFFFFFFFF AND CALLER PUSH20 0xFFFFFFFFFFFFFFFFFFFFFFFFFFFFFFFFFFFFFFFF AND PUSH32 0x8C5BE1E5EBEC7D5BD14F71427D1E84F3DD0314C0F7B2291E5B200AC8C7C3B925 DUP5 PUSH1 0x40 MLOAD PUSH2 0x3D8 SWAP2 SWAP1 PUSH2 0xC1C JUMP JUMPDEST PUSH1 0x40 MLOAD DUP1 SWAP2 SUB SWAP1 LOG3 PUSH1 0x1 SWAP1 POP SWAP3 SWAP2 POP POP JUMP JUMPDEST PUSH1 0x3 SLOAD DUP2 JUMP JUMPDEST PUSH1 0x2 DUP1 SLOAD PUSH2 0x3FD SWAP1 PUSH2 0xD58 JUMP JUMPDEST DUP1 PUSH1 0x1F ADD PUSH1 0x20 DUP1 SWAP2 DIV MUL PUSH1 0x20 ADD PUSH1 0x40 MLOAD SWAP1 DUP2 ADD PUSH1 0x40 MSTORE DUP1 SWAP3 SWAP2 SWAP1 DUP2 DUP2 MSTORE PUSH1 0x20 ADD DUP3 DUP1 SLOAD PUSH2 0x429 SWAP1 PUSH2 0xD58 JUMP JUMPDEST DUP1 ISZERO PUSH2 0x476 JUMPI DUP1 PUSH1 0x1F LT PUSH2 0x44B JUMPI PUSH2 0x100 DUP1 DUP4 SLOAD DIV MUL DUP4 MSTORE SWAP2 PUSH1 0x20 ADD SWAP2 PUSH2 0x476 JUMP JUMPDEST DUP3 ADD SWAP2 SWAP1 PUSH1 0x0 MSTORE PUSH1 0x20 PUSH1 0x0 KECCAK256 SWAP1 JUMPDEST DUP2 SLOAD DUP2 MSTORE SWAP1 PUSH1 0x1 ADD SWAP1 PUSH1 0x20 ADD DUP1 DUP4 GT PUSH2 0x459 JUMPI DUP3 SWAP1 SUB PUSH1 0x1F AND DUP3 ADD SWAP2 JUMPDEST POP POP POP POP POP DUP2 JUMP JUMPDEST PUSH1 0x5 PUSH1 0x20 MSTORE DUP1 PUSH1 0x0 MSTORE PUSH1 0x40 PUSH1 0x0 KECCAK256 PUSH1 0x0 SWAP2 POP SWAP1 POP SLOAD DUP2 JUMP JUMPDEST PUSH1 0x1 DUP1 SLOAD PUSH2 0x4A3 SWAP1 PUSH2 0xD58 JUMP JUMPDEST DUP1 PUSH1 0x1F ADD PUSH1 0x20 DUP1 SWAP2 DIV MUL PUSH1 0x20 ADD PUSH1 0x40 MLOAD SWAP1 DUP2 ADD PUSH1 0x40 MSTORE DUP1 SWAP3 SWAP2 SWAP1 DUP2 DUP2 MSTORE PUSH1 0x20 ADD DUP3 DUP1 SLOAD PUSH2 0x4CF SWAP1 PUSH2 0xD58 JUMP JUMPDEST DUP1 ISZERO PUSH2 0x51C JUMPI DUP1 PUSH1 0x1F LT PUSH2 0x4F1 JUMPI PUSH2 0x100 DUP1 DUP4 SLOAD DIV MUL DUP4 MSTORE SWAP2 PUSH1 0x20 ADD SWAP2 PUSH2 0x51C JUMP JUMPDEST DUP3 ADD SWAP2 SWAP1 PUSH1 0x0 MSTORE PUSH1 0x20 PUSH1 0x0 KECCAK256 SWAP1 JUMPDEST DUP2 SLOAD DUP2 MSTORE SWAP1 PUSH1 0x1 ADD SWAP1 PUSH1 0x20 ADD DUP1 DUP4 GT PUSH2 0x4FF JUMPI DUP3 SWAP1 SUB PUSH1 0x1F AND DUP3 ADD SWAP2 JUMPDEST POP POP POP POP POP DUP2 JUMP JUMPDEST PUSH1 0x0 DUP2 PUSH1 0x6 PUSH1 0x0 DUP7 PUSH20 0xFFFFFFFFFFFFFFFFFFFFFFFFFFFFFFFFFFFFFFFF AND PUSH20 0xFFFFFFFFFFFFFFFFFFFFFFFFFFFFFFFFFFFFFFFF AND DUP2 MSTORE PUSH1 0x20 ADD SWAP1 DUP2 MSTORE PUSH1 0x20 ADD PUSH1 0x0 KECCAK256 PUSH1 0x0 DUP6 PUSH20 0xFFFFFFFFFFFFFFFFFFFFFFFFFFFFFFFFFFFFFFFF AND PUSH20 0xFFFFFFFFFFFFFFFFFFFFFFFFFFFFFFFFFFFFFFFF AND DUP2 MSTORE PUSH1 0x20 ADD SWAP1 DUP2 MSTORE PUSH1 0x20 ADD PUSH1 0x0 KECCAK256 SLOAD LT ISZERO PUSH2 0x5AF JUMPI PUSH1 0x0 DUP1 REVERT JUMPDEST DUP2 PUSH1 0x5 PUSH1 0x0 DUP7 PUSH20 0xFFFFFFFFFFFFFFFFFFFFFFFFFFFFFFFFFFFFFFFF AND PUSH20 0xFFFFFFFFFFFFFFFFFFFFFFFFFFFFFFFFFFFFFFFF AND DUP2 MSTORE PUSH1 0x20 ADD SWAP1 DUP2 MSTORE PUSH1 0x20 ADD PUSH1 0x0 KECCAK256 SLOAD LT ISZERO PUSH2 0x5FB JUMPI PUSH1 0x0 DUP1 REVERT JUMPDEST DUP2 PUSH1 0x5 PUSH1 0x0 DUP7 PUSH20 0xFFFFFFFFFFFFFFFFFFFFFFFFFFFFFFFFFFFFFFFF AND PUSH20 0xFFFFFFFFFFFFFFFFFFFFFFFFFFFFFFFFFFFFFFFF AND DUP2 MSTORE PUSH1 0x20 ADD SWAP1 DUP2 MSTORE PUSH1 0x20 ADD PUSH1 0x0 KECCAK256 PUSH1 0x0 DUP3 DUP3 SLOAD PUSH2 0x64A SWAP2 SWAP1 PUSH2 0xCA9 JUMP JUMPDEST SWAP3 POP POP DUP2 SWAP1 SSTORE POP DUP2 PUSH1 0x5 PUSH1 0x0 DUP6 PUSH20 0xFFFFFFFFFFFFFFFFFFFFFFFFFFFFFFFFFFFFFFFF AND PUSH20 0xFFFFFFFFFFFFFFFFFFFFFFFFFFFFFFFFFFFFFFFF AND DUP2 MSTORE PUSH1 0x20 ADD SWAP1 DUP2 MSTORE PUSH1 0x20 ADD PUSH1 0x0 KECCAK256 PUSH1 0x0 DUP3 DUP3 SLOAD PUSH2 0x6A0 SWAP2 SWAP1 PUSH2 0xC53 JUMP JUMPDEST SWAP3 POP POP DUP2 SWAP1 SSTORE POP PUSH1 0x1 SWAP1 POP SWAP4 SWAP3 POP POP POP JUMP JUMPDEST PUSH1 0x4 PUSH1 0x0 SWAP1 SLOAD SWAP1 PUSH2 0x100 EXP SWAP1 DIV PUSH20 0xFFFFFFFFFFFFFFFFFFFFFFFFFFFFFFFFFFFFFFFF AND DUP2 JUMP JUMPDEST PUSH1 0x0 PUSH1 0x5 PUSH1 0x0 DUP4 PUSH20 0xFFFFFFFFFFFFFFFFFFFFFFFFFFFFFFFFFFFFFFFF AND PUSH20 0xFFFFFFFFFFFFFFFFFFFFFFFFFFFFFFFFFFFFFFFF AND DUP2 MSTORE PUSH1 0x20 ADD SWAP1 DUP2 MSTORE PUSH1 0x20 ADD PUSH1 0x0 KECCAK256 SLOAD SWAP1 POP SWAP2 SWAP1 POP JUMP JUMPDEST PUSH1 0x0 DUP1 SLOAD PUSH2 0x72E SWAP1 PUSH2 0xD58 JUMP JUMPDEST DUP1 PUSH1 0x1F ADD PUSH1 0x20 DUP1 SWAP2 DIV MUL PUSH1 0x20 ADD PUSH1 0x40 MLOAD SWAP1 DUP2 ADD PUSH1 0x40 MSTORE DUP1 SWAP3 SWAP2 SWAP1 DUP2 DUP2 MSTORE PUSH1 0x20 ADD DUP3 DUP1 SLOAD PUSH2 0x75A SWAP1 PUSH2 0xD58 JUMP JUMPDEST DUP1 ISZERO PUSH2 0x7A7 JUMPI DUP1 PUSH1 0x1F LT PUSH2 0x77C JUMPI PUSH2 0x100 DUP1 DUP4 SLOAD DIV MUL DUP4 MSTORE SWAP2 PUSH1 0x20 ADD SWAP2 PUSH2 0x7A7 JUMP JUMPDEST DUP3 ADD SWAP2 SWAP1 PUSH1 0x0 MSTORE PUSH1 0x20 PUSH1 0x0 KECCAK256 SWAP1 JUMPDEST DUP2 SLOAD DUP2 MSTORE SWAP1 PUSH1 0x1 ADD SWAP1 PUSH1 0x20 ADD DUP1 DUP4 GT PUSH2 0x78A JUMPI DUP3 SWAP1 SUB PUSH1 0x1F AND DUP3 ADD SWAP2 JUMPDEST POP POP POP POP POP DUP2 JUMP JUMPDEST PUSH1 0x0 DUP2 PUSH1 0x5 PUSH1 0x0 CALLER PUSH20 0xFFFFFFFFFFFFFFFFFFFFFFFFFFFFFFFFFFFFFFFF AND PUSH20 0xFFFFFFFFFFFFFFFFFFFFFFFFFFFFFFFFFFFFFFFF AND DUP2 MSTORE PUSH1 0x20 ADD SWAP1 DUP2 MSTORE PUSH1 0x20 ADD PUSH1 0x0 KECCAK256 SLOAD LT ISZERO PUSH2 0x7FD JUMPI PUSH1 0x0 DUP1 REVERT JUMPDEST DUP2 PUSH1 0x5 PUSH1 0x0 DUP6 PUSH20 0xFFFFFFFFFFFFFFFFFFFFFFFFFFFFFFFFFFFFFFFF AND PUSH20 0xFFFFFFFFFFFFFFFFFFFFFFFFFFFFFFFFFFFFFFFF AND DUP2 MSTORE PUSH1 0x20 ADD SWAP1 DUP2 MSTORE PUSH1 0x20 ADD PUSH1 0x0 KECCAK256 SLOAD PUSH2 0x848 SWAP2 SWAP1 PUSH2 0xC53 JUMP JUMPDEST PUSH1 0x5 PUSH1 0x0 DUP6 PUSH20 0xFFFFFFFFFFFFFFFFFFFFFFFFFFFFFFFFFFFFFFFF AND PUSH20 0xFFFFFFFFFFFFFFFFFFFFFFFFFFFFFFFFFFFFFFFF AND DUP2 MSTORE PUSH1 0x20 ADD SWAP1 DUP2 MSTORE PUSH1 0x20 ADD PUSH1 0x0 KECCAK256 DUP2 SWAP1 SSTORE POP DUP2 PUSH1 0x5 PUSH1 0x0 CALLER PUSH20 0xFFFFFFFFFFFFFFFFFFFFFFFFFFFFFFFFFFFFFFFF AND PUSH20 0xFFFFFFFFFFFFFFFFFFFFFFFFFFFFFFFFFFFFFFFF AND DUP2 MSTORE PUSH1 0x20 ADD SWAP1 DUP2 MSTORE PUSH1 0x20 ADD PUSH1 0x0 KECCAK256 SLOAD PUSH2 0x8D6 SWAP2 SWAP1 PUSH2 0xCA9 JUMP JUMPDEST PUSH1 0x5 PUSH1 0x0 CALLER PUSH20 0xFFFFFFFFFFFFFFFFFFFFFFFFFFFFFFFFFFFFFFFF AND PUSH20 0xFFFFFFFFFFFFFFFFFFFFFFFFFFFFFFFFFFFFFFFF AND DUP2 MSTORE PUSH1 0x20 ADD SWAP1 DUP2 MSTORE PUSH1 0x20 ADD PUSH1 0x0 KECCAK256 DUP2 SWAP1 SSTORE POP DUP3 PUSH20 0xFFFFFFFFFFFFFFFFFFFFFFFFFFFFFFFFFFFFFFFF AND CALLER PUSH20 0xFFFFFFFFFFFFFFFFFFFFFFFFFFFFFFFFFFFFFFFF AND PUSH32 0xDDF252AD1BE2C89B69C2B068FC378DAA952BA7F163C4A11628F55A4DF523B3EF DUP5 PUSH1 0x40 MLOAD PUSH2 0x976 SWAP2 SWAP1 PUSH2 0xC1C JUMP JUMPDEST PUSH1 0x40 MLOAD DUP1 SWAP2 SUB SWAP1 LOG3 PUSH1 0x1 SWAP1 POP SWAP3 SWAP2 POP POP JUMP JUMPDEST PUSH1 0x6 PUSH1 0x20 MSTORE DUP2 PUSH1 0x0 MSTORE PUSH1 0x40 PUSH1 0x0 KECCAK256 PUSH1 0x20 MSTORE DUP1 PUSH1 0x0 MSTORE PUSH1 0x40 PUSH1 0x0 KECCAK256 PUSH1 0x0 SWAP2 POP SWAP2 POP POP SLOAD DUP2 JUMP JUMPDEST PUSH1 0x0 PUSH1 0x6 PUSH1 0x0 DUP5 PUSH20 0xFFFFFFFFFFFFFFFFFFFFFFFFFFFFFFFFFFFFFFFF AND PUSH20 0xFFFFFFFFFFFFFFFFFFFFFFFFFFFFFFFFFFFFFFFF AND DUP2 MSTORE PUSH1 0x20 ADD SWAP1 DUP2 MSTORE PUSH1 0x20 ADD PUSH1 0x0 KECCAK256 PUSH1 0x0 DUP4 PUSH20 0xFFFFFFFFFFFFFFFFFFFFFFFFFFFFFFFFFFFFFFFF AND PUSH20 0xFFFFFFFFFFFFFFFFFFFFFFFFFFFFFFFFFFFFFFFF AND DUP2 MSTORE PUSH1 0x20 ADD SWAP1 DUP2 MSTORE PUSH1 0x20 ADD PUSH1 0x0 KECCAK256 SLOAD SWAP1 POP SWAP3 SWAP2 POP POP JUMP JUMPDEST PUSH1 0x0 DUP2 CALLDATALOAD SWAP1 POP PUSH2 0xA43 DUP2 PUSH2 0xDFE JUMP JUMPDEST SWAP3 SWAP2 POP POP JUMP JUMPDEST PUSH1 0x0 DUP2 CALLDATALOAD SWAP1 POP PUSH2 0xA58 DUP2 PUSH2 0xE15 JUMP JUMPDEST SWAP3 SWAP2 POP POP JUMP JUMPDEST PUSH1 0x0 PUSH1 0x20 DUP3 DUP5 SUB SLT ISZERO PUSH2 0xA74 JUMPI PUSH2 0xA73 PUSH2 0xDE8 JUMP JUMPDEST JUMPDEST PUSH1 0x0 PUSH2 0xA82 DUP5 DUP3 DUP6 ADD PUSH2 0xA34 JUMP JUMPDEST SWAP2 POP POP SWAP3 SWAP2 POP POP JUMP JUMPDEST PUSH1 0x0 DUP1 PUSH1 0x40 DUP4 DUP6 SUB SLT ISZERO PUSH2 0xAA2 JUMPI PUSH2 0xAA1 PUSH2 0xDE8 JUMP JUMPDEST JUMPDEST PUSH1 0x0 PUSH2 0xAB0 DUP6 DUP3 DUP7 ADD PUSH2 0xA34 JUMP JUMPDEST SWAP3 POP POP PUSH1 0x20 PUSH2 0xAC1 DUP6 DUP3 DUP7 ADD PUSH2 0xA34 JUMP JUMPDEST SWAP2 POP POP SWAP3 POP SWAP3 SWAP1 POP JUMP JUMPDEST PUSH1 0x0 DUP1 PUSH1 0x0 PUSH1 0x60 DUP5 DUP7 SUB SLT ISZERO PUSH2 0xAE4 JUMPI PUSH2 0xAE3 PUSH2 0xDE8 JUMP JUMPDEST JUMPDEST PUSH1 0x0 PUSH2 0xAF2 DUP7 DUP3 DUP8 ADD PUSH2 0xA34 JUMP JUMPDEST SWAP4 POP POP PUSH1 0x20 PUSH2 0xB03 DUP7 DUP3 DUP8 ADD PUSH2 0xA34 JUMP JUMPDEST SWAP3 POP POP PUSH1 0x40 PUSH2 0xB14 DUP7 DUP3 DUP8 ADD PUSH2 0xA49 JUMP JUMPDEST SWAP2 POP POP SWAP3 POP SWAP3 POP SWAP3 JUMP JUMPDEST PUSH1 0x0 DUP1 PUSH1 0x40 DUP4 DUP6 SUB SLT ISZERO PUSH2 0xB35 JUMPI PUSH2 0xB34 PUSH2 0xDE8 JUMP JUMPDEST JUMPDEST PUSH1 0x0 PUSH2 0xB43 DUP6 DUP3 DUP7 ADD PUSH2 0xA34 JUMP JUMPDEST SWAP3 POP POP PUSH1 0x20 PUSH2 0xB54 DUP6 DUP3 DUP7 ADD PUSH2 0xA49 JUMP JUMPDEST SWAP2 POP POP SWAP3 POP SWAP3 SWAP1 POP JUMP JUMPDEST PUSH2 0xB67 DUP2 PUSH2 0xCDD JUMP JUMPDEST DUP3 MSTORE POP POP JUMP JUMPDEST PUSH2 0xB76 DUP2 PUSH2 0xCEF JUMP JUMPDEST DUP3 MSTORE POP POP JUMP JUMPDEST PUSH1 0x0 PUSH2 0xB87 DUP3 PUSH2 0xC37 JUMP JUMPDEST PUSH2 0xB91 DUP2 DUP6 PUSH2 0xC42 JUMP JUMPDEST SWAP4 POP PUSH2 0xBA1 DUP2 DUP6 PUSH1 0x20 DUP7 ADD PUSH2 0xD25 JUMP JUMPDEST PUSH2 0xBAA DUP2 PUSH2 0xDED JUMP JUMPDEST DUP5 ADD SWAP2 POP POP SWAP3 SWAP2 POP POP JUMP JUMPDEST PUSH2 0xBBE DUP2 PUSH2 0xD1B JUMP JUMPDEST DUP3 MSTORE POP POP JUMP JUMPDEST PUSH1 0x0 PUSH1 0x20 DUP3 ADD SWAP1 POP PUSH2 0xBD9 PUSH1 0x0 DUP4 ADD DUP5 PUSH2 0xB5E JUMP JUMPDEST SWAP3 SWAP2 POP POP JUMP JUMPDEST PUSH1 0x0 PUSH1 0x20 DUP3 ADD SWAP1 POP PUSH2 0xBF4 PUSH1 0x0 DUP4 ADD DUP5 PUSH2 0xB6D JUMP JUMPDEST SWAP3 SWAP2 POP POP JUMP JUMPDEST PUSH1 0x0 PUSH1 0x20 DUP3 ADD SWAP1 POP DUP2 DUP2 SUB PUSH1 0x0 DUP4 ADD MSTORE PUSH2 0xC14 DUP2 DUP5 PUSH2 0xB7C JUMP JUMPDEST SWAP1 POP SWAP3 SWAP2 POP POP JUMP JUMPDEST PUSH1 0x0 PUSH1 0x20 DUP3 ADD SWAP1 POP PUSH2 0xC31 PUSH1 0x0 DUP4 ADD DUP5 PUSH2 0xBB5 JUMP JUMPDEST SWAP3 SWAP2 POP POP JUMP JUMPDEST PUSH1 0x0 DUP2 MLOAD SWAP1 POP SWAP2 SWAP1 POP JUMP JUMPDEST PUSH1 0x0 DUP3 DUP3 MSTORE PUSH1 0x20 DUP3 ADD SWAP1 POP SWAP3 SWAP2 POP POP JUMP JUMPDEST PUSH1 0x0 PUSH2 0xC5E DUP3 PUSH2 0xD1B JUMP JUMPDEST SWAP2 POP PUSH2 0xC69 DUP4 PUSH2 0xD1B JUMP JUMPDEST SWAP3 POP DUP3 PUSH32 0xFFFFFFFFFFFFFFFFFFFFFFFFFFFFFFFFFFFFFFFFFFFFFFFFFFFFFFFFFFFFFFFF SUB DUP3 GT ISZERO PUSH2 0xC9E JUMPI PUSH2 0xC9D PUSH2 0xD8A JUMP JUMPDEST JUMPDEST DUP3 DUP3 ADD SWAP1 POP SWAP3 SWAP2 POP POP JUMP JUMPDEST PUSH1 0x0 PUSH2 0xCB4 DUP3 PUSH2 0xD1B JUMP JUMPDEST SWAP2 POP PUSH2 0xCBF DUP4 PUSH2 0xD1B JUMP JUMPDEST SWAP3 POP DUP3 DUP3 LT ISZERO PUSH2 0xCD2 JUMPI PUSH2 0xCD1 PUSH2 0xD8A JUMP JUMPDEST JUMPDEST DUP3 DUP3 SUB SWAP1 POP SWAP3 SWAP2 POP POP JUMP JUMPDEST PUSH1 0x0 PUSH2 0xCE8 DUP3 PUSH2 0xCFB JUMP JUMPDEST SWAP1 POP SWAP2 SWAP1 POP JUMP JUMPDEST PUSH1 0x0 DUP2 ISZERO ISZERO SWAP1 POP SWAP2 SWAP1 POP JUMP JUMPDEST PUSH1 0x0 PUSH20 0xFFFFFFFFFFFFFFFFFFFFFFFFFFFFFFFFFFFFFFFF DUP3 AND SWAP1 POP SWAP2 SWAP1 POP JUMP JUMPDEST PUSH1 0x0 DUP2 SWAP1 POP SWAP2 SWAP1 POP JUMP JUMPDEST PUSH1 0x0 JUMPDEST DUP4 DUP2 LT ISZERO PUSH2 0xD43 JUMPI DUP1 DUP3 ADD MLOAD DUP2 DUP5 ADD MSTORE PUSH1 0x20 DUP2 ADD SWAP1 POP PUSH2 0xD28 JUMP JUMPDEST DUP4 DUP2 GT ISZERO PUSH2 0xD52 JUMPI PUSH1 0x0 DUP5 DUP5 ADD MSTORE JUMPDEST POP POP POP POP JUMP JUMPDEST PUSH1 0x0 PUSH1 0x2 DUP3 DIV SWAP1 POP PUSH1 0x1 DUP3 AND DUP1 PUSH2 0xD70 JUMPI PUSH1 0x7F DUP3 AND SWAP2 POP JUMPDEST PUSH1 0x20 DUP3 LT DUP2 EQ ISZERO PUSH2 0xD84 JUMPI PUSH2 0xD83 PUSH2 0xDB9 JUMP JUMPDEST JUMPDEST POP SWAP2 SWAP1 POP JUMP JUMPDEST PUSH32 0x4E487B7100000000000000000000000000000000000000000000000000000000 PUSH1 0x0 MSTORE PUSH1 0x11 PUSH1 0x4 MSTORE PUSH1 0x24 PUSH1 0x0 REVERT JUMPDEST PUSH32 0x4E487B7100000000000000000000000000000000000000000000000000000000 PUSH1 0x0 MSTORE PUSH1 0x22 PUSH1 0x4 MSTORE PUSH1 0x24 PUSH1 0x0 REVERT JUMPDEST PUSH1 0x0 DUP1 REVERT JUMPDEST PUSH1 0x0 PUSH1 0x1F NOT PUSH1 0x1F DUP4 ADD AND SWAP1 POP SWAP2 SWAP1 POP JUMP JUMPDEST PUSH2 0xE07 DUP2 PUSH2 0xCDD JUMP JUMPDEST DUP2 EQ PUSH2 0xE12 JUMPI PUSH1 0x0 DUP1 REVERT JUMPDEST POP JUMP JUMPDEST PUSH2 0xE1E DUP2 PUSH2 0xD1B JUMP JUMPDEST DUP2 EQ PUSH2 0xE29 JUMPI PUSH1 0x0 DUP1 REVERT JUMPDEST POP JUMP INVALID LOG2 PUSH5 0x6970667358 0x22 SLT KECCAK256 PUSH8 0x5D0BF64B2F41BD15 0xAB SWAP15 0xF9 0xB2 0xB0 DUP2 CALL 0xFB JUMPI ADDMOD 0xD9 BYTE SWAP10 PC SIGNEXTEND CODESIZE 0xD7 0xCF NOT LOG3 LOG2 PUSH3 0x246473 PUSH16 0x6C634300080700330000000000000000 "
				},
				"gasEstimates": {
					"creation": {
						"codeDepositCost": "736400",
						"executionCost": "infinite",
						"totalCost": "infinite"
					},
					"external": {
						"Allowed(address,address)": "infinite",
						"Decimal()": "infinite",
						"Founder()": "2514",
						"Name()": "infinite",
						"Symbol()": "infinite",
						"allowance(address,address)": "infinite",
						"approve(address,uint256)": "infinite",
						"balanceOf(address)": "2863",
						"balances(address)": "2881",
						"totalSupply()": "2452",
						"transfer(address,uint256)": "infinite",
						"transferForm(address,address,uint256)": "infinite"
					}
				},
				"methodIdentifiers": {
					"Allowed(address,address)": "bb4e1149",
					"Decimal()": "1fe50c39",
					"Founder()": "3278dc67",
					"Name()": "8052474d",
					"Symbol()": "3045aaf3",
					"allowance(address,address)": "dd62ed3e",
					"approve(address,uint256)": "095ea7b3",
					"balanceOf(address)": "70a08231",
					"balances(address)": "27e235e3",
					"totalSupply()": "18160ddd",
					"transfer(address,uint256)": "a9059cbb",
					"transferForm(address,address,uint256)": "3112ae5b"
				}
			},
			"storageLayout": {
				"storage": [
					{
						"astId": 73,
						"contract": "Initial Coin Offering (ICO)/ICO.sol:Block",
						"label": "Name",
						"offset": 0,
						"slot": "0",
						"type": "t_string_storage"
					},
					{
						"astId": 76,
						"contract": "Initial Coin Offering (ICO)/ICO.sol:Block",
						"label": "Symbol",
						"offset": 0,
						"slot": "1",
						"type": "t_string_storage"
					},
					{
						"astId": 79,
						"contract": "Initial Coin Offering (ICO)/ICO.sol:Block",
						"label": "Decimal",
						"offset": 0,
						"slot": "2",
						"type": "t_string_storage"
					},
					{
						"astId": 82,
						"contract": "Initial Coin Offering (ICO)/ICO.sol:Block",
						"label": "totalSupply",
						"offset": 0,
						"slot": "3",
						"type": "t_uint256"
					},
					{
						"astId": 84,
						"contract": "Initial Coin Offering (ICO)/ICO.sol:Block",
						"label": "Founder",
						"offset": 0,
						"slot": "4",
						"type": "t_address"
					},
					{
						"astId": 88,
						"contract": "Initial Coin Offering (ICO)/ICO.sol:Block",
						"label": "balances",
						"offset": 0,
						"slot": "5",
						"type": "t_mapping(t_address,t_uint256)"
					},
					{
						"astId": 94,
						"contract": "Initial Coin Offering (ICO)/ICO.sol:Block",
						"label": "Allowed",
						"offset": 0,
						"slot": "6",
						"type": "t_mapping(t_address,t_mapping(t_address,t_uint256))"
					}
				],
				"types": {
					"t_address": {
						"encoding": "inplace",
						"label": "address",
						"numberOfBytes": "20"
					},
					"t_mapping(t_address,t_mapping(t_address,t_uint256))": {
						"encoding": "mapping",
						"key": "t_address",
						"label": "mapping(address => mapping(address => uint256))",
						"numberOfBytes": "32",
						"value": "t_mapping(t_address,t_uint256)"
					},
					"t_mapping(t_address,t_uint256)": {
						"encoding": "mapping",
						"key": "t_address",
						"label": "mapping(address => uint256)",
						"numberOfBytes": "32",
						"value": "t_uint256"
					},
					"t_string_storage": {
						"encoding": "bytes",
						"label": "string",
						"numberOfBytes": "32"
					},
					"t_uint256": {
						"encoding": "inplace",
						"label": "uint256",
						"numberOfBytes": "32"
					}
				}
			},
			"userdoc": {
				"kind": "user",
				"methods": {},
				"version": 1
			}
		}
	}
}