{
	"Initial Coin Offering (ICO)/ICO.sol": {
		"ICO": {
			"abi": [
				{
					"inputs": [
						{
							"internalType": "address payable",
							"name": "_deposit",
							"type": "address"
						}
					],
					"stateMutability": "nonpayable",
					"type": "constructor"
				},
				{
					"anonymous": false,
					"inputs": [
						{
							"indexed": true,
							"internalType": "address",
							"name": "tokenOwner",
							"type": "address"
						},
						{
							"indexed": true,
							"internalType": "address",
							"name": "spender",
							"type": "address"
						},
						{
							"indexed": false,
							"internalType": "uint256",
							"name": "tokens",
							"type": "uint256"
						}
					],
					"name": "Approval",
					"type": "event"
				},
				{
					"anonymous": false,
					"inputs": [
						{
							"indexed": false,
							"internalType": "address",
							"name": "investor",
							"type": "address"
						},
						{
							"indexed": false,
							"internalType": "uint256",
							"name": "value",
							"type": "uint256"
						},
						{
							"indexed": false,
							"internalType": "uint256",
							"name": "tokens",
							"type": "uint256"
						}
					],
					"name": "Invest",
					"type": "event"
				},
				{
					"anonymous": false,
					"inputs": [
						{
							"indexed": true,
							"internalType": "address",
							"name": "from",
							"type": "address"
						},
						{
							"indexed": true,
							"internalType": "address",
							"name": "to",
							"type": "address"
						},
						{
							"indexed": false,
							"internalType": "uint256",
							"name": "tokens",
							"type": "uint256"
						}
					],
					"name": "Transfer",
					"type": "event"
				},
				{
					"inputs": [
						{
							"internalType": "address",
							"name": "",
							"type": "address"
						},
						{
							"internalType": "address",
							"name": "",
							"type": "address"
						}
					],
					"name": "Allowed",
					"outputs": [
						{
							"internalType": "uint256",
							"name": "",
							"type": "uint256"
						}
					],
					"stateMutability": "view",
					"type": "function"
				},
				{
					"inputs": [],
					"name": "BURN",
					"outputs": [
						{
							"internalType": "bool",
							"name": "",
							"type": "bool"
						}
					],
					"stateMutability": "nonpayable",
					"type": "function"
				},
				{
					"inputs": [],
					"name": "Cap",
					"outputs": [
						{
							"internalType": "uint256",
							"name": "",
							"type": "uint256"
						}
					],
					"stateMutability": "view",
					"type": "function"
				},
				{
					"inputs": [
						{
							"internalType": "address payable",
							"name": "NewDeposit",
							"type": "address"
						}
					],
					"name": "ChangeDepositAddress",
					"outputs": [],
					"stateMutability": "nonpayable",
					"type": "function"
				},
				{
					"inputs": [],
					"name": "Decimal",
					"outputs": [
						{
							"internalType": "string",
							"name": "",
							"type": "string"
						}
					],
					"stateMutability": "view",
					"type": "function"
				},
				{
					"inputs": [],
					"name": "Deposit",
					"outputs": [
						{
							"internalType": "address payable",
							"name": "",
							"type": "address"
						}
					],
					"stateMutability": "view",
					"type": "function"
				},
				{
					"inputs": [],
					"name": "Founder",
					"outputs": [
						{
							"internalType": "address",
							"name": "",
							"type": "address"
						}
					],
					"stateMutability": "view",
					"type": "function"
				},
				{
					"inputs": [],
					"name": "GetState",
					"outputs": [
						{
							"internalType": "enum ICO.State",
							"name": "",
							"type": "uint8"
						}
					],
					"stateMutability": "view",
					"type": "function"
				},
				{
					"inputs": [],
					"name": "Halt",
					"outputs": [],
					"stateMutability": "nonpayable",
					"type": "function"
				},
				{
					"inputs": [],
					"name": "ICOend",
					"outputs": [
						{
							"internalType": "uint256",
							"name": "",
							"type": "uint256"
						}
					],
					"stateMutability": "view",
					"type": "function"
				},
				{
					"inputs": [],
					"name": "ICOstart",
					"outputs": [
						{
							"internalType": "uint256",
							"name": "",
							"type": "uint256"
						}
					],
					"stateMutability": "view",
					"type": "function"
				},
				{
					"inputs": [],
					"name": "INVEST",
					"outputs": [
						{
							"internalType": "bool",
							"name": "",
							"type": "bool"
						}
					],
					"stateMutability": "payable",
					"type": "function"
				},
				{
					"inputs": [],
					"name": "Manager",
					"outputs": [
						{
							"internalType": "address",
							"name": "",
							"type": "address"
						}
					],
					"stateMutability": "view",
					"type": "function"
				},
				{
					"inputs": [],
					"name": "MaxInvest",
					"outputs": [
						{
							"internalType": "uint256",
							"name": "",
							"type": "uint256"
						}
					],
					"stateMutability": "view",
					"type": "function"
				},
				{
					"inputs": [],
					"name": "MinInvest",
					"outputs": [
						{
							"internalType": "uint256",
							"name": "",
							"type": "uint256"
						}
					],
					"stateMutability": "view",
					"type": "function"
				},
				{
					"inputs": [],
					"name": "Name",
					"outputs": [
						{
							"internalType": "string",
							"name": "",
							"type": "string"
						}
					],
					"stateMutability": "view",
					"type": "function"
				},
				{
					"inputs": [],
					"name": "Resume",
					"outputs": [],
					"stateMutability": "nonpayable",
					"type": "function"
				},
				{
					"inputs": [],
					"name": "Symbol",
					"outputs": [
						{
							"internalType": "string",
							"name": "",
							"type": "string"
						}
					],
					"stateMutability": "view",
					"type": "function"
				},
				{
					"inputs": [
						{
							"internalType": "address",
							"name": "tokenOwner",
							"type": "address"
						},
						{
							"internalType": "address",
							"name": "spender",
							"type": "address"
						}
					],
					"name": "allowance",
					"outputs": [
						{
							"internalType": "uint256",
							"name": "NoOfTokens",
							"type": "uint256"
						}
					],
					"stateMutability": "view",
					"type": "function"
				},
				{
					"inputs": [
						{
							"internalType": "address",
							"name": "spender",
							"type": "address"
						},
						{
							"internalType": "uint256",
							"name": "tokens",
							"type": "uint256"
						}
					],
					"name": "approve",
					"outputs": [
						{
							"internalType": "bool",
							"name": "success",
							"type": "bool"
						}
					],
					"stateMutability": "nonpayable",
					"type": "function"
				},
				{
					"inputs": [
						{
							"internalType": "address",
							"name": "tokenOwner",
							"type": "address"
						}
					],
					"name": "balanceOf",
					"outputs": [
						{
							"internalType": "uint256",
							"name": "balance",
							"type": "uint256"
						}
					],
					"stateMutability": "view",
					"type": "function"
				},
				{
					"inputs": [
						{
							"internalType": "address",
							"name": "",
							"type": "address"
						}
					],
					"name": "balances",
					"outputs": [
						{
							"internalType": "uint256",
							"name": "",
							"type": "uint256"
						}
					],
					"stateMutability": "view",
					"type": "function"
				},
				{
					"inputs": [],
					"name": "icoState",
					"outputs": [
						{
							"internalType": "enum ICO.State",
							"name": "",
							"type": "uint8"
						}
					],
					"stateMutability": "view",
					"type": "function"
				},
				{
					"inputs": [],
					"name": "raisedAmount",
					"outputs": [
						{
							"internalType": "uint256",
							"name": "",
							"type": "uint256"
						}
					],
					"stateMutability": "view",
					"type": "function"
				},
				{
					"inputs": [],
					"name": "tokenTradeTime",
					"outputs": [
						{
							"internalType": "uint256",
							"name": "",
							"type": "uint256"
						}
					],
					"stateMutability": "view",
					"type": "function"
				},
				{
					"inputs": [],
					"name": "totalSupply",
					"outputs": [
						{
							"internalType": "uint256",
							"name": "",
							"type": "uint256"
						}
					],
					"stateMutability": "view",
					"type": "function"
				},
				{
					"inputs": [
						{
							"internalType": "address",
							"name": "To",
							"type": "address"
						},
						{
							"internalType": "uint256",
							"name": "tokens",
							"type": "uint256"
						}
					],
					"name": "transfer",
					"outputs": [
						{
							"internalType": "bool",
							"name": "success",
							"type": "bool"
						}
					],
					"stateMutability": "nonpayable",
					"type": "function"
				},
				{
					"inputs": [
						{
							"internalType": "address",
							"name": "From",
							"type": "address"
						},
						{
							"internalType": "address",
							"name": "To",
							"type": "address"
						},
						{
							"internalType": "uint256",
							"name": "tokens",
							"type": "uint256"
						}
					],
					"name": "transferForm",
					"outputs": [
						{
							"internalType": "bool",
							"name": "success",
							"type": "bool"
						}
					],
					"stateMutability": "nonpayable",
					"type": "function"
				},
				{
					"stateMutability": "payable",
					"type": "receive"
				}
			],
			"devdoc": {
				"kind": "dev",
				"methods": {},
				"version": 1
			},
			"evm": {
				"assembly": "    /* \"Initial Coin Offering (ICO)/ICO.sol\":2990:6138  contract ICO is Block\r... */\n  mstore(0x40, 0x80)\n    /* \"Initial Coin Offering (ICO)/ICO.sol\":1125:1153  string public Name = \"Block\" */\n  mload(0x40)\n  dup1\n  0x40\n  add\n  0x40\n  mstore\n  dup1\n  0x05\n  dup2\n  mstore\n  0x20\n  add\n  0x426c6f636b000000000000000000000000000000000000000000000000000000\n  dup2\n  mstore\n  pop\n  0x00\n  swap1\n  dup1\n  mload\n  swap1\n  0x20\n  add\n  swap1\n  tag_1\n  swap3\n  swap2\n  swap1\n  tag_2\n  jump\t// in\ntag_1:\n  pop\n    /* \"Initial Coin Offering (ICO)/ICO.sol\":1160:1188  string public Symbol = \"BLK\" */\n  mload(0x40)\n  dup1\n  0x40\n  add\n  0x40\n  mstore\n  dup1\n  0x03\n  dup2\n  mstore\n  0x20\n  add\n  0x424c4b0000000000000000000000000000000000000000000000000000000000\n  dup2\n  mstore\n  pop\n  0x01\n  swap1\n  dup1\n  mload\n  swap1\n  0x20\n  add\n  swap1\n  tag_3\n  swap3\n  swap2\n  swap1\n  tag_2\n  jump\t// in\ntag_3:\n  pop\n    /* \"Initial Coin Offering (ICO)/ICO.sol\":1197:1224  string public Decimal = '0' */\n  mload(0x40)\n  dup1\n  0x40\n  add\n  0x40\n  mstore\n  dup1\n  0x01\n  dup2\n  mstore\n  0x20\n  add\n  0x3000000000000000000000000000000000000000000000000000000000000000\n  dup2\n  mstore\n  pop\n  0x02\n  swap1\n  dup1\n  mload\n  swap1\n  0x20\n  add\n  swap1\n  tag_4\n  swap3\n  swap2\n  swap1\n  tag_2\n  jump\t// in\ntag_4:\n  pop\n    /* \"Initial Coin Offering (ICO)/ICO.sol\":3106:3115  0.1 ether */\n  0x016345785d8a0000\n    /* \"Initial Coin Offering (ICO)/ICO.sol\":3088:3115  uint tokenPrice = 0.1 ether */\n  0x09\n  sstore\n    /* \"Initial Coin Offering (ICO)/ICO.sol\":3142:3151  300 ether */\n  0x1043561a8829300000\n    /* \"Initial Coin Offering (ICO)/ICO.sol\":3124:3151  uint public Cap = 300 ether */\n  0x0a\n  sstore\n    /* \"Initial Coin Offering (ICO)/ICO.sol\":3214:3229  block.timestamp */\n  timestamp\n    /* \"Initial Coin Offering (ICO)/ICO.sol\":3191:3229  uint public ICOstart = block.timestamp */\n  0x0c\n  sstore\n    /* \"Initial Coin Offering (ICO)/ICO.sol\":3275:3279  3600 */\n  0x0e10\n    /* \"Initial Coin Offering (ICO)/ICO.sol\":3257:3272  block.timestamp */\n  timestamp\n    /* \"Initial Coin Offering (ICO)/ICO.sol\":3257:3279  block.timestamp + 3600 */\n  tag_5\n  swap2\n  swap1\n  tag_6\n  jump\t// in\ntag_5:\n    /* \"Initial Coin Offering (ICO)/ICO.sol\":3236:3279  uint public ICOend = block.timestamp + 3600 */\n  0x0d\n  sstore\n    /* \"Initial Coin Offering (ICO)/ICO.sol\":3326:3330  3600 */\n  0x0e10\n    /* \"Initial Coin Offering (ICO)/ICO.sol\":3317:3323  ICOend */\n  sload(0x0d)\n    /* \"Initial Coin Offering (ICO)/ICO.sol\":3317:3330  ICOend + 3600 */\n  tag_7\n  swap2\n  swap1\n  tag_6\n  jump\t// in\ntag_7:\n    /* \"Initial Coin Offering (ICO)/ICO.sol\":3288:3330  uint public tokenTradeTime = ICOend + 3600 */\n  0x0e\n  sstore\n    /* \"Initial Coin Offering (ICO)/ICO.sol\":3363:3371  10 ether */\n  0x8ac7230489e80000\n    /* \"Initial Coin Offering (ICO)/ICO.sol\":3339:3371  uint public MaxInvest = 10 ether */\n  0x0f\n  sstore\n    /* \"Initial Coin Offering (ICO)/ICO.sol\":3402:3411  0.1 ether */\n  0x016345785d8a0000\n    /* \"Initial Coin Offering (ICO)/ICO.sol\":3378:3411  uint public MinInvest = 0.1 ether */\n  0x10\n  sstore\n    /* \"Initial Coin Offering (ICO)/ICO.sol\":3665:3815  constructor(address payable _deposit)\r... */\n  callvalue\n  dup1\n  iszero\n  tag_8\n  jumpi\n  0x00\n  dup1\n  revert\ntag_8:\n  pop\n  mload(0x40)\n  sub(codesize, bytecodeSize)\n  dup1\n  bytecodeSize\n  dup4\n  codecopy\n  dup2\n  dup2\n  add\n  0x40\n  mstore\n  dup2\n  add\n  swap1\n  tag_9\n  swap2\n  swap1\n  tag_10\n  jump\t// in\ntag_9:\n    /* \"Initial Coin Offering (ICO)/ICO.sol\":1530:1536  100000 */\n  0x0186a0\n    /* \"Initial Coin Offering (ICO)/ICO.sol\":1516:1527  totalSupply */\n  0x03\n    /* \"Initial Coin Offering (ICO)/ICO.sol\":1516:1536  totalSupply = 100000 */\n  dup2\n  swap1\n  sstore\n  pop\n    /* \"Initial Coin Offering (ICO)/ICO.sol\":1557:1567  msg.sender */\n  caller\n    /* \"Initial Coin Offering (ICO)/ICO.sol\":1547:1554  Founder */\n  0x04\n  0x00\n    /* \"Initial Coin Offering (ICO)/ICO.sol\":1547:1567  Founder = msg.sender */\n  0x0100\n  exp\n  dup2\n  sload\n  dup2\n  0xffffffffffffffffffffffffffffffffffffffff\n  mul\n  not\n  and\n  swap1\n  dup4\n  0xffffffffffffffffffffffffffffffffffffffff\n  and\n  mul\n  or\n  swap1\n  sstore\n  pop\n    /* \"Initial Coin Offering (ICO)/ICO.sol\":1598:1609  totalSupply */\n  sload(0x03)\n    /* \"Initial Coin Offering (ICO)/ICO.sol\":1578:1586  balances */\n  0x05\n    /* \"Initial Coin Offering (ICO)/ICO.sol\":1578:1595  balances[Founder] */\n  0x00\n    /* \"Initial Coin Offering (ICO)/ICO.sol\":1587:1594  Founder */\n  0x04\n  0x00\n  swap1\n  sload\n  swap1\n  0x0100\n  exp\n  swap1\n  div\n  0xffffffffffffffffffffffffffffffffffffffff\n  and\n    /* \"Initial Coin Offering (ICO)/ICO.sol\":1578:1595  balances[Founder] */\n  0xffffffffffffffffffffffffffffffffffffffff\n  and\n  0xffffffffffffffffffffffffffffffffffffffff\n  and\n  dup2\n  mstore\n  0x20\n  add\n  swap1\n  dup2\n  mstore\n  0x20\n  add\n  0x00\n  keccak256\n    /* \"Initial Coin Offering (ICO)/ICO.sol\":1578:1609  balances[Founder] = totalSupply */\n  dup2\n  swap1\n  sstore\n  pop\n    /* \"Initial Coin Offering (ICO)/ICO.sol\":3729:3737  _deposit */\n  dup1\n    /* \"Initial Coin Offering (ICO)/ICO.sol\":3719:3726  Deposit */\n  0x08\n  0x00\n    /* \"Initial Coin Offering (ICO)/ICO.sol\":3719:3737  Deposit = _deposit */\n  0x0100\n  exp\n  dup2\n  sload\n  dup2\n  0xffffffffffffffffffffffffffffffffffffffff\n  mul\n  not\n  and\n  swap1\n  dup4\n  0xffffffffffffffffffffffffffffffffffffffff\n  and\n  mul\n  or\n  swap1\n  sstore\n  pop\n    /* \"Initial Coin Offering (ICO)/ICO.sol\":3758:3768  msg.sender */\n  caller\n    /* \"Initial Coin Offering (ICO)/ICO.sol\":3748:3755  Manager */\n  0x07\n  0x00\n    /* \"Initial Coin Offering (ICO)/ICO.sol\":3748:3768  Manager = msg.sender */\n  0x0100\n  exp\n  dup2\n  sload\n  dup2\n  0xffffffffffffffffffffffffffffffffffffffff\n  mul\n  not\n  and\n  swap1\n  dup4\n  0xffffffffffffffffffffffffffffffffffffffff\n  and\n  mul\n  or\n  swap1\n  sstore\n  pop\n    /* \"Initial Coin Offering (ICO)/ICO.sol\":3790:3807  State.beforeStart */\n  0x00\n    /* \"Initial Coin Offering (ICO)/ICO.sol\":3779:3787  icoState */\n  0x11\n  0x00\n    /* \"Initial Coin Offering (ICO)/ICO.sol\":3779:3807  icoState = State.beforeStart */\n  0x0100\n  exp\n  dup2\n  sload\n  dup2\n  0xff\n  mul\n  not\n  and\n  swap1\n  dup4\n  0x03\n  dup2\n  gt\n  iszero\n  tag_15\n  jumpi\n  tag_16\n  tag_17\n  jump\t// in\ntag_16:\ntag_15:\n  mul\n  or\n  swap1\n  sstore\n  pop\n    /* \"Initial Coin Offering (ICO)/ICO.sol\":3665:3815  constructor(address payable _deposit)\r... */\n  pop\n    /* \"Initial Coin Offering (ICO)/ICO.sol\":2990:6138  contract ICO is Block\r... */\n  jump(tag_18)\ntag_2:\n  dup3\n  dup1\n  sload\n  tag_19\n  swap1\n  tag_20\n  jump\t// in\ntag_19:\n  swap1\n  0x00\n  mstore\n  keccak256(0x00, 0x20)\n  swap1\n  0x1f\n  add\n  0x20\n  swap1\n  div\n  dup2\n  add\n  swap3\n  dup3\n  tag_22\n  jumpi\n  0x00\n  dup6\n  sstore\n  jump(tag_21)\ntag_22:\n  dup3\n  0x1f\n  lt\n  tag_23\n  jumpi\n  dup1\n  mload\n  not(0xff)\n  and\n  dup4\n  dup1\n  add\n  or\n  dup6\n  sstore\n  jump(tag_21)\ntag_23:\n  dup3\n  dup1\n  add\n  0x01\n  add\n  dup6\n  sstore\n  dup3\n  iszero\n  tag_21\n  jumpi\n  swap2\n  dup3\n  add\ntag_24:\n  dup3\n  dup2\n  gt\n  iszero\n  tag_25\n  jumpi\n  dup3\n  mload\n  dup3\n  sstore\n  swap2\n  0x20\n  add\n  swap2\n  swap1\n  0x01\n  add\n  swap1\n  jump(tag_24)\ntag_25:\ntag_21:\n  pop\n  swap1\n  pop\n  tag_26\n  swap2\n  swap1\n  tag_27\n  jump\t// in\ntag_26:\n  pop\n  swap1\n  jump\t// out\ntag_27:\ntag_28:\n  dup1\n  dup3\n  gt\n  iszero\n  tag_29\n  jumpi\n  0x00\n  dup2\n  0x00\n  swap1\n  sstore\n  pop\n  0x01\n  add\n  jump(tag_28)\ntag_29:\n  pop\n  swap1\n  jump\t// out\n    /* \"#utility.yul\":7:166   */\ntag_31:\n    /* \"#utility.yul\":72:77   */\n  0x00\n    /* \"#utility.yul\":103:109   */\n  dup2\n    /* \"#utility.yul\":97:110   */\n  mload\n    /* \"#utility.yul\":88:110   */\n  swap1\n  pop\n    /* \"#utility.yul\":119:160   */\n  tag_33\n    /* \"#utility.yul\":154:159   */\n  dup2\n    /* \"#utility.yul\":119:160   */\n  tag_34\n  jump\t// in\ntag_33:\n    /* \"#utility.yul\":7:166   */\n  swap3\n  swap2\n  pop\n  pop\n  jump\t// out\n    /* \"#utility.yul\":172:539   */\ntag_10:\n    /* \"#utility.yul\":250:256   */\n  0x00\n    /* \"#utility.yul\":299:301   */\n  0x20\n    /* \"#utility.yul\":287:296   */\n  dup3\n    /* \"#utility.yul\":278:285   */\n  dup5\n    /* \"#utility.yul\":274:297   */\n  sub\n    /* \"#utility.yul\":270:302   */\n  slt\n    /* \"#utility.yul\":267:386   */\n  iszero\n  tag_36\n  jumpi\n    /* \"#utility.yul\":305:384   */\n  tag_37\n  tag_38\n  jump\t// in\ntag_37:\n    /* \"#utility.yul\":267:386   */\ntag_36:\n    /* \"#utility.yul\":425:426   */\n  0x00\n    /* \"#utility.yul\":450:522   */\n  tag_39\n    /* \"#utility.yul\":514:521   */\n  dup5\n    /* \"#utility.yul\":505:511   */\n  dup3\n    /* \"#utility.yul\":494:503   */\n  dup6\n    /* \"#utility.yul\":490:512   */\n  add\n    /* \"#utility.yul\":450:522   */\n  tag_31\n  jump\t// in\ntag_39:\n    /* \"#utility.yul\":440:522   */\n  swap2\n  pop\n    /* \"#utility.yul\":396:532   */\n  pop\n    /* \"#utility.yul\":172:539   */\n  swap3\n  swap2\n  pop\n  pop\n  jump\t// out\n    /* \"#utility.yul\":626:931   */\ntag_6:\n    /* \"#utility.yul\":666:669   */\n  0x00\n    /* \"#utility.yul\":685:705   */\n  tag_43\n    /* \"#utility.yul\":703:704   */\n  dup3\n    /* \"#utility.yul\":685:705   */\n  tag_44\n  jump\t// in\ntag_43:\n    /* \"#utility.yul\":680:705   */\n  swap2\n  pop\n    /* \"#utility.yul\":719:739   */\n  tag_45\n    /* \"#utility.yul\":737:738   */\n  dup4\n    /* \"#utility.yul\":719:739   */\n  tag_44\n  jump\t// in\ntag_45:\n    /* \"#utility.yul\":714:739   */\n  swap3\n  pop\n    /* \"#utility.yul\":873:874   */\n  dup3\n    /* \"#utility.yul\":805:871   */\n  0xffffffffffffffffffffffffffffffffffffffffffffffffffffffffffffffff\n    /* \"#utility.yul\":801:875   */\n  sub\n    /* \"#utility.yul\":798:799   */\n  dup3\n    /* \"#utility.yul\":795:876   */\n  gt\n    /* \"#utility.yul\":792:899   */\n  iszero\n  tag_46\n  jumpi\n    /* \"#utility.yul\":879:897   */\n  tag_47\n  tag_48\n  jump\t// in\ntag_47:\n    /* \"#utility.yul\":792:899   */\ntag_46:\n    /* \"#utility.yul\":923:924   */\n  dup3\n    /* \"#utility.yul\":920:921   */\n  dup3\n    /* \"#utility.yul\":916:925   */\n  add\n    /* \"#utility.yul\":909:925   */\n  swap1\n  pop\n    /* \"#utility.yul\":626:931   */\n  swap3\n  swap2\n  pop\n  pop\n  jump\t// out\n    /* \"#utility.yul\":937:1041   */\ntag_49:\n    /* \"#utility.yul\":982:989   */\n  0x00\n    /* \"#utility.yul\":1011:1035   */\n  tag_51\n    /* \"#utility.yul\":1029:1034   */\n  dup3\n    /* \"#utility.yul\":1011:1035   */\n  tag_52\n  jump\t// in\ntag_51:\n    /* \"#utility.yul\":1000:1035   */\n  swap1\n  pop\n    /* \"#utility.yul\":937:1041   */\n  swap2\n  swap1\n  pop\n  jump\t// out\n    /* \"#utility.yul\":1047:1173   */\ntag_52:\n    /* \"#utility.yul\":1084:1091   */\n  0x00\n    /* \"#utility.yul\":1124:1166   */\n  0xffffffffffffffffffffffffffffffffffffffff\n    /* \"#utility.yul\":1117:1122   */\n  dup3\n    /* \"#utility.yul\":1113:1167   */\n  and\n    /* \"#utility.yul\":1102:1167   */\n  swap1\n  pop\n    /* \"#utility.yul\":1047:1173   */\n  swap2\n  swap1\n  pop\n  jump\t// out\n    /* \"#utility.yul\":1179:1256   */\ntag_44:\n    /* \"#utility.yul\":1216:1223   */\n  0x00\n    /* \"#utility.yul\":1245:1250   */\n  dup2\n    /* \"#utility.yul\":1234:1250   */\n  swap1\n  pop\n    /* \"#utility.yul\":1179:1256   */\n  swap2\n  swap1\n  pop\n  jump\t// out\n    /* \"#utility.yul\":1262:1582   */\ntag_20:\n    /* \"#utility.yul\":1306:1312   */\n  0x00\n    /* \"#utility.yul\":1343:1344   */\n  0x02\n    /* \"#utility.yul\":1337:1341   */\n  dup3\n    /* \"#utility.yul\":1333:1345   */\n  div\n    /* \"#utility.yul\":1323:1345   */\n  swap1\n  pop\n    /* \"#utility.yul\":1390:1391   */\n  0x01\n    /* \"#utility.yul\":1384:1388   */\n  dup3\n    /* \"#utility.yul\":1380:1392   */\n  and\n    /* \"#utility.yul\":1411:1429   */\n  dup1\n    /* \"#utility.yul\":1401:1482   */\n  tag_56\n  jumpi\n    /* \"#utility.yul\":1467:1471   */\n  0x7f\n    /* \"#utility.yul\":1459:1465   */\n  dup3\n    /* \"#utility.yul\":1455:1472   */\n  and\n    /* \"#utility.yul\":1445:1472   */\n  swap2\n  pop\n    /* \"#utility.yul\":1401:1482   */\ntag_56:\n    /* \"#utility.yul\":1529:1531   */\n  0x20\n    /* \"#utility.yul\":1521:1527   */\n  dup3\n    /* \"#utility.yul\":1518:1532   */\n  lt\n    /* \"#utility.yul\":1498:1516   */\n  dup2\n    /* \"#utility.yul\":1495:1533   */\n  eq\n    /* \"#utility.yul\":1492:1576   */\n  iszero\n  tag_57\n  jumpi\n    /* \"#utility.yul\":1548:1566   */\n  tag_58\n  tag_59\n  jump\t// in\ntag_58:\n    /* \"#utility.yul\":1492:1576   */\ntag_57:\n    /* \"#utility.yul\":1313:1582   */\n  pop\n    /* \"#utility.yul\":1262:1582   */\n  swap2\n  swap1\n  pop\n  jump\t// out\n    /* \"#utility.yul\":1588:1768   */\ntag_48:\n    /* \"#utility.yul\":1636:1713   */\n  0x4e487b7100000000000000000000000000000000000000000000000000000000\n    /* \"#utility.yul\":1633:1634   */\n  0x00\n    /* \"#utility.yul\":1626:1714   */\n  mstore\n    /* \"#utility.yul\":1733:1737   */\n  0x11\n    /* \"#utility.yul\":1730:1731   */\n  0x04\n    /* \"#utility.yul\":1723:1738   */\n  mstore\n    /* \"#utility.yul\":1757:1761   */\n  0x24\n    /* \"#utility.yul\":1754:1755   */\n  0x00\n    /* \"#utility.yul\":1747:1762   */\n  revert\n    /* \"#utility.yul\":1774:1954   */\ntag_17:\n    /* \"#utility.yul\":1822:1899   */\n  0x4e487b7100000000000000000000000000000000000000000000000000000000\n    /* \"#utility.yul\":1819:1820   */\n  0x00\n    /* \"#utility.yul\":1812:1900   */\n  mstore\n    /* \"#utility.yul\":1919:1923   */\n  0x21\n    /* \"#utility.yul\":1916:1917   */\n  0x04\n    /* \"#utility.yul\":1909:1924   */\n  mstore\n    /* \"#utility.yul\":1943:1947   */\n  0x24\n    /* \"#utility.yul\":1940:1941   */\n  0x00\n    /* \"#utility.yul\":1933:1948   */\n  revert\n    /* \"#utility.yul\":1960:2140   */\ntag_59:\n    /* \"#utility.yul\":2008:2085   */\n  0x4e487b7100000000000000000000000000000000000000000000000000000000\n    /* \"#utility.yul\":2005:2006   */\n  0x00\n    /* \"#utility.yul\":1998:2086   */\n  mstore\n    /* \"#utility.yul\":2105:2109   */\n  0x22\n    /* \"#utility.yul\":2102:2103   */\n  0x04\n    /* \"#utility.yul\":2095:2110   */\n  mstore\n    /* \"#utility.yul\":2129:2133   */\n  0x24\n    /* \"#utility.yul\":2126:2127   */\n  0x00\n    /* \"#utility.yul\":2119:2134   */\n  revert\n    /* \"#utility.yul\":2269:2386   */\ntag_38:\n    /* \"#utility.yul\":2378:2379   */\n  0x00\n    /* \"#utility.yul\":2375:2376   */\n  dup1\n    /* \"#utility.yul\":2368:2380   */\n  revert\n    /* \"#utility.yul\":2392:2530   */\ntag_34:\n    /* \"#utility.yul\":2473:2505   */\n  tag_67\n    /* \"#utility.yul\":2499:2504   */\n  dup2\n    /* \"#utility.yul\":2473:2505   */\n  tag_49\n  jump\t// in\ntag_67:\n    /* \"#utility.yul\":2466:2471   */\n  dup2\n    /* \"#utility.yul\":2463:2506   */\n  eq\n    /* \"#utility.yul\":2453:2524   */\n  tag_68\n  jumpi\n    /* \"#utility.yul\":2520:2521   */\n  0x00\n    /* \"#utility.yul\":2517:2518   */\n  dup1\n    /* \"#utility.yul\":2510:2522   */\n  revert\n    /* \"#utility.yul\":2453:2524   */\ntag_68:\n    /* \"#utility.yul\":2392:2530   */\n  pop\n  jump\t// out\n    /* \"Initial Coin Offering (ICO)/ICO.sol\":2990:6138  contract ICO is Block\r... */\ntag_18:\n  dataSize(sub_0)\n  dup1\n  dataOffset(sub_0)\n  0x00\n  codecopy\n  0x00\n  return\nstop\n\nsub_0: assembly {\n        /* \"Initial Coin Offering (ICO)/ICO.sol\":2990:6138  contract ICO is Block\r... */\n      mstore(0x40, 0x80)\n      jumpi(tag_1, lt(calldatasize, 0x04))\n      shr(0xe0, calldataload(0x00))\n      dup1\n      0x78357e53\n      gt\n      tag_31\n      jumpi\n      dup1\n      0xbb4e1149\n      gt\n      tag_32\n      jumpi\n      dup1\n      0xdd62ed3e\n      gt\n      tag_33\n      jumpi\n      dup1\n      0xdd62ed3e\n      eq\n      tag_27\n      jumpi\n      dup1\n      0xe9fef498\n      eq\n      tag_28\n      jumpi\n      dup1\n      0xed21248c\n      eq\n      tag_29\n      jumpi\n      dup1\n      0xefeb941d\n      eq\n      tag_30\n      jumpi\n      jump(tag_2)\n    tag_33:\n      dup1\n      0xbb4e1149\n      eq\n      tag_24\n      jumpi\n      dup1\n      0xc0a2526c\n      eq\n      tag_25\n      jumpi\n      dup1\n      0xc59ee1dc\n      eq\n      tag_26\n      jumpi\n      jump(tag_2)\n    tag_32:\n      dup1\n      0xa8d1ea88\n      gt\n      tag_34\n      jumpi\n      dup1\n      0xa8d1ea88\n      eq\n      tag_20\n      jumpi\n      dup1\n      0xa9059cbb\n      eq\n      tag_21\n      jumpi\n      dup1\n      0xaf3ad0a5\n      eq\n      tag_22\n      jumpi\n      dup1\n      0xb8a4825f\n      eq\n      tag_23\n      jumpi\n      jump(tag_2)\n    tag_34:\n      dup1\n      0x78357e53\n      eq\n      tag_17\n      jumpi\n      dup1\n      0x7914dfed\n      eq\n      tag_18\n      jumpi\n      dup1\n      0x8052474d\n      eq\n      tag_19\n      jumpi\n      jump(tag_2)\n    tag_31:\n      dup1\n      0x3112ae5b\n      gt\n      tag_35\n      jumpi\n      dup1\n      0x44f38756\n      gt\n      tag_36\n      jumpi\n      dup1\n      0x44f38756\n      eq\n      tag_13\n      jumpi\n      dup1\n      0x490d6d11\n      eq\n      tag_14\n      jumpi\n      dup1\n      0x631aa385\n      eq\n      tag_15\n      jumpi\n      dup1\n      0x70a08231\n      eq\n      tag_16\n      jumpi\n      jump(tag_2)\n    tag_36:\n      dup1\n      0x3112ae5b\n      eq\n      tag_10\n      jumpi\n      dup1\n      0x3278dc67\n      eq\n      tag_11\n      jumpi\n      dup1\n      0x41c5cf5c\n      eq\n      tag_12\n      jumpi\n      jump(tag_2)\n    tag_35:\n      dup1\n      0x1d7ec23e\n      gt\n      tag_37\n      jumpi\n      dup1\n      0x1d7ec23e\n      eq\n      tag_6\n      jumpi\n      dup1\n      0x1fe50c39\n      eq\n      tag_7\n      jumpi\n      dup1\n      0x27e235e3\n      eq\n      tag_8\n      jumpi\n      dup1\n      0x3045aaf3\n      eq\n      tag_9\n      jumpi\n      jump(tag_2)\n    tag_37:\n      dup1\n      0x095ea7b3\n      eq\n      tag_3\n      jumpi\n      dup1\n      0x14f7252c\n      eq\n      tag_4\n      jumpi\n      dup1\n      0x18160ddd\n      eq\n      tag_5\n      jumpi\n      jump(tag_2)\n    tag_1:\n      jumpi(tag_2, calldatasize)\n        /* \"Initial Coin Offering (ICO)/ICO.sol\":6113:6121  INVEST() */\n      tag_40\n        /* \"Initial Coin Offering (ICO)/ICO.sol\":6113:6119  INVEST */\n      tag_41\n        /* \"Initial Coin Offering (ICO)/ICO.sol\":6113:6121  INVEST() */\n      jump\t// in\n    tag_40:\n      pop\n        /* \"Initial Coin Offering (ICO)/ICO.sol\":2990:6138  contract ICO is Block\r... */\n      stop\n    tag_2:\n      0x00\n      dup1\n      revert\n        /* \"Initial Coin Offering (ICO)/ICO.sol\":2194:2499  function approve(address spender, uint tokens) external override returns(bool success)\r... */\n    tag_3:\n      callvalue\n      dup1\n      iszero\n      tag_42\n      jumpi\n      0x00\n      dup1\n      revert\n    tag_42:\n      pop\n      tag_43\n      0x04\n      dup1\n      calldatasize\n      sub\n      dup2\n      add\n      swap1\n      tag_44\n      swap2\n      swap1\n      tag_45\n      jump\t// in\n    tag_44:\n      tag_46\n      jump\t// in\n    tag_43:\n      mload(0x40)\n      tag_47\n      swap2\n      swap1\n      tag_48\n      jump\t// in\n    tag_47:\n      mload(0x40)\n      dup1\n      swap2\n      sub\n      swap1\n      return\n        /* \"Initial Coin Offering (ICO)/ICO.sol\":4210:4334  function ChangeDepositAddress(address payable NewDeposit) public CheckOnlyOwner\r... */\n    tag_4:\n      callvalue\n      dup1\n      iszero\n      tag_49\n      jumpi\n      0x00\n      dup1\n      revert\n    tag_49:\n      pop\n      tag_50\n      0x04\n      dup1\n      calldatasize\n      sub\n      dup2\n      add\n      swap1\n      tag_51\n      swap2\n      swap1\n      tag_52\n      jump\t// in\n    tag_51:\n      tag_53\n      jump\t// in\n    tag_50:\n      stop\n        /* \"Initial Coin Offering (ICO)/ICO.sol\":1231:1263  uint public override totalSupply */\n    tag_5:\n      callvalue\n      dup1\n      iszero\n      tag_54\n      jumpi\n      0x00\n      dup1\n      revert\n    tag_54:\n      pop\n      tag_55\n      tag_56\n      jump\t// in\n    tag_55:\n      mload(0x40)\n      tag_57\n      swap2\n      swap1\n      tag_58\n      jump\t// in\n    tag_57:\n      mload(0x40)\n      dup1\n      swap2\n      sub\n      swap1\n      return\n        /* \"Initial Coin Offering (ICO)/ICO.sol\":3339:3371  uint public MaxInvest = 10 ether */\n    tag_6:\n      callvalue\n      dup1\n      iszero\n      tag_59\n      jumpi\n      0x00\n      dup1\n      revert\n    tag_59:\n      pop\n      tag_60\n      tag_61\n      jump\t// in\n    tag_60:\n      mload(0x40)\n      tag_62\n      swap2\n      swap1\n      tag_58\n      jump\t// in\n    tag_62:\n      mload(0x40)\n      dup1\n      swap2\n      sub\n      swap1\n      return\n        /* \"Initial Coin Offering (ICO)/ICO.sol\":1197:1224  string public Decimal = '0' */\n    tag_7:\n      callvalue\n      dup1\n      iszero\n      tag_63\n      jumpi\n      0x00\n      dup1\n      revert\n    tag_63:\n      pop\n      tag_64\n      tag_65\n      jump\t// in\n    tag_64:\n      mload(0x40)\n      tag_66\n      swap2\n      swap1\n      tag_67\n      jump\t// in\n    tag_66:\n      mload(0x40)\n      dup1\n      swap2\n      sub\n      swap1\n      return\n        /* \"Initial Coin Offering (ICO)/ICO.sol\":1347:1385  mapping(address=>uint) public balances */\n    tag_8:\n      callvalue\n      dup1\n      iszero\n      tag_68\n      jumpi\n      0x00\n      dup1\n      revert\n    tag_68:\n      pop\n      tag_69\n      0x04\n      dup1\n      calldatasize\n      sub\n      dup2\n      add\n      swap1\n      tag_70\n      swap2\n      swap1\n      tag_71\n      jump\t// in\n    tag_70:\n      tag_72\n      jump\t// in\n    tag_69:\n      mload(0x40)\n      tag_73\n      swap2\n      swap1\n      tag_58\n      jump\t// in\n    tag_73:\n      mload(0x40)\n      dup1\n      swap2\n      sub\n      swap1\n      return\n        /* \"Initial Coin Offering (ICO)/ICO.sol\":1160:1188  string public Symbol = \"BLK\" */\n    tag_9:\n      callvalue\n      dup1\n      iszero\n      tag_74\n      jumpi\n      0x00\n      dup1\n      revert\n    tag_74:\n      pop\n      tag_75\n      tag_76\n      jump\t// in\n    tag_75:\n      mload(0x40)\n      tag_77\n      swap2\n      swap1\n      tag_67\n      jump\t// in\n    tag_77:\n      mload(0x40)\n      dup1\n      swap2\n      sub\n      swap1\n      return\n        /* \"Initial Coin Offering (ICO)/ICO.sol\":5827:6062  function transferForm(address From, address To, uint tokens) public override returns(bool success)\r... */\n    tag_10:\n      callvalue\n      dup1\n      iszero\n      tag_78\n      jumpi\n      0x00\n      dup1\n      revert\n    tag_78:\n      pop\n      tag_79\n      0x04\n      dup1\n      calldatasize\n      sub\n      dup2\n      add\n      swap1\n      tag_80\n      swap2\n      swap1\n      tag_81\n      jump\t// in\n    tag_80:\n      tag_82\n      jump\t// in\n    tag_79:\n      mload(0x40)\n      tag_83\n      swap2\n      swap1\n      tag_48\n      jump\t// in\n    tag_83:\n      mload(0x40)\n      dup1\n      swap2\n      sub\n      swap1\n      return\n        /* \"Initial Coin Offering (ICO)/ICO.sol\":1270:1292  address public Founder */\n    tag_11:\n      callvalue\n      dup1\n      iszero\n      tag_84\n      jumpi\n      0x00\n      dup1\n      revert\n    tag_84:\n      pop\n      tag_85\n      tag_86\n      jump\t// in\n    tag_85:\n      mload(0x40)\n      tag_87\n      swap2\n      swap1\n      tag_88\n      jump\t// in\n    tag_87:\n      mload(0x40)\n      dup1\n      swap2\n      sub\n      swap1\n      return\n        /* \"Initial Coin Offering (ICO)/ICO.sol\":3236:3279  uint public ICOend = block.timestamp + 3600 */\n    tag_12:\n      callvalue\n      dup1\n      iszero\n      tag_89\n      jumpi\n      0x00\n      dup1\n      revert\n    tag_89:\n      pop\n      tag_90\n      tag_91\n      jump\t// in\n    tag_90:\n      mload(0x40)\n      tag_92\n      swap2\n      swap1\n      tag_58\n      jump\t// in\n    tag_92:\n      mload(0x40)\n      dup1\n      swap2\n      sub\n      swap1\n      return\n        /* \"Initial Coin Offering (ICO)/ICO.sol\":3527:3548  State public icoState */\n    tag_13:\n      callvalue\n      dup1\n      iszero\n      tag_93\n      jumpi\n      0x00\n      dup1\n      revert\n    tag_93:\n      pop\n      tag_94\n      tag_95\n      jump\t// in\n    tag_94:\n      mload(0x40)\n      tag_96\n      swap2\n      swap1\n      tag_97\n      jump\t// in\n    tag_96:\n      mload(0x40)\n      dup1\n      swap2\n      sub\n      swap1\n      return\n        /* \"Initial Coin Offering (ICO)/ICO.sol\":4114:4202  function Resume() public CheckOnlyOwner\r... */\n    tag_14:\n      callvalue\n      dup1\n      iszero\n      tag_98\n      jumpi\n      0x00\n      dup1\n      revert\n    tag_98:\n      pop\n      tag_99\n      tag_100\n      jump\t// in\n    tag_99:\n      stop\n        /* \"Initial Coin Offering (ICO)/ICO.sol\":4342:4806  function GetState() public view returns(State)\r... */\n    tag_15:\n      callvalue\n      dup1\n      iszero\n      tag_101\n      jumpi\n      0x00\n      dup1\n      revert\n    tag_101:\n      pop\n      tag_102\n      tag_103\n      jump\t// in\n    tag_102:\n      mload(0x40)\n      tag_104\n      swap2\n      swap1\n      tag_97\n      jump\t// in\n    tag_104:\n      mload(0x40)\n      dup1\n      swap2\n      sub\n      swap1\n      return\n        /* \"Initial Coin Offering (ICO)/ICO.sol\":1625:1760  function balanceOf(address tokenOwner) external view override returns(uint balance)\r... */\n    tag_16:\n      callvalue\n      dup1\n      iszero\n      tag_105\n      jumpi\n      0x00\n      dup1\n      revert\n    tag_105:\n      pop\n      tag_106\n      0x04\n      dup1\n      calldatasize\n      sub\n      dup2\n      add\n      swap1\n      tag_107\n      swap2\n      swap1\n      tag_71\n      jump\t// in\n    tag_107:\n      tag_108\n      jump\t// in\n    tag_106:\n      mload(0x40)\n      tag_109\n      swap2\n      swap1\n      tag_58\n      jump\t// in\n    tag_109:\n      mload(0x40)\n      dup1\n      swap2\n      sub\n      swap1\n      return\n        /* \"Initial Coin Offering (ICO)/ICO.sol\":3020:3042  address public Manager */\n    tag_17:\n      callvalue\n      dup1\n      iszero\n      tag_110\n      jumpi\n      0x00\n      dup1\n      revert\n    tag_110:\n      pop\n      tag_111\n      tag_112\n      jump\t// in\n    tag_111:\n      mload(0x40)\n      tag_113\n      swap2\n      swap1\n      tag_88\n      jump\t// in\n    tag_113:\n      mload(0x40)\n      dup1\n      swap2\n      sub\n      swap1\n      return\n        /* \"Initial Coin Offering (ICO)/ICO.sol\":4814:5340  function INVEST() payable public returns(bool)\r... */\n    tag_18:\n      tag_114\n      tag_41\n      jump\t// in\n    tag_114:\n      mload(0x40)\n      tag_115\n      swap2\n      swap1\n      tag_48\n      jump\t// in\n    tag_115:\n      mload(0x40)\n      dup1\n      swap2\n      sub\n      swap1\n      return\n        /* \"Initial Coin Offering (ICO)/ICO.sol\":1125:1153  string public Name = \"Block\" */\n    tag_19:\n      callvalue\n      dup1\n      iszero\n      tag_116\n      jumpi\n      0x00\n      dup1\n      revert\n    tag_116:\n      pop\n      tag_117\n      tag_118\n      jump\t// in\n    tag_117:\n      mload(0x40)\n      tag_119\n      swap2\n      swap1\n      tag_67\n      jump\t// in\n    tag_119:\n      mload(0x40)\n      dup1\n      swap2\n      sub\n      swap1\n      return\n        /* \"Initial Coin Offering (ICO)/ICO.sol\":4021:4106  function Halt() public CheckOnlyOwner\r... */\n    tag_20:\n      callvalue\n      dup1\n      iszero\n      tag_120\n      jumpi\n      0x00\n      dup1\n      revert\n    tag_120:\n      pop\n      tag_121\n      tag_122\n      jump\t// in\n    tag_121:\n      stop\n        /* \"Initial Coin Offering (ICO)/ICO.sol\":5612:5819  function transfer(address To, uint tokens) public override returns(bool success)\r... */\n    tag_21:\n      callvalue\n      dup1\n      iszero\n      tag_123\n      jumpi\n      0x00\n      dup1\n      revert\n    tag_123:\n      pop\n      tag_124\n      0x04\n      dup1\n      calldatasize\n      sub\n      dup2\n      add\n      swap1\n      tag_125\n      swap2\n      swap1\n      tag_45\n      jump\t// in\n    tag_125:\n      tag_126\n      jump\t// in\n    tag_124:\n      mload(0x40)\n      tag_127\n      swap2\n      swap1\n      tag_48\n      jump\t// in\n    tag_127:\n      mload(0x40)\n      dup1\n      swap2\n      sub\n      swap1\n      return\n        /* \"Initial Coin Offering (ICO)/ICO.sol\":3378:3411  uint public MinInvest = 0.1 ether */\n    tag_22:\n      callvalue\n      dup1\n      iszero\n      tag_128\n      jumpi\n      0x00\n      dup1\n      revert\n    tag_128:\n      pop\n      tag_129\n      tag_130\n      jump\t// in\n    tag_129:\n      mload(0x40)\n      tag_131\n      swap2\n      swap1\n      tag_58\n      jump\t// in\n    tag_131:\n      mload(0x40)\n      dup1\n      swap2\n      sub\n      swap1\n      return\n        /* \"Initial Coin Offering (ICO)/ICO.sol\":3288:3330  uint public tokenTradeTime = ICOend + 3600 */\n    tag_23:\n      callvalue\n      dup1\n      iszero\n      tag_132\n      jumpi\n      0x00\n      dup1\n      revert\n    tag_132:\n      pop\n      tag_133\n      tag_134\n      jump\t// in\n    tag_133:\n      mload(0x40)\n      tag_135\n      swap2\n      swap1\n      tag_58\n      jump\t// in\n    tag_135:\n      mload(0x40)\n      dup1\n      swap2\n      sub\n      swap1\n      return\n        /* \"Initial Coin Offering (ICO)/ICO.sol\":1418:1477  mapping(address => mapping(address => uint)) public Allowed */\n    tag_24:\n      callvalue\n      dup1\n      iszero\n      tag_136\n      jumpi\n      0x00\n      dup1\n      revert\n    tag_136:\n      pop\n      tag_137\n      0x04\n      dup1\n      calldatasize\n      sub\n      dup2\n      add\n      swap1\n      tag_138\n      swap2\n      swap1\n      tag_139\n      jump\t// in\n    tag_138:\n      tag_140\n      jump\t// in\n    tag_137:\n      mload(0x40)\n      tag_141\n      swap2\n      swap1\n      tag_58\n      jump\t// in\n    tag_141:\n      mload(0x40)\n      dup1\n      swap2\n      sub\n      swap1\n      return\n        /* \"Initial Coin Offering (ICO)/ICO.sol\":5420:5604  function BURN() public returns(bool)\r... */\n    tag_25:\n      callvalue\n      dup1\n      iszero\n      tag_142\n      jumpi\n      0x00\n      dup1\n      revert\n    tag_142:\n      pop\n      tag_143\n      tag_144\n      jump\t// in\n    tag_143:\n      mload(0x40)\n      tag_145\n      swap2\n      swap1\n      tag_48\n      jump\t// in\n    tag_145:\n      mload(0x40)\n      dup1\n      swap2\n      sub\n      swap1\n      return\n        /* \"Initial Coin Offering (ICO)/ICO.sol\":3158:3182  uint public raisedAmount */\n    tag_26:\n      callvalue\n      dup1\n      iszero\n      tag_146\n      jumpi\n      0x00\n      dup1\n      revert\n    tag_146:\n      pop\n      tag_147\n      tag_148\n      jump\t// in\n    tag_147:\n      mload(0x40)\n      tag_149\n      swap2\n      swap1\n      tag_58\n      jump\t// in\n    tag_149:\n      mload(0x40)\n      dup1\n      swap2\n      sub\n      swap1\n      return\n        /* \"Initial Coin Offering (ICO)/ICO.sol\":2507:2670  function allowance(address tokenOwner, address spender) external view override returns(uint NoOfTokens)\r... */\n    tag_27:\n      callvalue\n      dup1\n      iszero\n      tag_150\n      jumpi\n      0x00\n      dup1\n      revert\n    tag_150:\n      pop\n      tag_151\n      0x04\n      dup1\n      calldatasize\n      sub\n      dup2\n      add\n      swap1\n      tag_152\n      swap2\n      swap1\n      tag_139\n      jump\t// in\n    tag_152:\n      tag_153\n      jump\t// in\n    tag_151:\n      mload(0x40)\n      tag_154\n      swap2\n      swap1\n      tag_58\n      jump\t// in\n    tag_154:\n      mload(0x40)\n      dup1\n      swap2\n      sub\n      swap1\n      return\n        /* \"Initial Coin Offering (ICO)/ICO.sol\":3124:3151  uint public Cap = 300 ether */\n    tag_28:\n      callvalue\n      dup1\n      iszero\n      tag_155\n      jumpi\n      0x00\n      dup1\n      revert\n    tag_155:\n      pop\n      tag_156\n      tag_157\n      jump\t// in\n    tag_156:\n      mload(0x40)\n      tag_158\n      swap2\n      swap1\n      tag_58\n      jump\t// in\n    tag_158:\n      mload(0x40)\n      dup1\n      swap2\n      sub\n      swap1\n      return\n        /* \"Initial Coin Offering (ICO)/ICO.sol\":3049:3079  address payable public Deposit */\n    tag_29:\n      callvalue\n      dup1\n      iszero\n      tag_159\n      jumpi\n      0x00\n      dup1\n      revert\n    tag_159:\n      pop\n      tag_160\n      tag_161\n      jump\t// in\n    tag_160:\n      mload(0x40)\n      tag_162\n      swap2\n      swap1\n      tag_163\n      jump\t// in\n    tag_162:\n      mload(0x40)\n      dup1\n      swap2\n      sub\n      swap1\n      return\n        /* \"Initial Coin Offering (ICO)/ICO.sol\":3191:3229  uint public ICOstart = block.timestamp */\n    tag_30:\n      callvalue\n      dup1\n      iszero\n      tag_164\n      jumpi\n      0x00\n      dup1\n      revert\n    tag_164:\n      pop\n      tag_165\n      tag_166\n      jump\t// in\n    tag_165:\n      mload(0x40)\n      tag_167\n      swap2\n      swap1\n      tag_58\n      jump\t// in\n    tag_167:\n      mload(0x40)\n      dup1\n      swap2\n      sub\n      swap1\n      return\n        /* \"Initial Coin Offering (ICO)/ICO.sol\":4814:5340  function INVEST() payable public returns(bool)\r... */\n    tag_41:\n        /* \"Initial Coin Offering (ICO)/ICO.sol\":4855:4859  bool */\n      0x00\n        /* \"Initial Coin Offering (ICO)/ICO.sol\":4888:4898  GetState() */\n      tag_169\n        /* \"Initial Coin Offering (ICO)/ICO.sol\":4888:4896  GetState */\n      tag_103\n        /* \"Initial Coin Offering (ICO)/ICO.sol\":4888:4898  GetState() */\n      jump\t// in\n    tag_169:\n        /* \"Initial Coin Offering (ICO)/ICO.sol\":4877:4885  icoState */\n      0x11\n      0x00\n        /* \"Initial Coin Offering (ICO)/ICO.sol\":4877:4898  icoState = GetState() */\n      0x0100\n      exp\n      dup2\n      sload\n      dup2\n      0xff\n      mul\n      not\n      and\n      swap1\n      dup4\n      0x03\n      dup2\n      gt\n      iszero\n      tag_170\n      jumpi\n      tag_171\n      tag_172\n      jump\t// in\n    tag_171:\n    tag_170:\n      mul\n      or\n      swap1\n      sstore\n      pop\n        /* \"Initial Coin Offering (ICO)/ICO.sol\":4929:4942  State.running */\n      0x02\n        /* \"Initial Coin Offering (ICO)/ICO.sol\":4917:4942  icoState == State.running */\n      0x03\n      dup2\n      gt\n      iszero\n      tag_173\n      jumpi\n      tag_174\n      tag_172\n      jump\t// in\n    tag_174:\n    tag_173:\n        /* \"Initial Coin Offering (ICO)/ICO.sol\":4917:4925  icoState */\n      0x11\n      0x00\n      swap1\n      sload\n      swap1\n      0x0100\n      exp\n      swap1\n      div\n      0xff\n      and\n        /* \"Initial Coin Offering (ICO)/ICO.sol\":4917:4942  icoState == State.running */\n      0x03\n      dup2\n      gt\n      iszero\n      tag_175\n      jumpi\n      tag_176\n      tag_172\n      jump\t// in\n    tag_176:\n    tag_175:\n      eq\n        /* \"Initial Coin Offering (ICO)/ICO.sol\":4909:4943  require(icoState == State.running) */\n      tag_177\n      jumpi\n      0x00\n      dup1\n      revert\n    tag_177:\n        /* \"Initial Coin Offering (ICO)/ICO.sol\":4975:4984  MinInvest */\n      sload(0x10)\n        /* \"Initial Coin Offering (ICO)/ICO.sol\":4962:4971  msg.value */\n      callvalue\n        /* \"Initial Coin Offering (ICO)/ICO.sol\":4962:4984  msg.value >= MinInvest */\n      lt\n      iszero\n        /* \"Initial Coin Offering (ICO)/ICO.sol\":4962:5010  msg.value >= MinInvest && msg.value <= MaxInvest */\n      dup1\n      iszero\n      tag_178\n      jumpi\n      pop\n        /* \"Initial Coin Offering (ICO)/ICO.sol\":5001:5010  MaxInvest */\n      sload(0x0f)\n        /* \"Initial Coin Offering (ICO)/ICO.sol\":4988:4997  msg.value */\n      callvalue\n        /* \"Initial Coin Offering (ICO)/ICO.sol\":4988:5010  msg.value <= MaxInvest */\n      gt\n      iszero\n        /* \"Initial Coin Offering (ICO)/ICO.sol\":4962:5010  msg.value >= MinInvest && msg.value <= MaxInvest */\n    tag_178:\n        /* \"Initial Coin Offering (ICO)/ICO.sol\":4954:5011  require(msg.value >= MinInvest && msg.value <= MaxInvest) */\n      tag_179\n      jumpi\n      0x00\n      dup1\n      revert\n    tag_179:\n        /* \"Initial Coin Offering (ICO)/ICO.sol\":5039:5048  msg.value */\n      callvalue\n        /* \"Initial Coin Offering (ICO)/ICO.sol\":5024:5036  raisedAmount */\n      0x0b\n        /* \"Initial Coin Offering (ICO)/ICO.sol\":5024:5048  raisedAmount = msg.value */\n      dup2\n      swap1\n      sstore\n      pop\n        /* \"Initial Coin Offering (ICO)/ICO.sol\":5085:5088  Cap */\n      sload(0x0a)\n        /* \"Initial Coin Offering (ICO)/ICO.sol\":5069:5081  raisedAmount */\n      sload(0x0b)\n        /* \"Initial Coin Offering (ICO)/ICO.sol\":5069:5088  raisedAmount <= Cap */\n      gt\n      iszero\n        /* \"Initial Coin Offering (ICO)/ICO.sol\":5061:5089  require(raisedAmount <= Cap) */\n      tag_180\n      jumpi\n      0x00\n      dup1\n      revert\n    tag_180:\n        /* \"Initial Coin Offering (ICO)/ICO.sol\":5102:5113  uint tokens */\n      0x00\n        /* \"Initial Coin Offering (ICO)/ICO.sol\":5126:5136  tokenPrice */\n      sload(0x09)\n        /* \"Initial Coin Offering (ICO)/ICO.sol\":5116:5125  msg.value */\n      callvalue\n        /* \"Initial Coin Offering (ICO)/ICO.sol\":5116:5136  msg.value/tokenPrice */\n      tag_181\n      swap2\n      swap1\n      tag_182\n      jump\t// in\n    tag_181:\n        /* \"Initial Coin Offering (ICO)/ICO.sol\":5102:5136  uint tokens = msg.value/tokenPrice */\n      swap1\n      pop\n        /* \"Initial Coin Offering (ICO)/ICO.sol\":5171:5177  tokens */\n      dup1\n        /* \"Initial Coin Offering (ICO)/ICO.sol\":5147:5155  balances */\n      0x05\n        /* \"Initial Coin Offering (ICO)/ICO.sol\":5147:5167  balances[msg.sender] */\n      0x00\n        /* \"Initial Coin Offering (ICO)/ICO.sol\":5156:5166  msg.sender */\n      caller\n        /* \"Initial Coin Offering (ICO)/ICO.sol\":5147:5167  balances[msg.sender] */\n      0xffffffffffffffffffffffffffffffffffffffff\n      and\n      0xffffffffffffffffffffffffffffffffffffffff\n      and\n      dup2\n      mstore\n      0x20\n      add\n      swap1\n      dup2\n      mstore\n      0x20\n      add\n      0x00\n      keccak256\n      0x00\n        /* \"Initial Coin Offering (ICO)/ICO.sol\":5147:5177  balances[msg.sender] += tokens */\n      dup3\n      dup3\n      sload\n      tag_183\n      swap2\n      swap1\n      tag_184\n      jump\t// in\n    tag_183:\n      swap3\n      pop\n      pop\n      dup2\n      swap1\n      sstore\n      pop\n        /* \"Initial Coin Offering (ICO)/ICO.sol\":5209:5215  tokens */\n      dup1\n        /* \"Initial Coin Offering (ICO)/ICO.sol\":5188:5196  balances */\n      0x05\n        /* \"Initial Coin Offering (ICO)/ICO.sol\":5188:5205  balances[Founder] */\n      0x00\n        /* \"Initial Coin Offering (ICO)/ICO.sol\":5197:5204  Founder */\n      0x04\n      0x00\n      swap1\n      sload\n      swap1\n      0x0100\n      exp\n      swap1\n      div\n      0xffffffffffffffffffffffffffffffffffffffff\n      and\n        /* \"Initial Coin Offering (ICO)/ICO.sol\":5188:5205  balances[Founder] */\n      0xffffffffffffffffffffffffffffffffffffffff\n      and\n      0xffffffffffffffffffffffffffffffffffffffff\n      and\n      dup2\n      mstore\n      0x20\n      add\n      swap1\n      dup2\n      mstore\n      0x20\n      add\n      0x00\n      keccak256\n      0x00\n        /* \"Initial Coin Offering (ICO)/ICO.sol\":5188:5215  balances[Founder] -= tokens */\n      dup3\n      dup3\n      sload\n      tag_185\n      swap2\n      swap1\n      tag_186\n      jump\t// in\n    tag_185:\n      swap3\n      pop\n      pop\n      dup2\n      swap1\n      sstore\n      pop\n        /* \"Initial Coin Offering (ICO)/ICO.sol\":5228:5235  Deposit */\n      0x08\n      0x00\n      swap1\n      sload\n      swap1\n      0x0100\n      exp\n      swap1\n      div\n      0xffffffffffffffffffffffffffffffffffffffff\n      and\n        /* \"Initial Coin Offering (ICO)/ICO.sol\":5228:5244  Deposit.transfer */\n      0xffffffffffffffffffffffffffffffffffffffff\n      and\n        /* \"Initial Coin Offering (ICO)/ICO.sol\":5228:5255  Deposit.transfer(msg.value) */\n      0x08fc\n        /* \"Initial Coin Offering (ICO)/ICO.sol\":5245:5254  msg.value */\n      callvalue\n        /* \"Initial Coin Offering (ICO)/ICO.sol\":5228:5255  Deposit.transfer(msg.value) */\n      swap1\n      dup2\n      iszero\n      mul\n      swap1\n      mload(0x40)\n      0x00\n      mload(0x40)\n      dup1\n      dup4\n      sub\n      dup2\n      dup6\n      dup9\n      dup9\n      call\n      swap4\n      pop\n      pop\n      pop\n      pop\n      iszero\n      dup1\n      iszero\n      tag_188\n      jumpi\n      returndatasize\n      0x00\n      dup1\n      returndatacopy\n      revert(0x00, returndatasize)\n    tag_188:\n      pop\n        /* \"Initial Coin Offering (ICO)/ICO.sol\":5273:5310  Invest(msg.sender, msg.value, tokens) */\n      0x4ae4bd7655e0d350876a23cd90c4227b13db560e34435c6a488150a9c844bf5f\n        /* \"Initial Coin Offering (ICO)/ICO.sol\":5280:5290  msg.sender */\n      caller\n        /* \"Initial Coin Offering (ICO)/ICO.sol\":5292:5301  msg.value */\n      callvalue\n        /* \"Initial Coin Offering (ICO)/ICO.sol\":5303:5309  tokens */\n      dup4\n        /* \"Initial Coin Offering (ICO)/ICO.sol\":5273:5310  Invest(msg.sender, msg.value, tokens) */\n      mload(0x40)\n      tag_189\n      swap4\n      swap3\n      swap2\n      swap1\n      tag_190\n      jump\t// in\n    tag_189:\n      mload(0x40)\n      dup1\n      swap2\n      sub\n      swap1\n      log1\n        /* \"Initial Coin Offering (ICO)/ICO.sol\":5328:5332  true */\n      0x01\n        /* \"Initial Coin Offering (ICO)/ICO.sol\":5321:5332  return true */\n      swap2\n      pop\n      pop\n        /* \"Initial Coin Offering (ICO)/ICO.sol\":4814:5340  function INVEST() payable public returns(bool)\r... */\n      swap1\n      jump\t// out\n        /* \"Initial Coin Offering (ICO)/ICO.sol\":2194:2499  function approve(address spender, uint tokens) external override returns(bool success)\r... */\n    tag_46:\n        /* \"Initial Coin Offering (ICO)/ICO.sol\":2267:2279  bool success */\n      0x00\n        /* \"Initial Coin Offering (ICO)/ICO.sol\":2329:2335  tokens */\n      dup2\n        /* \"Initial Coin Offering (ICO)/ICO.sol\":2305:2313  balances */\n      0x05\n        /* \"Initial Coin Offering (ICO)/ICO.sol\":2305:2325  balances[msg.sender] */\n      0x00\n        /* \"Initial Coin Offering (ICO)/ICO.sol\":2314:2324  msg.sender */\n      caller\n        /* \"Initial Coin Offering (ICO)/ICO.sol\":2305:2325  balances[msg.sender] */\n      0xffffffffffffffffffffffffffffffffffffffff\n      and\n      0xffffffffffffffffffffffffffffffffffffffff\n      and\n      dup2\n      mstore\n      0x20\n      add\n      swap1\n      dup2\n      mstore\n      0x20\n      add\n      0x00\n      keccak256\n      sload\n        /* \"Initial Coin Offering (ICO)/ICO.sol\":2305:2335  balances[msg.sender] >= tokens */\n      lt\n      iszero\n        /* \"Initial Coin Offering (ICO)/ICO.sol\":2297:2336  require(balances[msg.sender] >= tokens) */\n      tag_192\n      jumpi\n      0x00\n      dup1\n      revert\n    tag_192:\n        /* \"Initial Coin Offering (ICO)/ICO.sol\":2364:2365  0 */\n      0x00\n        /* \"Initial Coin Offering (ICO)/ICO.sol\":2355:2361  tokens */\n      dup3\n        /* \"Initial Coin Offering (ICO)/ICO.sol\":2355:2365  tokens > 0 */\n      gt\n        /* \"Initial Coin Offering (ICO)/ICO.sol\":2347:2366  require(tokens > 0) */\n      tag_193\n      jumpi\n      0x00\n      dup1\n      revert\n    tag_193:\n        /* \"Initial Coin Offering (ICO)/ICO.sol\":2410:2416  tokens */\n      dup2\n        /* \"Initial Coin Offering (ICO)/ICO.sol\":2379:2386  Allowed */\n      0x06\n        /* \"Initial Coin Offering (ICO)/ICO.sol\":2379:2398  Allowed[msg.sender] */\n      0x00\n        /* \"Initial Coin Offering (ICO)/ICO.sol\":2387:2397  msg.sender */\n      caller\n        /* \"Initial Coin Offering (ICO)/ICO.sol\":2379:2398  Allowed[msg.sender] */\n      0xffffffffffffffffffffffffffffffffffffffff\n      and\n      0xffffffffffffffffffffffffffffffffffffffff\n      and\n      dup2\n      mstore\n      0x20\n      add\n      swap1\n      dup2\n      mstore\n      0x20\n      add\n      0x00\n      keccak256\n        /* \"Initial Coin Offering (ICO)/ICO.sol\":2379:2407  Allowed[msg.sender][spender] */\n      0x00\n        /* \"Initial Coin Offering (ICO)/ICO.sol\":2399:2406  spender */\n      dup6\n        /* \"Initial Coin Offering (ICO)/ICO.sol\":2379:2407  Allowed[msg.sender][spender] */\n      0xffffffffffffffffffffffffffffffffffffffff\n      and\n      0xffffffffffffffffffffffffffffffffffffffff\n      and\n      dup2\n      mstore\n      0x20\n      add\n      swap1\n      dup2\n      mstore\n      0x20\n      add\n      0x00\n      keccak256\n        /* \"Initial Coin Offering (ICO)/ICO.sol\":2379:2416  Allowed[msg.sender][spender] = tokens */\n      dup2\n      swap1\n      sstore\n      pop\n        /* \"Initial Coin Offering (ICO)/ICO.sol\":2453:2460  spender */\n      dup3\n        /* \"Initial Coin Offering (ICO)/ICO.sol\":2432:2469  Approval(msg.sender, spender, tokens) */\n      0xffffffffffffffffffffffffffffffffffffffff\n      and\n        /* \"Initial Coin Offering (ICO)/ICO.sol\":2441:2451  msg.sender */\n      caller\n        /* \"Initial Coin Offering (ICO)/ICO.sol\":2432:2469  Approval(msg.sender, spender, tokens) */\n      0xffffffffffffffffffffffffffffffffffffffff\n      and\n      0x8c5be1e5ebec7d5bd14f71427d1e84f3dd0314c0f7b2291e5b200ac8c7c3b925\n        /* \"Initial Coin Offering (ICO)/ICO.sol\":2462:2468  tokens */\n      dup5\n        /* \"Initial Coin Offering (ICO)/ICO.sol\":2432:2469  Approval(msg.sender, spender, tokens) */\n      mload(0x40)\n      tag_194\n      swap2\n      swap1\n      tag_58\n      jump\t// in\n    tag_194:\n      mload(0x40)\n      dup1\n      swap2\n      sub\n      swap1\n      log3\n        /* \"Initial Coin Offering (ICO)/ICO.sol\":2487:2491  true */\n      0x01\n        /* \"Initial Coin Offering (ICO)/ICO.sol\":2480:2491  return true */\n      swap1\n      pop\n        /* \"Initial Coin Offering (ICO)/ICO.sol\":2194:2499  function approve(address spender, uint tokens) external override returns(bool success)\r... */\n      swap3\n      swap2\n      pop\n      pop\n      jump\t// out\n        /* \"Initial Coin Offering (ICO)/ICO.sol\":4210:4334  function ChangeDepositAddress(address payable NewDeposit) public CheckOnlyOwner\r... */\n    tag_53:\n        /* \"Initial Coin Offering (ICO)/ICO.sol\":3950:3957  Manager */\n      0x07\n      0x00\n      swap1\n      sload\n      swap1\n      0x0100\n      exp\n      swap1\n      div\n      0xffffffffffffffffffffffffffffffffffffffff\n      and\n        /* \"Initial Coin Offering (ICO)/ICO.sol\":3936:3957  msg.sender == Manager */\n      0xffffffffffffffffffffffffffffffffffffffff\n      and\n        /* \"Initial Coin Offering (ICO)/ICO.sol\":3936:3946  msg.sender */\n      caller\n        /* \"Initial Coin Offering (ICO)/ICO.sol\":3936:3957  msg.sender == Manager */\n      0xffffffffffffffffffffffffffffffffffffffff\n      and\n      eq\n        /* \"Initial Coin Offering (ICO)/ICO.sol\":3928:3958  require(msg.sender == Manager) */\n      tag_196\n      jumpi\n      0x00\n      dup1\n      revert\n    tag_196:\n        /* \"Initial Coin Offering (ICO)/ICO.sol\":4316:4326  NewDeposit */\n      dup1\n        /* \"Initial Coin Offering (ICO)/ICO.sol\":4306:4313  Deposit */\n      0x08\n      0x00\n        /* \"Initial Coin Offering (ICO)/ICO.sol\":4306:4326  Deposit = NewDeposit */\n      0x0100\n      exp\n      dup2\n      sload\n      dup2\n      0xffffffffffffffffffffffffffffffffffffffff\n      mul\n      not\n      and\n      swap1\n      dup4\n      0xffffffffffffffffffffffffffffffffffffffff\n      and\n      mul\n      or\n      swap1\n      sstore\n      pop\n        /* \"Initial Coin Offering (ICO)/ICO.sol\":4210:4334  function ChangeDepositAddress(address payable NewDeposit) public CheckOnlyOwner\r... */\n      pop\n      jump\t// out\n        /* \"Initial Coin Offering (ICO)/ICO.sol\":1231:1263  uint public override totalSupply */\n    tag_56:\n      sload(0x03)\n      dup2\n      jump\t// out\n        /* \"Initial Coin Offering (ICO)/ICO.sol\":3339:3371  uint public MaxInvest = 10 ether */\n    tag_61:\n      sload(0x0f)\n      dup2\n      jump\t// out\n        /* \"Initial Coin Offering (ICO)/ICO.sol\":1197:1224  string public Decimal = '0' */\n    tag_65:\n      0x02\n      dup1\n      sload\n      tag_198\n      swap1\n      tag_199\n      jump\t// in\n    tag_198:\n      dup1\n      0x1f\n      add\n      0x20\n      dup1\n      swap2\n      div\n      mul\n      0x20\n      add\n      mload(0x40)\n      swap1\n      dup2\n      add\n      0x40\n      mstore\n      dup1\n      swap3\n      swap2\n      swap1\n      dup2\n      dup2\n      mstore\n      0x20\n      add\n      dup3\n      dup1\n      sload\n      tag_200\n      swap1\n      tag_199\n      jump\t// in\n    tag_200:\n      dup1\n      iszero\n      tag_201\n      jumpi\n      dup1\n      0x1f\n      lt\n      tag_202\n      jumpi\n      0x0100\n      dup1\n      dup4\n      sload\n      div\n      mul\n      dup4\n      mstore\n      swap2\n      0x20\n      add\n      swap2\n      jump(tag_201)\n    tag_202:\n      dup3\n      add\n      swap2\n      swap1\n      0x00\n      mstore\n      keccak256(0x00, 0x20)\n      swap1\n    tag_203:\n      dup2\n      sload\n      dup2\n      mstore\n      swap1\n      0x01\n      add\n      swap1\n      0x20\n      add\n      dup1\n      dup4\n      gt\n      tag_203\n      jumpi\n      dup3\n      swap1\n      sub\n      0x1f\n      and\n      dup3\n      add\n      swap2\n    tag_201:\n      pop\n      pop\n      pop\n      pop\n      pop\n      dup2\n      jump\t// out\n        /* \"Initial Coin Offering (ICO)/ICO.sol\":1347:1385  mapping(address=>uint) public balances */\n    tag_72:\n      mstore(0x20, 0x05)\n      dup1\n      0x00\n      mstore\n      keccak256(0x00, 0x40)\n      0x00\n      swap2\n      pop\n      swap1\n      pop\n      sload\n      dup2\n      jump\t// out\n        /* \"Initial Coin Offering (ICO)/ICO.sol\":1160:1188  string public Symbol = \"BLK\" */\n    tag_76:\n      0x01\n      dup1\n      sload\n      tag_204\n      swap1\n      tag_199\n      jump\t// in\n    tag_204:\n      dup1\n      0x1f\n      add\n      0x20\n      dup1\n      swap2\n      div\n      mul\n      0x20\n      add\n      mload(0x40)\n      swap1\n      dup2\n      add\n      0x40\n      mstore\n      dup1\n      swap3\n      swap2\n      swap1\n      dup2\n      dup2\n      mstore\n      0x20\n      add\n      dup3\n      dup1\n      sload\n      tag_205\n      swap1\n      tag_199\n      jump\t// in\n    tag_205:\n      dup1\n      iszero\n      tag_206\n      jumpi\n      dup1\n      0x1f\n      lt\n      tag_207\n      jumpi\n      0x0100\n      dup1\n      dup4\n      sload\n      div\n      mul\n      dup4\n      mstore\n      swap2\n      0x20\n      add\n      swap2\n      jump(tag_206)\n    tag_207:\n      dup3\n      add\n      swap2\n      swap1\n      0x00\n      mstore\n      keccak256(0x00, 0x20)\n      swap1\n    tag_208:\n      dup2\n      sload\n      dup2\n      mstore\n      swap1\n      0x01\n      add\n      swap1\n      0x20\n      add\n      dup1\n      dup4\n      gt\n      tag_208\n      jumpi\n      dup3\n      swap1\n      sub\n      0x1f\n      and\n      dup3\n      add\n      swap2\n    tag_206:\n      pop\n      pop\n      pop\n      pop\n      pop\n      dup2\n      jump\t// out\n        /* \"Initial Coin Offering (ICO)/ICO.sol\":5827:6062  function transferForm(address From, address To, uint tokens) public override returns(bool success)\r... */\n    tag_82:\n        /* \"Initial Coin Offering (ICO)/ICO.sol\":5912:5924  bool success */\n      0x00\n        /* \"Initial Coin Offering (ICO)/ICO.sol\":5968:5982  tokenTradeTime */\n      sload(0x0e)\n        /* \"Initial Coin Offering (ICO)/ICO.sol\":5950:5965  block.timestamp */\n      timestamp\n        /* \"Initial Coin Offering (ICO)/ICO.sol\":5950:5982  block.timestamp > tokenTradeTime */\n      gt\n        /* \"Initial Coin Offering (ICO)/ICO.sol\":5942:5983  require(block.timestamp > tokenTradeTime) */\n      tag_210\n      jumpi\n      0x00\n      dup1\n      revert\n    tag_210:\n        /* \"Initial Coin Offering (ICO)/ICO.sol\":5994:6030  super.transferForm(From, To, tokens) */\n      tag_211\n        /* \"Initial Coin Offering (ICO)/ICO.sol\":6013:6017  From */\n      dup5\n        /* \"Initial Coin Offering (ICO)/ICO.sol\":6019:6021  To */\n      dup5\n        /* \"Initial Coin Offering (ICO)/ICO.sol\":6023:6029  tokens */\n      dup5\n        /* \"Initial Coin Offering (ICO)/ICO.sol\":5994:6012  super.transferForm */\n      tag_212\n        /* \"Initial Coin Offering (ICO)/ICO.sol\":5994:6030  super.transferForm(From, To, tokens) */\n      jump\t// in\n    tag_211:\n      pop\n        /* \"Initial Coin Offering (ICO)/ICO.sol\":6050:6054  true */\n      0x01\n        /* \"Initial Coin Offering (ICO)/ICO.sol\":6043:6054  return true */\n      swap1\n      pop\n        /* \"Initial Coin Offering (ICO)/ICO.sol\":5827:6062  function transferForm(address From, address To, uint tokens) public override returns(bool success)\r... */\n      swap4\n      swap3\n      pop\n      pop\n      pop\n      jump\t// out\n        /* \"Initial Coin Offering (ICO)/ICO.sol\":1270:1292  address public Founder */\n    tag_86:\n      0x04\n      0x00\n      swap1\n      sload\n      swap1\n      0x0100\n      exp\n      swap1\n      div\n      0xffffffffffffffffffffffffffffffffffffffff\n      and\n      dup2\n      jump\t// out\n        /* \"Initial Coin Offering (ICO)/ICO.sol\":3236:3279  uint public ICOend = block.timestamp + 3600 */\n    tag_91:\n      sload(0x0d)\n      dup2\n      jump\t// out\n        /* \"Initial Coin Offering (ICO)/ICO.sol\":3527:3548  State public icoState */\n    tag_95:\n      0x11\n      0x00\n      swap1\n      sload\n      swap1\n      0x0100\n      exp\n      swap1\n      div\n      0xff\n      and\n      dup2\n      jump\t// out\n        /* \"Initial Coin Offering (ICO)/ICO.sol\":4114:4202  function Resume() public CheckOnlyOwner\r... */\n    tag_100:\n        /* \"Initial Coin Offering (ICO)/ICO.sol\":3950:3957  Manager */\n      0x07\n      0x00\n      swap1\n      sload\n      swap1\n      0x0100\n      exp\n      swap1\n      div\n      0xffffffffffffffffffffffffffffffffffffffff\n      and\n        /* \"Initial Coin Offering (ICO)/ICO.sol\":3936:3957  msg.sender == Manager */\n      0xffffffffffffffffffffffffffffffffffffffff\n      and\n        /* \"Initial Coin Offering (ICO)/ICO.sol\":3936:3946  msg.sender */\n      caller\n        /* \"Initial Coin Offering (ICO)/ICO.sol\":3936:3957  msg.sender == Manager */\n      0xffffffffffffffffffffffffffffffffffffffff\n      and\n      eq\n        /* \"Initial Coin Offering (ICO)/ICO.sol\":3928:3958  require(msg.sender == Manager) */\n      tag_214\n      jumpi\n      0x00\n      dup1\n      revert\n    tag_214:\n        /* \"Initial Coin Offering (ICO)/ICO.sol\":4181:4194  State.running */\n      0x02\n        /* \"Initial Coin Offering (ICO)/ICO.sol\":4170:4178  icoState */\n      0x11\n      0x00\n        /* \"Initial Coin Offering (ICO)/ICO.sol\":4170:4194  icoState = State.running */\n      0x0100\n      exp\n      dup2\n      sload\n      dup2\n      0xff\n      mul\n      not\n      and\n      swap1\n      dup4\n      0x03\n      dup2\n      gt\n      iszero\n      tag_216\n      jumpi\n      tag_217\n      tag_172\n      jump\t// in\n    tag_217:\n    tag_216:\n      mul\n      or\n      swap1\n      sstore\n      pop\n        /* \"Initial Coin Offering (ICO)/ICO.sol\":4114:4202  function Resume() public CheckOnlyOwner\r... */\n      jump\t// out\n        /* \"Initial Coin Offering (ICO)/ICO.sol\":4342:4806  function GetState() public view returns(State)\r... */\n    tag_103:\n        /* \"Initial Coin Offering (ICO)/ICO.sol\":4382:4387  State */\n      0x00\n        /* \"Initial Coin Offering (ICO)/ICO.sol\":4420:4432  State.halted */\n      0x03\n        /* \"Initial Coin Offering (ICO)/ICO.sol\":4408:4432  icoState == State.halted */\n      dup1\n      dup2\n      gt\n      iszero\n      tag_219\n      jumpi\n      tag_220\n      tag_172\n      jump\t// in\n    tag_220:\n    tag_219:\n        /* \"Initial Coin Offering (ICO)/ICO.sol\":4408:4416  icoState */\n      0x11\n      0x00\n      swap1\n      sload\n      swap1\n      0x0100\n      exp\n      swap1\n      div\n      0xff\n      and\n        /* \"Initial Coin Offering (ICO)/ICO.sol\":4408:4432  icoState == State.halted */\n      0x03\n      dup2\n      gt\n      iszero\n      tag_221\n      jumpi\n      tag_222\n      tag_172\n      jump\t// in\n    tag_222:\n    tag_221:\n      eq\n        /* \"Initial Coin Offering (ICO)/ICO.sol\":4405:4799  if(icoState == State.halted)\r... */\n      iszero\n      tag_223\n      jumpi\n        /* \"Initial Coin Offering (ICO)/ICO.sol\":4465:4477  State.halted */\n      0x03\n        /* \"Initial Coin Offering (ICO)/ICO.sol\":4458:4477  return State.halted */\n      swap1\n      pop\n      jump(tag_218)\n        /* \"Initial Coin Offering (ICO)/ICO.sol\":4405:4799  if(icoState == State.halted)\r... */\n    tag_223:\n        /* \"Initial Coin Offering (ICO)/ICO.sol\":4525:4533  ICOstart */\n      sload(0x0c)\n        /* \"Initial Coin Offering (ICO)/ICO.sol\":4507:4522  block.timestamp */\n      timestamp\n        /* \"Initial Coin Offering (ICO)/ICO.sol\":4507:4533  block.timestamp < ICOstart */\n      lt\n        /* \"Initial Coin Offering (ICO)/ICO.sol\":4504:4799  if(block.timestamp < ICOstart)\r... */\n      iszero\n      tag_225\n      jumpi\n        /* \"Initial Coin Offering (ICO)/ICO.sol\":4566:4583  State.beforeStart */\n      0x00\n        /* \"Initial Coin Offering (ICO)/ICO.sol\":4559:4583  return State.beforeStart */\n      swap1\n      pop\n      jump(tag_218)\n        /* \"Initial Coin Offering (ICO)/ICO.sol\":4504:4799  if(block.timestamp < ICOstart)\r... */\n    tag_225:\n        /* \"Initial Coin Offering (ICO)/ICO.sol\":4632:4640  ICOstart */\n      sload(0x0c)\n        /* \"Initial Coin Offering (ICO)/ICO.sol\":4613:4628  block.timestamp */\n      timestamp\n        /* \"Initial Coin Offering (ICO)/ICO.sol\":4613:4640  block.timestamp >= ICOstart */\n      lt\n      iszero\n        /* \"Initial Coin Offering (ICO)/ICO.sol\":4613:4669  block.timestamp >= ICOstart && block.timestamp <= ICOend */\n      dup1\n      iszero\n      tag_227\n      jumpi\n      pop\n        /* \"Initial Coin Offering (ICO)/ICO.sol\":4663:4669  ICOend */\n      sload(0x0d)\n        /* \"Initial Coin Offering (ICO)/ICO.sol\":4644:4659  block.timestamp */\n      timestamp\n        /* \"Initial Coin Offering (ICO)/ICO.sol\":4644:4669  block.timestamp <= ICOend */\n      gt\n      iszero\n        /* \"Initial Coin Offering (ICO)/ICO.sol\":4613:4669  block.timestamp >= ICOstart && block.timestamp <= ICOend */\n    tag_227:\n        /* \"Initial Coin Offering (ICO)/ICO.sol\":4610:4799  if(block.timestamp >= ICOstart && block.timestamp <= ICOend)\r... */\n      iszero\n      tag_228\n      jumpi\n        /* \"Initial Coin Offering (ICO)/ICO.sol\":4702:4715  State.running */\n      0x02\n        /* \"Initial Coin Offering (ICO)/ICO.sol\":4695:4715  return State.running */\n      swap1\n      pop\n      jump(tag_218)\n        /* \"Initial Coin Offering (ICO)/ICO.sol\":4610:4799  if(block.timestamp >= ICOstart && block.timestamp <= ICOend)\r... */\n    tag_228:\n        /* \"Initial Coin Offering (ICO)/ICO.sol\":4773:4787  State.afterEnd */\n      0x01\n        /* \"Initial Coin Offering (ICO)/ICO.sol\":4766:4787  return State.afterEnd */\n      swap1\n      pop\n        /* \"Initial Coin Offering (ICO)/ICO.sol\":4342:4806  function GetState() public view returns(State)\r... */\n    tag_218:\n      swap1\n      jump\t// out\n        /* \"Initial Coin Offering (ICO)/ICO.sol\":1625:1760  function balanceOf(address tokenOwner) external view override returns(uint balance)\r... */\n    tag_108:\n        /* \"Initial Coin Offering (ICO)/ICO.sol\":1695:1707  uint balance */\n      0x00\n        /* \"Initial Coin Offering (ICO)/ICO.sol\":1732:1740  balances */\n      0x05\n        /* \"Initial Coin Offering (ICO)/ICO.sol\":1732:1752  balances[tokenOwner] */\n      0x00\n        /* \"Initial Coin Offering (ICO)/ICO.sol\":1741:1751  tokenOwner */\n      dup4\n        /* \"Initial Coin Offering (ICO)/ICO.sol\":1732:1752  balances[tokenOwner] */\n      0xffffffffffffffffffffffffffffffffffffffff\n      and\n      0xffffffffffffffffffffffffffffffffffffffff\n      and\n      dup2\n      mstore\n      0x20\n      add\n      swap1\n      dup2\n      mstore\n      0x20\n      add\n      0x00\n      keccak256\n      sload\n        /* \"Initial Coin Offering (ICO)/ICO.sol\":1725:1752  return balances[tokenOwner] */\n      swap1\n      pop\n        /* \"Initial Coin Offering (ICO)/ICO.sol\":1625:1760  function balanceOf(address tokenOwner) external view override returns(uint balance)\r... */\n      swap2\n      swap1\n      pop\n      jump\t// out\n        /* \"Initial Coin Offering (ICO)/ICO.sol\":3020:3042  address public Manager */\n    tag_112:\n      0x07\n      0x00\n      swap1\n      sload\n      swap1\n      0x0100\n      exp\n      swap1\n      div\n      0xffffffffffffffffffffffffffffffffffffffff\n      and\n      dup2\n      jump\t// out\n        /* \"Initial Coin Offering (ICO)/ICO.sol\":1125:1153  string public Name = \"Block\" */\n    tag_118:\n      0x00\n      dup1\n      sload\n      tag_231\n      swap1\n      tag_199\n      jump\t// in\n    tag_231:\n      dup1\n      0x1f\n      add\n      0x20\n      dup1\n      swap2\n      div\n      mul\n      0x20\n      add\n      mload(0x40)\n      swap1\n      dup2\n      add\n      0x40\n      mstore\n      dup1\n      swap3\n      swap2\n      swap1\n      dup2\n      dup2\n      mstore\n      0x20\n      add\n      dup3\n      dup1\n      sload\n      tag_232\n      swap1\n      tag_199\n      jump\t// in\n    tag_232:\n      dup1\n      iszero\n      tag_233\n      jumpi\n      dup1\n      0x1f\n      lt\n      tag_234\n      jumpi\n      0x0100\n      dup1\n      dup4\n      sload\n      div\n      mul\n      dup4\n      mstore\n      swap2\n      0x20\n      add\n      swap2\n      jump(tag_233)\n    tag_234:\n      dup3\n      add\n      swap2\n      swap1\n      0x00\n      mstore\n      keccak256(0x00, 0x20)\n      swap1\n    tag_235:\n      dup2\n      sload\n      dup2\n      mstore\n      swap1\n      0x01\n      add\n      swap1\n      0x20\n      add\n      dup1\n      dup4\n      gt\n      tag_235\n      jumpi\n      dup3\n      swap1\n      sub\n      0x1f\n      and\n      dup3\n      add\n      swap2\n    tag_233:\n      pop\n      pop\n      pop\n      pop\n      pop\n      dup2\n      jump\t// out\n        /* \"Initial Coin Offering (ICO)/ICO.sol\":4021:4106  function Halt() public CheckOnlyOwner\r... */\n    tag_122:\n        /* \"Initial Coin Offering (ICO)/ICO.sol\":3950:3957  Manager */\n      0x07\n      0x00\n      swap1\n      sload\n      swap1\n      0x0100\n      exp\n      swap1\n      div\n      0xffffffffffffffffffffffffffffffffffffffff\n      and\n        /* \"Initial Coin Offering (ICO)/ICO.sol\":3936:3957  msg.sender == Manager */\n      0xffffffffffffffffffffffffffffffffffffffff\n      and\n        /* \"Initial Coin Offering (ICO)/ICO.sol\":3936:3946  msg.sender */\n      caller\n        /* \"Initial Coin Offering (ICO)/ICO.sol\":3936:3957  msg.sender == Manager */\n      0xffffffffffffffffffffffffffffffffffffffff\n      and\n      eq\n        /* \"Initial Coin Offering (ICO)/ICO.sol\":3928:3958  require(msg.sender == Manager) */\n      tag_237\n      jumpi\n      0x00\n      dup1\n      revert\n    tag_237:\n        /* \"Initial Coin Offering (ICO)/ICO.sol\":4086:4098  State.halted */\n      0x03\n        /* \"Initial Coin Offering (ICO)/ICO.sol\":4075:4083  icoState */\n      0x11\n      0x00\n        /* \"Initial Coin Offering (ICO)/ICO.sol\":4075:4098  icoState = State.halted */\n      0x0100\n      exp\n      dup2\n      sload\n      dup2\n      0xff\n      mul\n      not\n      and\n      swap1\n      dup4\n      0x03\n      dup2\n      gt\n      iszero\n      tag_239\n      jumpi\n      tag_240\n      tag_172\n      jump\t// in\n    tag_240:\n    tag_239:\n      mul\n      or\n      swap1\n      sstore\n      pop\n        /* \"Initial Coin Offering (ICO)/ICO.sol\":4021:4106  function Halt() public CheckOnlyOwner\r... */\n      jump\t// out\n        /* \"Initial Coin Offering (ICO)/ICO.sol\":5612:5819  function transfer(address To, uint tokens) public override returns(bool success)\r... */\n    tag_126:\n        /* \"Initial Coin Offering (ICO)/ICO.sol\":5679:5691  bool success */\n      0x00\n        /* \"Initial Coin Offering (ICO)/ICO.sol\":5735:5749  tokenTradeTime */\n      sload(0x0e)\n        /* \"Initial Coin Offering (ICO)/ICO.sol\":5717:5732  block.timestamp */\n      timestamp\n        /* \"Initial Coin Offering (ICO)/ICO.sol\":5717:5749  block.timestamp > tokenTradeTime */\n      gt\n        /* \"Initial Coin Offering (ICO)/ICO.sol\":5709:5750  require(block.timestamp > tokenTradeTime) */\n      tag_242\n      jumpi\n      0x00\n      dup1\n      revert\n    tag_242:\n        /* \"Initial Coin Offering (ICO)/ICO.sol\":5761:5787  super.transfer(To, tokens) */\n      tag_243\n        /* \"Initial Coin Offering (ICO)/ICO.sol\":5776:5778  To */\n      dup4\n        /* \"Initial Coin Offering (ICO)/ICO.sol\":5780:5786  tokens */\n      dup4\n        /* \"Initial Coin Offering (ICO)/ICO.sol\":5761:5775  super.transfer */\n      tag_244\n        /* \"Initial Coin Offering (ICO)/ICO.sol\":5761:5787  super.transfer(To, tokens) */\n      jump\t// in\n    tag_243:\n      pop\n        /* \"Initial Coin Offering (ICO)/ICO.sol\":5807:5811  true */\n      0x01\n        /* \"Initial Coin Offering (ICO)/ICO.sol\":5800:5811  return true */\n      swap1\n      pop\n        /* \"Initial Coin Offering (ICO)/ICO.sol\":5612:5819  function transfer(address To, uint tokens) public override returns(bool success)\r... */\n      swap3\n      swap2\n      pop\n      pop\n      jump\t// out\n        /* \"Initial Coin Offering (ICO)/ICO.sol\":3378:3411  uint public MinInvest = 0.1 ether */\n    tag_130:\n      sload(0x10)\n      dup2\n      jump\t// out\n        /* \"Initial Coin Offering (ICO)/ICO.sol\":3288:3330  uint public tokenTradeTime = ICOend + 3600 */\n    tag_134:\n      sload(0x0e)\n      dup2\n      jump\t// out\n        /* \"Initial Coin Offering (ICO)/ICO.sol\":1418:1477  mapping(address => mapping(address => uint)) public Allowed */\n    tag_140:\n      mstore(0x20, 0x06)\n      dup2\n      0x00\n      mstore\n      mstore(0x20, keccak256(0x00, 0x40))\n      dup1\n      0x00\n      mstore\n      keccak256(0x00, 0x40)\n      0x00\n      swap2\n      pop\n      swap2\n      pop\n      pop\n      sload\n      dup2\n      jump\t// out\n        /* \"Initial Coin Offering (ICO)/ICO.sol\":5420:5604  function BURN() public returns(bool)\r... */\n    tag_144:\n        /* \"Initial Coin Offering (ICO)/ICO.sol\":5451:5455  bool */\n      0x00\n        /* \"Initial Coin Offering (ICO)/ICO.sol\":5484:5494  GetState() */\n      tag_246\n        /* \"Initial Coin Offering (ICO)/ICO.sol\":5484:5492  GetState */\n      tag_103\n        /* \"Initial Coin Offering (ICO)/ICO.sol\":5484:5494  GetState() */\n      jump\t// in\n    tag_246:\n        /* \"Initial Coin Offering (ICO)/ICO.sol\":5473:5481  icoState */\n      0x11\n      0x00\n        /* \"Initial Coin Offering (ICO)/ICO.sol\":5473:5494  icoState = GetState() */\n      0x0100\n      exp\n      dup2\n      sload\n      dup2\n      0xff\n      mul\n      not\n      and\n      swap1\n      dup4\n      0x03\n      dup2\n      gt\n      iszero\n      tag_247\n      jumpi\n      tag_248\n      tag_172\n      jump\t// in\n    tag_248:\n    tag_247:\n      mul\n      or\n      swap1\n      sstore\n      pop\n        /* \"Initial Coin Offering (ICO)/ICO.sol\":5525:5539  State.afterEnd */\n      0x01\n        /* \"Initial Coin Offering (ICO)/ICO.sol\":5513:5539  icoState == State.afterEnd */\n      0x03\n      dup2\n      gt\n      iszero\n      tag_249\n      jumpi\n      tag_250\n      tag_172\n      jump\t// in\n    tag_250:\n    tag_249:\n        /* \"Initial Coin Offering (ICO)/ICO.sol\":5513:5521  icoState */\n      0x11\n      0x00\n      swap1\n      sload\n      swap1\n      0x0100\n      exp\n      swap1\n      div\n      0xff\n      and\n        /* \"Initial Coin Offering (ICO)/ICO.sol\":5513:5539  icoState == State.afterEnd */\n      0x03\n      dup2\n      gt\n      iszero\n      tag_251\n      jumpi\n      tag_252\n      tag_172\n      jump\t// in\n    tag_252:\n    tag_251:\n      eq\n        /* \"Initial Coin Offering (ICO)/ICO.sol\":5505:5540  require(icoState == State.afterEnd) */\n      tag_253\n      jumpi\n      0x00\n      dup1\n      revert\n    tag_253:\n        /* \"Initial Coin Offering (ICO)/ICO.sol\":5573:5574  0 */\n      0x00\n        /* \"Initial Coin Offering (ICO)/ICO.sol\":5553:5561  balances */\n      0x05\n        /* \"Initial Coin Offering (ICO)/ICO.sol\":5553:5570  balances[Founder] */\n      0x00\n        /* \"Initial Coin Offering (ICO)/ICO.sol\":5562:5569  Founder */\n      0x04\n      0x00\n      swap1\n      sload\n      swap1\n      0x0100\n      exp\n      swap1\n      div\n      0xffffffffffffffffffffffffffffffffffffffff\n      and\n        /* \"Initial Coin Offering (ICO)/ICO.sol\":5553:5570  balances[Founder] */\n      0xffffffffffffffffffffffffffffffffffffffff\n      and\n      0xffffffffffffffffffffffffffffffffffffffff\n      and\n      dup2\n      mstore\n      0x20\n      add\n      swap1\n      dup2\n      mstore\n      0x20\n      add\n      0x00\n      keccak256\n        /* \"Initial Coin Offering (ICO)/ICO.sol\":5553:5574  balances[Founder] = 0 */\n      dup2\n      swap1\n      sstore\n      pop\n        /* \"Initial Coin Offering (ICO)/ICO.sol\":5592:5596  true */\n      0x01\n        /* \"Initial Coin Offering (ICO)/ICO.sol\":5585:5596  return true */\n      swap1\n      pop\n        /* \"Initial Coin Offering (ICO)/ICO.sol\":5420:5604  function BURN() public returns(bool)\r... */\n      swap1\n      jump\t// out\n        /* \"Initial Coin Offering (ICO)/ICO.sol\":3158:3182  uint public raisedAmount */\n    tag_148:\n      sload(0x0b)\n      dup2\n      jump\t// out\n        /* \"Initial Coin Offering (ICO)/ICO.sol\":2507:2670  function allowance(address tokenOwner, address spender) external view override returns(uint NoOfTokens)\r... */\n    tag_153:\n        /* \"Initial Coin Offering (ICO)/ICO.sol\":2594:2609  uint NoOfTokens */\n      0x00\n        /* \"Initial Coin Offering (ICO)/ICO.sol\":2634:2641  Allowed */\n      0x06\n        /* \"Initial Coin Offering (ICO)/ICO.sol\":2634:2653  Allowed[tokenOwner] */\n      0x00\n        /* \"Initial Coin Offering (ICO)/ICO.sol\":2642:2652  tokenOwner */\n      dup5\n        /* \"Initial Coin Offering (ICO)/ICO.sol\":2634:2653  Allowed[tokenOwner] */\n      0xffffffffffffffffffffffffffffffffffffffff\n      and\n      0xffffffffffffffffffffffffffffffffffffffff\n      and\n      dup2\n      mstore\n      0x20\n      add\n      swap1\n      dup2\n      mstore\n      0x20\n      add\n      0x00\n      keccak256\n        /* \"Initial Coin Offering (ICO)/ICO.sol\":2634:2662  Allowed[tokenOwner][spender] */\n      0x00\n        /* \"Initial Coin Offering (ICO)/ICO.sol\":2654:2661  spender */\n      dup4\n        /* \"Initial Coin Offering (ICO)/ICO.sol\":2634:2662  Allowed[tokenOwner][spender] */\n      0xffffffffffffffffffffffffffffffffffffffff\n      and\n      0xffffffffffffffffffffffffffffffffffffffff\n      and\n      dup2\n      mstore\n      0x20\n      add\n      swap1\n      dup2\n      mstore\n      0x20\n      add\n      0x00\n      keccak256\n      sload\n        /* \"Initial Coin Offering (ICO)/ICO.sol\":2627:2662  return Allowed[tokenOwner][spender] */\n      swap1\n      pop\n        /* \"Initial Coin Offering (ICO)/ICO.sol\":2507:2670  function allowance(address tokenOwner, address spender) external view override returns(uint NoOfTokens)\r... */\n      swap3\n      swap2\n      pop\n      pop\n      jump\t// out\n        /* \"Initial Coin Offering (ICO)/ICO.sol\":3124:3151  uint public Cap = 300 ether */\n    tag_157:\n      sload(0x0a)\n      dup2\n      jump\t// out\n        /* \"Initial Coin Offering (ICO)/ICO.sol\":3049:3079  address payable public Deposit */\n    tag_161:\n      0x08\n      0x00\n      swap1\n      sload\n      swap1\n      0x0100\n      exp\n      swap1\n      div\n      0xffffffffffffffffffffffffffffffffffffffff\n      and\n      dup2\n      jump\t// out\n        /* \"Initial Coin Offering (ICO)/ICO.sol\":3191:3229  uint public ICOstart = block.timestamp */\n    tag_166:\n      sload(0x0c)\n      dup2\n      jump\t// out\n        /* \"Initial Coin Offering (ICO)/ICO.sol\":2678:2983  function transferForm(address From, address To, uint tokens) public override virtual returns(bool success)\r... */\n    tag_212:\n        /* \"Initial Coin Offering (ICO)/ICO.sol\":2771:2783  bool success */\n      0x00\n        /* \"Initial Coin Offering (ICO)/ICO.sol\":2830:2836  tokens */\n      dup2\n        /* \"Initial Coin Offering (ICO)/ICO.sol\":2809:2816  Allowed */\n      0x06\n        /* \"Initial Coin Offering (ICO)/ICO.sol\":2809:2822  Allowed[From] */\n      0x00\n        /* \"Initial Coin Offering (ICO)/ICO.sol\":2817:2821  From */\n      dup7\n        /* \"Initial Coin Offering (ICO)/ICO.sol\":2809:2822  Allowed[From] */\n      0xffffffffffffffffffffffffffffffffffffffff\n      and\n      0xffffffffffffffffffffffffffffffffffffffff\n      and\n      dup2\n      mstore\n      0x20\n      add\n      swap1\n      dup2\n      mstore\n      0x20\n      add\n      0x00\n      keccak256\n        /* \"Initial Coin Offering (ICO)/ICO.sol\":2809:2826  Allowed[From][To] */\n      0x00\n        /* \"Initial Coin Offering (ICO)/ICO.sol\":2823:2825  To */\n      dup6\n        /* \"Initial Coin Offering (ICO)/ICO.sol\":2809:2826  Allowed[From][To] */\n      0xffffffffffffffffffffffffffffffffffffffff\n      and\n      0xffffffffffffffffffffffffffffffffffffffff\n      and\n      dup2\n      mstore\n      0x20\n      add\n      swap1\n      dup2\n      mstore\n      0x20\n      add\n      0x00\n      keccak256\n      sload\n        /* \"Initial Coin Offering (ICO)/ICO.sol\":2809:2836  Allowed[From][To] >= tokens */\n      lt\n      iszero\n        /* \"Initial Coin Offering (ICO)/ICO.sol\":2801:2837  require(Allowed[From][To] >= tokens) */\n      tag_256\n      jumpi\n      0x00\n      dup1\n      revert\n    tag_256:\n        /* \"Initial Coin Offering (ICO)/ICO.sol\":2874:2880  tokens */\n      dup2\n        /* \"Initial Coin Offering (ICO)/ICO.sol\":2856:2864  balances */\n      0x05\n        /* \"Initial Coin Offering (ICO)/ICO.sol\":2856:2870  balances[From] */\n      0x00\n        /* \"Initial Coin Offering (ICO)/ICO.sol\":2865:2869  From */\n      dup7\n        /* \"Initial Coin Offering (ICO)/ICO.sol\":2856:2870  balances[From] */\n      0xffffffffffffffffffffffffffffffffffffffff\n      and\n      0xffffffffffffffffffffffffffffffffffffffff\n      and\n      dup2\n      mstore\n      0x20\n      add\n      swap1\n      dup2\n      mstore\n      0x20\n      add\n      0x00\n      keccak256\n      sload\n        /* \"Initial Coin Offering (ICO)/ICO.sol\":2856:2880  balances[From] >= tokens */\n      lt\n      iszero\n        /* \"Initial Coin Offering (ICO)/ICO.sol\":2848:2881  require(balances[From] >= tokens) */\n      tag_257\n      jumpi\n      0x00\n      dup1\n      revert\n    tag_257:\n        /* \"Initial Coin Offering (ICO)/ICO.sol\":2912:2918  tokens */\n      dup2\n        /* \"Initial Coin Offering (ICO)/ICO.sol\":2894:2902  balances */\n      0x05\n        /* \"Initial Coin Offering (ICO)/ICO.sol\":2894:2908  balances[From] */\n      0x00\n        /* \"Initial Coin Offering (ICO)/ICO.sol\":2903:2907  From */\n      dup7\n        /* \"Initial Coin Offering (ICO)/ICO.sol\":2894:2908  balances[From] */\n      0xffffffffffffffffffffffffffffffffffffffff\n      and\n      0xffffffffffffffffffffffffffffffffffffffff\n      and\n      dup2\n      mstore\n      0x20\n      add\n      swap1\n      dup2\n      mstore\n      0x20\n      add\n      0x00\n      keccak256\n      0x00\n        /* \"Initial Coin Offering (ICO)/ICO.sol\":2894:2918  balances[From] -= tokens */\n      dup3\n      dup3\n      sload\n      tag_258\n      swap2\n      swap1\n      tag_186\n      jump\t// in\n    tag_258:\n      swap3\n      pop\n      pop\n      dup2\n      swap1\n      sstore\n      pop\n        /* \"Initial Coin Offering (ICO)/ICO.sol\":2945:2951  tokens */\n      dup2\n        /* \"Initial Coin Offering (ICO)/ICO.sol\":2929:2937  balances */\n      0x05\n        /* \"Initial Coin Offering (ICO)/ICO.sol\":2929:2941  balances[To] */\n      0x00\n        /* \"Initial Coin Offering (ICO)/ICO.sol\":2938:2940  To */\n      dup6\n        /* \"Initial Coin Offering (ICO)/ICO.sol\":2929:2941  balances[To] */\n      0xffffffffffffffffffffffffffffffffffffffff\n      and\n      0xffffffffffffffffffffffffffffffffffffffff\n      and\n      dup2\n      mstore\n      0x20\n      add\n      swap1\n      dup2\n      mstore\n      0x20\n      add\n      0x00\n      keccak256\n      0x00\n        /* \"Initial Coin Offering (ICO)/ICO.sol\":2929:2951  balances[To] += tokens */\n      dup3\n      dup3\n      sload\n      tag_259\n      swap2\n      swap1\n      tag_184\n      jump\t// in\n    tag_259:\n      swap3\n      pop\n      pop\n      dup2\n      swap1\n      sstore\n      pop\n        /* \"Initial Coin Offering (ICO)/ICO.sol\":2971:2975  true */\n      0x01\n        /* \"Initial Coin Offering (ICO)/ICO.sol\":2964:2975  return true */\n      swap1\n      pop\n        /* \"Initial Coin Offering (ICO)/ICO.sol\":2678:2983  function transferForm(address From, address To, uint tokens) public override virtual returns(bool success)\r... */\n      swap4\n      swap3\n      pop\n      pop\n      pop\n      jump\t// out\n        /* \"Initial Coin Offering (ICO)/ICO.sol\":1768:2186  function transfer(address to, uint tokens) public override virtual returns(bool success)\r... */\n    tag_244:\n        /* \"Initial Coin Offering (ICO)/ICO.sol\":1843:1855  bool success */\n      0x00\n        /* \"Initial Coin Offering (ICO)/ICO.sol\":1905:1911  tokens */\n      dup2\n        /* \"Initial Coin Offering (ICO)/ICO.sol\":1881:1889  balances */\n      0x05\n        /* \"Initial Coin Offering (ICO)/ICO.sol\":1881:1901  balances[msg.sender] */\n      0x00\n        /* \"Initial Coin Offering (ICO)/ICO.sol\":1890:1900  msg.sender */\n      caller\n        /* \"Initial Coin Offering (ICO)/ICO.sol\":1881:1901  balances[msg.sender] */\n      0xffffffffffffffffffffffffffffffffffffffff\n      and\n      0xffffffffffffffffffffffffffffffffffffffff\n      and\n      dup2\n      mstore\n      0x20\n      add\n      swap1\n      dup2\n      mstore\n      0x20\n      add\n      0x00\n      keccak256\n      sload\n        /* \"Initial Coin Offering (ICO)/ICO.sol\":1881:1911  balances[msg.sender] >= tokens */\n      lt\n      iszero\n        /* \"Initial Coin Offering (ICO)/ICO.sol\":1873:1912  require(balances[msg.sender] >= tokens) */\n      tag_261\n      jumpi\n      0x00\n      dup1\n      revert\n    tag_261:\n        /* \"Initial Coin Offering (ICO)/ICO.sol\":1996:2002  tokens */\n      dup2\n        /* \"Initial Coin Offering (ICO)/ICO.sol\":1981:1989  balances */\n      0x05\n        /* \"Initial Coin Offering (ICO)/ICO.sol\":1981:1993  balances[to] */\n      0x00\n        /* \"Initial Coin Offering (ICO)/ICO.sol\":1990:1992  to */\n      dup6\n        /* \"Initial Coin Offering (ICO)/ICO.sol\":1981:1993  balances[to] */\n      0xffffffffffffffffffffffffffffffffffffffff\n      and\n      0xffffffffffffffffffffffffffffffffffffffff\n      and\n      dup2\n      mstore\n      0x20\n      add\n      swap1\n      dup2\n      mstore\n      0x20\n      add\n      0x00\n      keccak256\n      sload\n        /* \"Initial Coin Offering (ICO)/ICO.sol\":1981:2002  balances[to] + tokens */\n      tag_262\n      swap2\n      swap1\n      tag_184\n      jump\t// in\n    tag_262:\n        /* \"Initial Coin Offering (ICO)/ICO.sol\":1966:1974  balances */\n      0x05\n        /* \"Initial Coin Offering (ICO)/ICO.sol\":1966:1978  balances[to] */\n      0x00\n        /* \"Initial Coin Offering (ICO)/ICO.sol\":1975:1977  to */\n      dup6\n        /* \"Initial Coin Offering (ICO)/ICO.sol\":1966:1978  balances[to] */\n      0xffffffffffffffffffffffffffffffffffffffff\n      and\n      0xffffffffffffffffffffffffffffffffffffffff\n      and\n      dup2\n      mstore\n      0x20\n      add\n      swap1\n      dup2\n      mstore\n      0x20\n      add\n      0x00\n      keccak256\n        /* \"Initial Coin Offering (ICO)/ICO.sol\":1966:2002  balances[to] = balances[to] + tokens */\n      dup2\n      swap1\n      sstore\n      pop\n        /* \"Initial Coin Offering (ICO)/ICO.sol\":2100:2106  tokens */\n      dup2\n        /* \"Initial Coin Offering (ICO)/ICO.sol\":2077:2085  balances */\n      0x05\n        /* \"Initial Coin Offering (ICO)/ICO.sol\":2077:2097  balances[msg.sender] */\n      0x00\n        /* \"Initial Coin Offering (ICO)/ICO.sol\":2086:2096  msg.sender */\n      caller\n        /* \"Initial Coin Offering (ICO)/ICO.sol\":2077:2097  balances[msg.sender] */\n      0xffffffffffffffffffffffffffffffffffffffff\n      and\n      0xffffffffffffffffffffffffffffffffffffffff\n      and\n      dup2\n      mstore\n      0x20\n      add\n      swap1\n      dup2\n      mstore\n      0x20\n      add\n      0x00\n      keccak256\n      sload\n        /* \"Initial Coin Offering (ICO)/ICO.sol\":2077:2106  balances[msg.sender] - tokens */\n      tag_263\n      swap2\n      swap1\n      tag_186\n      jump\t// in\n    tag_263:\n        /* \"Initial Coin Offering (ICO)/ICO.sol\":2054:2062  balances */\n      0x05\n        /* \"Initial Coin Offering (ICO)/ICO.sol\":2054:2074  balances[msg.sender] */\n      0x00\n        /* \"Initial Coin Offering (ICO)/ICO.sol\":2063:2073  msg.sender */\n      caller\n        /* \"Initial Coin Offering (ICO)/ICO.sol\":2054:2074  balances[msg.sender] */\n      0xffffffffffffffffffffffffffffffffffffffff\n      and\n      0xffffffffffffffffffffffffffffffffffffffff\n      and\n      dup2\n      mstore\n      0x20\n      add\n      swap1\n      dup2\n      mstore\n      0x20\n      add\n      0x00\n      keccak256\n        /* \"Initial Coin Offering (ICO)/ICO.sol\":2054:2106  balances[msg.sender] = balances[msg.sender] - tokens */\n      dup2\n      swap1\n      sstore\n      pop\n        /* \"Initial Coin Offering (ICO)/ICO.sol\":2145:2147  to */\n      dup3\n        /* \"Initial Coin Offering (ICO)/ICO.sol\":2124:2156  Transfer(msg.sender, to, tokens) */\n      0xffffffffffffffffffffffffffffffffffffffff\n      and\n        /* \"Initial Coin Offering (ICO)/ICO.sol\":2133:2143  msg.sender */\n      caller\n        /* \"Initial Coin Offering (ICO)/ICO.sol\":2124:2156  Transfer(msg.sender, to, tokens) */\n      0xffffffffffffffffffffffffffffffffffffffff\n      and\n      0xddf252ad1be2c89b69c2b068fc378daa952ba7f163c4a11628f55a4df523b3ef\n        /* \"Initial Coin Offering (ICO)/ICO.sol\":2149:2155  tokens */\n      dup5\n        /* \"Initial Coin Offering (ICO)/ICO.sol\":2124:2156  Transfer(msg.sender, to, tokens) */\n      mload(0x40)\n      tag_264\n      swap2\n      swap1\n      tag_58\n      jump\t// in\n    tag_264:\n      mload(0x40)\n      dup1\n      swap2\n      sub\n      swap1\n      log3\n        /* \"Initial Coin Offering (ICO)/ICO.sol\":2174:2178  true */\n      0x01\n        /* \"Initial Coin Offering (ICO)/ICO.sol\":2167:2178  return true */\n      swap1\n      pop\n        /* \"Initial Coin Offering (ICO)/ICO.sol\":1768:2186  function transfer(address to, uint tokens) public override virtual returns(bool success)\r... */\n      swap3\n      swap2\n      pop\n      pop\n      jump\t// out\n        /* \"#utility.yul\":7:146   */\n    tag_266:\n        /* \"#utility.yul\":53:58   */\n      0x00\n        /* \"#utility.yul\":91:97   */\n      dup2\n        /* \"#utility.yul\":78:98   */\n      calldataload\n        /* \"#utility.yul\":69:98   */\n      swap1\n      pop\n        /* \"#utility.yul\":107:140   */\n      tag_268\n        /* \"#utility.yul\":134:139   */\n      dup2\n        /* \"#utility.yul\":107:140   */\n      tag_269\n      jump\t// in\n    tag_268:\n        /* \"#utility.yul\":7:146   */\n      swap3\n      swap2\n      pop\n      pop\n      jump\t// out\n        /* \"#utility.yul\":152:307   */\n    tag_270:\n        /* \"#utility.yul\":206:211   */\n      0x00\n        /* \"#utility.yul\":244:250   */\n      dup2\n        /* \"#utility.yul\":231:251   */\n      calldataload\n        /* \"#utility.yul\":222:251   */\n      swap1\n      pop\n        /* \"#utility.yul\":260:301   */\n      tag_272\n        /* \"#utility.yul\":295:300   */\n      dup2\n        /* \"#utility.yul\":260:301   */\n      tag_273\n      jump\t// in\n    tag_272:\n        /* \"#utility.yul\":152:307   */\n      swap3\n      swap2\n      pop\n      pop\n      jump\t// out\n        /* \"#utility.yul\":313:452   */\n    tag_274:\n        /* \"#utility.yul\":359:364   */\n      0x00\n        /* \"#utility.yul\":397:403   */\n      dup2\n        /* \"#utility.yul\":384:404   */\n      calldataload\n        /* \"#utility.yul\":375:404   */\n      swap1\n      pop\n        /* \"#utility.yul\":413:446   */\n      tag_276\n        /* \"#utility.yul\":440:445   */\n      dup2\n        /* \"#utility.yul\":413:446   */\n      tag_277\n      jump\t// in\n    tag_276:\n        /* \"#utility.yul\":313:452   */\n      swap3\n      swap2\n      pop\n      pop\n      jump\t// out\n        /* \"#utility.yul\":458:787   */\n    tag_71:\n        /* \"#utility.yul\":517:523   */\n      0x00\n        /* \"#utility.yul\":566:568   */\n      0x20\n        /* \"#utility.yul\":554:563   */\n      dup3\n        /* \"#utility.yul\":545:552   */\n      dup5\n        /* \"#utility.yul\":541:564   */\n      sub\n        /* \"#utility.yul\":537:569   */\n      slt\n        /* \"#utility.yul\":534:653   */\n      iszero\n      tag_279\n      jumpi\n        /* \"#utility.yul\":572:651   */\n      tag_280\n      tag_281\n      jump\t// in\n    tag_280:\n        /* \"#utility.yul\":534:653   */\n    tag_279:\n        /* \"#utility.yul\":692:693   */\n      0x00\n        /* \"#utility.yul\":717:770   */\n      tag_282\n        /* \"#utility.yul\":762:769   */\n      dup5\n        /* \"#utility.yul\":753:759   */\n      dup3\n        /* \"#utility.yul\":742:751   */\n      dup6\n        /* \"#utility.yul\":738:760   */\n      add\n        /* \"#utility.yul\":717:770   */\n      tag_266\n      jump\t// in\n    tag_282:\n        /* \"#utility.yul\":707:770   */\n      swap2\n      pop\n        /* \"#utility.yul\":663:780   */\n      pop\n        /* \"#utility.yul\":458:787   */\n      swap3\n      swap2\n      pop\n      pop\n      jump\t// out\n        /* \"#utility.yul\":793:1138   */\n    tag_52:\n        /* \"#utility.yul\":860:866   */\n      0x00\n        /* \"#utility.yul\":909:911   */\n      0x20\n        /* \"#utility.yul\":897:906   */\n      dup3\n        /* \"#utility.yul\":888:895   */\n      dup5\n        /* \"#utility.yul\":884:907   */\n      sub\n        /* \"#utility.yul\":880:912   */\n      slt\n        /* \"#utility.yul\":877:996   */\n      iszero\n      tag_284\n      jumpi\n        /* \"#utility.yul\":915:994   */\n      tag_285\n      tag_281\n      jump\t// in\n    tag_285:\n        /* \"#utility.yul\":877:996   */\n    tag_284:\n        /* \"#utility.yul\":1035:1036   */\n      0x00\n        /* \"#utility.yul\":1060:1121   */\n      tag_286\n        /* \"#utility.yul\":1113:1120   */\n      dup5\n        /* \"#utility.yul\":1104:1110   */\n      dup3\n        /* \"#utility.yul\":1093:1102   */\n      dup6\n        /* \"#utility.yul\":1089:1111   */\n      add\n        /* \"#utility.yul\":1060:1121   */\n      tag_270\n      jump\t// in\n    tag_286:\n        /* \"#utility.yul\":1050:1121   */\n      swap2\n      pop\n        /* \"#utility.yul\":1006:1131   */\n      pop\n        /* \"#utility.yul\":793:1138   */\n      swap3\n      swap2\n      pop\n      pop\n      jump\t// out\n        /* \"#utility.yul\":1144:1618   */\n    tag_139:\n        /* \"#utility.yul\":1212:1218   */\n      0x00\n        /* \"#utility.yul\":1220:1226   */\n      dup1\n        /* \"#utility.yul\":1269:1271   */\n      0x40\n        /* \"#utility.yul\":1257:1266   */\n      dup4\n        /* \"#utility.yul\":1248:1255   */\n      dup6\n        /* \"#utility.yul\":1244:1267   */\n      sub\n        /* \"#utility.yul\":1240:1272   */\n      slt\n        /* \"#utility.yul\":1237:1356   */\n      iszero\n      tag_288\n      jumpi\n        /* \"#utility.yul\":1275:1354   */\n      tag_289\n      tag_281\n      jump\t// in\n    tag_289:\n        /* \"#utility.yul\":1237:1356   */\n    tag_288:\n        /* \"#utility.yul\":1395:1396   */\n      0x00\n        /* \"#utility.yul\":1420:1473   */\n      tag_290\n        /* \"#utility.yul\":1465:1472   */\n      dup6\n        /* \"#utility.yul\":1456:1462   */\n      dup3\n        /* \"#utility.yul\":1445:1454   */\n      dup7\n        /* \"#utility.yul\":1441:1463   */\n      add\n        /* \"#utility.yul\":1420:1473   */\n      tag_266\n      jump\t// in\n    tag_290:\n        /* \"#utility.yul\":1410:1473   */\n      swap3\n      pop\n        /* \"#utility.yul\":1366:1483   */\n      pop\n        /* \"#utility.yul\":1522:1524   */\n      0x20\n        /* \"#utility.yul\":1548:1601   */\n      tag_291\n        /* \"#utility.yul\":1593:1600   */\n      dup6\n        /* \"#utility.yul\":1584:1590   */\n      dup3\n        /* \"#utility.yul\":1573:1582   */\n      dup7\n        /* \"#utility.yul\":1569:1591   */\n      add\n        /* \"#utility.yul\":1548:1601   */\n      tag_266\n      jump\t// in\n    tag_291:\n        /* \"#utility.yul\":1538:1601   */\n      swap2\n      pop\n        /* \"#utility.yul\":1493:1611   */\n      pop\n        /* \"#utility.yul\":1144:1618   */\n      swap3\n      pop\n      swap3\n      swap1\n      pop\n      jump\t// out\n        /* \"#utility.yul\":1624:2243   */\n    tag_81:\n        /* \"#utility.yul\":1701:1707   */\n      0x00\n        /* \"#utility.yul\":1709:1715   */\n      dup1\n        /* \"#utility.yul\":1717:1723   */\n      0x00\n        /* \"#utility.yul\":1766:1768   */\n      0x60\n        /* \"#utility.yul\":1754:1763   */\n      dup5\n        /* \"#utility.yul\":1745:1752   */\n      dup7\n        /* \"#utility.yul\":1741:1764   */\n      sub\n        /* \"#utility.yul\":1737:1769   */\n      slt\n        /* \"#utility.yul\":1734:1853   */\n      iszero\n      tag_293\n      jumpi\n        /* \"#utility.yul\":1772:1851   */\n      tag_294\n      tag_281\n      jump\t// in\n    tag_294:\n        /* \"#utility.yul\":1734:1853   */\n    tag_293:\n        /* \"#utility.yul\":1892:1893   */\n      0x00\n        /* \"#utility.yul\":1917:1970   */\n      tag_295\n        /* \"#utility.yul\":1962:1969   */\n      dup7\n        /* \"#utility.yul\":1953:1959   */\n      dup3\n        /* \"#utility.yul\":1942:1951   */\n      dup8\n        /* \"#utility.yul\":1938:1960   */\n      add\n        /* \"#utility.yul\":1917:1970   */\n      tag_266\n      jump\t// in\n    tag_295:\n        /* \"#utility.yul\":1907:1970   */\n      swap4\n      pop\n        /* \"#utility.yul\":1863:1980   */\n      pop\n        /* \"#utility.yul\":2019:2021   */\n      0x20\n        /* \"#utility.yul\":2045:2098   */\n      tag_296\n        /* \"#utility.yul\":2090:2097   */\n      dup7\n        /* \"#utility.yul\":2081:2087   */\n      dup3\n        /* \"#utility.yul\":2070:2079   */\n      dup8\n        /* \"#utility.yul\":2066:2088   */\n      add\n        /* \"#utility.yul\":2045:2098   */\n      tag_266\n      jump\t// in\n    tag_296:\n        /* \"#utility.yul\":2035:2098   */\n      swap3\n      pop\n        /* \"#utility.yul\":1990:2108   */\n      pop\n        /* \"#utility.yul\":2147:2149   */\n      0x40\n        /* \"#utility.yul\":2173:2226   */\n      tag_297\n        /* \"#utility.yul\":2218:2225   */\n      dup7\n        /* \"#utility.yul\":2209:2215   */\n      dup3\n        /* \"#utility.yul\":2198:2207   */\n      dup8\n        /* \"#utility.yul\":2194:2216   */\n      add\n        /* \"#utility.yul\":2173:2226   */\n      tag_274\n      jump\t// in\n    tag_297:\n        /* \"#utility.yul\":2163:2226   */\n      swap2\n      pop\n        /* \"#utility.yul\":2118:2236   */\n      pop\n        /* \"#utility.yul\":1624:2243   */\n      swap3\n      pop\n      swap3\n      pop\n      swap3\n      jump\t// out\n        /* \"#utility.yul\":2249:2723   */\n    tag_45:\n        /* \"#utility.yul\":2317:2323   */\n      0x00\n        /* \"#utility.yul\":2325:2331   */\n      dup1\n        /* \"#utility.yul\":2374:2376   */\n      0x40\n        /* \"#utility.yul\":2362:2371   */\n      dup4\n        /* \"#utility.yul\":2353:2360   */\n      dup6\n        /* \"#utility.yul\":2349:2372   */\n      sub\n        /* \"#utility.yul\":2345:2377   */\n      slt\n        /* \"#utility.yul\":2342:2461   */\n      iszero\n      tag_299\n      jumpi\n        /* \"#utility.yul\":2380:2459   */\n      tag_300\n      tag_281\n      jump\t// in\n    tag_300:\n        /* \"#utility.yul\":2342:2461   */\n    tag_299:\n        /* \"#utility.yul\":2500:2501   */\n      0x00\n        /* \"#utility.yul\":2525:2578   */\n      tag_301\n        /* \"#utility.yul\":2570:2577   */\n      dup6\n        /* \"#utility.yul\":2561:2567   */\n      dup3\n        /* \"#utility.yul\":2550:2559   */\n      dup7\n        /* \"#utility.yul\":2546:2568   */\n      add\n        /* \"#utility.yul\":2525:2578   */\n      tag_266\n      jump\t// in\n    tag_301:\n        /* \"#utility.yul\":2515:2578   */\n      swap3\n      pop\n        /* \"#utility.yul\":2471:2588   */\n      pop\n        /* \"#utility.yul\":2627:2629   */\n      0x20\n        /* \"#utility.yul\":2653:2706   */\n      tag_302\n        /* \"#utility.yul\":2698:2705   */\n      dup6\n        /* \"#utility.yul\":2689:2695   */\n      dup3\n        /* \"#utility.yul\":2678:2687   */\n      dup7\n        /* \"#utility.yul\":2674:2696   */\n      add\n        /* \"#utility.yul\":2653:2706   */\n      tag_274\n      jump\t// in\n    tag_302:\n        /* \"#utility.yul\":2643:2706   */\n      swap2\n      pop\n        /* \"#utility.yul\":2598:2716   */\n      pop\n        /* \"#utility.yul\":2249:2723   */\n      swap3\n      pop\n      swap3\n      swap1\n      pop\n      jump\t// out\n        /* \"#utility.yul\":2729:2871   */\n    tag_303:\n        /* \"#utility.yul\":2832:2864   */\n      tag_305\n        /* \"#utility.yul\":2858:2863   */\n      dup2\n        /* \"#utility.yul\":2832:2864   */\n      tag_306\n      jump\t// in\n    tag_305:\n        /* \"#utility.yul\":2827:2830   */\n      dup3\n        /* \"#utility.yul\":2820:2865   */\n      mstore\n        /* \"#utility.yul\":2729:2871   */\n      pop\n      pop\n      jump\t// out\n        /* \"#utility.yul\":2877:2995   */\n    tag_307:\n        /* \"#utility.yul\":2964:2988   */\n      tag_309\n        /* \"#utility.yul\":2982:2987   */\n      dup2\n        /* \"#utility.yul\":2964:2988   */\n      tag_310\n      jump\t// in\n    tag_309:\n        /* \"#utility.yul\":2959:2962   */\n      dup3\n        /* \"#utility.yul\":2952:2989   */\n      mstore\n        /* \"#utility.yul\":2877:2995   */\n      pop\n      pop\n      jump\t// out\n        /* \"#utility.yul\":3001:3110   */\n    tag_311:\n        /* \"#utility.yul\":3082:3103   */\n      tag_313\n        /* \"#utility.yul\":3097:3102   */\n      dup2\n        /* \"#utility.yul\":3082:3103   */\n      tag_314\n      jump\t// in\n    tag_313:\n        /* \"#utility.yul\":3077:3080   */\n      dup3\n        /* \"#utility.yul\":3070:3104   */\n      mstore\n        /* \"#utility.yul\":3001:3110   */\n      pop\n      pop\n      jump\t// out\n        /* \"#utility.yul\":3116:3261   */\n    tag_315:\n        /* \"#utility.yul\":3210:3254   */\n      tag_317\n        /* \"#utility.yul\":3248:3253   */\n      dup2\n        /* \"#utility.yul\":3210:3254   */\n      tag_318\n      jump\t// in\n    tag_317:\n        /* \"#utility.yul\":3205:3208   */\n      dup3\n        /* \"#utility.yul\":3198:3255   */\n      mstore\n        /* \"#utility.yul\":3116:3261   */\n      pop\n      pop\n      jump\t// out\n        /* \"#utility.yul\":3267:3631   */\n    tag_319:\n        /* \"#utility.yul\":3355:3358   */\n      0x00\n        /* \"#utility.yul\":3383:3422   */\n      tag_321\n        /* \"#utility.yul\":3416:3421   */\n      dup3\n        /* \"#utility.yul\":3383:3422   */\n      tag_322\n      jump\t// in\n    tag_321:\n        /* \"#utility.yul\":3438:3509   */\n      tag_323\n        /* \"#utility.yul\":3502:3508   */\n      dup2\n        /* \"#utility.yul\":3497:3500   */\n      dup6\n        /* \"#utility.yul\":3438:3509   */\n      tag_324\n      jump\t// in\n    tag_323:\n        /* \"#utility.yul\":3431:3509   */\n      swap4\n      pop\n        /* \"#utility.yul\":3518:3570   */\n      tag_325\n        /* \"#utility.yul\":3563:3569   */\n      dup2\n        /* \"#utility.yul\":3558:3561   */\n      dup6\n        /* \"#utility.yul\":3551:3555   */\n      0x20\n        /* \"#utility.yul\":3544:3549   */\n      dup7\n        /* \"#utility.yul\":3540:3556   */\n      add\n        /* \"#utility.yul\":3518:3570   */\n      tag_326\n      jump\t// in\n    tag_325:\n        /* \"#utility.yul\":3595:3624   */\n      tag_327\n        /* \"#utility.yul\":3617:3623   */\n      dup2\n        /* \"#utility.yul\":3595:3624   */\n      tag_328\n      jump\t// in\n    tag_327:\n        /* \"#utility.yul\":3590:3593   */\n      dup5\n        /* \"#utility.yul\":3586:3625   */\n      add\n        /* \"#utility.yul\":3579:3625   */\n      swap2\n      pop\n        /* \"#utility.yul\":3359:3631   */\n      pop\n        /* \"#utility.yul\":3267:3631   */\n      swap3\n      swap2\n      pop\n      pop\n      jump\t// out\n        /* \"#utility.yul\":3637:3755   */\n    tag_329:\n        /* \"#utility.yul\":3724:3748   */\n      tag_331\n        /* \"#utility.yul\":3742:3747   */\n      dup2\n        /* \"#utility.yul\":3724:3748   */\n      tag_332\n      jump\t// in\n    tag_331:\n        /* \"#utility.yul\":3719:3722   */\n      dup3\n        /* \"#utility.yul\":3712:3749   */\n      mstore\n        /* \"#utility.yul\":3637:3755   */\n      pop\n      pop\n      jump\t// out\n        /* \"#utility.yul\":3761:3983   */\n    tag_88:\n        /* \"#utility.yul\":3854:3858   */\n      0x00\n        /* \"#utility.yul\":3892:3894   */\n      0x20\n        /* \"#utility.yul\":3881:3890   */\n      dup3\n        /* \"#utility.yul\":3877:3895   */\n      add\n        /* \"#utility.yul\":3869:3895   */\n      swap1\n      pop\n        /* \"#utility.yul\":3905:3976   */\n      tag_334\n        /* \"#utility.yul\":3973:3974   */\n      0x00\n        /* \"#utility.yul\":3962:3971   */\n      dup4\n        /* \"#utility.yul\":3958:3975   */\n      add\n        /* \"#utility.yul\":3949:3955   */\n      dup5\n        /* \"#utility.yul\":3905:3976   */\n      tag_307\n      jump\t// in\n    tag_334:\n        /* \"#utility.yul\":3761:3983   */\n      swap3\n      swap2\n      pop\n      pop\n      jump\t// out\n        /* \"#utility.yul\":3989:4243   */\n    tag_163:\n        /* \"#utility.yul\":4098:4102   */\n      0x00\n        /* \"#utility.yul\":4136:4138   */\n      0x20\n        /* \"#utility.yul\":4125:4134   */\n      dup3\n        /* \"#utility.yul\":4121:4139   */\n      add\n        /* \"#utility.yul\":4113:4139   */\n      swap1\n      pop\n        /* \"#utility.yul\":4149:4236   */\n      tag_336\n        /* \"#utility.yul\":4233:4234   */\n      0x00\n        /* \"#utility.yul\":4222:4231   */\n      dup4\n        /* \"#utility.yul\":4218:4235   */\n      add\n        /* \"#utility.yul\":4209:4215   */\n      dup5\n        /* \"#utility.yul\":4149:4236   */\n      tag_303\n      jump\t// in\n    tag_336:\n        /* \"#utility.yul\":3989:4243   */\n      swap3\n      swap2\n      pop\n      pop\n      jump\t// out\n        /* \"#utility.yul\":4249:4691   */\n    tag_190:\n        /* \"#utility.yul\":4398:4402   */\n      0x00\n        /* \"#utility.yul\":4436:4438   */\n      0x60\n        /* \"#utility.yul\":4425:4434   */\n      dup3\n        /* \"#utility.yul\":4421:4439   */\n      add\n        /* \"#utility.yul\":4413:4439   */\n      swap1\n      pop\n        /* \"#utility.yul\":4449:4520   */\n      tag_338\n        /* \"#utility.yul\":4517:4518   */\n      0x00\n        /* \"#utility.yul\":4506:4515   */\n      dup4\n        /* \"#utility.yul\":4502:4519   */\n      add\n        /* \"#utility.yul\":4493:4499   */\n      dup7\n        /* \"#utility.yul\":4449:4520   */\n      tag_307\n      jump\t// in\n    tag_338:\n        /* \"#utility.yul\":4530:4602   */\n      tag_339\n        /* \"#utility.yul\":4598:4600   */\n      0x20\n        /* \"#utility.yul\":4587:4596   */\n      dup4\n        /* \"#utility.yul\":4583:4601   */\n      add\n        /* \"#utility.yul\":4574:4580   */\n      dup6\n        /* \"#utility.yul\":4530:4602   */\n      tag_329\n      jump\t// in\n    tag_339:\n        /* \"#utility.yul\":4612:4684   */\n      tag_340\n        /* \"#utility.yul\":4680:4682   */\n      0x40\n        /* \"#utility.yul\":4669:4678   */\n      dup4\n        /* \"#utility.yul\":4665:4683   */\n      add\n        /* \"#utility.yul\":4656:4662   */\n      dup5\n        /* \"#utility.yul\":4612:4684   */\n      tag_329\n      jump\t// in\n    tag_340:\n        /* \"#utility.yul\":4249:4691   */\n      swap5\n      swap4\n      pop\n      pop\n      pop\n      pop\n      jump\t// out\n        /* \"#utility.yul\":4697:4907   */\n    tag_48:\n        /* \"#utility.yul\":4784:4788   */\n      0x00\n        /* \"#utility.yul\":4822:4824   */\n      0x20\n        /* \"#utility.yul\":4811:4820   */\n      dup3\n        /* \"#utility.yul\":4807:4825   */\n      add\n        /* \"#utility.yul\":4799:4825   */\n      swap1\n      pop\n        /* \"#utility.yul\":4835:4900   */\n      tag_342\n        /* \"#utility.yul\":4897:4898   */\n      0x00\n        /* \"#utility.yul\":4886:4895   */\n      dup4\n        /* \"#utility.yul\":4882:4899   */\n      add\n        /* \"#utility.yul\":4873:4879   */\n      dup5\n        /* \"#utility.yul\":4835:4900   */\n      tag_311\n      jump\t// in\n    tag_342:\n        /* \"#utility.yul\":4697:4907   */\n      swap3\n      swap2\n      pop\n      pop\n      jump\t// out\n        /* \"#utility.yul\":4913:5149   */\n    tag_97:\n        /* \"#utility.yul\":5013:5017   */\n      0x00\n        /* \"#utility.yul\":5051:5053   */\n      0x20\n        /* \"#utility.yul\":5040:5049   */\n      dup3\n        /* \"#utility.yul\":5036:5054   */\n      add\n        /* \"#utility.yul\":5028:5054   */\n      swap1\n      pop\n        /* \"#utility.yul\":5064:5142   */\n      tag_344\n        /* \"#utility.yul\":5139:5140   */\n      0x00\n        /* \"#utility.yul\":5128:5137   */\n      dup4\n        /* \"#utility.yul\":5124:5141   */\n      add\n        /* \"#utility.yul\":5115:5121   */\n      dup5\n        /* \"#utility.yul\":5064:5142   */\n      tag_315\n      jump\t// in\n    tag_344:\n        /* \"#utility.yul\":4913:5149   */\n      swap3\n      swap2\n      pop\n      pop\n      jump\t// out\n        /* \"#utility.yul\":5155:5468   */\n    tag_67:\n        /* \"#utility.yul\":5268:5272   */\n      0x00\n        /* \"#utility.yul\":5306:5308   */\n      0x20\n        /* \"#utility.yul\":5295:5304   */\n      dup3\n        /* \"#utility.yul\":5291:5309   */\n      add\n        /* \"#utility.yul\":5283:5309   */\n      swap1\n      pop\n        /* \"#utility.yul\":5355:5364   */\n      dup2\n        /* \"#utility.yul\":5349:5353   */\n      dup2\n        /* \"#utility.yul\":5345:5365   */\n      sub\n        /* \"#utility.yul\":5341:5342   */\n      0x00\n        /* \"#utility.yul\":5330:5339   */\n      dup4\n        /* \"#utility.yul\":5326:5343   */\n      add\n        /* \"#utility.yul\":5319:5366   */\n      mstore\n        /* \"#utility.yul\":5383:5461   */\n      tag_346\n        /* \"#utility.yul\":5456:5460   */\n      dup2\n        /* \"#utility.yul\":5447:5453   */\n      dup5\n        /* \"#utility.yul\":5383:5461   */\n      tag_319\n      jump\t// in\n    tag_346:\n        /* \"#utility.yul\":5375:5461   */\n      swap1\n      pop\n        /* \"#utility.yul\":5155:5468   */\n      swap3\n      swap2\n      pop\n      pop\n      jump\t// out\n        /* \"#utility.yul\":5474:5696   */\n    tag_58:\n        /* \"#utility.yul\":5567:5571   */\n      0x00\n        /* \"#utility.yul\":5605:5607   */\n      0x20\n        /* \"#utility.yul\":5594:5603   */\n      dup3\n        /* \"#utility.yul\":5590:5608   */\n      add\n        /* \"#utility.yul\":5582:5608   */\n      swap1\n      pop\n        /* \"#utility.yul\":5618:5689   */\n      tag_348\n        /* \"#utility.yul\":5686:5687   */\n      0x00\n        /* \"#utility.yul\":5675:5684   */\n      dup4\n        /* \"#utility.yul\":5671:5688   */\n      add\n        /* \"#utility.yul\":5662:5668   */\n      dup5\n        /* \"#utility.yul\":5618:5689   */\n      tag_329\n      jump\t// in\n    tag_348:\n        /* \"#utility.yul\":5474:5696   */\n      swap3\n      swap2\n      pop\n      pop\n      jump\t// out\n        /* \"#utility.yul\":5783:5882   */\n    tag_322:\n        /* \"#utility.yul\":5835:5841   */\n      0x00\n        /* \"#utility.yul\":5869:5874   */\n      dup2\n        /* \"#utility.yul\":5863:5875   */\n      mload\n        /* \"#utility.yul\":5853:5875   */\n      swap1\n      pop\n        /* \"#utility.yul\":5783:5882   */\n      swap2\n      swap1\n      pop\n      jump\t// out\n        /* \"#utility.yul\":5888:6057   */\n    tag_324:\n        /* \"#utility.yul\":5972:5983   */\n      0x00\n        /* \"#utility.yul\":6006:6012   */\n      dup3\n        /* \"#utility.yul\":6001:6004   */\n      dup3\n        /* \"#utility.yul\":5994:6013   */\n      mstore\n        /* \"#utility.yul\":6046:6050   */\n      0x20\n        /* \"#utility.yul\":6041:6044   */\n      dup3\n        /* \"#utility.yul\":6037:6051   */\n      add\n        /* \"#utility.yul\":6022:6051   */\n      swap1\n      pop\n        /* \"#utility.yul\":5888:6057   */\n      swap3\n      swap2\n      pop\n      pop\n      jump\t// out\n        /* \"#utility.yul\":6063:6368   */\n    tag_184:\n        /* \"#utility.yul\":6103:6106   */\n      0x00\n        /* \"#utility.yul\":6122:6142   */\n      tag_354\n        /* \"#utility.yul\":6140:6141   */\n      dup3\n        /* \"#utility.yul\":6122:6142   */\n      tag_332\n      jump\t// in\n    tag_354:\n        /* \"#utility.yul\":6117:6142   */\n      swap2\n      pop\n        /* \"#utility.yul\":6156:6176   */\n      tag_355\n        /* \"#utility.yul\":6174:6175   */\n      dup4\n        /* \"#utility.yul\":6156:6176   */\n      tag_332\n      jump\t// in\n    tag_355:\n        /* \"#utility.yul\":6151:6176   */\n      swap3\n      pop\n        /* \"#utility.yul\":6310:6311   */\n      dup3\n        /* \"#utility.yul\":6242:6308   */\n      0xffffffffffffffffffffffffffffffffffffffffffffffffffffffffffffffff\n        /* \"#utility.yul\":6238:6312   */\n      sub\n        /* \"#utility.yul\":6235:6236   */\n      dup3\n        /* \"#utility.yul\":6232:6313   */\n      gt\n        /* \"#utility.yul\":6229:6336   */\n      iszero\n      tag_356\n      jumpi\n        /* \"#utility.yul\":6316:6334   */\n      tag_357\n      tag_358\n      jump\t// in\n    tag_357:\n        /* \"#utility.yul\":6229:6336   */\n    tag_356:\n        /* \"#utility.yul\":6360:6361   */\n      dup3\n        /* \"#utility.yul\":6357:6358   */\n      dup3\n        /* \"#utility.yul\":6353:6362   */\n      add\n        /* \"#utility.yul\":6346:6362   */\n      swap1\n      pop\n        /* \"#utility.yul\":6063:6368   */\n      swap3\n      swap2\n      pop\n      pop\n      jump\t// out\n        /* \"#utility.yul\":6374:6559   */\n    tag_182:\n        /* \"#utility.yul\":6414:6415   */\n      0x00\n        /* \"#utility.yul\":6431:6451   */\n      tag_360\n        /* \"#utility.yul\":6449:6450   */\n      dup3\n        /* \"#utility.yul\":6431:6451   */\n      tag_332\n      jump\t// in\n    tag_360:\n        /* \"#utility.yul\":6426:6451   */\n      swap2\n      pop\n        /* \"#utility.yul\":6465:6485   */\n      tag_361\n        /* \"#utility.yul\":6483:6484   */\n      dup4\n        /* \"#utility.yul\":6465:6485   */\n      tag_332\n      jump\t// in\n    tag_361:\n        /* \"#utility.yul\":6460:6485   */\n      swap3\n      pop\n        /* \"#utility.yul\":6504:6505   */\n      dup3\n        /* \"#utility.yul\":6494:6529   */\n      tag_362\n      jumpi\n        /* \"#utility.yul\":6509:6527   */\n      tag_363\n      tag_364\n      jump\t// in\n    tag_363:\n        /* \"#utility.yul\":6494:6529   */\n    tag_362:\n        /* \"#utility.yul\":6551:6552   */\n      dup3\n        /* \"#utility.yul\":6548:6549   */\n      dup3\n        /* \"#utility.yul\":6544:6553   */\n      div\n        /* \"#utility.yul\":6539:6553   */\n      swap1\n      pop\n        /* \"#utility.yul\":6374:6559   */\n      swap3\n      swap2\n      pop\n      pop\n      jump\t// out\n        /* \"#utility.yul\":6565:6756   */\n    tag_186:\n        /* \"#utility.yul\":6605:6609   */\n      0x00\n        /* \"#utility.yul\":6625:6645   */\n      tag_366\n        /* \"#utility.yul\":6643:6644   */\n      dup3\n        /* \"#utility.yul\":6625:6645   */\n      tag_332\n      jump\t// in\n    tag_366:\n        /* \"#utility.yul\":6620:6645   */\n      swap2\n      pop\n        /* \"#utility.yul\":6659:6679   */\n      tag_367\n        /* \"#utility.yul\":6677:6678   */\n      dup4\n        /* \"#utility.yul\":6659:6679   */\n      tag_332\n      jump\t// in\n    tag_367:\n        /* \"#utility.yul\":6654:6679   */\n      swap3\n      pop\n        /* \"#utility.yul\":6698:6699   */\n      dup3\n        /* \"#utility.yul\":6695:6696   */\n      dup3\n        /* \"#utility.yul\":6692:6700   */\n      lt\n        /* \"#utility.yul\":6689:6723   */\n      iszero\n      tag_368\n      jumpi\n        /* \"#utility.yul\":6703:6721   */\n      tag_369\n      tag_358\n      jump\t// in\n    tag_369:\n        /* \"#utility.yul\":6689:6723   */\n    tag_368:\n        /* \"#utility.yul\":6748:6749   */\n      dup3\n        /* \"#utility.yul\":6745:6746   */\n      dup3\n        /* \"#utility.yul\":6741:6750   */\n      sub\n        /* \"#utility.yul\":6733:6750   */\n      swap1\n      pop\n        /* \"#utility.yul\":6565:6756   */\n      swap3\n      swap2\n      pop\n      pop\n      jump\t// out\n        /* \"#utility.yul\":6762:6858   */\n    tag_310:\n        /* \"#utility.yul\":6799:6806   */\n      0x00\n        /* \"#utility.yul\":6828:6852   */\n      tag_371\n        /* \"#utility.yul\":6846:6851   */\n      dup3\n        /* \"#utility.yul\":6828:6852   */\n      tag_372\n      jump\t// in\n    tag_371:\n        /* \"#utility.yul\":6817:6852   */\n      swap1\n      pop\n        /* \"#utility.yul\":6762:6858   */\n      swap2\n      swap1\n      pop\n      jump\t// out\n        /* \"#utility.yul\":6864:6968   */\n    tag_306:\n        /* \"#utility.yul\":6909:6916   */\n      0x00\n        /* \"#utility.yul\":6938:6962   */\n      tag_374\n        /* \"#utility.yul\":6956:6961   */\n      dup3\n        /* \"#utility.yul\":6938:6962   */\n      tag_372\n      jump\t// in\n    tag_374:\n        /* \"#utility.yul\":6927:6962   */\n      swap1\n      pop\n        /* \"#utility.yul\":6864:6968   */\n      swap2\n      swap1\n      pop\n      jump\t// out\n        /* \"#utility.yul\":6974:7064   */\n    tag_314:\n        /* \"#utility.yul\":7008:7015   */\n      0x00\n        /* \"#utility.yul\":7051:7056   */\n      dup2\n        /* \"#utility.yul\":7044:7057   */\n      iszero\n        /* \"#utility.yul\":7037:7058   */\n      iszero\n        /* \"#utility.yul\":7026:7058   */\n      swap1\n      pop\n        /* \"#utility.yul\":6974:7064   */\n      swap2\n      swap1\n      pop\n      jump\t// out\n        /* \"#utility.yul\":7070:7199   */\n    tag_376:\n        /* \"#utility.yul\":7116:7123   */\n      0x00\n        /* \"#utility.yul\":7145:7150   */\n      dup2\n        /* \"#utility.yul\":7134:7150   */\n      swap1\n      pop\n        /* \"#utility.yul\":7151:7193   */\n      tag_378\n        /* \"#utility.yul\":7187:7192   */\n      dup3\n        /* \"#utility.yul\":7151:7193   */\n      tag_379\n      jump\t// in\n    tag_378:\n        /* \"#utility.yul\":7070:7199   */\n      swap2\n      swap1\n      pop\n      jump\t// out\n        /* \"#utility.yul\":7205:7331   */\n    tag_372:\n        /* \"#utility.yul\":7242:7249   */\n      0x00\n        /* \"#utility.yul\":7282:7324   */\n      0xffffffffffffffffffffffffffffffffffffffff\n        /* \"#utility.yul\":7275:7280   */\n      dup3\n        /* \"#utility.yul\":7271:7325   */\n      and\n        /* \"#utility.yul\":7260:7325   */\n      swap1\n      pop\n        /* \"#utility.yul\":7205:7331   */\n      swap2\n      swap1\n      pop\n      jump\t// out\n        /* \"#utility.yul\":7337:7414   */\n    tag_332:\n        /* \"#utility.yul\":7374:7381   */\n      0x00\n        /* \"#utility.yul\":7403:7408   */\n      dup2\n        /* \"#utility.yul\":7392:7408   */\n      swap1\n      pop\n        /* \"#utility.yul\":7337:7414   */\n      swap2\n      swap1\n      pop\n      jump\t// out\n        /* \"#utility.yul\":7420:7549   */\n    tag_318:\n        /* \"#utility.yul\":7477:7486   */\n      0x00\n        /* \"#utility.yul\":7510:7543   */\n      tag_383\n        /* \"#utility.yul\":7537:7542   */\n      dup3\n        /* \"#utility.yul\":7510:7543   */\n      tag_376\n      jump\t// in\n    tag_383:\n        /* \"#utility.yul\":7497:7543   */\n      swap1\n      pop\n        /* \"#utility.yul\":7420:7549   */\n      swap2\n      swap1\n      pop\n      jump\t// out\n        /* \"#utility.yul\":7555:7862   */\n    tag_326:\n        /* \"#utility.yul\":7623:7624   */\n      0x00\n        /* \"#utility.yul\":7633:7746   */\n    tag_385:\n        /* \"#utility.yul\":7647:7653   */\n      dup4\n        /* \"#utility.yul\":7644:7645   */\n      dup2\n        /* \"#utility.yul\":7641:7654   */\n      lt\n        /* \"#utility.yul\":7633:7746   */\n      iszero\n      tag_387\n      jumpi\n        /* \"#utility.yul\":7732:7733   */\n      dup1\n        /* \"#utility.yul\":7727:7730   */\n      dup3\n        /* \"#utility.yul\":7723:7734   */\n      add\n        /* \"#utility.yul\":7717:7735   */\n      mload\n        /* \"#utility.yul\":7713:7714   */\n      dup2\n        /* \"#utility.yul\":7708:7711   */\n      dup5\n        /* \"#utility.yul\":7704:7715   */\n      add\n        /* \"#utility.yul\":7697:7736   */\n      mstore\n        /* \"#utility.yul\":7669:7671   */\n      0x20\n        /* \"#utility.yul\":7666:7667   */\n      dup2\n        /* \"#utility.yul\":7662:7672   */\n      add\n        /* \"#utility.yul\":7657:7672   */\n      swap1\n      pop\n        /* \"#utility.yul\":7633:7746   */\n      jump(tag_385)\n    tag_387:\n        /* \"#utility.yul\":7764:7770   */\n      dup4\n        /* \"#utility.yul\":7761:7762   */\n      dup2\n        /* \"#utility.yul\":7758:7771   */\n      gt\n        /* \"#utility.yul\":7755:7856   */\n      iszero\n      tag_388\n      jumpi\n        /* \"#utility.yul\":7844:7845   */\n      0x00\n        /* \"#utility.yul\":7835:7841   */\n      dup5\n        /* \"#utility.yul\":7830:7833   */\n      dup5\n        /* \"#utility.yul\":7826:7842   */\n      add\n        /* \"#utility.yul\":7819:7846   */\n      mstore\n        /* \"#utility.yul\":7755:7856   */\n    tag_388:\n        /* \"#utility.yul\":7604:7862   */\n      pop\n        /* \"#utility.yul\":7555:7862   */\n      pop\n      pop\n      pop\n      jump\t// out\n        /* \"#utility.yul\":7868:8188   */\n    tag_199:\n        /* \"#utility.yul\":7912:7918   */\n      0x00\n        /* \"#utility.yul\":7949:7950   */\n      0x02\n        /* \"#utility.yul\":7943:7947   */\n      dup3\n        /* \"#utility.yul\":7939:7951   */\n      div\n        /* \"#utility.yul\":7929:7951   */\n      swap1\n      pop\n        /* \"#utility.yul\":7996:7997   */\n      0x01\n        /* \"#utility.yul\":7990:7994   */\n      dup3\n        /* \"#utility.yul\":7986:7998   */\n      and\n        /* \"#utility.yul\":8017:8035   */\n      dup1\n        /* \"#utility.yul\":8007:8088   */\n      tag_390\n      jumpi\n        /* \"#utility.yul\":8073:8077   */\n      0x7f\n        /* \"#utility.yul\":8065:8071   */\n      dup3\n        /* \"#utility.yul\":8061:8078   */\n      and\n        /* \"#utility.yul\":8051:8078   */\n      swap2\n      pop\n        /* \"#utility.yul\":8007:8088   */\n    tag_390:\n        /* \"#utility.yul\":8135:8137   */\n      0x20\n        /* \"#utility.yul\":8127:8133   */\n      dup3\n        /* \"#utility.yul\":8124:8138   */\n      lt\n        /* \"#utility.yul\":8104:8122   */\n      dup2\n        /* \"#utility.yul\":8101:8139   */\n      eq\n        /* \"#utility.yul\":8098:8182   */\n      iszero\n      tag_391\n      jumpi\n        /* \"#utility.yul\":8154:8172   */\n      tag_392\n      tag_393\n      jump\t// in\n    tag_392:\n        /* \"#utility.yul\":8098:8182   */\n    tag_391:\n        /* \"#utility.yul\":7919:8188   */\n      pop\n        /* \"#utility.yul\":7868:8188   */\n      swap2\n      swap1\n      pop\n      jump\t// out\n        /* \"#utility.yul\":8194:8374   */\n    tag_358:\n        /* \"#utility.yul\":8242:8319   */\n      0x4e487b7100000000000000000000000000000000000000000000000000000000\n        /* \"#utility.yul\":8239:8240   */\n      0x00\n        /* \"#utility.yul\":8232:8320   */\n      mstore\n        /* \"#utility.yul\":8339:8343   */\n      0x11\n        /* \"#utility.yul\":8336:8337   */\n      0x04\n        /* \"#utility.yul\":8329:8344   */\n      mstore\n        /* \"#utility.yul\":8363:8367   */\n      0x24\n        /* \"#utility.yul\":8360:8361   */\n      0x00\n        /* \"#utility.yul\":8353:8368   */\n      revert\n        /* \"#utility.yul\":8380:8560   */\n    tag_364:\n        /* \"#utility.yul\":8428:8505   */\n      0x4e487b7100000000000000000000000000000000000000000000000000000000\n        /* \"#utility.yul\":8425:8426   */\n      0x00\n        /* \"#utility.yul\":8418:8506   */\n      mstore\n        /* \"#utility.yul\":8525:8529   */\n      0x12\n        /* \"#utility.yul\":8522:8523   */\n      0x04\n        /* \"#utility.yul\":8515:8530   */\n      mstore\n        /* \"#utility.yul\":8549:8553   */\n      0x24\n        /* \"#utility.yul\":8546:8547   */\n      0x00\n        /* \"#utility.yul\":8539:8554   */\n      revert\n        /* \"#utility.yul\":8566:8746   */\n    tag_172:\n        /* \"#utility.yul\":8614:8691   */\n      0x4e487b7100000000000000000000000000000000000000000000000000000000\n        /* \"#utility.yul\":8611:8612   */\n      0x00\n        /* \"#utility.yul\":8604:8692   */\n      mstore\n        /* \"#utility.yul\":8711:8715   */\n      0x21\n        /* \"#utility.yul\":8708:8709   */\n      0x04\n        /* \"#utility.yul\":8701:8716   */\n      mstore\n        /* \"#utility.yul\":8735:8739   */\n      0x24\n        /* \"#utility.yul\":8732:8733   */\n      0x00\n        /* \"#utility.yul\":8725:8740   */\n      revert\n        /* \"#utility.yul\":8752:8932   */\n    tag_393:\n        /* \"#utility.yul\":8800:8877   */\n      0x4e487b7100000000000000000000000000000000000000000000000000000000\n        /* \"#utility.yul\":8797:8798   */\n      0x00\n        /* \"#utility.yul\":8790:8878   */\n      mstore\n        /* \"#utility.yul\":8897:8901   */\n      0x22\n        /* \"#utility.yul\":8894:8895   */\n      0x04\n        /* \"#utility.yul\":8887:8902   */\n      mstore\n        /* \"#utility.yul\":8921:8925   */\n      0x24\n        /* \"#utility.yul\":8918:8919   */\n      0x00\n        /* \"#utility.yul\":8911:8926   */\n      revert\n        /* \"#utility.yul\":9061:9178   */\n    tag_281:\n        /* \"#utility.yul\":9170:9171   */\n      0x00\n        /* \"#utility.yul\":9167:9168   */\n      dup1\n        /* \"#utility.yul\":9160:9172   */\n      revert\n        /* \"#utility.yul\":9184:9286   */\n    tag_328:\n        /* \"#utility.yul\":9225:9231   */\n      0x00\n        /* \"#utility.yul\":9276:9278   */\n      0x1f\n        /* \"#utility.yul\":9272:9279   */\n      not\n        /* \"#utility.yul\":9267:9269   */\n      0x1f\n        /* \"#utility.yul\":9260:9265   */\n      dup4\n        /* \"#utility.yul\":9256:9270   */\n      add\n        /* \"#utility.yul\":9252:9280   */\n      and\n        /* \"#utility.yul\":9242:9280   */\n      swap1\n      pop\n        /* \"#utility.yul\":9184:9286   */\n      swap2\n      swap1\n      pop\n      jump\t// out\n        /* \"#utility.yul\":9292:9406   */\n    tag_379:\n        /* \"#utility.yul\":9374:9375   */\n      0x04\n        /* \"#utility.yul\":9367:9372   */\n      dup2\n        /* \"#utility.yul\":9364:9376   */\n      lt\n        /* \"#utility.yul\":9354:9400   */\n      tag_403\n      jumpi\n        /* \"#utility.yul\":9380:9398   */\n      tag_404\n      tag_172\n      jump\t// in\n    tag_404:\n        /* \"#utility.yul\":9354:9400   */\n    tag_403:\n        /* \"#utility.yul\":9292:9406   */\n      pop\n      jump\t// out\n        /* \"#utility.yul\":9412:9534   */\n    tag_269:\n        /* \"#utility.yul\":9485:9509   */\n      tag_406\n        /* \"#utility.yul\":9503:9508   */\n      dup2\n        /* \"#utility.yul\":9485:9509   */\n      tag_310\n      jump\t// in\n    tag_406:\n        /* \"#utility.yul\":9478:9483   */\n      dup2\n        /* \"#utility.yul\":9475:9510   */\n      eq\n        /* \"#utility.yul\":9465:9528   */\n      tag_407\n      jumpi\n        /* \"#utility.yul\":9524:9525   */\n      0x00\n        /* \"#utility.yul\":9521:9522   */\n      dup1\n        /* \"#utility.yul\":9514:9526   */\n      revert\n        /* \"#utility.yul\":9465:9528   */\n    tag_407:\n        /* \"#utility.yul\":9412:9534   */\n      pop\n      jump\t// out\n        /* \"#utility.yul\":9540:9678   */\n    tag_273:\n        /* \"#utility.yul\":9621:9653   */\n      tag_409\n        /* \"#utility.yul\":9647:9652   */\n      dup2\n        /* \"#utility.yul\":9621:9653   */\n      tag_306\n      jump\t// in\n    tag_409:\n        /* \"#utility.yul\":9614:9619   */\n      dup2\n        /* \"#utility.yul\":9611:9654   */\n      eq\n        /* \"#utility.yul\":9601:9672   */\n      tag_410\n      jumpi\n        /* \"#utility.yul\":9668:9669   */\n      0x00\n        /* \"#utility.yul\":9665:9666   */\n      dup1\n        /* \"#utility.yul\":9658:9670   */\n      revert\n        /* \"#utility.yul\":9601:9672   */\n    tag_410:\n        /* \"#utility.yul\":9540:9678   */\n      pop\n      jump\t// out\n        /* \"#utility.yul\":9684:9806   */\n    tag_277:\n        /* \"#utility.yul\":9757:9781   */\n      tag_412\n        /* \"#utility.yul\":9775:9780   */\n      dup2\n        /* \"#utility.yul\":9757:9781   */\n      tag_332\n      jump\t// in\n    tag_412:\n        /* \"#utility.yul\":9750:9755   */\n      dup2\n        /* \"#utility.yul\":9747:9782   */\n      eq\n        /* \"#utility.yul\":9737:9800   */\n      tag_413\n      jumpi\n        /* \"#utility.yul\":9796:9797   */\n      0x00\n        /* \"#utility.yul\":9793:9794   */\n      dup1\n        /* \"#utility.yul\":9786:9798   */\n      revert\n        /* \"#utility.yul\":9737:9800   */\n    tag_413:\n        /* \"#utility.yul\":9684:9806   */\n      pop\n      jump\t// out\n\n    auxdata: 0xa26469706673582212202112c0083047298eb249f309fabc3253e3fe2705d86d2b6b05c9509a6dfd877264736f6c63430008070033\n}\n",
				"bytecode": {
					"linkReferences": {},
					"object": "60806040526040518060400160405280600581526020017f426c6f636b0000000000000000000000000000000000000000000000000000008152506000908051906020019062000051929190620002e8565b506040518060400160405280600381526020017f424c4b0000000000000000000000000000000000000000000000000000000000815250600190805190602001906200009f929190620002e8565b506040518060400160405280600181526020017f300000000000000000000000000000000000000000000000000000000000000081525060029080519060200190620000ed929190620002e8565b5067016345785d8a0000600955681043561a8829300000600a5542600c55610e10426200011b9190620003e1565b600d55610e10600d54620001309190620003e1565b600e55678ac7230489e80000600f5567016345785d8a00006010553480156200015857600080fd5b5060405162001fd338038062001fd383398181016040528101906200017e9190620003af565b620186a060038190555033600460006101000a81548173ffffffffffffffffffffffffffffffffffffffff021916908373ffffffffffffffffffffffffffffffffffffffff16021790555060035460056000600460009054906101000a900473ffffffffffffffffffffffffffffffffffffffff1673ffffffffffffffffffffffffffffffffffffffff1673ffffffffffffffffffffffffffffffffffffffff1681526020019081526020016000208190555080600860006101000a81548173ffffffffffffffffffffffffffffffffffffffff021916908373ffffffffffffffffffffffffffffffffffffffff16021790555033600760006101000a81548173ffffffffffffffffffffffffffffffffffffffff021916908373ffffffffffffffffffffffffffffffffffffffff1602179055506000601160006101000a81548160ff02191690836003811115620002dc57620002db620004e1565b5b0217905550506200055e565b828054620002f6906200047c565b90600052602060002090601f0160209004810192826200031a576000855562000366565b82601f106200033557805160ff191683800117855562000366565b8280016001018555821562000366579182015b828111156200036557825182559160200191906001019062000348565b5b50905062000375919062000379565b5090565b5b80821115620003945760008160009055506001016200037a565b5090565b600081519050620003a98162000544565b92915050565b600060208284031215620003c857620003c76200053f565b5b6000620003d88482850162000398565b91505092915050565b6000620003ee8262000472565b9150620003fb8362000472565b9250827fffffffffffffffffffffffffffffffffffffffffffffffffffffffffffffffff03821115620004335762000432620004b2565b5b828201905092915050565b60006200044b8262000452565b9050919050565b600073ffffffffffffffffffffffffffffffffffffffff82169050919050565b6000819050919050565b600060028204905060018216806200049557607f821691505b60208210811415620004ac57620004ab62000510565b5b50919050565b7f4e487b7100000000000000000000000000000000000000000000000000000000600052601160045260246000fd5b7f4e487b7100000000000000000000000000000000000000000000000000000000600052602160045260246000fd5b7f4e487b7100000000000000000000000000000000000000000000000000000000600052602260045260246000fd5b600080fd5b6200054f816200043e565b81146200055b57600080fd5b50565b611a65806200056e6000396000f3fe6080604052600436106101bb5760003560e01c806378357e53116100ec578063bb4e11491161008a578063dd62ed3e11610064578063dd62ed3e1461060d578063e9fef4981461064a578063ed21248c14610675578063efeb941d146106a0576101cb565b8063bb4e11491461057a578063c0a2526c146105b7578063c59ee1dc146105e2576101cb565b8063a8d1ea88116100c6578063a8d1ea88146104d0578063a9059cbb146104e7578063af3ad0a514610524578063b8a4825f1461054f576101cb565b806378357e531461045c5780637914dfed146104875780638052474d146104a5576101cb565b80633112ae5b1161015957806344f387561161013357806344f38756146103b2578063490d6d11146103dd578063631aa385146103f457806370a082311461041f576101cb565b80633112ae5b1461031f5780633278dc671461035c57806341c5cf5c14610387576101cb565b80631d7ec23e116101955780631d7ec23e146102615780631fe50c391461028c57806327e235e3146102b75780633045aaf3146102f4576101cb565b8063095ea7b3146101d057806314f7252c1461020d57806318160ddd14610236576101cb565b366101cb576101c86106cb565b50005b600080fd5b3480156101dc57600080fd5b506101f760048036038101906101f291906115a5565b6108ff565b60405161020491906116d6565b60405180910390f35b34801561021957600080fd5b50610234600480360381019061022f91906114e5565b610a4a565b005b34801561024257600080fd5b5061024b610ae8565b604051610258919061172e565b60405180910390f35b34801561026d57600080fd5b50610276610aee565b604051610283919061172e565b60405180910390f35b34801561029857600080fd5b506102a1610af4565b6040516102ae919061170c565b60405180910390f35b3480156102c357600080fd5b506102de60048036038101906102d991906114b8565b610b82565b6040516102eb919061172e565b60405180910390f35b34801561030057600080fd5b50610309610b9a565b604051610316919061170c565b60405180910390f35b34801561032b57600080fd5b5061034660048036038101906103419190611552565b610c28565b60405161035391906116d6565b60405180910390f35b34801561036857600080fd5b50610371610c4f565b60405161037e9190611669565b60405180910390f35b34801561039357600080fd5b5061039c610c75565b6040516103a9919061172e565b60405180910390f35b3480156103be57600080fd5b506103c7610c7b565b6040516103d491906116f1565b60405180910390f35b3480156103e957600080fd5b506103f2610c8e565b005b34801561040057600080fd5b50610409610d15565b60405161041691906116f1565b60405180910390f35b34801561042b57600080fd5b50610446600480360381019061044191906114b8565b610d98565b604051610453919061172e565b60405180910390f35b34801561046857600080fd5b50610471610de1565b60405161047e9190611669565b60405180910390f35b61048f6106cb565b60405161049c91906116d6565b60405180910390f35b3480156104b157600080fd5b506104ba610e07565b6040516104c7919061170c565b60405180910390f35b3480156104dc57600080fd5b506104e5610e95565b005b3480156104f357600080fd5b5061050e600480360381019061050991906115a5565b610f1c565b60405161051b91906116d6565b60405180910390f35b34801561053057600080fd5b50610539610f41565b604051610546919061172e565b60405180910390f35b34801561055b57600080fd5b50610564610f47565b604051610571919061172e565b60405180910390f35b34801561058657600080fd5b506105a1600480360381019061059c9190611512565b610f4d565b6040516105ae919061172e565b60405180910390f35b3480156105c357600080fd5b506105cc610f72565b6040516105d991906116d6565b60405180910390f35b3480156105ee57600080fd5b506105f7611053565b604051610604919061172e565b60405180910390f35b34801561061957600080fd5b50610634600480360381019061062f9190611512565b611059565b604051610641919061172e565b60405180910390f35b34801561065657600080fd5b5061065f6110e0565b60405161066c919061172e565b60405180910390f35b34801561068157600080fd5b5061068a6110e6565b6040516106979190611684565b60405180910390f35b3480156106ac57600080fd5b506106b561110c565b6040516106c2919061172e565b60405180910390f35b60006106d5610d15565b601160006101000a81548160ff021916908360038111156106f9576106f8611962565b5b02179055506002600381111561071257610711611962565b5b601160009054906101000a900460ff16600381111561073457610733611962565b5b1461073e57600080fd5b60105434101580156107525750600f543411155b61075b57600080fd5b34600b81905550600a54600b54111561077357600080fd5b60006009543461078391906117bb565b905080600560003373ffffffffffffffffffffffffffffffffffffffff1673ffffffffffffffffffffffffffffffffffffffff16815260200190815260200160002060008282546107d49190611765565b925050819055508060056000600460009054906101000a900473ffffffffffffffffffffffffffffffffffffffff1673ffffffffffffffffffffffffffffffffffffffff1673ffffffffffffffffffffffffffffffffffffffff168152602001908152602001600020600082825461084c91906117ec565b92505081905550600860009054906101000a900473ffffffffffffffffffffffffffffffffffffffff1673ffffffffffffffffffffffffffffffffffffffff166108fc349081150290604051600060405180830381858888f193505050501580156108bb573d6000803e3d6000fd5b507f4ae4bd7655e0d350876a23cd90c4227b13db560e34435c6a488150a9c844bf5f3334836040516108ef9392919061169f565b60405180910390a1600191505090565b600081600560003373ffffffffffffffffffffffffffffffffffffffff1673ffffffffffffffffffffffffffffffffffffffff16815260200190815260200160002054101561094d57600080fd5b6000821161095a57600080fd5b81600660003373ffffffffffffffffffffffffffffffffffffffff1673ffffffffffffffffffffffffffffffffffffffff16815260200190815260200160002060008573ffffffffffffffffffffffffffffffffffffffff1673ffffffffffffffffffffffffffffffffffffffff168152602001908152602001600020819055508273ffffffffffffffffffffffffffffffffffffffff163373ffffffffffffffffffffffffffffffffffffffff167f8c5be1e5ebec7d5bd14f71427d1e84f3dd0314c0f7b2291e5b200ac8c7c3b92584604051610a38919061172e565b60405180910390a36001905092915050565b600760009054906101000a900473ffffffffffffffffffffffffffffffffffffffff1673ffffffffffffffffffffffffffffffffffffffff163373ffffffffffffffffffffffffffffffffffffffff1614610aa457600080fd5b80600860006101000a81548173ffffffffffffffffffffffffffffffffffffffff021916908373ffffffffffffffffffffffffffffffffffffffff16021790555050565b60035481565b600f5481565b60028054610b01906118d2565b80601f0160208091040260200160405190810160405280929190818152602001828054610b2d906118d2565b8015610b7a5780601f10610b4f57610100808354040283529160200191610b7a565b820191906000526020600020905b815481529060010190602001808311610b5d57829003601f168201915b505050505081565b60056020528060005260406000206000915090505481565b60018054610ba7906118d2565b80601f0160208091040260200160405190810160405280929190818152602001828054610bd3906118d2565b8015610c205780601f10610bf557610100808354040283529160200191610c20565b820191906000526020600020905b815481529060010190602001808311610c0357829003601f168201915b505050505081565b6000600e544211610c3857600080fd5b610c43848484611112565b50600190509392505050565b600460009054906101000a900473ffffffffffffffffffffffffffffffffffffffff1681565b600d5481565b601160009054906101000a900460ff1681565b600760009054906101000a900473ffffffffffffffffffffffffffffffffffffffff1673ffffffffffffffffffffffffffffffffffffffff163373ffffffffffffffffffffffffffffffffffffffff1614610ce857600080fd5b6002601160006101000a81548160ff02191690836003811115610d0e57610d0d611962565b5b0217905550565b6000600380811115610d2a57610d29611962565b5b601160009054906101000a900460ff166003811115610d4c57610d4b611962565b5b1415610d5b5760039050610d95565b600c54421015610d6e5760009050610d95565b600c544210158015610d825750600d544211155b15610d905760029050610d95565b600190505b90565b6000600560008373ffffffffffffffffffffffffffffffffffffffff1673ffffffffffffffffffffffffffffffffffffffff168152602001908152602001600020549050919050565b600760009054906101000a900473ffffffffffffffffffffffffffffffffffffffff1681565b60008054610e14906118d2565b80601f0160208091040260200160405190810160405280929190818152602001828054610e40906118d2565b8015610e8d5780601f10610e6257610100808354040283529160200191610e8d565b820191906000526020600020905b815481529060010190602001808311610e7057829003601f168201915b505050505081565b600760009054906101000a900473ffffffffffffffffffffffffffffffffffffffff1673ffffffffffffffffffffffffffffffffffffffff163373ffffffffffffffffffffffffffffffffffffffff1614610eef57600080fd5b6003601160006101000a81548160ff02191690836003811115610f1557610f14611962565b5b0217905550565b6000600e544211610f2c57600080fd5b610f3683836112a0565b506001905092915050565b60105481565b600e5481565b6006602052816000526040600020602052806000526040600020600091509150505481565b6000610f7c610d15565b601160006101000a81548160ff02191690836003811115610fa057610f9f611962565b5b021790555060016003811115610fb957610fb8611962565b5b601160009054906101000a900460ff166003811115610fdb57610fda611962565b5b14610fe557600080fd5b600060056000600460009054906101000a900473ffffffffffffffffffffffffffffffffffffffff1673ffffffffffffffffffffffffffffffffffffffff1673ffffffffffffffffffffffffffffffffffffffff168152602001908152602001600020819055506001905090565b600b5481565b6000600660008473ffffffffffffffffffffffffffffffffffffffff1673ffffffffffffffffffffffffffffffffffffffff16815260200190815260200160002060008373ffffffffffffffffffffffffffffffffffffffff1673ffffffffffffffffffffffffffffffffffffffff16815260200190815260200160002054905092915050565b600a5481565b600860009054906101000a900473ffffffffffffffffffffffffffffffffffffffff1681565b600c5481565b600081600660008673ffffffffffffffffffffffffffffffffffffffff1673ffffffffffffffffffffffffffffffffffffffff16815260200190815260200160002060008573ffffffffffffffffffffffffffffffffffffffff1673ffffffffffffffffffffffffffffffffffffffff16815260200190815260200160002054101561119d57600080fd5b81600560008673ffffffffffffffffffffffffffffffffffffffff1673ffffffffffffffffffffffffffffffffffffffff1681526020019081526020016000205410156111e957600080fd5b81600560008673ffffffffffffffffffffffffffffffffffffffff1673ffffffffffffffffffffffffffffffffffffffff168152602001908152602001600020600082825461123891906117ec565b9250508190555081600560008573ffffffffffffffffffffffffffffffffffffffff1673ffffffffffffffffffffffffffffffffffffffff168152602001908152602001600020600082825461128e9190611765565b92505081905550600190509392505050565b600081600560003373ffffffffffffffffffffffffffffffffffffffff1673ffffffffffffffffffffffffffffffffffffffff1681526020019081526020016000205410156112ee57600080fd5b81600560008573ffffffffffffffffffffffffffffffffffffffff1673ffffffffffffffffffffffffffffffffffffffff168152602001908152602001600020546113399190611765565b600560008573ffffffffffffffffffffffffffffffffffffffff1673ffffffffffffffffffffffffffffffffffffffff1681526020019081526020016000208190555081600560003373ffffffffffffffffffffffffffffffffffffffff1673ffffffffffffffffffffffffffffffffffffffff168152602001908152602001600020546113c791906117ec565b600560003373ffffffffffffffffffffffffffffffffffffffff1673ffffffffffffffffffffffffffffffffffffffff168152602001908152602001600020819055508273ffffffffffffffffffffffffffffffffffffffff163373ffffffffffffffffffffffffffffffffffffffff167fddf252ad1be2c89b69c2b068fc378daa952ba7f163c4a11628f55a4df523b3ef84604051611467919061172e565b60405180910390a36001905092915050565b600081359050611488816119ea565b92915050565b60008135905061149d81611a01565b92915050565b6000813590506114b281611a18565b92915050565b6000602082840312156114ce576114cd6119c0565b5b60006114dc84828501611479565b91505092915050565b6000602082840312156114fb576114fa6119c0565b5b60006115098482850161148e565b91505092915050565b60008060408385031215611529576115286119c0565b5b600061153785828601611479565b925050602061154885828601611479565b9150509250929050565b60008060006060848603121561156b5761156a6119c0565b5b600061157986828701611479565b935050602061158a86828701611479565b925050604061159b868287016114a3565b9150509250925092565b600080604083850312156115bc576115bb6119c0565b5b60006115ca85828601611479565b92505060206115db858286016114a3565b9150509250929050565b6115ee81611832565b82525050565b6115fd81611820565b82525050565b61160c81611844565b82525050565b61161b8161188d565b82525050565b600061162c82611749565b6116368185611754565b935061164681856020860161189f565b61164f816119c5565b840191505092915050565b61166381611883565b82525050565b600060208201905061167e60008301846115f4565b92915050565b600060208201905061169960008301846115e5565b92915050565b60006060820190506116b460008301866115f4565b6116c1602083018561165a565b6116ce604083018461165a565b949350505050565b60006020820190506116eb6000830184611603565b92915050565b60006020820190506117066000830184611612565b92915050565b600060208201905081810360008301526117268184611621565b905092915050565b6000602082019050611743600083018461165a565b92915050565b600081519050919050565b600082825260208201905092915050565b600061177082611883565b915061177b83611883565b9250827fffffffffffffffffffffffffffffffffffffffffffffffffffffffffffffffff038211156117b0576117af611904565b5b828201905092915050565b60006117c682611883565b91506117d183611883565b9250826117e1576117e0611933565b5b828204905092915050565b60006117f782611883565b915061180283611883565b92508282101561181557611814611904565b5b828203905092915050565b600061182b82611863565b9050919050565b600061183d82611863565b9050919050565b60008115159050919050565b600081905061185e826119d6565b919050565b600073ffffffffffffffffffffffffffffffffffffffff82169050919050565b6000819050919050565b600061189882611850565b9050919050565b60005b838110156118bd5780820151818401526020810190506118a2565b838111156118cc576000848401525b50505050565b600060028204905060018216806118ea57607f821691505b602082108114156118fe576118fd611991565b5b50919050565b7f4e487b7100000000000000000000000000000000000000000000000000000000600052601160045260246000fd5b7f4e487b7100000000000000000000000000000000000000000000000000000000600052601260045260246000fd5b7f4e487b7100000000000000000000000000000000000000000000000000000000600052602160045260246000fd5b7f4e487b7100000000000000000000000000000000000000000000000000000000600052602260045260246000fd5b600080fd5b6000601f19601f8301169050919050565b600481106119e7576119e6611962565b5b50565b6119f381611820565b81146119fe57600080fd5b50565b611a0a81611832565b8114611a1557600080fd5b50565b611a2181611883565b8114611a2c57600080fd5b5056fea26469706673582212202112c0083047298eb249f309fabc3253e3fe2705d86d2b6b05c9509a6dfd877264736f6c63430008070033",
					"opcodes": "PUSH1 0x80 PUSH1 0x40 MSTORE PUSH1 0x40 MLOAD DUP1 PUSH1 0x40 ADD PUSH1 0x40 MSTORE DUP1 PUSH1 0x5 DUP2 MSTORE PUSH1 0x20 ADD PUSH32 0x426C6F636B000000000000000000000000000000000000000000000000000000 DUP2 MSTORE POP PUSH1 0x0 SWAP1 DUP1 MLOAD SWAP1 PUSH1 0x20 ADD SWAP1 PUSH3 0x51 SWAP3 SWAP2 SWAP1 PUSH3 0x2E8 JUMP JUMPDEST POP PUSH1 0x40 MLOAD DUP1 PUSH1 0x40 ADD PUSH1 0x40 MSTORE DUP1 PUSH1 0x3 DUP2 MSTORE PUSH1 0x20 ADD PUSH32 0x424C4B0000000000000000000000000000000000000000000000000000000000 DUP2 MSTORE POP PUSH1 0x1 SWAP1 DUP1 MLOAD SWAP1 PUSH1 0x20 ADD SWAP1 PUSH3 0x9F SWAP3 SWAP2 SWAP1 PUSH3 0x2E8 JUMP JUMPDEST POP PUSH1 0x40 MLOAD DUP1 PUSH1 0x40 ADD PUSH1 0x40 MSTORE DUP1 PUSH1 0x1 DUP2 MSTORE PUSH1 0x20 ADD PUSH32 0x3000000000000000000000000000000000000000000000000000000000000000 DUP2 MSTORE POP PUSH1 0x2 SWAP1 DUP1 MLOAD SWAP1 PUSH1 0x20 ADD SWAP1 PUSH3 0xED SWAP3 SWAP2 SWAP1 PUSH3 0x2E8 JUMP JUMPDEST POP PUSH8 0x16345785D8A0000 PUSH1 0x9 SSTORE PUSH9 0x1043561A8829300000 PUSH1 0xA SSTORE TIMESTAMP PUSH1 0xC SSTORE PUSH2 0xE10 TIMESTAMP PUSH3 0x11B SWAP2 SWAP1 PUSH3 0x3E1 JUMP JUMPDEST PUSH1 0xD SSTORE PUSH2 0xE10 PUSH1 0xD SLOAD PUSH3 0x130 SWAP2 SWAP1 PUSH3 0x3E1 JUMP JUMPDEST PUSH1 0xE SSTORE PUSH8 0x8AC7230489E80000 PUSH1 0xF SSTORE PUSH8 0x16345785D8A0000 PUSH1 0x10 SSTORE CALLVALUE DUP1 ISZERO PUSH3 0x158 JUMPI PUSH1 0x0 DUP1 REVERT JUMPDEST POP PUSH1 0x40 MLOAD PUSH3 0x1FD3 CODESIZE SUB DUP1 PUSH3 0x1FD3 DUP4 CODECOPY DUP2 DUP2 ADD PUSH1 0x40 MSTORE DUP2 ADD SWAP1 PUSH3 0x17E SWAP2 SWAP1 PUSH3 0x3AF JUMP JUMPDEST PUSH3 0x186A0 PUSH1 0x3 DUP2 SWAP1 SSTORE POP CALLER PUSH1 0x4 PUSH1 0x0 PUSH2 0x100 EXP DUP2 SLOAD DUP2 PUSH20 0xFFFFFFFFFFFFFFFFFFFFFFFFFFFFFFFFFFFFFFFF MUL NOT AND SWAP1 DUP4 PUSH20 0xFFFFFFFFFFFFFFFFFFFFFFFFFFFFFFFFFFFFFFFF AND MUL OR SWAP1 SSTORE POP PUSH1 0x3 SLOAD PUSH1 0x5 PUSH1 0x0 PUSH1 0x4 PUSH1 0x0 SWAP1 SLOAD SWAP1 PUSH2 0x100 EXP SWAP1 DIV PUSH20 0xFFFFFFFFFFFFFFFFFFFFFFFFFFFFFFFFFFFFFFFF AND PUSH20 0xFFFFFFFFFFFFFFFFFFFFFFFFFFFFFFFFFFFFFFFF AND PUSH20 0xFFFFFFFFFFFFFFFFFFFFFFFFFFFFFFFFFFFFFFFF AND DUP2 MSTORE PUSH1 0x20 ADD SWAP1 DUP2 MSTORE PUSH1 0x20 ADD PUSH1 0x0 KECCAK256 DUP2 SWAP1 SSTORE POP DUP1 PUSH1 0x8 PUSH1 0x0 PUSH2 0x100 EXP DUP2 SLOAD DUP2 PUSH20 0xFFFFFFFFFFFFFFFFFFFFFFFFFFFFFFFFFFFFFFFF MUL NOT AND SWAP1 DUP4 PUSH20 0xFFFFFFFFFFFFFFFFFFFFFFFFFFFFFFFFFFFFFFFF AND MUL OR SWAP1 SSTORE POP CALLER PUSH1 0x7 PUSH1 0x0 PUSH2 0x100 EXP DUP2 SLOAD DUP2 PUSH20 0xFFFFFFFFFFFFFFFFFFFFFFFFFFFFFFFFFFFFFFFF MUL NOT AND SWAP1 DUP4 PUSH20 0xFFFFFFFFFFFFFFFFFFFFFFFFFFFFFFFFFFFFFFFF AND MUL OR SWAP1 SSTORE POP PUSH1 0x0 PUSH1 0x11 PUSH1 0x0 PUSH2 0x100 EXP DUP2 SLOAD DUP2 PUSH1 0xFF MUL NOT AND SWAP1 DUP4 PUSH1 0x3 DUP2 GT ISZERO PUSH3 0x2DC JUMPI PUSH3 0x2DB PUSH3 0x4E1 JUMP JUMPDEST JUMPDEST MUL OR SWAP1 SSTORE POP POP PUSH3 0x55E JUMP JUMPDEST DUP3 DUP1 SLOAD PUSH3 0x2F6 SWAP1 PUSH3 0x47C JUMP JUMPDEST SWAP1 PUSH1 0x0 MSTORE PUSH1 0x20 PUSH1 0x0 KECCAK256 SWAP1 PUSH1 0x1F ADD PUSH1 0x20 SWAP1 DIV DUP2 ADD SWAP3 DUP3 PUSH3 0x31A JUMPI PUSH1 0x0 DUP6 SSTORE PUSH3 0x366 JUMP JUMPDEST DUP3 PUSH1 0x1F LT PUSH3 0x335 JUMPI DUP1 MLOAD PUSH1 0xFF NOT AND DUP4 DUP1 ADD OR DUP6 SSTORE PUSH3 0x366 JUMP JUMPDEST DUP3 DUP1 ADD PUSH1 0x1 ADD DUP6 SSTORE DUP3 ISZERO PUSH3 0x366 JUMPI SWAP2 DUP3 ADD JUMPDEST DUP3 DUP2 GT ISZERO PUSH3 0x365 JUMPI DUP3 MLOAD DUP3 SSTORE SWAP2 PUSH1 0x20 ADD SWAP2 SWAP1 PUSH1 0x1 ADD SWAP1 PUSH3 0x348 JUMP JUMPDEST JUMPDEST POP SWAP1 POP PUSH3 0x375 SWAP2 SWAP1 PUSH3 0x379 JUMP JUMPDEST POP SWAP1 JUMP JUMPDEST JUMPDEST DUP1 DUP3 GT ISZERO PUSH3 0x394 JUMPI PUSH1 0x0 DUP2 PUSH1 0x0 SWAP1 SSTORE POP PUSH1 0x1 ADD PUSH3 0x37A JUMP JUMPDEST POP SWAP1 JUMP JUMPDEST PUSH1 0x0 DUP2 MLOAD SWAP1 POP PUSH3 0x3A9 DUP2 PUSH3 0x544 JUMP JUMPDEST SWAP3 SWAP2 POP POP JUMP JUMPDEST PUSH1 0x0 PUSH1 0x20 DUP3 DUP5 SUB SLT ISZERO PUSH3 0x3C8 JUMPI PUSH3 0x3C7 PUSH3 0x53F JUMP JUMPDEST JUMPDEST PUSH1 0x0 PUSH3 0x3D8 DUP5 DUP3 DUP6 ADD PUSH3 0x398 JUMP JUMPDEST SWAP2 POP POP SWAP3 SWAP2 POP POP JUMP JUMPDEST PUSH1 0x0 PUSH3 0x3EE DUP3 PUSH3 0x472 JUMP JUMPDEST SWAP2 POP PUSH3 0x3FB DUP4 PUSH3 0x472 JUMP JUMPDEST SWAP3 POP DUP3 PUSH32 0xFFFFFFFFFFFFFFFFFFFFFFFFFFFFFFFFFFFFFFFFFFFFFFFFFFFFFFFFFFFFFFFF SUB DUP3 GT ISZERO PUSH3 0x433 JUMPI PUSH3 0x432 PUSH3 0x4B2 JUMP JUMPDEST JUMPDEST DUP3 DUP3 ADD SWAP1 POP SWAP3 SWAP2 POP POP JUMP JUMPDEST PUSH1 0x0 PUSH3 0x44B DUP3 PUSH3 0x452 JUMP JUMPDEST SWAP1 POP SWAP2 SWAP1 POP JUMP JUMPDEST PUSH1 0x0 PUSH20 0xFFFFFFFFFFFFFFFFFFFFFFFFFFFFFFFFFFFFFFFF DUP3 AND SWAP1 POP SWAP2 SWAP1 POP JUMP JUMPDEST PUSH1 0x0 DUP2 SWAP1 POP SWAP2 SWAP1 POP JUMP JUMPDEST PUSH1 0x0 PUSH1 0x2 DUP3 DIV SWAP1 POP PUSH1 0x1 DUP3 AND DUP1 PUSH3 0x495 JUMPI PUSH1 0x7F DUP3 AND SWAP2 POP JUMPDEST PUSH1 0x20 DUP3 LT DUP2 EQ ISZERO PUSH3 0x4AC JUMPI PUSH3 0x4AB PUSH3 0x510 JUMP JUMPDEST JUMPDEST POP SWAP2 SWAP1 POP JUMP JUMPDEST PUSH32 0x4E487B7100000000000000000000000000000000000000000000000000000000 PUSH1 0x0 MSTORE PUSH1 0x11 PUSH1 0x4 MSTORE PUSH1 0x24 PUSH1 0x0 REVERT JUMPDEST PUSH32 0x4E487B7100000000000000000000000000000000000000000000000000000000 PUSH1 0x0 MSTORE PUSH1 0x21 PUSH1 0x4 MSTORE PUSH1 0x24 PUSH1 0x0 REVERT JUMPDEST PUSH32 0x4E487B7100000000000000000000000000000000000000000000000000000000 PUSH1 0x0 MSTORE PUSH1 0x22 PUSH1 0x4 MSTORE PUSH1 0x24 PUSH1 0x0 REVERT JUMPDEST PUSH1 0x0 DUP1 REVERT JUMPDEST PUSH3 0x54F DUP2 PUSH3 0x43E JUMP JUMPDEST DUP2 EQ PUSH3 0x55B JUMPI PUSH1 0x0 DUP1 REVERT JUMPDEST POP JUMP JUMPDEST PUSH2 0x1A65 DUP1 PUSH3 0x56E PUSH1 0x0 CODECOPY PUSH1 0x0 RETURN INVALID PUSH1 0x80 PUSH1 0x40 MSTORE PUSH1 0x4 CALLDATASIZE LT PUSH2 0x1BB JUMPI PUSH1 0x0 CALLDATALOAD PUSH1 0xE0 SHR DUP1 PUSH4 0x78357E53 GT PUSH2 0xEC JUMPI DUP1 PUSH4 0xBB4E1149 GT PUSH2 0x8A JUMPI DUP1 PUSH4 0xDD62ED3E GT PUSH2 0x64 JUMPI DUP1 PUSH4 0xDD62ED3E EQ PUSH2 0x60D JUMPI DUP1 PUSH4 0xE9FEF498 EQ PUSH2 0x64A JUMPI DUP1 PUSH4 0xED21248C EQ PUSH2 0x675 JUMPI DUP1 PUSH4 0xEFEB941D EQ PUSH2 0x6A0 JUMPI PUSH2 0x1CB JUMP JUMPDEST DUP1 PUSH4 0xBB4E1149 EQ PUSH2 0x57A JUMPI DUP1 PUSH4 0xC0A2526C EQ PUSH2 0x5B7 JUMPI DUP1 PUSH4 0xC59EE1DC EQ PUSH2 0x5E2 JUMPI PUSH2 0x1CB JUMP JUMPDEST DUP1 PUSH4 0xA8D1EA88 GT PUSH2 0xC6 JUMPI DUP1 PUSH4 0xA8D1EA88 EQ PUSH2 0x4D0 JUMPI DUP1 PUSH4 0xA9059CBB EQ PUSH2 0x4E7 JUMPI DUP1 PUSH4 0xAF3AD0A5 EQ PUSH2 0x524 JUMPI DUP1 PUSH4 0xB8A4825F EQ PUSH2 0x54F JUMPI PUSH2 0x1CB JUMP JUMPDEST DUP1 PUSH4 0x78357E53 EQ PUSH2 0x45C JUMPI DUP1 PUSH4 0x7914DFED EQ PUSH2 0x487 JUMPI DUP1 PUSH4 0x8052474D EQ PUSH2 0x4A5 JUMPI PUSH2 0x1CB JUMP JUMPDEST DUP1 PUSH4 0x3112AE5B GT PUSH2 0x159 JUMPI DUP1 PUSH4 0x44F38756 GT PUSH2 0x133 JUMPI DUP1 PUSH4 0x44F38756 EQ PUSH2 0x3B2 JUMPI DUP1 PUSH4 0x490D6D11 EQ PUSH2 0x3DD JUMPI DUP1 PUSH4 0x631AA385 EQ PUSH2 0x3F4 JUMPI DUP1 PUSH4 0x70A08231 EQ PUSH2 0x41F JUMPI PUSH2 0x1CB JUMP JUMPDEST DUP1 PUSH4 0x3112AE5B EQ PUSH2 0x31F JUMPI DUP1 PUSH4 0x3278DC67 EQ PUSH2 0x35C JUMPI DUP1 PUSH4 0x41C5CF5C EQ PUSH2 0x387 JUMPI PUSH2 0x1CB JUMP JUMPDEST DUP1 PUSH4 0x1D7EC23E GT PUSH2 0x195 JUMPI DUP1 PUSH4 0x1D7EC23E EQ PUSH2 0x261 JUMPI DUP1 PUSH4 0x1FE50C39 EQ PUSH2 0x28C JUMPI DUP1 PUSH4 0x27E235E3 EQ PUSH2 0x2B7 JUMPI DUP1 PUSH4 0x3045AAF3 EQ PUSH2 0x2F4 JUMPI PUSH2 0x1CB JUMP JUMPDEST DUP1 PUSH4 0x95EA7B3 EQ PUSH2 0x1D0 JUMPI DUP1 PUSH4 0x14F7252C EQ PUSH2 0x20D JUMPI DUP1 PUSH4 0x18160DDD EQ PUSH2 0x236 JUMPI PUSH2 0x1CB JUMP JUMPDEST CALLDATASIZE PUSH2 0x1CB JUMPI PUSH2 0x1C8 PUSH2 0x6CB JUMP JUMPDEST POP STOP JUMPDEST PUSH1 0x0 DUP1 REVERT JUMPDEST CALLVALUE DUP1 ISZERO PUSH2 0x1DC JUMPI PUSH1 0x0 DUP1 REVERT JUMPDEST POP PUSH2 0x1F7 PUSH1 0x4 DUP1 CALLDATASIZE SUB DUP2 ADD SWAP1 PUSH2 0x1F2 SWAP2 SWAP1 PUSH2 0x15A5 JUMP JUMPDEST PUSH2 0x8FF JUMP JUMPDEST PUSH1 0x40 MLOAD PUSH2 0x204 SWAP2 SWAP1 PUSH2 0x16D6 JUMP JUMPDEST PUSH1 0x40 MLOAD DUP1 SWAP2 SUB SWAP1 RETURN JUMPDEST CALLVALUE DUP1 ISZERO PUSH2 0x219 JUMPI PUSH1 0x0 DUP1 REVERT JUMPDEST POP PUSH2 0x234 PUSH1 0x4 DUP1 CALLDATASIZE SUB DUP2 ADD SWAP1 PUSH2 0x22F SWAP2 SWAP1 PUSH2 0x14E5 JUMP JUMPDEST PUSH2 0xA4A JUMP JUMPDEST STOP JUMPDEST CALLVALUE DUP1 ISZERO PUSH2 0x242 JUMPI PUSH1 0x0 DUP1 REVERT JUMPDEST POP PUSH2 0x24B PUSH2 0xAE8 JUMP JUMPDEST PUSH1 0x40 MLOAD PUSH2 0x258 SWAP2 SWAP1 PUSH2 0x172E JUMP JUMPDEST PUSH1 0x40 MLOAD DUP1 SWAP2 SUB SWAP1 RETURN JUMPDEST CALLVALUE DUP1 ISZERO PUSH2 0x26D JUMPI PUSH1 0x0 DUP1 REVERT JUMPDEST POP PUSH2 0x276 PUSH2 0xAEE JUMP JUMPDEST PUSH1 0x40 MLOAD PUSH2 0x283 SWAP2 SWAP1 PUSH2 0x172E JUMP JUMPDEST PUSH1 0x40 MLOAD DUP1 SWAP2 SUB SWAP1 RETURN JUMPDEST CALLVALUE DUP1 ISZERO PUSH2 0x298 JUMPI PUSH1 0x0 DUP1 REVERT JUMPDEST POP PUSH2 0x2A1 PUSH2 0xAF4 JUMP JUMPDEST PUSH1 0x40 MLOAD PUSH2 0x2AE SWAP2 SWAP1 PUSH2 0x170C JUMP JUMPDEST PUSH1 0x40 MLOAD DUP1 SWAP2 SUB SWAP1 RETURN JUMPDEST CALLVALUE DUP1 ISZERO PUSH2 0x2C3 JUMPI PUSH1 0x0 DUP1 REVERT JUMPDEST POP PUSH2 0x2DE PUSH1 0x4 DUP1 CALLDATASIZE SUB DUP2 ADD SWAP1 PUSH2 0x2D9 SWAP2 SWAP1 PUSH2 0x14B8 JUMP JUMPDEST PUSH2 0xB82 JUMP JUMPDEST PUSH1 0x40 MLOAD PUSH2 0x2EB SWAP2 SWAP1 PUSH2 0x172E JUMP JUMPDEST PUSH1 0x40 MLOAD DUP1 SWAP2 SUB SWAP1 RETURN JUMPDEST CALLVALUE DUP1 ISZERO PUSH2 0x300 JUMPI PUSH1 0x0 DUP1 REVERT JUMPDEST POP PUSH2 0x309 PUSH2 0xB9A JUMP JUMPDEST PUSH1 0x40 MLOAD PUSH2 0x316 SWAP2 SWAP1 PUSH2 0x170C JUMP JUMPDEST PUSH1 0x40 MLOAD DUP1 SWAP2 SUB SWAP1 RETURN JUMPDEST CALLVALUE DUP1 ISZERO PUSH2 0x32B JUMPI PUSH1 0x0 DUP1 REVERT JUMPDEST POP PUSH2 0x346 PUSH1 0x4 DUP1 CALLDATASIZE SUB DUP2 ADD SWAP1 PUSH2 0x341 SWAP2 SWAP1 PUSH2 0x1552 JUMP JUMPDEST PUSH2 0xC28 JUMP JUMPDEST PUSH1 0x40 MLOAD PUSH2 0x353 SWAP2 SWAP1 PUSH2 0x16D6 JUMP JUMPDEST PUSH1 0x40 MLOAD DUP1 SWAP2 SUB SWAP1 RETURN JUMPDEST CALLVALUE DUP1 ISZERO PUSH2 0x368 JUMPI PUSH1 0x0 DUP1 REVERT JUMPDEST POP PUSH2 0x371 PUSH2 0xC4F JUMP JUMPDEST PUSH1 0x40 MLOAD PUSH2 0x37E SWAP2 SWAP1 PUSH2 0x1669 JUMP JUMPDEST PUSH1 0x40 MLOAD DUP1 SWAP2 SUB SWAP1 RETURN JUMPDEST CALLVALUE DUP1 ISZERO PUSH2 0x393 JUMPI PUSH1 0x0 DUP1 REVERT JUMPDEST POP PUSH2 0x39C PUSH2 0xC75 JUMP JUMPDEST PUSH1 0x40 MLOAD PUSH2 0x3A9 SWAP2 SWAP1 PUSH2 0x172E JUMP JUMPDEST PUSH1 0x40 MLOAD DUP1 SWAP2 SUB SWAP1 RETURN JUMPDEST CALLVALUE DUP1 ISZERO PUSH2 0x3BE JUMPI PUSH1 0x0 DUP1 REVERT JUMPDEST POP PUSH2 0x3C7 PUSH2 0xC7B JUMP JUMPDEST PUSH1 0x40 MLOAD PUSH2 0x3D4 SWAP2 SWAP1 PUSH2 0x16F1 JUMP JUMPDEST PUSH1 0x40 MLOAD DUP1 SWAP2 SUB SWAP1 RETURN JUMPDEST CALLVALUE DUP1 ISZERO PUSH2 0x3E9 JUMPI PUSH1 0x0 DUP1 REVERT JUMPDEST POP PUSH2 0x3F2 PUSH2 0xC8E JUMP JUMPDEST STOP JUMPDEST CALLVALUE DUP1 ISZERO PUSH2 0x400 JUMPI PUSH1 0x0 DUP1 REVERT JUMPDEST POP PUSH2 0x409 PUSH2 0xD15 JUMP JUMPDEST PUSH1 0x40 MLOAD PUSH2 0x416 SWAP2 SWAP1 PUSH2 0x16F1 JUMP JUMPDEST PUSH1 0x40 MLOAD DUP1 SWAP2 SUB SWAP1 RETURN JUMPDEST CALLVALUE DUP1 ISZERO PUSH2 0x42B JUMPI PUSH1 0x0 DUP1 REVERT JUMPDEST POP PUSH2 0x446 PUSH1 0x4 DUP1 CALLDATASIZE SUB DUP2 ADD SWAP1 PUSH2 0x441 SWAP2 SWAP1 PUSH2 0x14B8 JUMP JUMPDEST PUSH2 0xD98 JUMP JUMPDEST PUSH1 0x40 MLOAD PUSH2 0x453 SWAP2 SWAP1 PUSH2 0x172E JUMP JUMPDEST PUSH1 0x40 MLOAD DUP1 SWAP2 SUB SWAP1 RETURN JUMPDEST CALLVALUE DUP1 ISZERO PUSH2 0x468 JUMPI PUSH1 0x0 DUP1 REVERT JUMPDEST POP PUSH2 0x471 PUSH2 0xDE1 JUMP JUMPDEST PUSH1 0x40 MLOAD PUSH2 0x47E SWAP2 SWAP1 PUSH2 0x1669 JUMP JUMPDEST PUSH1 0x40 MLOAD DUP1 SWAP2 SUB SWAP1 RETURN JUMPDEST PUSH2 0x48F PUSH2 0x6CB JUMP JUMPDEST PUSH1 0x40 MLOAD PUSH2 0x49C SWAP2 SWAP1 PUSH2 0x16D6 JUMP JUMPDEST PUSH1 0x40 MLOAD DUP1 SWAP2 SUB SWAP1 RETURN JUMPDEST CALLVALUE DUP1 ISZERO PUSH2 0x4B1 JUMPI PUSH1 0x0 DUP1 REVERT JUMPDEST POP PUSH2 0x4BA PUSH2 0xE07 JUMP JUMPDEST PUSH1 0x40 MLOAD PUSH2 0x4C7 SWAP2 SWAP1 PUSH2 0x170C JUMP JUMPDEST PUSH1 0x40 MLOAD DUP1 SWAP2 SUB SWAP1 RETURN JUMPDEST CALLVALUE DUP1 ISZERO PUSH2 0x4DC JUMPI PUSH1 0x0 DUP1 REVERT JUMPDEST POP PUSH2 0x4E5 PUSH2 0xE95 JUMP JUMPDEST STOP JUMPDEST CALLVALUE DUP1 ISZERO PUSH2 0x4F3 JUMPI PUSH1 0x0 DUP1 REVERT JUMPDEST POP PUSH2 0x50E PUSH1 0x4 DUP1 CALLDATASIZE SUB DUP2 ADD SWAP1 PUSH2 0x509 SWAP2 SWAP1 PUSH2 0x15A5 JUMP JUMPDEST PUSH2 0xF1C JUMP JUMPDEST PUSH1 0x40 MLOAD PUSH2 0x51B SWAP2 SWAP1 PUSH2 0x16D6 JUMP JUMPDEST PUSH1 0x40 MLOAD DUP1 SWAP2 SUB SWAP1 RETURN JUMPDEST CALLVALUE DUP1 ISZERO PUSH2 0x530 JUMPI PUSH1 0x0 DUP1 REVERT JUMPDEST POP PUSH2 0x539 PUSH2 0xF41 JUMP JUMPDEST PUSH1 0x40 MLOAD PUSH2 0x546 SWAP2 SWAP1 PUSH2 0x172E JUMP JUMPDEST PUSH1 0x40 MLOAD DUP1 SWAP2 SUB SWAP1 RETURN JUMPDEST CALLVALUE DUP1 ISZERO PUSH2 0x55B JUMPI PUSH1 0x0 DUP1 REVERT JUMPDEST POP PUSH2 0x564 PUSH2 0xF47 JUMP JUMPDEST PUSH1 0x40 MLOAD PUSH2 0x571 SWAP2 SWAP1 PUSH2 0x172E JUMP JUMPDEST PUSH1 0x40 MLOAD DUP1 SWAP2 SUB SWAP1 RETURN JUMPDEST CALLVALUE DUP1 ISZERO PUSH2 0x586 JUMPI PUSH1 0x0 DUP1 REVERT JUMPDEST POP PUSH2 0x5A1 PUSH1 0x4 DUP1 CALLDATASIZE SUB DUP2 ADD SWAP1 PUSH2 0x59C SWAP2 SWAP1 PUSH2 0x1512 JUMP JUMPDEST PUSH2 0xF4D JUMP JUMPDEST PUSH1 0x40 MLOAD PUSH2 0x5AE SWAP2 SWAP1 PUSH2 0x172E JUMP JUMPDEST PUSH1 0x40 MLOAD DUP1 SWAP2 SUB SWAP1 RETURN JUMPDEST CALLVALUE DUP1 ISZERO PUSH2 0x5C3 JUMPI PUSH1 0x0 DUP1 REVERT JUMPDEST POP PUSH2 0x5CC PUSH2 0xF72 JUMP JUMPDEST PUSH1 0x40 MLOAD PUSH2 0x5D9 SWAP2 SWAP1 PUSH2 0x16D6 JUMP JUMPDEST PUSH1 0x40 MLOAD DUP1 SWAP2 SUB SWAP1 RETURN JUMPDEST CALLVALUE DUP1 ISZERO PUSH2 0x5EE JUMPI PUSH1 0x0 DUP1 REVERT JUMPDEST POP PUSH2 0x5F7 PUSH2 0x1053 JUMP JUMPDEST PUSH1 0x40 MLOAD PUSH2 0x604 SWAP2 SWAP1 PUSH2 0x172E JUMP JUMPDEST PUSH1 0x40 MLOAD DUP1 SWAP2 SUB SWAP1 RETURN JUMPDEST CALLVALUE DUP1 ISZERO PUSH2 0x619 JUMPI PUSH1 0x0 DUP1 REVERT JUMPDEST POP PUSH2 0x634 PUSH1 0x4 DUP1 CALLDATASIZE SUB DUP2 ADD SWAP1 PUSH2 0x62F SWAP2 SWAP1 PUSH2 0x1512 JUMP JUMPDEST PUSH2 0x1059 JUMP JUMPDEST PUSH1 0x40 MLOAD PUSH2 0x641 SWAP2 SWAP1 PUSH2 0x172E JUMP JUMPDEST PUSH1 0x40 MLOAD DUP1 SWAP2 SUB SWAP1 RETURN JUMPDEST CALLVALUE DUP1 ISZERO PUSH2 0x656 JUMPI PUSH1 0x0 DUP1 REVERT JUMPDEST POP PUSH2 0x65F PUSH2 0x10E0 JUMP JUMPDEST PUSH1 0x40 MLOAD PUSH2 0x66C SWAP2 SWAP1 PUSH2 0x172E JUMP JUMPDEST PUSH1 0x40 MLOAD DUP1 SWAP2 SUB SWAP1 RETURN JUMPDEST CALLVALUE DUP1 ISZERO PUSH2 0x681 JUMPI PUSH1 0x0 DUP1 REVERT JUMPDEST POP PUSH2 0x68A PUSH2 0x10E6 JUMP JUMPDEST PUSH1 0x40 MLOAD PUSH2 0x697 SWAP2 SWAP1 PUSH2 0x1684 JUMP JUMPDEST PUSH1 0x40 MLOAD DUP1 SWAP2 SUB SWAP1 RETURN JUMPDEST CALLVALUE DUP1 ISZERO PUSH2 0x6AC JUMPI PUSH1 0x0 DUP1 REVERT JUMPDEST POP PUSH2 0x6B5 PUSH2 0x110C JUMP JUMPDEST PUSH1 0x40 MLOAD PUSH2 0x6C2 SWAP2 SWAP1 PUSH2 0x172E JUMP JUMPDEST PUSH1 0x40 MLOAD DUP1 SWAP2 SUB SWAP1 RETURN JUMPDEST PUSH1 0x0 PUSH2 0x6D5 PUSH2 0xD15 JUMP JUMPDEST PUSH1 0x11 PUSH1 0x0 PUSH2 0x100 EXP DUP2 SLOAD DUP2 PUSH1 0xFF MUL NOT AND SWAP1 DUP4 PUSH1 0x3 DUP2 GT ISZERO PUSH2 0x6F9 JUMPI PUSH2 0x6F8 PUSH2 0x1962 JUMP JUMPDEST JUMPDEST MUL OR SWAP1 SSTORE POP PUSH1 0x2 PUSH1 0x3 DUP2 GT ISZERO PUSH2 0x712 JUMPI PUSH2 0x711 PUSH2 0x1962 JUMP JUMPDEST JUMPDEST PUSH1 0x11 PUSH1 0x0 SWAP1 SLOAD SWAP1 PUSH2 0x100 EXP SWAP1 DIV PUSH1 0xFF AND PUSH1 0x3 DUP2 GT ISZERO PUSH2 0x734 JUMPI PUSH2 0x733 PUSH2 0x1962 JUMP JUMPDEST JUMPDEST EQ PUSH2 0x73E JUMPI PUSH1 0x0 DUP1 REVERT JUMPDEST PUSH1 0x10 SLOAD CALLVALUE LT ISZERO DUP1 ISZERO PUSH2 0x752 JUMPI POP PUSH1 0xF SLOAD CALLVALUE GT ISZERO JUMPDEST PUSH2 0x75B JUMPI PUSH1 0x0 DUP1 REVERT JUMPDEST CALLVALUE PUSH1 0xB DUP2 SWAP1 SSTORE POP PUSH1 0xA SLOAD PUSH1 0xB SLOAD GT ISZERO PUSH2 0x773 JUMPI PUSH1 0x0 DUP1 REVERT JUMPDEST PUSH1 0x0 PUSH1 0x9 SLOAD CALLVALUE PUSH2 0x783 SWAP2 SWAP1 PUSH2 0x17BB JUMP JUMPDEST SWAP1 POP DUP1 PUSH1 0x5 PUSH1 0x0 CALLER PUSH20 0xFFFFFFFFFFFFFFFFFFFFFFFFFFFFFFFFFFFFFFFF AND PUSH20 0xFFFFFFFFFFFFFFFFFFFFFFFFFFFFFFFFFFFFFFFF AND DUP2 MSTORE PUSH1 0x20 ADD SWAP1 DUP2 MSTORE PUSH1 0x20 ADD PUSH1 0x0 KECCAK256 PUSH1 0x0 DUP3 DUP3 SLOAD PUSH2 0x7D4 SWAP2 SWAP1 PUSH2 0x1765 JUMP JUMPDEST SWAP3 POP POP DUP2 SWAP1 SSTORE POP DUP1 PUSH1 0x5 PUSH1 0x0 PUSH1 0x4 PUSH1 0x0 SWAP1 SLOAD SWAP1 PUSH2 0x100 EXP SWAP1 DIV PUSH20 0xFFFFFFFFFFFFFFFFFFFFFFFFFFFFFFFFFFFFFFFF AND PUSH20 0xFFFFFFFFFFFFFFFFFFFFFFFFFFFFFFFFFFFFFFFF AND PUSH20 0xFFFFFFFFFFFFFFFFFFFFFFFFFFFFFFFFFFFFFFFF AND DUP2 MSTORE PUSH1 0x20 ADD SWAP1 DUP2 MSTORE PUSH1 0x20 ADD PUSH1 0x0 KECCAK256 PUSH1 0x0 DUP3 DUP3 SLOAD PUSH2 0x84C SWAP2 SWAP1 PUSH2 0x17EC JUMP JUMPDEST SWAP3 POP POP DUP2 SWAP1 SSTORE POP PUSH1 0x8 PUSH1 0x0 SWAP1 SLOAD SWAP1 PUSH2 0x100 EXP SWAP1 DIV PUSH20 0xFFFFFFFFFFFFFFFFFFFFFFFFFFFFFFFFFFFFFFFF AND PUSH20 0xFFFFFFFFFFFFFFFFFFFFFFFFFFFFFFFFFFFFFFFF AND PUSH2 0x8FC CALLVALUE SWAP1 DUP2 ISZERO MUL SWAP1 PUSH1 0x40 MLOAD PUSH1 0x0 PUSH1 0x40 MLOAD DUP1 DUP4 SUB DUP2 DUP6 DUP9 DUP9 CALL SWAP4 POP POP POP POP ISZERO DUP1 ISZERO PUSH2 0x8BB JUMPI RETURNDATASIZE PUSH1 0x0 DUP1 RETURNDATACOPY RETURNDATASIZE PUSH1 0x0 REVERT JUMPDEST POP PUSH32 0x4AE4BD7655E0D350876A23CD90C4227B13DB560E34435C6A488150A9C844BF5F CALLER CALLVALUE DUP4 PUSH1 0x40 MLOAD PUSH2 0x8EF SWAP4 SWAP3 SWAP2 SWAP1 PUSH2 0x169F JUMP JUMPDEST PUSH1 0x40 MLOAD DUP1 SWAP2 SUB SWAP1 LOG1 PUSH1 0x1 SWAP2 POP POP SWAP1 JUMP JUMPDEST PUSH1 0x0 DUP2 PUSH1 0x5 PUSH1 0x0 CALLER PUSH20 0xFFFFFFFFFFFFFFFFFFFFFFFFFFFFFFFFFFFFFFFF AND PUSH20 0xFFFFFFFFFFFFFFFFFFFFFFFFFFFFFFFFFFFFFFFF AND DUP2 MSTORE PUSH1 0x20 ADD SWAP1 DUP2 MSTORE PUSH1 0x20 ADD PUSH1 0x0 KECCAK256 SLOAD LT ISZERO PUSH2 0x94D JUMPI PUSH1 0x0 DUP1 REVERT JUMPDEST PUSH1 0x0 DUP3 GT PUSH2 0x95A JUMPI PUSH1 0x0 DUP1 REVERT JUMPDEST DUP2 PUSH1 0x6 PUSH1 0x0 CALLER PUSH20 0xFFFFFFFFFFFFFFFFFFFFFFFFFFFFFFFFFFFFFFFF AND PUSH20 0xFFFFFFFFFFFFFFFFFFFFFFFFFFFFFFFFFFFFFFFF AND DUP2 MSTORE PUSH1 0x20 ADD SWAP1 DUP2 MSTORE PUSH1 0x20 ADD PUSH1 0x0 KECCAK256 PUSH1 0x0 DUP6 PUSH20 0xFFFFFFFFFFFFFFFFFFFFFFFFFFFFFFFFFFFFFFFF AND PUSH20 0xFFFFFFFFFFFFFFFFFFFFFFFFFFFFFFFFFFFFFFFF AND DUP2 MSTORE PUSH1 0x20 ADD SWAP1 DUP2 MSTORE PUSH1 0x20 ADD PUSH1 0x0 KECCAK256 DUP2 SWAP1 SSTORE POP DUP3 PUSH20 0xFFFFFFFFFFFFFFFFFFFFFFFFFFFFFFFFFFFFFFFF AND CALLER PUSH20 0xFFFFFFFFFFFFFFFFFFFFFFFFFFFFFFFFFFFFFFFF AND PUSH32 0x8C5BE1E5EBEC7D5BD14F71427D1E84F3DD0314C0F7B2291E5B200AC8C7C3B925 DUP5 PUSH1 0x40 MLOAD PUSH2 0xA38 SWAP2 SWAP1 PUSH2 0x172E JUMP JUMPDEST PUSH1 0x40 MLOAD DUP1 SWAP2 SUB SWAP1 LOG3 PUSH1 0x1 SWAP1 POP SWAP3 SWAP2 POP POP JUMP JUMPDEST PUSH1 0x7 PUSH1 0x0 SWAP1 SLOAD SWAP1 PUSH2 0x100 EXP SWAP1 DIV PUSH20 0xFFFFFFFFFFFFFFFFFFFFFFFFFFFFFFFFFFFFFFFF AND PUSH20 0xFFFFFFFFFFFFFFFFFFFFFFFFFFFFFFFFFFFFFFFF AND CALLER PUSH20 0xFFFFFFFFFFFFFFFFFFFFFFFFFFFFFFFFFFFFFFFF AND EQ PUSH2 0xAA4 JUMPI PUSH1 0x0 DUP1 REVERT JUMPDEST DUP1 PUSH1 0x8 PUSH1 0x0 PUSH2 0x100 EXP DUP2 SLOAD DUP2 PUSH20 0xFFFFFFFFFFFFFFFFFFFFFFFFFFFFFFFFFFFFFFFF MUL NOT AND SWAP1 DUP4 PUSH20 0xFFFFFFFFFFFFFFFFFFFFFFFFFFFFFFFFFFFFFFFF AND MUL OR SWAP1 SSTORE POP POP JUMP JUMPDEST PUSH1 0x3 SLOAD DUP2 JUMP JUMPDEST PUSH1 0xF SLOAD DUP2 JUMP JUMPDEST PUSH1 0x2 DUP1 SLOAD PUSH2 0xB01 SWAP1 PUSH2 0x18D2 JUMP JUMPDEST DUP1 PUSH1 0x1F ADD PUSH1 0x20 DUP1 SWAP2 DIV MUL PUSH1 0x20 ADD PUSH1 0x40 MLOAD SWAP1 DUP2 ADD PUSH1 0x40 MSTORE DUP1 SWAP3 SWAP2 SWAP1 DUP2 DUP2 MSTORE PUSH1 0x20 ADD DUP3 DUP1 SLOAD PUSH2 0xB2D SWAP1 PUSH2 0x18D2 JUMP JUMPDEST DUP1 ISZERO PUSH2 0xB7A JUMPI DUP1 PUSH1 0x1F LT PUSH2 0xB4F JUMPI PUSH2 0x100 DUP1 DUP4 SLOAD DIV MUL DUP4 MSTORE SWAP2 PUSH1 0x20 ADD SWAP2 PUSH2 0xB7A JUMP JUMPDEST DUP3 ADD SWAP2 SWAP1 PUSH1 0x0 MSTORE PUSH1 0x20 PUSH1 0x0 KECCAK256 SWAP1 JUMPDEST DUP2 SLOAD DUP2 MSTORE SWAP1 PUSH1 0x1 ADD SWAP1 PUSH1 0x20 ADD DUP1 DUP4 GT PUSH2 0xB5D JUMPI DUP3 SWAP1 SUB PUSH1 0x1F AND DUP3 ADD SWAP2 JUMPDEST POP POP POP POP POP DUP2 JUMP JUMPDEST PUSH1 0x5 PUSH1 0x20 MSTORE DUP1 PUSH1 0x0 MSTORE PUSH1 0x40 PUSH1 0x0 KECCAK256 PUSH1 0x0 SWAP2 POP SWAP1 POP SLOAD DUP2 JUMP JUMPDEST PUSH1 0x1 DUP1 SLOAD PUSH2 0xBA7 SWAP1 PUSH2 0x18D2 JUMP JUMPDEST DUP1 PUSH1 0x1F ADD PUSH1 0x20 DUP1 SWAP2 DIV MUL PUSH1 0x20 ADD PUSH1 0x40 MLOAD SWAP1 DUP2 ADD PUSH1 0x40 MSTORE DUP1 SWAP3 SWAP2 SWAP1 DUP2 DUP2 MSTORE PUSH1 0x20 ADD DUP3 DUP1 SLOAD PUSH2 0xBD3 SWAP1 PUSH2 0x18D2 JUMP JUMPDEST DUP1 ISZERO PUSH2 0xC20 JUMPI DUP1 PUSH1 0x1F LT PUSH2 0xBF5 JUMPI PUSH2 0x100 DUP1 DUP4 SLOAD DIV MUL DUP4 MSTORE SWAP2 PUSH1 0x20 ADD SWAP2 PUSH2 0xC20 JUMP JUMPDEST DUP3 ADD SWAP2 SWAP1 PUSH1 0x0 MSTORE PUSH1 0x20 PUSH1 0x0 KECCAK256 SWAP1 JUMPDEST DUP2 SLOAD DUP2 MSTORE SWAP1 PUSH1 0x1 ADD SWAP1 PUSH1 0x20 ADD DUP1 DUP4 GT PUSH2 0xC03 JUMPI DUP3 SWAP1 SUB PUSH1 0x1F AND DUP3 ADD SWAP2 JUMPDEST POP POP POP POP POP DUP2 JUMP JUMPDEST PUSH1 0x0 PUSH1 0xE SLOAD TIMESTAMP GT PUSH2 0xC38 JUMPI PUSH1 0x0 DUP1 REVERT JUMPDEST PUSH2 0xC43 DUP5 DUP5 DUP5 PUSH2 0x1112 JUMP JUMPDEST POP PUSH1 0x1 SWAP1 POP SWAP4 SWAP3 POP POP POP JUMP JUMPDEST PUSH1 0x4 PUSH1 0x0 SWAP1 SLOAD SWAP1 PUSH2 0x100 EXP SWAP1 DIV PUSH20 0xFFFFFFFFFFFFFFFFFFFFFFFFFFFFFFFFFFFFFFFF AND DUP2 JUMP JUMPDEST PUSH1 0xD SLOAD DUP2 JUMP JUMPDEST PUSH1 0x11 PUSH1 0x0 SWAP1 SLOAD SWAP1 PUSH2 0x100 EXP SWAP1 DIV PUSH1 0xFF AND DUP2 JUMP JUMPDEST PUSH1 0x7 PUSH1 0x0 SWAP1 SLOAD SWAP1 PUSH2 0x100 EXP SWAP1 DIV PUSH20 0xFFFFFFFFFFFFFFFFFFFFFFFFFFFFFFFFFFFFFFFF AND PUSH20 0xFFFFFFFFFFFFFFFFFFFFFFFFFFFFFFFFFFFFFFFF AND CALLER PUSH20 0xFFFFFFFFFFFFFFFFFFFFFFFFFFFFFFFFFFFFFFFF AND EQ PUSH2 0xCE8 JUMPI PUSH1 0x0 DUP1 REVERT JUMPDEST PUSH1 0x2 PUSH1 0x11 PUSH1 0x0 PUSH2 0x100 EXP DUP2 SLOAD DUP2 PUSH1 0xFF MUL NOT AND SWAP1 DUP4 PUSH1 0x3 DUP2 GT ISZERO PUSH2 0xD0E JUMPI PUSH2 0xD0D PUSH2 0x1962 JUMP JUMPDEST JUMPDEST MUL OR SWAP1 SSTORE POP JUMP JUMPDEST PUSH1 0x0 PUSH1 0x3 DUP1 DUP2 GT ISZERO PUSH2 0xD2A JUMPI PUSH2 0xD29 PUSH2 0x1962 JUMP JUMPDEST JUMPDEST PUSH1 0x11 PUSH1 0x0 SWAP1 SLOAD SWAP1 PUSH2 0x100 EXP SWAP1 DIV PUSH1 0xFF AND PUSH1 0x3 DUP2 GT ISZERO PUSH2 0xD4C JUMPI PUSH2 0xD4B PUSH2 0x1962 JUMP JUMPDEST JUMPDEST EQ ISZERO PUSH2 0xD5B JUMPI PUSH1 0x3 SWAP1 POP PUSH2 0xD95 JUMP JUMPDEST PUSH1 0xC SLOAD TIMESTAMP LT ISZERO PUSH2 0xD6E JUMPI PUSH1 0x0 SWAP1 POP PUSH2 0xD95 JUMP JUMPDEST PUSH1 0xC SLOAD TIMESTAMP LT ISZERO DUP1 ISZERO PUSH2 0xD82 JUMPI POP PUSH1 0xD SLOAD TIMESTAMP GT ISZERO JUMPDEST ISZERO PUSH2 0xD90 JUMPI PUSH1 0x2 SWAP1 POP PUSH2 0xD95 JUMP JUMPDEST PUSH1 0x1 SWAP1 POP JUMPDEST SWAP1 JUMP JUMPDEST PUSH1 0x0 PUSH1 0x5 PUSH1 0x0 DUP4 PUSH20 0xFFFFFFFFFFFFFFFFFFFFFFFFFFFFFFFFFFFFFFFF AND PUSH20 0xFFFFFFFFFFFFFFFFFFFFFFFFFFFFFFFFFFFFFFFF AND DUP2 MSTORE PUSH1 0x20 ADD SWAP1 DUP2 MSTORE PUSH1 0x20 ADD PUSH1 0x0 KECCAK256 SLOAD SWAP1 POP SWAP2 SWAP1 POP JUMP JUMPDEST PUSH1 0x7 PUSH1 0x0 SWAP1 SLOAD SWAP1 PUSH2 0x100 EXP SWAP1 DIV PUSH20 0xFFFFFFFFFFFFFFFFFFFFFFFFFFFFFFFFFFFFFFFF AND DUP2 JUMP JUMPDEST PUSH1 0x0 DUP1 SLOAD PUSH2 0xE14 SWAP1 PUSH2 0x18D2 JUMP JUMPDEST DUP1 PUSH1 0x1F ADD PUSH1 0x20 DUP1 SWAP2 DIV MUL PUSH1 0x20 ADD PUSH1 0x40 MLOAD SWAP1 DUP2 ADD PUSH1 0x40 MSTORE DUP1 SWAP3 SWAP2 SWAP1 DUP2 DUP2 MSTORE PUSH1 0x20 ADD DUP3 DUP1 SLOAD PUSH2 0xE40 SWAP1 PUSH2 0x18D2 JUMP JUMPDEST DUP1 ISZERO PUSH2 0xE8D JUMPI DUP1 PUSH1 0x1F LT PUSH2 0xE62 JUMPI PUSH2 0x100 DUP1 DUP4 SLOAD DIV MUL DUP4 MSTORE SWAP2 PUSH1 0x20 ADD SWAP2 PUSH2 0xE8D JUMP JUMPDEST DUP3 ADD SWAP2 SWAP1 PUSH1 0x0 MSTORE PUSH1 0x20 PUSH1 0x0 KECCAK256 SWAP1 JUMPDEST DUP2 SLOAD DUP2 MSTORE SWAP1 PUSH1 0x1 ADD SWAP1 PUSH1 0x20 ADD DUP1 DUP4 GT PUSH2 0xE70 JUMPI DUP3 SWAP1 SUB PUSH1 0x1F AND DUP3 ADD SWAP2 JUMPDEST POP POP POP POP POP DUP2 JUMP JUMPDEST PUSH1 0x7 PUSH1 0x0 SWAP1 SLOAD SWAP1 PUSH2 0x100 EXP SWAP1 DIV PUSH20 0xFFFFFFFFFFFFFFFFFFFFFFFFFFFFFFFFFFFFFFFF AND PUSH20 0xFFFFFFFFFFFFFFFFFFFFFFFFFFFFFFFFFFFFFFFF AND CALLER PUSH20 0xFFFFFFFFFFFFFFFFFFFFFFFFFFFFFFFFFFFFFFFF AND EQ PUSH2 0xEEF JUMPI PUSH1 0x0 DUP1 REVERT JUMPDEST PUSH1 0x3 PUSH1 0x11 PUSH1 0x0 PUSH2 0x100 EXP DUP2 SLOAD DUP2 PUSH1 0xFF MUL NOT AND SWAP1 DUP4 PUSH1 0x3 DUP2 GT ISZERO PUSH2 0xF15 JUMPI PUSH2 0xF14 PUSH2 0x1962 JUMP JUMPDEST JUMPDEST MUL OR SWAP1 SSTORE POP JUMP JUMPDEST PUSH1 0x0 PUSH1 0xE SLOAD TIMESTAMP GT PUSH2 0xF2C JUMPI PUSH1 0x0 DUP1 REVERT JUMPDEST PUSH2 0xF36 DUP4 DUP4 PUSH2 0x12A0 JUMP JUMPDEST POP PUSH1 0x1 SWAP1 POP SWAP3 SWAP2 POP POP JUMP JUMPDEST PUSH1 0x10 SLOAD DUP2 JUMP JUMPDEST PUSH1 0xE SLOAD DUP2 JUMP JUMPDEST PUSH1 0x6 PUSH1 0x20 MSTORE DUP2 PUSH1 0x0 MSTORE PUSH1 0x40 PUSH1 0x0 KECCAK256 PUSH1 0x20 MSTORE DUP1 PUSH1 0x0 MSTORE PUSH1 0x40 PUSH1 0x0 KECCAK256 PUSH1 0x0 SWAP2 POP SWAP2 POP POP SLOAD DUP2 JUMP JUMPDEST PUSH1 0x0 PUSH2 0xF7C PUSH2 0xD15 JUMP JUMPDEST PUSH1 0x11 PUSH1 0x0 PUSH2 0x100 EXP DUP2 SLOAD DUP2 PUSH1 0xFF MUL NOT AND SWAP1 DUP4 PUSH1 0x3 DUP2 GT ISZERO PUSH2 0xFA0 JUMPI PUSH2 0xF9F PUSH2 0x1962 JUMP JUMPDEST JUMPDEST MUL OR SWAP1 SSTORE POP PUSH1 0x1 PUSH1 0x3 DUP2 GT ISZERO PUSH2 0xFB9 JUMPI PUSH2 0xFB8 PUSH2 0x1962 JUMP JUMPDEST JUMPDEST PUSH1 0x11 PUSH1 0x0 SWAP1 SLOAD SWAP1 PUSH2 0x100 EXP SWAP1 DIV PUSH1 0xFF AND PUSH1 0x3 DUP2 GT ISZERO PUSH2 0xFDB JUMPI PUSH2 0xFDA PUSH2 0x1962 JUMP JUMPDEST JUMPDEST EQ PUSH2 0xFE5 JUMPI PUSH1 0x0 DUP1 REVERT JUMPDEST PUSH1 0x0 PUSH1 0x5 PUSH1 0x0 PUSH1 0x4 PUSH1 0x0 SWAP1 SLOAD SWAP1 PUSH2 0x100 EXP SWAP1 DIV PUSH20 0xFFFFFFFFFFFFFFFFFFFFFFFFFFFFFFFFFFFFFFFF AND PUSH20 0xFFFFFFFFFFFFFFFFFFFFFFFFFFFFFFFFFFFFFFFF AND PUSH20 0xFFFFFFFFFFFFFFFFFFFFFFFFFFFFFFFFFFFFFFFF AND DUP2 MSTORE PUSH1 0x20 ADD SWAP1 DUP2 MSTORE PUSH1 0x20 ADD PUSH1 0x0 KECCAK256 DUP2 SWAP1 SSTORE POP PUSH1 0x1 SWAP1 POP SWAP1 JUMP JUMPDEST PUSH1 0xB SLOAD DUP2 JUMP JUMPDEST PUSH1 0x0 PUSH1 0x6 PUSH1 0x0 DUP5 PUSH20 0xFFFFFFFFFFFFFFFFFFFFFFFFFFFFFFFFFFFFFFFF AND PUSH20 0xFFFFFFFFFFFFFFFFFFFFFFFFFFFFFFFFFFFFFFFF AND DUP2 MSTORE PUSH1 0x20 ADD SWAP1 DUP2 MSTORE PUSH1 0x20 ADD PUSH1 0x0 KECCAK256 PUSH1 0x0 DUP4 PUSH20 0xFFFFFFFFFFFFFFFFFFFFFFFFFFFFFFFFFFFFFFFF AND PUSH20 0xFFFFFFFFFFFFFFFFFFFFFFFFFFFFFFFFFFFFFFFF AND DUP2 MSTORE PUSH1 0x20 ADD SWAP1 DUP2 MSTORE PUSH1 0x20 ADD PUSH1 0x0 KECCAK256 SLOAD SWAP1 POP SWAP3 SWAP2 POP POP JUMP JUMPDEST PUSH1 0xA SLOAD DUP2 JUMP JUMPDEST PUSH1 0x8 PUSH1 0x0 SWAP1 SLOAD SWAP1 PUSH2 0x100 EXP SWAP1 DIV PUSH20 0xFFFFFFFFFFFFFFFFFFFFFFFFFFFFFFFFFFFFFFFF AND DUP2 JUMP JUMPDEST PUSH1 0xC SLOAD DUP2 JUMP JUMPDEST PUSH1 0x0 DUP2 PUSH1 0x6 PUSH1 0x0 DUP7 PUSH20 0xFFFFFFFFFFFFFFFFFFFFFFFFFFFFFFFFFFFFFFFF AND PUSH20 0xFFFFFFFFFFFFFFFFFFFFFFFFFFFFFFFFFFFFFFFF AND DUP2 MSTORE PUSH1 0x20 ADD SWAP1 DUP2 MSTORE PUSH1 0x20 ADD PUSH1 0x0 KECCAK256 PUSH1 0x0 DUP6 PUSH20 0xFFFFFFFFFFFFFFFFFFFFFFFFFFFFFFFFFFFFFFFF AND PUSH20 0xFFFFFFFFFFFFFFFFFFFFFFFFFFFFFFFFFFFFFFFF AND DUP2 MSTORE PUSH1 0x20 ADD SWAP1 DUP2 MSTORE PUSH1 0x20 ADD PUSH1 0x0 KECCAK256 SLOAD LT ISZERO PUSH2 0x119D JUMPI PUSH1 0x0 DUP1 REVERT JUMPDEST DUP2 PUSH1 0x5 PUSH1 0x0 DUP7 PUSH20 0xFFFFFFFFFFFFFFFFFFFFFFFFFFFFFFFFFFFFFFFF AND PUSH20 0xFFFFFFFFFFFFFFFFFFFFFFFFFFFFFFFFFFFFFFFF AND DUP2 MSTORE PUSH1 0x20 ADD SWAP1 DUP2 MSTORE PUSH1 0x20 ADD PUSH1 0x0 KECCAK256 SLOAD LT ISZERO PUSH2 0x11E9 JUMPI PUSH1 0x0 DUP1 REVERT JUMPDEST DUP2 PUSH1 0x5 PUSH1 0x0 DUP7 PUSH20 0xFFFFFFFFFFFFFFFFFFFFFFFFFFFFFFFFFFFFFFFF AND PUSH20 0xFFFFFFFFFFFFFFFFFFFFFFFFFFFFFFFFFFFFFFFF AND DUP2 MSTORE PUSH1 0x20 ADD SWAP1 DUP2 MSTORE PUSH1 0x20 ADD PUSH1 0x0 KECCAK256 PUSH1 0x0 DUP3 DUP3 SLOAD PUSH2 0x1238 SWAP2 SWAP1 PUSH2 0x17EC JUMP JUMPDEST SWAP3 POP POP DUP2 SWAP1 SSTORE POP DUP2 PUSH1 0x5 PUSH1 0x0 DUP6 PUSH20 0xFFFFFFFFFFFFFFFFFFFFFFFFFFFFFFFFFFFFFFFF AND PUSH20 0xFFFFFFFFFFFFFFFFFFFFFFFFFFFFFFFFFFFFFFFF AND DUP2 MSTORE PUSH1 0x20 ADD SWAP1 DUP2 MSTORE PUSH1 0x20 ADD PUSH1 0x0 KECCAK256 PUSH1 0x0 DUP3 DUP3 SLOAD PUSH2 0x128E SWAP2 SWAP1 PUSH2 0x1765 JUMP JUMPDEST SWAP3 POP POP DUP2 SWAP1 SSTORE POP PUSH1 0x1 SWAP1 POP SWAP4 SWAP3 POP POP POP JUMP JUMPDEST PUSH1 0x0 DUP2 PUSH1 0x5 PUSH1 0x0 CALLER PUSH20 0xFFFFFFFFFFFFFFFFFFFFFFFFFFFFFFFFFFFFFFFF AND PUSH20 0xFFFFFFFFFFFFFFFFFFFFFFFFFFFFFFFFFFFFFFFF AND DUP2 MSTORE PUSH1 0x20 ADD SWAP1 DUP2 MSTORE PUSH1 0x20 ADD PUSH1 0x0 KECCAK256 SLOAD LT ISZERO PUSH2 0x12EE JUMPI PUSH1 0x0 DUP1 REVERT JUMPDEST DUP2 PUSH1 0x5 PUSH1 0x0 DUP6 PUSH20 0xFFFFFFFFFFFFFFFFFFFFFFFFFFFFFFFFFFFFFFFF AND PUSH20 0xFFFFFFFFFFFFFFFFFFFFFFFFFFFFFFFFFFFFFFFF AND DUP2 MSTORE PUSH1 0x20 ADD SWAP1 DUP2 MSTORE PUSH1 0x20 ADD PUSH1 0x0 KECCAK256 SLOAD PUSH2 0x1339 SWAP2 SWAP1 PUSH2 0x1765 JUMP JUMPDEST PUSH1 0x5 PUSH1 0x0 DUP6 PUSH20 0xFFFFFFFFFFFFFFFFFFFFFFFFFFFFFFFFFFFFFFFF AND PUSH20 0xFFFFFFFFFFFFFFFFFFFFFFFFFFFFFFFFFFFFFFFF AND DUP2 MSTORE PUSH1 0x20 ADD SWAP1 DUP2 MSTORE PUSH1 0x20 ADD PUSH1 0x0 KECCAK256 DUP2 SWAP1 SSTORE POP DUP2 PUSH1 0x5 PUSH1 0x0 CALLER PUSH20 0xFFFFFFFFFFFFFFFFFFFFFFFFFFFFFFFFFFFFFFFF AND PUSH20 0xFFFFFFFFFFFFFFFFFFFFFFFFFFFFFFFFFFFFFFFF AND DUP2 MSTORE PUSH1 0x20 ADD SWAP1 DUP2 MSTORE PUSH1 0x20 ADD PUSH1 0x0 KECCAK256 SLOAD PUSH2 0x13C7 SWAP2 SWAP1 PUSH2 0x17EC JUMP JUMPDEST PUSH1 0x5 PUSH1 0x0 CALLER PUSH20 0xFFFFFFFFFFFFFFFFFFFFFFFFFFFFFFFFFFFFFFFF AND PUSH20 0xFFFFFFFFFFFFFFFFFFFFFFFFFFFFFFFFFFFFFFFF AND DUP2 MSTORE PUSH1 0x20 ADD SWAP1 DUP2 MSTORE PUSH1 0x20 ADD PUSH1 0x0 KECCAK256 DUP2 SWAP1 SSTORE POP DUP3 PUSH20 0xFFFFFFFFFFFFFFFFFFFFFFFFFFFFFFFFFFFFFFFF AND CALLER PUSH20 0xFFFFFFFFFFFFFFFFFFFFFFFFFFFFFFFFFFFFFFFF AND PUSH32 0xDDF252AD1BE2C89B69C2B068FC378DAA952BA7F163C4A11628F55A4DF523B3EF DUP5 PUSH1 0x40 MLOAD PUSH2 0x1467 SWAP2 SWAP1 PUSH2 0x172E JUMP JUMPDEST PUSH1 0x40 MLOAD DUP1 SWAP2 SUB SWAP1 LOG3 PUSH1 0x1 SWAP1 POP SWAP3 SWAP2 POP POP JUMP JUMPDEST PUSH1 0x0 DUP2 CALLDATALOAD SWAP1 POP PUSH2 0x1488 DUP2 PUSH2 0x19EA JUMP JUMPDEST SWAP3 SWAP2 POP POP JUMP JUMPDEST PUSH1 0x0 DUP2 CALLDATALOAD SWAP1 POP PUSH2 0x149D DUP2 PUSH2 0x1A01 JUMP JUMPDEST SWAP3 SWAP2 POP POP JUMP JUMPDEST PUSH1 0x0 DUP2 CALLDATALOAD SWAP1 POP PUSH2 0x14B2 DUP2 PUSH2 0x1A18 JUMP JUMPDEST SWAP3 SWAP2 POP POP JUMP JUMPDEST PUSH1 0x0 PUSH1 0x20 DUP3 DUP5 SUB SLT ISZERO PUSH2 0x14CE JUMPI PUSH2 0x14CD PUSH2 0x19C0 JUMP JUMPDEST JUMPDEST PUSH1 0x0 PUSH2 0x14DC DUP5 DUP3 DUP6 ADD PUSH2 0x1479 JUMP JUMPDEST SWAP2 POP POP SWAP3 SWAP2 POP POP JUMP JUMPDEST PUSH1 0x0 PUSH1 0x20 DUP3 DUP5 SUB SLT ISZERO PUSH2 0x14FB JUMPI PUSH2 0x14FA PUSH2 0x19C0 JUMP JUMPDEST JUMPDEST PUSH1 0x0 PUSH2 0x1509 DUP5 DUP3 DUP6 ADD PUSH2 0x148E JUMP JUMPDEST SWAP2 POP POP SWAP3 SWAP2 POP POP JUMP JUMPDEST PUSH1 0x0 DUP1 PUSH1 0x40 DUP4 DUP6 SUB SLT ISZERO PUSH2 0x1529 JUMPI PUSH2 0x1528 PUSH2 0x19C0 JUMP JUMPDEST JUMPDEST PUSH1 0x0 PUSH2 0x1537 DUP6 DUP3 DUP7 ADD PUSH2 0x1479 JUMP JUMPDEST SWAP3 POP POP PUSH1 0x20 PUSH2 0x1548 DUP6 DUP3 DUP7 ADD PUSH2 0x1479 JUMP JUMPDEST SWAP2 POP POP SWAP3 POP SWAP3 SWAP1 POP JUMP JUMPDEST PUSH1 0x0 DUP1 PUSH1 0x0 PUSH1 0x60 DUP5 DUP7 SUB SLT ISZERO PUSH2 0x156B JUMPI PUSH2 0x156A PUSH2 0x19C0 JUMP JUMPDEST JUMPDEST PUSH1 0x0 PUSH2 0x1579 DUP7 DUP3 DUP8 ADD PUSH2 0x1479 JUMP JUMPDEST SWAP4 POP POP PUSH1 0x20 PUSH2 0x158A DUP7 DUP3 DUP8 ADD PUSH2 0x1479 JUMP JUMPDEST SWAP3 POP POP PUSH1 0x40 PUSH2 0x159B DUP7 DUP3 DUP8 ADD PUSH2 0x14A3 JUMP JUMPDEST SWAP2 POP POP SWAP3 POP SWAP3 POP SWAP3 JUMP JUMPDEST PUSH1 0x0 DUP1 PUSH1 0x40 DUP4 DUP6 SUB SLT ISZERO PUSH2 0x15BC JUMPI PUSH2 0x15BB PUSH2 0x19C0 JUMP JUMPDEST JUMPDEST PUSH1 0x0 PUSH2 0x15CA DUP6 DUP3 DUP7 ADD PUSH2 0x1479 JUMP JUMPDEST SWAP3 POP POP PUSH1 0x20 PUSH2 0x15DB DUP6 DUP3 DUP7 ADD PUSH2 0x14A3 JUMP JUMPDEST SWAP2 POP POP SWAP3 POP SWAP3 SWAP1 POP JUMP JUMPDEST PUSH2 0x15EE DUP2 PUSH2 0x1832 JUMP JUMPDEST DUP3 MSTORE POP POP JUMP JUMPDEST PUSH2 0x15FD DUP2 PUSH2 0x1820 JUMP JUMPDEST DUP3 MSTORE POP POP JUMP JUMPDEST PUSH2 0x160C DUP2 PUSH2 0x1844 JUMP JUMPDEST DUP3 MSTORE POP POP JUMP JUMPDEST PUSH2 0x161B DUP2 PUSH2 0x188D JUMP JUMPDEST DUP3 MSTORE POP POP JUMP JUMPDEST PUSH1 0x0 PUSH2 0x162C DUP3 PUSH2 0x1749 JUMP JUMPDEST PUSH2 0x1636 DUP2 DUP6 PUSH2 0x1754 JUMP JUMPDEST SWAP4 POP PUSH2 0x1646 DUP2 DUP6 PUSH1 0x20 DUP7 ADD PUSH2 0x189F JUMP JUMPDEST PUSH2 0x164F DUP2 PUSH2 0x19C5 JUMP JUMPDEST DUP5 ADD SWAP2 POP POP SWAP3 SWAP2 POP POP JUMP JUMPDEST PUSH2 0x1663 DUP2 PUSH2 0x1883 JUMP JUMPDEST DUP3 MSTORE POP POP JUMP JUMPDEST PUSH1 0x0 PUSH1 0x20 DUP3 ADD SWAP1 POP PUSH2 0x167E PUSH1 0x0 DUP4 ADD DUP5 PUSH2 0x15F4 JUMP JUMPDEST SWAP3 SWAP2 POP POP JUMP JUMPDEST PUSH1 0x0 PUSH1 0x20 DUP3 ADD SWAP1 POP PUSH2 0x1699 PUSH1 0x0 DUP4 ADD DUP5 PUSH2 0x15E5 JUMP JUMPDEST SWAP3 SWAP2 POP POP JUMP JUMPDEST PUSH1 0x0 PUSH1 0x60 DUP3 ADD SWAP1 POP PUSH2 0x16B4 PUSH1 0x0 DUP4 ADD DUP7 PUSH2 0x15F4 JUMP JUMPDEST PUSH2 0x16C1 PUSH1 0x20 DUP4 ADD DUP6 PUSH2 0x165A JUMP JUMPDEST PUSH2 0x16CE PUSH1 0x40 DUP4 ADD DUP5 PUSH2 0x165A JUMP JUMPDEST SWAP5 SWAP4 POP POP POP POP JUMP JUMPDEST PUSH1 0x0 PUSH1 0x20 DUP3 ADD SWAP1 POP PUSH2 0x16EB PUSH1 0x0 DUP4 ADD DUP5 PUSH2 0x1603 JUMP JUMPDEST SWAP3 SWAP2 POP POP JUMP JUMPDEST PUSH1 0x0 PUSH1 0x20 DUP3 ADD SWAP1 POP PUSH2 0x1706 PUSH1 0x0 DUP4 ADD DUP5 PUSH2 0x1612 JUMP JUMPDEST SWAP3 SWAP2 POP POP JUMP JUMPDEST PUSH1 0x0 PUSH1 0x20 DUP3 ADD SWAP1 POP DUP2 DUP2 SUB PUSH1 0x0 DUP4 ADD MSTORE PUSH2 0x1726 DUP2 DUP5 PUSH2 0x1621 JUMP JUMPDEST SWAP1 POP SWAP3 SWAP2 POP POP JUMP JUMPDEST PUSH1 0x0 PUSH1 0x20 DUP3 ADD SWAP1 POP PUSH2 0x1743 PUSH1 0x0 DUP4 ADD DUP5 PUSH2 0x165A JUMP JUMPDEST SWAP3 SWAP2 POP POP JUMP JUMPDEST PUSH1 0x0 DUP2 MLOAD SWAP1 POP SWAP2 SWAP1 POP JUMP JUMPDEST PUSH1 0x0 DUP3 DUP3 MSTORE PUSH1 0x20 DUP3 ADD SWAP1 POP SWAP3 SWAP2 POP POP JUMP JUMPDEST PUSH1 0x0 PUSH2 0x1770 DUP3 PUSH2 0x1883 JUMP JUMPDEST SWAP2 POP PUSH2 0x177B DUP4 PUSH2 0x1883 JUMP JUMPDEST SWAP3 POP DUP3 PUSH32 0xFFFFFFFFFFFFFFFFFFFFFFFFFFFFFFFFFFFFFFFFFFFFFFFFFFFFFFFFFFFFFFFF SUB DUP3 GT ISZERO PUSH2 0x17B0 JUMPI PUSH2 0x17AF PUSH2 0x1904 JUMP JUMPDEST JUMPDEST DUP3 DUP3 ADD SWAP1 POP SWAP3 SWAP2 POP POP JUMP JUMPDEST PUSH1 0x0 PUSH2 0x17C6 DUP3 PUSH2 0x1883 JUMP JUMPDEST SWAP2 POP PUSH2 0x17D1 DUP4 PUSH2 0x1883 JUMP JUMPDEST SWAP3 POP DUP3 PUSH2 0x17E1 JUMPI PUSH2 0x17E0 PUSH2 0x1933 JUMP JUMPDEST JUMPDEST DUP3 DUP3 DIV SWAP1 POP SWAP3 SWAP2 POP POP JUMP JUMPDEST PUSH1 0x0 PUSH2 0x17F7 DUP3 PUSH2 0x1883 JUMP JUMPDEST SWAP2 POP PUSH2 0x1802 DUP4 PUSH2 0x1883 JUMP JUMPDEST SWAP3 POP DUP3 DUP3 LT ISZERO PUSH2 0x1815 JUMPI PUSH2 0x1814 PUSH2 0x1904 JUMP JUMPDEST JUMPDEST DUP3 DUP3 SUB SWAP1 POP SWAP3 SWAP2 POP POP JUMP JUMPDEST PUSH1 0x0 PUSH2 0x182B DUP3 PUSH2 0x1863 JUMP JUMPDEST SWAP1 POP SWAP2 SWAP1 POP JUMP JUMPDEST PUSH1 0x0 PUSH2 0x183D DUP3 PUSH2 0x1863 JUMP JUMPDEST SWAP1 POP SWAP2 SWAP1 POP JUMP JUMPDEST PUSH1 0x0 DUP2 ISZERO ISZERO SWAP1 POP SWAP2 SWAP1 POP JUMP JUMPDEST PUSH1 0x0 DUP2 SWAP1 POP PUSH2 0x185E DUP3 PUSH2 0x19D6 JUMP JUMPDEST SWAP2 SWAP1 POP JUMP JUMPDEST PUSH1 0x0 PUSH20 0xFFFFFFFFFFFFFFFFFFFFFFFFFFFFFFFFFFFFFFFF DUP3 AND SWAP1 POP SWAP2 SWAP1 POP JUMP JUMPDEST PUSH1 0x0 DUP2 SWAP1 POP SWAP2 SWAP1 POP JUMP JUMPDEST PUSH1 0x0 PUSH2 0x1898 DUP3 PUSH2 0x1850 JUMP JUMPDEST SWAP1 POP SWAP2 SWAP1 POP JUMP JUMPDEST PUSH1 0x0 JUMPDEST DUP4 DUP2 LT ISZERO PUSH2 0x18BD JUMPI DUP1 DUP3 ADD MLOAD DUP2 DUP5 ADD MSTORE PUSH1 0x20 DUP2 ADD SWAP1 POP PUSH2 0x18A2 JUMP JUMPDEST DUP4 DUP2 GT ISZERO PUSH2 0x18CC JUMPI PUSH1 0x0 DUP5 DUP5 ADD MSTORE JUMPDEST POP POP POP POP JUMP JUMPDEST PUSH1 0x0 PUSH1 0x2 DUP3 DIV SWAP1 POP PUSH1 0x1 DUP3 AND DUP1 PUSH2 0x18EA JUMPI PUSH1 0x7F DUP3 AND SWAP2 POP JUMPDEST PUSH1 0x20 DUP3 LT DUP2 EQ ISZERO PUSH2 0x18FE JUMPI PUSH2 0x18FD PUSH2 0x1991 JUMP JUMPDEST JUMPDEST POP SWAP2 SWAP1 POP JUMP JUMPDEST PUSH32 0x4E487B7100000000000000000000000000000000000000000000000000000000 PUSH1 0x0 MSTORE PUSH1 0x11 PUSH1 0x4 MSTORE PUSH1 0x24 PUSH1 0x0 REVERT JUMPDEST PUSH32 0x4E487B7100000000000000000000000000000000000000000000000000000000 PUSH1 0x0 MSTORE PUSH1 0x12 PUSH1 0x4 MSTORE PUSH1 0x24 PUSH1 0x0 REVERT JUMPDEST PUSH32 0x4E487B7100000000000000000000000000000000000000000000000000000000 PUSH1 0x0 MSTORE PUSH1 0x21 PUSH1 0x4 MSTORE PUSH1 0x24 PUSH1 0x0 REVERT JUMPDEST PUSH32 0x4E487B7100000000000000000000000000000000000000000000000000000000 PUSH1 0x0 MSTORE PUSH1 0x22 PUSH1 0x4 MSTORE PUSH1 0x24 PUSH1 0x0 REVERT JUMPDEST PUSH1 0x0 DUP1 REVERT JUMPDEST PUSH1 0x0 PUSH1 0x1F NOT PUSH1 0x1F DUP4 ADD AND SWAP1 POP SWAP2 SWAP1 POP JUMP JUMPDEST PUSH1 0x4 DUP2 LT PUSH2 0x19E7 JUMPI PUSH2 0x19E6 PUSH2 0x1962 JUMP JUMPDEST JUMPDEST POP JUMP JUMPDEST PUSH2 0x19F3 DUP2 PUSH2 0x1820 JUMP JUMPDEST DUP2 EQ PUSH2 0x19FE JUMPI PUSH1 0x0 DUP1 REVERT JUMPDEST POP JUMP JUMPDEST PUSH2 0x1A0A DUP2 PUSH2 0x1832 JUMP JUMPDEST DUP2 EQ PUSH2 0x1A15 JUMPI PUSH1 0x0 DUP1 REVERT JUMPDEST POP JUMP JUMPDEST PUSH2 0x1A21 DUP2 PUSH2 0x1883 JUMP JUMPDEST DUP2 EQ PUSH2 0x1A2C JUMPI PUSH1 0x0 DUP1 REVERT JUMPDEST POP JUMP INVALID LOG2 PUSH5 0x6970667358 0x22 SLT KECCAK256 0x21 SLT 0xC0 ADDMOD ADDRESS SELFBALANCE 0x29 DUP15 0xB2 0x49 RETURN MULMOD STATICCALL 0xBC ORIGIN MSTORE8 0xE3 INVALID 0x27 SDIV 0xD8 PUSH14 0x2B6B05C9509A6DFD877264736F6C PUSH4 0x43000807 STOP CALLER "
				},
				"gasEstimates": {
					"creation": {
						"codeDepositCost": "1351400",
						"executionCost": "infinite",
						"totalCost": "infinite"
					},
					"external": {
						"Allowed(address,address)": "infinite",
						"BURN()": "35354",
						"Cap()": "2495",
						"ChangeDepositAddress(address)": "26961",
						"Decimal()": "infinite",
						"Deposit()": "2602",
						"Founder()": "2582",
						"GetState()": "9132",
						"Halt()": "26646",
						"ICOend()": "2519",
						"ICOstart()": "2539",
						"INVEST()": "infinite",
						"Manager()": "2560",
						"MaxInvest()": "2475",
						"MinInvest()": "2518",
						"Name()": "infinite",
						"Resume()": "26668",
						"Symbol()": "infinite",
						"allowance(address,address)": "infinite",
						"approve(address,uint256)": "infinite",
						"balanceOf(address)": "2952",
						"balances(address)": "2904",
						"icoState()": "2605",
						"raisedAmount()": "2518",
						"tokenTradeTime()": "2540",
						"totalSupply()": "2520",
						"transfer(address,uint256)": "infinite",
						"transferForm(address,address,uint256)": "infinite"
					}
				},
				"methodIdentifiers": {
					"Allowed(address,address)": "bb4e1149",
					"BURN()": "c0a2526c",
					"Cap()": "e9fef498",
					"ChangeDepositAddress(address)": "14f7252c",
					"Decimal()": "1fe50c39",
					"Deposit()": "ed21248c",
					"Founder()": "3278dc67",
					"GetState()": "631aa385",
					"Halt()": "a8d1ea88",
					"ICOend()": "41c5cf5c",
					"ICOstart()": "efeb941d",
					"INVEST()": "7914dfed",
					"Manager()": "78357e53",
					"MaxInvest()": "1d7ec23e",
					"MinInvest()": "af3ad0a5",
					"Name()": "8052474d",
					"Resume()": "490d6d11",
					"Symbol()": "3045aaf3",
					"allowance(address,address)": "dd62ed3e",
					"approve(address,uint256)": "095ea7b3",
					"balanceOf(address)": "70a08231",
					"balances(address)": "27e235e3",
					"icoState()": "44f38756",
					"raisedAmount()": "c59ee1dc",
					"tokenTradeTime()": "b8a4825f",
					"totalSupply()": "18160ddd",
					"transfer(address,uint256)": "a9059cbb",
					"transferForm(address,address,uint256)": "3112ae5b"
				}
			},
			"storageLayout": {
				"storage": [
					{
						"astId": 73,
						"contract": "Initial Coin Offering (ICO)/ICO.sol:ICO",
						"label": "Name",
						"offset": 0,
						"slot": "0",
						"type": "t_string_storage"
					},
					{
						"astId": 76,
						"contract": "Initial Coin Offering (ICO)/ICO.sol:ICO",
						"label": "Symbol",
						"offset": 0,
						"slot": "1",
						"type": "t_string_storage"
					},
					{
						"astId": 79,
						"contract": "Initial Coin Offering (ICO)/ICO.sol:ICO",
						"label": "Decimal",
						"offset": 0,
						"slot": "2",
						"type": "t_string_storage"
					},
					{
						"astId": 82,
						"contract": "Initial Coin Offering (ICO)/ICO.sol:ICO",
						"label": "totalSupply",
						"offset": 0,
						"slot": "3",
						"type": "t_uint256"
					},
					{
						"astId": 84,
						"contract": "Initial Coin Offering (ICO)/ICO.sol:ICO",
						"label": "Founder",
						"offset": 0,
						"slot": "4",
						"type": "t_address"
					},
					{
						"astId": 88,
						"contract": "Initial Coin Offering (ICO)/ICO.sol:ICO",
						"label": "balances",
						"offset": 0,
						"slot": "5",
						"type": "t_mapping(t_address,t_uint256)"
					},
					{
						"astId": 94,
						"contract": "Initial Coin Offering (ICO)/ICO.sol:ICO",
						"label": "Allowed",
						"offset": 0,
						"slot": "6",
						"type": "t_mapping(t_address,t_mapping(t_address,t_uint256))"
					},
					{
						"astId": 288,
						"contract": "Initial Coin Offering (ICO)/ICO.sol:ICO",
						"label": "Manager",
						"offset": 0,
						"slot": "7",
						"type": "t_address"
					},
					{
						"astId": 290,
						"contract": "Initial Coin Offering (ICO)/ICO.sol:ICO",
						"label": "Deposit",
						"offset": 0,
						"slot": "8",
						"type": "t_address_payable"
					},
					{
						"astId": 293,
						"contract": "Initial Coin Offering (ICO)/ICO.sol:ICO",
						"label": "tokenPrice",
						"offset": 0,
						"slot": "9",
						"type": "t_uint256"
					},
					{
						"astId": 296,
						"contract": "Initial Coin Offering (ICO)/ICO.sol:ICO",
						"label": "Cap",
						"offset": 0,
						"slot": "10",
						"type": "t_uint256"
					},
					{
						"astId": 298,
						"contract": "Initial Coin Offering (ICO)/ICO.sol:ICO",
						"label": "raisedAmount",
						"offset": 0,
						"slot": "11",
						"type": "t_uint256"
					},
					{
						"astId": 302,
						"contract": "Initial Coin Offering (ICO)/ICO.sol:ICO",
						"label": "ICOstart",
						"offset": 0,
						"slot": "12",
						"type": "t_uint256"
					},
					{
						"astId": 308,
						"contract": "Initial Coin Offering (ICO)/ICO.sol:ICO",
						"label": "ICOend",
						"offset": 0,
						"slot": "13",
						"type": "t_uint256"
					},
					{
						"astId": 313,
						"contract": "Initial Coin Offering (ICO)/ICO.sol:ICO",
						"label": "tokenTradeTime",
						"offset": 0,
						"slot": "14",
						"type": "t_uint256"
					},
					{
						"astId": 316,
						"contract": "Initial Coin Offering (ICO)/ICO.sol:ICO",
						"label": "MaxInvest",
						"offset": 0,
						"slot": "15",
						"type": "t_uint256"
					},
					{
						"astId": 319,
						"contract": "Initial Coin Offering (ICO)/ICO.sol:ICO",
						"label": "MinInvest",
						"offset": 0,
						"slot": "16",
						"type": "t_uint256"
					},
					{
						"astId": 327,
						"contract": "Initial Coin Offering (ICO)/ICO.sol:ICO",
						"label": "icoState",
						"offset": 0,
						"slot": "17",
						"type": "t_enum(State)324"
					}
				],
				"types": {
					"t_address": {
						"encoding": "inplace",
						"label": "address",
						"numberOfBytes": "20"
					},
					"t_address_payable": {
						"encoding": "inplace",
						"label": "address payable",
						"numberOfBytes": "20"
					},
					"t_enum(State)324": {
						"encoding": "inplace",
						"label": "enum ICO.State",
						"numberOfBytes": "1"
					},
					"t_mapping(t_address,t_mapping(t_address,t_uint256))": {
						"encoding": "mapping",
						"key": "t_address",
						"label": "mapping(address => mapping(address => uint256))",
						"numberOfBytes": "32",
						"value": "t_mapping(t_address,t_uint256)"
					},
					"t_mapping(t_address,t_uint256)": {
						"encoding": "mapping",
						"key": "t_address",
						"label": "mapping(address => uint256)",
						"numberOfBytes": "32",
						"value": "t_uint256"
					},
					"t_string_storage": {
						"encoding": "bytes",
						"label": "string",
						"numberOfBytes": "32"
					},
					"t_uint256": {
						"encoding": "inplace",
						"label": "uint256",
						"numberOfBytes": "32"
					}
				}
			},
			"userdoc": {
				"kind": "user",
				"methods": {},
				"version": 1
			}
		}
	}
}