{
	"payable_address.sol": {
		"Payable": {
			"abi": [
				{
					"inputs": [],
					"name": "CheckBalance",
					"outputs": [
						{
							"internalType": "uint256",
							"name": "",
							"type": "uint256"
						}
					],
					"stateMutability": "view",
					"type": "function"
				},
				{
					"inputs": [],
					"name": "Owner",
					"outputs": [
						{
							"internalType": "address payable",
							"name": "",
							"type": "address"
						}
					],
					"stateMutability": "view",
					"type": "function"
				},
				{
					"inputs": [
						{
							"internalType": "address payable",
							"name": "NewUser",
							"type": "address"
						},
						{
							"internalType": "uint256",
							"name": "_x",
							"type": "uint256"
						}
					],
					"name": "Transfer",
					"outputs": [],
					"stateMutability": "payable",
					"type": "function"
				},
				{
					"inputs": [],
					"name": "getETH",
					"outputs": [],
					"stateMutability": "payable",
					"type": "function"
				}
			],
			"devdoc": {
				"kind": "dev",
				"methods": {},
				"version": 1
			},
			"evm": {
				"assembly": "    /* \"payable_address.sol\":75:479  contract Payable\r... */\n  mstore(0x40, 0x80)\n    /* \"payable_address.sol\":139:149  msg.sender */\n  caller\n    /* \"payable_address.sol\":100:150  address payable public Owner = payable(msg.sender) */\n  0x00\n  dup1\n  0x0100\n  exp\n  dup2\n  sload\n  dup2\n  0xffffffffffffffffffffffffffffffffffffffff\n  mul\n  not\n  and\n  swap1\n  dup4\n  0xffffffffffffffffffffffffffffffffffffffff\n  and\n  mul\n  or\n  swap1\n  sstore\n  pop\n    /* \"payable_address.sol\":75:479  contract Payable\r... */\n  callvalue\n  dup1\n  iszero\n  tag_1\n  jumpi\n  0x00\n  dup1\n  revert\ntag_1:\n  pop\n  dataSize(sub_0)\n  dup1\n  dataOffset(sub_0)\n  0x00\n  codecopy\n  0x00\n  return\nstop\n\nsub_0: assembly {\n        /* \"payable_address.sol\":75:479  contract Payable\r... */\n      mstore(0x40, 0x80)\n      jumpi(tag_1, lt(calldatasize, 0x04))\n      shr(0xe0, calldataload(0x00))\n      dup1\n      0x14f6c3be\n      eq\n      tag_2\n      jumpi\n      dup1\n      0x44e73b78\n      eq\n      tag_3\n      jumpi\n      dup1\n      0x69ca02dd\n      eq\n      tag_4\n      jumpi\n      dup1\n      0xb4a99a4e\n      eq\n      tag_5\n      jumpi\n    tag_1:\n      0x00\n      dup1\n      revert\n        /* \"payable_address.sol\":159:207  function getETH() payable public\r... */\n    tag_2:\n      tag_6\n      tag_7\n      jump\t// in\n    tag_6:\n      stop\n        /* \"payable_address.sol\":215:317  function CheckBalance() public view returns(uint)\r... */\n    tag_3:\n      callvalue\n      dup1\n      iszero\n      tag_8\n      jumpi\n      0x00\n      dup1\n      revert\n    tag_8:\n      pop\n      tag_9\n      tag_10\n      jump\t// in\n    tag_9:\n      mload(0x40)\n      tag_11\n      swap2\n      swap1\n      tag_12\n      jump\t// in\n    tag_11:\n      mload(0x40)\n      dup1\n      swap2\n      sub\n      swap1\n      return\n        /* \"payable_address.sol\":365:476  function Transfer(address payable NewUser, uint _x) payable public\r... */\n    tag_4:\n      tag_13\n      0x04\n      dup1\n      calldatasize\n      sub\n      dup2\n      add\n      swap1\n      tag_14\n      swap2\n      swap1\n      tag_15\n      jump\t// in\n    tag_14:\n      tag_16\n      jump\t// in\n    tag_13:\n      stop\n        /* \"payable_address.sol\":100:150  address payable public Owner = payable(msg.sender) */\n    tag_5:\n      callvalue\n      dup1\n      iszero\n      tag_17\n      jumpi\n      0x00\n      dup1\n      revert\n    tag_17:\n      pop\n      tag_18\n      tag_19\n      jump\t// in\n    tag_18:\n      mload(0x40)\n      tag_20\n      swap2\n      swap1\n      tag_21\n      jump\t// in\n    tag_20:\n      mload(0x40)\n      dup1\n      swap2\n      sub\n      swap1\n      return\n        /* \"payable_address.sol\":159:207  function getETH() payable public\r... */\n    tag_7:\n      jump\t// out\n        /* \"payable_address.sol\":215:317  function CheckBalance() public view returns(uint)\r... */\n    tag_10:\n        /* \"payable_address.sol\":259:263  uint */\n      0x00\n        /* \"payable_address.sol\":288:309  address(this).balance */\n      selfbalance\n        /* \"payable_address.sol\":281:309  return address(this).balance */\n      swap1\n      pop\n        /* \"payable_address.sol\":215:317  function CheckBalance() public view returns(uint)\r... */\n      swap1\n      jump\t// out\n        /* \"payable_address.sol\":365:476  function Transfer(address payable NewUser, uint _x) payable public\r... */\n    tag_16:\n        /* \"payable_address.sol\":448:455  NewUser */\n      dup2\n        /* \"payable_address.sol\":448:464  NewUser.transfer */\n      0xffffffffffffffffffffffffffffffffffffffff\n      and\n        /* \"payable_address.sol\":448:468  NewUser.transfer(_x) */\n      0x08fc\n        /* \"payable_address.sol\":465:467  _x */\n      dup3\n        /* \"payable_address.sol\":448:468  NewUser.transfer(_x) */\n      swap1\n      dup2\n      iszero\n      mul\n      swap1\n      mload(0x40)\n      0x00\n      mload(0x40)\n      dup1\n      dup4\n      sub\n      dup2\n      dup6\n      dup9\n      dup9\n      call\n      swap4\n      pop\n      pop\n      pop\n      pop\n      iszero\n      dup1\n      iszero\n      tag_26\n      jumpi\n      returndatasize\n      0x00\n      dup1\n      returndatacopy\n      revert(0x00, returndatasize)\n    tag_26:\n      pop\n        /* \"payable_address.sol\":365:476  function Transfer(address payable NewUser, uint _x) payable public\r... */\n      pop\n      pop\n      jump\t// out\n        /* \"payable_address.sol\":100:150  address payable public Owner = payable(msg.sender) */\n    tag_19:\n      0x00\n      dup1\n      sload\n      swap1\n      0x0100\n      exp\n      swap1\n      div\n      0xffffffffffffffffffffffffffffffffffffffff\n      and\n      dup2\n      jump\t// out\n        /* \"#utility.yul\":7:162   */\n    tag_28:\n        /* \"#utility.yul\":61:66   */\n      0x00\n        /* \"#utility.yul\":99:105   */\n      dup2\n        /* \"#utility.yul\":86:106   */\n      calldataload\n        /* \"#utility.yul\":77:106   */\n      swap1\n      pop\n        /* \"#utility.yul\":115:156   */\n      tag_30\n        /* \"#utility.yul\":150:155   */\n      dup2\n        /* \"#utility.yul\":115:156   */\n      tag_31\n      jump\t// in\n    tag_30:\n        /* \"#utility.yul\":7:162   */\n      swap3\n      swap2\n      pop\n      pop\n      jump\t// out\n        /* \"#utility.yul\":168:307   */\n    tag_32:\n        /* \"#utility.yul\":214:219   */\n      0x00\n        /* \"#utility.yul\":252:258   */\n      dup2\n        /* \"#utility.yul\":239:259   */\n      calldataload\n        /* \"#utility.yul\":230:259   */\n      swap1\n      pop\n        /* \"#utility.yul\":268:301   */\n      tag_34\n        /* \"#utility.yul\":295:300   */\n      dup2\n        /* \"#utility.yul\":268:301   */\n      tag_35\n      jump\t// in\n    tag_34:\n        /* \"#utility.yul\":168:307   */\n      swap3\n      swap2\n      pop\n      pop\n      jump\t// out\n        /* \"#utility.yul\":313:803   */\n    tag_15:\n        /* \"#utility.yul\":389:395   */\n      0x00\n        /* \"#utility.yul\":397:403   */\n      dup1\n        /* \"#utility.yul\":446:448   */\n      0x40\n        /* \"#utility.yul\":434:443   */\n      dup4\n        /* \"#utility.yul\":425:432   */\n      dup6\n        /* \"#utility.yul\":421:444   */\n      sub\n        /* \"#utility.yul\":417:449   */\n      slt\n        /* \"#utility.yul\":414:533   */\n      iszero\n      tag_37\n      jumpi\n        /* \"#utility.yul\":452:531   */\n      tag_38\n      tag_39\n      jump\t// in\n    tag_38:\n        /* \"#utility.yul\":414:533   */\n    tag_37:\n        /* \"#utility.yul\":572:573   */\n      0x00\n        /* \"#utility.yul\":597:658   */\n      tag_40\n        /* \"#utility.yul\":650:657   */\n      dup6\n        /* \"#utility.yul\":641:647   */\n      dup3\n        /* \"#utility.yul\":630:639   */\n      dup7\n        /* \"#utility.yul\":626:648   */\n      add\n        /* \"#utility.yul\":597:658   */\n      tag_28\n      jump\t// in\n    tag_40:\n        /* \"#utility.yul\":587:658   */\n      swap3\n      pop\n        /* \"#utility.yul\":543:668   */\n      pop\n        /* \"#utility.yul\":707:709   */\n      0x20\n        /* \"#utility.yul\":733:786   */\n      tag_41\n        /* \"#utility.yul\":778:785   */\n      dup6\n        /* \"#utility.yul\":769:775   */\n      dup3\n        /* \"#utility.yul\":758:767   */\n      dup7\n        /* \"#utility.yul\":754:776   */\n      add\n        /* \"#utility.yul\":733:786   */\n      tag_32\n      jump\t// in\n    tag_41:\n        /* \"#utility.yul\":723:786   */\n      swap2\n      pop\n        /* \"#utility.yul\":678:796   */\n      pop\n        /* \"#utility.yul\":313:803   */\n      swap3\n      pop\n      swap3\n      swap1\n      pop\n      jump\t// out\n        /* \"#utility.yul\":809:951   */\n    tag_42:\n        /* \"#utility.yul\":912:944   */\n      tag_44\n        /* \"#utility.yul\":938:943   */\n      dup2\n        /* \"#utility.yul\":912:944   */\n      tag_45\n      jump\t// in\n    tag_44:\n        /* \"#utility.yul\":907:910   */\n      dup3\n        /* \"#utility.yul\":900:945   */\n      mstore\n        /* \"#utility.yul\":809:951   */\n      pop\n      pop\n      jump\t// out\n        /* \"#utility.yul\":957:1075   */\n    tag_46:\n        /* \"#utility.yul\":1044:1068   */\n      tag_48\n        /* \"#utility.yul\":1062:1067   */\n      dup2\n        /* \"#utility.yul\":1044:1068   */\n      tag_49\n      jump\t// in\n    tag_48:\n        /* \"#utility.yul\":1039:1042   */\n      dup3\n        /* \"#utility.yul\":1032:1069   */\n      mstore\n        /* \"#utility.yul\":957:1075   */\n      pop\n      pop\n      jump\t// out\n        /* \"#utility.yul\":1081:1335   */\n    tag_21:\n        /* \"#utility.yul\":1190:1194   */\n      0x00\n        /* \"#utility.yul\":1228:1230   */\n      0x20\n        /* \"#utility.yul\":1217:1226   */\n      dup3\n        /* \"#utility.yul\":1213:1231   */\n      add\n        /* \"#utility.yul\":1205:1231   */\n      swap1\n      pop\n        /* \"#utility.yul\":1241:1328   */\n      tag_51\n        /* \"#utility.yul\":1325:1326   */\n      0x00\n        /* \"#utility.yul\":1314:1323   */\n      dup4\n        /* \"#utility.yul\":1310:1327   */\n      add\n        /* \"#utility.yul\":1301:1307   */\n      dup5\n        /* \"#utility.yul\":1241:1328   */\n      tag_42\n      jump\t// in\n    tag_51:\n        /* \"#utility.yul\":1081:1335   */\n      swap3\n      swap2\n      pop\n      pop\n      jump\t// out\n        /* \"#utility.yul\":1341:1563   */\n    tag_12:\n        /* \"#utility.yul\":1434:1438   */\n      0x00\n        /* \"#utility.yul\":1472:1474   */\n      0x20\n        /* \"#utility.yul\":1461:1470   */\n      dup3\n        /* \"#utility.yul\":1457:1475   */\n      add\n        /* \"#utility.yul\":1449:1475   */\n      swap1\n      pop\n        /* \"#utility.yul\":1485:1556   */\n      tag_53\n        /* \"#utility.yul\":1553:1554   */\n      0x00\n        /* \"#utility.yul\":1542:1551   */\n      dup4\n        /* \"#utility.yul\":1538:1555   */\n      add\n        /* \"#utility.yul\":1529:1535   */\n      dup5\n        /* \"#utility.yul\":1485:1556   */\n      tag_46\n      jump\t// in\n    tag_53:\n        /* \"#utility.yul\":1341:1563   */\n      swap3\n      swap2\n      pop\n      pop\n      jump\t// out\n        /* \"#utility.yul\":1650:1754   */\n    tag_45:\n        /* \"#utility.yul\":1695:1702   */\n      0x00\n        /* \"#utility.yul\":1724:1748   */\n      tag_57\n        /* \"#utility.yul\":1742:1747   */\n      dup3\n        /* \"#utility.yul\":1724:1748   */\n      tag_58\n      jump\t// in\n    tag_57:\n        /* \"#utility.yul\":1713:1748   */\n      swap1\n      pop\n        /* \"#utility.yul\":1650:1754   */\n      swap2\n      swap1\n      pop\n      jump\t// out\n        /* \"#utility.yul\":1760:1886   */\n    tag_58:\n        /* \"#utility.yul\":1797:1804   */\n      0x00\n        /* \"#utility.yul\":1837:1879   */\n      0xffffffffffffffffffffffffffffffffffffffff\n        /* \"#utility.yul\":1830:1835   */\n      dup3\n        /* \"#utility.yul\":1826:1880   */\n      and\n        /* \"#utility.yul\":1815:1880   */\n      swap1\n      pop\n        /* \"#utility.yul\":1760:1886   */\n      swap2\n      swap1\n      pop\n      jump\t// out\n        /* \"#utility.yul\":1892:1969   */\n    tag_49:\n        /* \"#utility.yul\":1929:1936   */\n      0x00\n        /* \"#utility.yul\":1958:1963   */\n      dup2\n        /* \"#utility.yul\":1947:1963   */\n      swap1\n      pop\n        /* \"#utility.yul\":1892:1969   */\n      swap2\n      swap1\n      pop\n      jump\t// out\n        /* \"#utility.yul\":2098:2215   */\n    tag_39:\n        /* \"#utility.yul\":2207:2208   */\n      0x00\n        /* \"#utility.yul\":2204:2205   */\n      dup1\n        /* \"#utility.yul\":2197:2209   */\n      revert\n        /* \"#utility.yul\":2221:2359   */\n    tag_31:\n        /* \"#utility.yul\":2302:2334   */\n      tag_65\n        /* \"#utility.yul\":2328:2333   */\n      dup2\n        /* \"#utility.yul\":2302:2334   */\n      tag_45\n      jump\t// in\n    tag_65:\n        /* \"#utility.yul\":2295:2300   */\n      dup2\n        /* \"#utility.yul\":2292:2335   */\n      eq\n        /* \"#utility.yul\":2282:2353   */\n      tag_66\n      jumpi\n        /* \"#utility.yul\":2349:2350   */\n      0x00\n        /* \"#utility.yul\":2346:2347   */\n      dup1\n        /* \"#utility.yul\":2339:2351   */\n      revert\n        /* \"#utility.yul\":2282:2353   */\n    tag_66:\n        /* \"#utility.yul\":2221:2359   */\n      pop\n      jump\t// out\n        /* \"#utility.yul\":2365:2487   */\n    tag_35:\n        /* \"#utility.yul\":2438:2462   */\n      tag_68\n        /* \"#utility.yul\":2456:2461   */\n      dup2\n        /* \"#utility.yul\":2438:2462   */\n      tag_49\n      jump\t// in\n    tag_68:\n        /* \"#utility.yul\":2431:2436   */\n      dup2\n        /* \"#utility.yul\":2428:2463   */\n      eq\n        /* \"#utility.yul\":2418:2481   */\n      tag_69\n      jumpi\n        /* \"#utility.yul\":2477:2478   */\n      0x00\n        /* \"#utility.yul\":2474:2475   */\n      dup1\n        /* \"#utility.yul\":2467:2479   */\n      revert\n        /* \"#utility.yul\":2418:2481   */\n    tag_69:\n        /* \"#utility.yul\":2365:2487   */\n      pop\n      jump\t// out\n\n    auxdata: 0xa2646970667358221220bd614a5a9a310ffd62de298c70a17bce850140088467e1dc586dac3f643d7adf64736f6c63430008070033\n}\n",
				"bytecode": {
					"linkReferences": {},
					"object": "6080604052336000806101000a81548173ffffffffffffffffffffffffffffffffffffffff021916908373ffffffffffffffffffffffffffffffffffffffff16021790555034801561005057600080fd5b5061029c806100606000396000f3fe60806040526004361061003f5760003560e01c806314f6c3be1461004457806344e73b781461004e57806369ca02dd14610079578063b4a99a4e14610095575b600080fd5b61004c6100c0565b005b34801561005a57600080fd5b506100636100c2565b60405161007091906101dc565b60405180910390f35b610093600480360381019061008e9190610163565b6100ca565b005b3480156100a157600080fd5b506100aa610115565b6040516100b791906101c1565b60405180910390f35b565b600047905090565b8173ffffffffffffffffffffffffffffffffffffffff166108fc829081150290604051600060405180830381858888f19350505050158015610110573d6000803e3d6000fd5b505050565b60008054906101000a900473ffffffffffffffffffffffffffffffffffffffff1681565b60008135905061014881610238565b92915050565b60008135905061015d8161024f565b92915050565b6000806040838503121561017a57610179610233565b5b600061018885828601610139565b92505060206101998582860161014e565b9150509250929050565b6101ac816101f7565b82525050565b6101bb81610229565b82525050565b60006020820190506101d660008301846101a3565b92915050565b60006020820190506101f160008301846101b2565b92915050565b600061020282610209565b9050919050565b600073ffffffffffffffffffffffffffffffffffffffff82169050919050565b6000819050919050565b600080fd5b610241816101f7565b811461024c57600080fd5b50565b61025881610229565b811461026357600080fd5b5056fea2646970667358221220bd614a5a9a310ffd62de298c70a17bce850140088467e1dc586dac3f643d7adf64736f6c63430008070033",
					"opcodes": "PUSH1 0x80 PUSH1 0x40 MSTORE CALLER PUSH1 0x0 DUP1 PUSH2 0x100 EXP DUP2 SLOAD DUP2 PUSH20 0xFFFFFFFFFFFFFFFFFFFFFFFFFFFFFFFFFFFFFFFF MUL NOT AND SWAP1 DUP4 PUSH20 0xFFFFFFFFFFFFFFFFFFFFFFFFFFFFFFFFFFFFFFFF AND MUL OR SWAP1 SSTORE POP CALLVALUE DUP1 ISZERO PUSH2 0x50 JUMPI PUSH1 0x0 DUP1 REVERT JUMPDEST POP PUSH2 0x29C DUP1 PUSH2 0x60 PUSH1 0x0 CODECOPY PUSH1 0x0 RETURN INVALID PUSH1 0x80 PUSH1 0x40 MSTORE PUSH1 0x4 CALLDATASIZE LT PUSH2 0x3F JUMPI PUSH1 0x0 CALLDATALOAD PUSH1 0xE0 SHR DUP1 PUSH4 0x14F6C3BE EQ PUSH2 0x44 JUMPI DUP1 PUSH4 0x44E73B78 EQ PUSH2 0x4E JUMPI DUP1 PUSH4 0x69CA02DD EQ PUSH2 0x79 JUMPI DUP1 PUSH4 0xB4A99A4E EQ PUSH2 0x95 JUMPI JUMPDEST PUSH1 0x0 DUP1 REVERT JUMPDEST PUSH2 0x4C PUSH2 0xC0 JUMP JUMPDEST STOP JUMPDEST CALLVALUE DUP1 ISZERO PUSH2 0x5A JUMPI PUSH1 0x0 DUP1 REVERT JUMPDEST POP PUSH2 0x63 PUSH2 0xC2 JUMP JUMPDEST PUSH1 0x40 MLOAD PUSH2 0x70 SWAP2 SWAP1 PUSH2 0x1DC JUMP JUMPDEST PUSH1 0x40 MLOAD DUP1 SWAP2 SUB SWAP1 RETURN JUMPDEST PUSH2 0x93 PUSH1 0x4 DUP1 CALLDATASIZE SUB DUP2 ADD SWAP1 PUSH2 0x8E SWAP2 SWAP1 PUSH2 0x163 JUMP JUMPDEST PUSH2 0xCA JUMP JUMPDEST STOP JUMPDEST CALLVALUE DUP1 ISZERO PUSH2 0xA1 JUMPI PUSH1 0x0 DUP1 REVERT JUMPDEST POP PUSH2 0xAA PUSH2 0x115 JUMP JUMPDEST PUSH1 0x40 MLOAD PUSH2 0xB7 SWAP2 SWAP1 PUSH2 0x1C1 JUMP JUMPDEST PUSH1 0x40 MLOAD DUP1 SWAP2 SUB SWAP1 RETURN JUMPDEST JUMP JUMPDEST PUSH1 0x0 SELFBALANCE SWAP1 POP SWAP1 JUMP JUMPDEST DUP2 PUSH20 0xFFFFFFFFFFFFFFFFFFFFFFFFFFFFFFFFFFFFFFFF AND PUSH2 0x8FC DUP3 SWAP1 DUP2 ISZERO MUL SWAP1 PUSH1 0x40 MLOAD PUSH1 0x0 PUSH1 0x40 MLOAD DUP1 DUP4 SUB DUP2 DUP6 DUP9 DUP9 CALL SWAP4 POP POP POP POP ISZERO DUP1 ISZERO PUSH2 0x110 JUMPI RETURNDATASIZE PUSH1 0x0 DUP1 RETURNDATACOPY RETURNDATASIZE PUSH1 0x0 REVERT JUMPDEST POP POP POP JUMP JUMPDEST PUSH1 0x0 DUP1 SLOAD SWAP1 PUSH2 0x100 EXP SWAP1 DIV PUSH20 0xFFFFFFFFFFFFFFFFFFFFFFFFFFFFFFFFFFFFFFFF AND DUP2 JUMP JUMPDEST PUSH1 0x0 DUP2 CALLDATALOAD SWAP1 POP PUSH2 0x148 DUP2 PUSH2 0x238 JUMP JUMPDEST SWAP3 SWAP2 POP POP JUMP JUMPDEST PUSH1 0x0 DUP2 CALLDATALOAD SWAP1 POP PUSH2 0x15D DUP2 PUSH2 0x24F JUMP JUMPDEST SWAP3 SWAP2 POP POP JUMP JUMPDEST PUSH1 0x0 DUP1 PUSH1 0x40 DUP4 DUP6 SUB SLT ISZERO PUSH2 0x17A JUMPI PUSH2 0x179 PUSH2 0x233 JUMP JUMPDEST JUMPDEST PUSH1 0x0 PUSH2 0x188 DUP6 DUP3 DUP7 ADD PUSH2 0x139 JUMP JUMPDEST SWAP3 POP POP PUSH1 0x20 PUSH2 0x199 DUP6 DUP3 DUP7 ADD PUSH2 0x14E JUMP JUMPDEST SWAP2 POP POP SWAP3 POP SWAP3 SWAP1 POP JUMP JUMPDEST PUSH2 0x1AC DUP2 PUSH2 0x1F7 JUMP JUMPDEST DUP3 MSTORE POP POP JUMP JUMPDEST PUSH2 0x1BB DUP2 PUSH2 0x229 JUMP JUMPDEST DUP3 MSTORE POP POP JUMP JUMPDEST PUSH1 0x0 PUSH1 0x20 DUP3 ADD SWAP1 POP PUSH2 0x1D6 PUSH1 0x0 DUP4 ADD DUP5 PUSH2 0x1A3 JUMP JUMPDEST SWAP3 SWAP2 POP POP JUMP JUMPDEST PUSH1 0x0 PUSH1 0x20 DUP3 ADD SWAP1 POP PUSH2 0x1F1 PUSH1 0x0 DUP4 ADD DUP5 PUSH2 0x1B2 JUMP JUMPDEST SWAP3 SWAP2 POP POP JUMP JUMPDEST PUSH1 0x0 PUSH2 0x202 DUP3 PUSH2 0x209 JUMP JUMPDEST SWAP1 POP SWAP2 SWAP1 POP JUMP JUMPDEST PUSH1 0x0 PUSH20 0xFFFFFFFFFFFFFFFFFFFFFFFFFFFFFFFFFFFFFFFF DUP3 AND SWAP1 POP SWAP2 SWAP1 POP JUMP JUMPDEST PUSH1 0x0 DUP2 SWAP1 POP SWAP2 SWAP1 POP JUMP JUMPDEST PUSH1 0x0 DUP1 REVERT JUMPDEST PUSH2 0x241 DUP2 PUSH2 0x1F7 JUMP JUMPDEST DUP2 EQ PUSH2 0x24C JUMPI PUSH1 0x0 DUP1 REVERT JUMPDEST POP JUMP JUMPDEST PUSH2 0x258 DUP2 PUSH2 0x229 JUMP JUMPDEST DUP2 EQ PUSH2 0x263 JUMPI PUSH1 0x0 DUP1 REVERT JUMPDEST POP JUMP INVALID LOG2 PUSH5 0x6970667358 0x22 SLT KECCAK256 0xBD PUSH2 0x4A5A SWAP11 BALANCE 0xF REVERT PUSH3 0xDE298C PUSH17 0xA17BCE850140088467E1DC586DAC3F643D PUSH27 0xDF64736F6C63430008070033000000000000000000000000000000 "
				},
				"gasEstimates": {
					"creation": {
						"codeDepositCost": "133600",
						"executionCost": "24443",
						"totalCost": "158043"
					},
					"external": {
						"CheckBalance()": "339",
						"Owner()": "2555",
						"Transfer(address,uint256)": "infinite",
						"getETH()": "98"
					}
				},
				"methodIdentifiers": {
					"CheckBalance()": "44e73b78",
					"Owner()": "b4a99a4e",
					"Transfer(address,uint256)": "69ca02dd",
					"getETH()": "14f6c3be"
				}
			},
			"storageLayout": {
				"storage": [
					{
						"astId": 8,
						"contract": "payable_address.sol:Payable",
						"label": "Owner",
						"offset": 0,
						"slot": "0",
						"type": "t_address_payable"
					}
				],
				"types": {
					"t_address_payable": {
						"encoding": "inplace",
						"label": "address payable",
						"numberOfBytes": "20"
					}
				}
			},
			"userdoc": {
				"kind": "user",
				"methods": {},
				"version": 1
			}
		}
	}
}