{
	"Loops.sol": {
		"Loop": {
			"abi": [
				{
					"inputs": [],
					"name": "Do_While_Loop",
					"outputs": [],
					"stateMutability": "nonpayable",
					"type": "function"
				},
				{
					"inputs": [],
					"name": "For_Loop",
					"outputs": [],
					"stateMutability": "nonpayable",
					"type": "function"
				},
				{
					"inputs": [],
					"name": "Sum",
					"outputs": [
						{
							"internalType": "uint256",
							"name": "",
							"type": "uint256"
						}
					],
					"stateMutability": "view",
					"type": "function"
				},
				{
					"inputs": [],
					"name": "While_Loop",
					"outputs": [],
					"stateMutability": "nonpayable",
					"type": "function"
				}
			],
			"devdoc": {
				"kind": "dev",
				"methods": {},
				"version": 1
			},
			"evm": {
				"assembly": "    /* \"Loops.sol\":75:896  contract Loop\r... */\n  mstore(0x40, 0x80)\n    /* \"Loops.sol\":239:269  uint[5] myArr= [1, 2, 3, 4, 5] */\n  mload(0x40)\n  dup1\n  0xa0\n  add\n  0x40\n  mstore\n  dup1\n    /* \"Loops.sol\":255:256  1 */\n  0x01\n    /* \"Loops.sol\":239:269  uint[5] myArr= [1, 2, 3, 4, 5] */\n  0xff\n  and\n  dup2\n  mstore\n  0x20\n  add\n    /* \"Loops.sol\":258:259  2 */\n  0x02\n    /* \"Loops.sol\":239:269  uint[5] myArr= [1, 2, 3, 4, 5] */\n  0xff\n  and\n  dup2\n  mstore\n  0x20\n  add\n    /* \"Loops.sol\":261:262  3 */\n  0x03\n    /* \"Loops.sol\":239:269  uint[5] myArr= [1, 2, 3, 4, 5] */\n  0xff\n  and\n  dup2\n  mstore\n  0x20\n  add\n    /* \"Loops.sol\":264:265  4 */\n  0x04\n    /* \"Loops.sol\":239:269  uint[5] myArr= [1, 2, 3, 4, 5] */\n  0xff\n  and\n  dup2\n  mstore\n  0x20\n  add\n    /* \"Loops.sol\":267:268  5 */\n  0x05\n    /* \"Loops.sol\":239:269  uint[5] myArr= [1, 2, 3, 4, 5] */\n  0xff\n  and\n  dup2\n  mstore\n  pop\n  0x00\n  swap1\n  0x05\n  tag_1\n  swap3\n  swap2\n  swap1\n  tag_2\n  jump\t// in\ntag_1:\n  pop\n    /* \"Loops.sol\":294:295  0 */\n  0x00\n    /* \"Loops.sol\":276:295  uint public Sum = 0 */\n  0x05\n  sstore\n    /* \"Loops.sol\":75:896  contract Loop\r... */\n  callvalue\n  dup1\n  iszero\n  tag_3\n  jumpi\n  0x00\n  dup1\n  revert\ntag_3:\n  pop\n  jump(tag_4)\ntag_2:\n  dup3\n  0x05\n  dup2\n  add\n  swap3\n  dup3\n  iszero\n  tag_5\n  jumpi\n  swap2\n  0x20\n  mul\n  dup3\n  add\ntag_6:\n  dup3\n  dup2\n  gt\n  iszero\n  tag_7\n  jumpi\n  dup3\n  mload\n  dup3\n  swap1\n  0xff\n  and\n  swap1\n  sstore\n  swap2\n  0x20\n  add\n  swap2\n  swap1\n  0x01\n  add\n  swap1\n  jump(tag_6)\ntag_7:\ntag_5:\n  pop\n  swap1\n  pop\n  tag_8\n  swap2\n  swap1\n  tag_9\n  jump\t// in\ntag_8:\n  pop\n  swap1\n  jump\t// out\ntag_9:\ntag_10:\n  dup1\n  dup3\n  gt\n  iszero\n  tag_11\n  jumpi\n  0x00\n  dup2\n  0x00\n  swap1\n  sstore\n  pop\n  0x01\n  add\n  jump(tag_10)\ntag_11:\n  pop\n  swap1\n  jump\t// out\ntag_4:\n  dataSize(sub_0)\n  dup1\n  dataOffset(sub_0)\n  0x00\n  codecopy\n  0x00\n  return\nstop\n\nsub_0: assembly {\n        /* \"Loops.sol\":75:896  contract Loop\r... */\n      mstore(0x40, 0x80)\n      callvalue\n      dup1\n      iszero\n      tag_1\n      jumpi\n      0x00\n      dup1\n      revert\n    tag_1:\n      pop\n      jumpi(tag_2, lt(calldatasize, 0x04))\n      shr(0xe0, calldataload(0x00))\n      dup1\n      0x2755f691\n      eq\n      tag_3\n      jumpi\n      dup1\n      0x37be827d\n      eq\n      tag_4\n      jumpi\n      dup1\n      0x604154be\n      eq\n      tag_5\n      jumpi\n      dup1\n      0x62ff0853\n      eq\n      tag_6\n      jumpi\n    tag_2:\n      0x00\n      dup1\n      revert\n        /* \"Loops.sol\":714:891  function Do_While_Loop() public\r... */\n    tag_3:\n      tag_7\n      tag_8\n      jump\t// in\n    tag_7:\n      stop\n        /* \"Loops.sol\":276:295  uint public Sum = 0 */\n    tag_4:\n      tag_9\n      tag_10\n      jump\t// in\n    tag_9:\n      mload(0x40)\n      tag_11\n      swap2\n      swap1\n      tag_12\n      jump\t// in\n    tag_11:\n      mload(0x40)\n      dup1\n      swap2\n      sub\n      swap1\n      return\n        /* \"Loops.sol\":382:553  function While_Loop() public\r... */\n    tag_5:\n      tag_13\n      tag_14\n      jump\t// in\n    tag_13:\n      stop\n        /* \"Loops.sol\":562:705  function For_Loop() public\r... */\n    tag_6:\n      tag_15\n      tag_16\n      jump\t// in\n    tag_15:\n      stop\n        /* \"Loops.sol\":714:891  function Do_While_Loop() public\r... */\n    tag_8:\n        /* \"Loops.sol\":762:768  uint i */\n      0x00\n        /* \"Loops.sol\":783:884  do\r... */\n    tag_18:\n        /* \"Loops.sol\":822:827  myArr */\n      0x00\n        /* \"Loops.sol\":828:829  i */\n      dup2\n        /* \"Loops.sol\":822:830  myArr[i] */\n      0x05\n      dup2\n      lt\n      tag_21\n      jumpi\n      tag_22\n      tag_23\n      jump\t// in\n    tag_22:\n    tag_21:\n      add\n      sload\n        /* \"Loops.sol\":816:819  Sum */\n      sload(0x05)\n        /* \"Loops.sol\":816:830  Sum + myArr[i] */\n      tag_25\n      swap2\n      swap1\n      tag_26\n      jump\t// in\n    tag_25:\n        /* \"Loops.sol\":810:813  Sum */\n      0x05\n        /* \"Loops.sol\":810:830  Sum = Sum + myArr[i] */\n      dup2\n      swap1\n      sstore\n      pop\n        /* \"Loops.sol\":845:848  i++ */\n      dup1\n      dup1\n      tag_27\n      swap1\n      tag_28\n      jump\t// in\n    tag_27:\n      swap2\n      pop\n      pop\n        /* \"Loops.sol\":870:882  myArr.length */\n      0x05\n        /* \"Loops.sol\":866:867  i */\n      dup2\n        /* \"Loops.sol\":866:882  i < myArr.length */\n      lt\n        /* \"Loops.sol\":783:884  do\r... */\n      tag_18\n      jumpi\n        /* \"Loops.sol\":751:891  {\r... */\n      pop\n        /* \"Loops.sol\":714:891  function Do_While_Loop() public\r... */\n      jump\t// out\n        /* \"Loops.sol\":276:295  uint public Sum = 0 */\n    tag_10:\n      sload(0x05)\n      dup2\n      jump\t// out\n        /* \"Loops.sol\":382:553  function While_Loop() public\r... */\n    tag_14:\n        /* \"Loops.sol\":427:433  uint i */\n      0x00\n        /* \"Loops.sol\":448:546  while(i < myArr.length)\r... */\n    tag_30:\n        /* \"Loops.sol\":458:470  myArr.length */\n      0x05\n        /* \"Loops.sol\":454:455  i */\n      dup2\n        /* \"Loops.sol\":454:470  i < myArr.length */\n      lt\n        /* \"Loops.sol\":448:546  while(i < myArr.length)\r... */\n      iszero\n      tag_31\n      jumpi\n        /* \"Loops.sol\":508:513  myArr */\n      0x00\n        /* \"Loops.sol\":514:515  i */\n      dup2\n        /* \"Loops.sol\":508:516  myArr[i] */\n      0x05\n      dup2\n      lt\n      tag_32\n      jumpi\n      tag_33\n      tag_23\n      jump\t// in\n    tag_33:\n    tag_32:\n      add\n      sload\n        /* \"Loops.sol\":502:505  Sum */\n      sload(0x05)\n        /* \"Loops.sol\":502:516  Sum + myArr[i] */\n      tag_35\n      swap2\n      swap1\n      tag_26\n      jump\t// in\n    tag_35:\n        /* \"Loops.sol\":496:499  Sum */\n      0x05\n        /* \"Loops.sol\":496:516  Sum = Sum + myArr[i] */\n      dup2\n      swap1\n      sstore\n      pop\n        /* \"Loops.sol\":531:534  i++ */\n      dup1\n      dup1\n      tag_36\n      swap1\n      tag_28\n      jump\t// in\n    tag_36:\n      swap2\n      pop\n      pop\n        /* \"Loops.sol\":448:546  while(i < myArr.length)\r... */\n      jump(tag_30)\n    tag_31:\n        /* \"Loops.sol\":416:553  {\r... */\n      pop\n        /* \"Loops.sol\":382:553  function While_Loop() public\r... */\n      jump\t// out\n        /* \"Loops.sol\":562:705  function For_Loop() public\r... */\n    tag_16:\n        /* \"Loops.sol\":609:615  uint i */\n      0x00\n        /* \"Loops.sol\":605:698  for(uint i = 0; i<myArr.length; i++)\r... */\n    tag_38:\n        /* \"Loops.sol\":623:635  myArr.length */\n      0x05\n        /* \"Loops.sol\":621:622  i */\n      dup2\n        /* \"Loops.sol\":621:635  i<myArr.length */\n      lt\n        /* \"Loops.sol\":605:698  for(uint i = 0; i<myArr.length; i++)\r... */\n      iszero\n      tag_39\n      jumpi\n        /* \"Loops.sol\":678:683  myArr */\n      0x00\n        /* \"Loops.sol\":684:685  i */\n      dup2\n        /* \"Loops.sol\":678:686  myArr[i] */\n      0x05\n      dup2\n      lt\n      tag_41\n      jumpi\n      tag_42\n      tag_23\n      jump\t// in\n    tag_42:\n    tag_41:\n      add\n      sload\n        /* \"Loops.sol\":672:675  Sum */\n      sload(0x05)\n        /* \"Loops.sol\":672:686  Sum + myArr[i] */\n      tag_44\n      swap2\n      swap1\n      tag_26\n      jump\t// in\n    tag_44:\n        /* \"Loops.sol\":666:669  Sum */\n      0x05\n        /* \"Loops.sol\":666:686  Sum = Sum + myArr[i] */\n      dup2\n      swap1\n      sstore\n      pop\n        /* \"Loops.sol\":637:640  i++ */\n      dup1\n      dup1\n      tag_45\n      swap1\n      tag_28\n      jump\t// in\n    tag_45:\n      swap2\n      pop\n      pop\n        /* \"Loops.sol\":605:698  for(uint i = 0; i<myArr.length; i++)\r... */\n      jump(tag_38)\n    tag_39:\n      pop\n        /* \"Loops.sol\":562:705  function For_Loop() public\r... */\n      jump\t// out\n        /* \"#utility.yul\":7:125   */\n    tag_47:\n        /* \"#utility.yul\":94:118   */\n      tag_49\n        /* \"#utility.yul\":112:117   */\n      dup2\n        /* \"#utility.yul\":94:118   */\n      tag_50\n      jump\t// in\n    tag_49:\n        /* \"#utility.yul\":89:92   */\n      dup3\n        /* \"#utility.yul\":82:119   */\n      mstore\n        /* \"#utility.yul\":7:125   */\n      pop\n      pop\n      jump\t// out\n        /* \"#utility.yul\":131:353   */\n    tag_12:\n        /* \"#utility.yul\":224:228   */\n      0x00\n        /* \"#utility.yul\":262:264   */\n      0x20\n        /* \"#utility.yul\":251:260   */\n      dup3\n        /* \"#utility.yul\":247:265   */\n      add\n        /* \"#utility.yul\":239:265   */\n      swap1\n      pop\n        /* \"#utility.yul\":275:346   */\n      tag_52\n        /* \"#utility.yul\":343:344   */\n      0x00\n        /* \"#utility.yul\":332:341   */\n      dup4\n        /* \"#utility.yul\":328:345   */\n      add\n        /* \"#utility.yul\":319:325   */\n      dup5\n        /* \"#utility.yul\":275:346   */\n      tag_47\n      jump\t// in\n    tag_52:\n        /* \"#utility.yul\":131:353   */\n      swap3\n      swap2\n      pop\n      pop\n      jump\t// out\n        /* \"#utility.yul\":359:664   */\n    tag_26:\n        /* \"#utility.yul\":399:402   */\n      0x00\n        /* \"#utility.yul\":418:438   */\n      tag_54\n        /* \"#utility.yul\":436:437   */\n      dup3\n        /* \"#utility.yul\":418:438   */\n      tag_50\n      jump\t// in\n    tag_54:\n        /* \"#utility.yul\":413:438   */\n      swap2\n      pop\n        /* \"#utility.yul\":452:472   */\n      tag_55\n        /* \"#utility.yul\":470:471   */\n      dup4\n        /* \"#utility.yul\":452:472   */\n      tag_50\n      jump\t// in\n    tag_55:\n        /* \"#utility.yul\":447:472   */\n      swap3\n      pop\n        /* \"#utility.yul\":606:607   */\n      dup3\n        /* \"#utility.yul\":538:604   */\n      0xffffffffffffffffffffffffffffffffffffffffffffffffffffffffffffffff\n        /* \"#utility.yul\":534:608   */\n      sub\n        /* \"#utility.yul\":531:532   */\n      dup3\n        /* \"#utility.yul\":528:609   */\n      gt\n        /* \"#utility.yul\":525:632   */\n      iszero\n      tag_56\n      jumpi\n        /* \"#utility.yul\":612:630   */\n      tag_57\n      tag_58\n      jump\t// in\n    tag_57:\n        /* \"#utility.yul\":525:632   */\n    tag_56:\n        /* \"#utility.yul\":656:657   */\n      dup3\n        /* \"#utility.yul\":653:654   */\n      dup3\n        /* \"#utility.yul\":649:658   */\n      add\n        /* \"#utility.yul\":642:658   */\n      swap1\n      pop\n        /* \"#utility.yul\":359:664   */\n      swap3\n      swap2\n      pop\n      pop\n      jump\t// out\n        /* \"#utility.yul\":670:747   */\n    tag_50:\n        /* \"#utility.yul\":707:714   */\n      0x00\n        /* \"#utility.yul\":736:741   */\n      dup2\n        /* \"#utility.yul\":725:741   */\n      swap1\n      pop\n        /* \"#utility.yul\":670:747   */\n      swap2\n      swap1\n      pop\n      jump\t// out\n        /* \"#utility.yul\":753:986   */\n    tag_28:\n        /* \"#utility.yul\":792:795   */\n      0x00\n        /* \"#utility.yul\":815:839   */\n      tag_61\n        /* \"#utility.yul\":833:838   */\n      dup3\n        /* \"#utility.yul\":815:839   */\n      tag_50\n      jump\t// in\n    tag_61:\n        /* \"#utility.yul\":806:839   */\n      swap2\n      pop\n        /* \"#utility.yul\":861:927   */\n      0xffffffffffffffffffffffffffffffffffffffffffffffffffffffffffffffff\n        /* \"#utility.yul\":854:859   */\n      dup3\n        /* \"#utility.yul\":851:928   */\n      eq\n        /* \"#utility.yul\":848:951   */\n      iszero\n      tag_62\n      jumpi\n        /* \"#utility.yul\":931:949   */\n      tag_63\n      tag_58\n      jump\t// in\n    tag_63:\n        /* \"#utility.yul\":848:951   */\n    tag_62:\n        /* \"#utility.yul\":978:979   */\n      0x01\n        /* \"#utility.yul\":971:976   */\n      dup3\n        /* \"#utility.yul\":967:980   */\n      add\n        /* \"#utility.yul\":960:980   */\n      swap1\n      pop\n        /* \"#utility.yul\":753:986   */\n      swap2\n      swap1\n      pop\n      jump\t// out\n        /* \"#utility.yul\":992:1172   */\n    tag_58:\n        /* \"#utility.yul\":1040:1117   */\n      0x4e487b7100000000000000000000000000000000000000000000000000000000\n        /* \"#utility.yul\":1037:1038   */\n      0x00\n        /* \"#utility.yul\":1030:1118   */\n      mstore\n        /* \"#utility.yul\":1137:1141   */\n      0x11\n        /* \"#utility.yul\":1134:1135   */\n      0x04\n        /* \"#utility.yul\":1127:1142   */\n      mstore\n        /* \"#utility.yul\":1161:1165   */\n      0x24\n        /* \"#utility.yul\":1158:1159   */\n      0x00\n        /* \"#utility.yul\":1151:1166   */\n      revert\n        /* \"#utility.yul\":1178:1358   */\n    tag_23:\n        /* \"#utility.yul\":1226:1303   */\n      0x4e487b7100000000000000000000000000000000000000000000000000000000\n        /* \"#utility.yul\":1223:1224   */\n      0x00\n        /* \"#utility.yul\":1216:1304   */\n      mstore\n        /* \"#utility.yul\":1323:1327   */\n      0x32\n        /* \"#utility.yul\":1320:1321   */\n      0x04\n        /* \"#utility.yul\":1313:1328   */\n      mstore\n        /* \"#utility.yul\":1347:1351   */\n      0x24\n        /* \"#utility.yul\":1344:1345   */\n      0x00\n        /* \"#utility.yul\":1337:1352   */\n      revert\n\n    auxdata: 0xa26469706673582212208133bd7fd422f19586abf1229452d2107ec368f24f73fb2c9b5e1b4f608e6d3c64736f6c63430008070033\n}\n",
				"bytecode": {
					"linkReferences": {},
					"object": "60806040526040518060a00160405280600160ff168152602001600260ff168152602001600360ff168152602001600460ff168152602001600560ff16815250600090600561004f929190610067565b50600060055534801561006157600080fd5b506100c9565b826005810192821561009b579160200282015b8281111561009a578251829060ff1690559160200191906001019061007a565b5b5090506100a891906100ac565b5090565b5b808211156100c55760008160009055506001016100ad565b5090565b6102d5806100d86000396000f3fe608060405234801561001057600080fd5b506004361061004c5760003560e01c80632755f6911461005157806337be827d1461005b578063604154be1461007957806362ff085314610083575b600080fd5b61005961008d565b005b6100636100d2565b604051610070919061017d565b60405180910390f35b6100816100d8565b005b61008b610123565b005b60005b600081600581106100a4576100a3610270565b5b01546005546100b39190610198565b60058190555080806100c4906101f8565b915050600581106100905750565b60055481565b60005b600581101561012057600081600581106100f8576100f7610270565b5b01546005546101079190610198565b6005819055508080610118906101f8565b9150506100db565b50565b60005b600581101561016b576000816005811061014357610142610270565b5b01546005546101529190610198565b6005819055508080610163906101f8565b915050610126565b50565b610177816101ee565b82525050565b6000602082019050610192600083018461016e565b92915050565b60006101a3826101ee565b91506101ae836101ee565b9250827fffffffffffffffffffffffffffffffffffffffffffffffffffffffffffffffff038211156101e3576101e2610241565b5b828201905092915050565b6000819050919050565b6000610203826101ee565b91507fffffffffffffffffffffffffffffffffffffffffffffffffffffffffffffffff82141561023657610235610241565b5b600182019050919050565b7f4e487b7100000000000000000000000000000000000000000000000000000000600052601160045260246000fd5b7f4e487b7100000000000000000000000000000000000000000000000000000000600052603260045260246000fdfea26469706673582212208133bd7fd422f19586abf1229452d2107ec368f24f73fb2c9b5e1b4f608e6d3c64736f6c63430008070033",
					"opcodes": "PUSH1 0x80 PUSH1 0x40 MSTORE PUSH1 0x40 MLOAD DUP1 PUSH1 0xA0 ADD PUSH1 0x40 MSTORE DUP1 PUSH1 0x1 PUSH1 0xFF AND DUP2 MSTORE PUSH1 0x20 ADD PUSH1 0x2 PUSH1 0xFF AND DUP2 MSTORE PUSH1 0x20 ADD PUSH1 0x3 PUSH1 0xFF AND DUP2 MSTORE PUSH1 0x20 ADD PUSH1 0x4 PUSH1 0xFF AND DUP2 MSTORE PUSH1 0x20 ADD PUSH1 0x5 PUSH1 0xFF AND DUP2 MSTORE POP PUSH1 0x0 SWAP1 PUSH1 0x5 PUSH2 0x4F SWAP3 SWAP2 SWAP1 PUSH2 0x67 JUMP JUMPDEST POP PUSH1 0x0 PUSH1 0x5 SSTORE CALLVALUE DUP1 ISZERO PUSH2 0x61 JUMPI PUSH1 0x0 DUP1 REVERT JUMPDEST POP PUSH2 0xC9 JUMP JUMPDEST DUP3 PUSH1 0x5 DUP2 ADD SWAP3 DUP3 ISZERO PUSH2 0x9B JUMPI SWAP2 PUSH1 0x20 MUL DUP3 ADD JUMPDEST DUP3 DUP2 GT ISZERO PUSH2 0x9A JUMPI DUP3 MLOAD DUP3 SWAP1 PUSH1 0xFF AND SWAP1 SSTORE SWAP2 PUSH1 0x20 ADD SWAP2 SWAP1 PUSH1 0x1 ADD SWAP1 PUSH2 0x7A JUMP JUMPDEST JUMPDEST POP SWAP1 POP PUSH2 0xA8 SWAP2 SWAP1 PUSH2 0xAC JUMP JUMPDEST POP SWAP1 JUMP JUMPDEST JUMPDEST DUP1 DUP3 GT ISZERO PUSH2 0xC5 JUMPI PUSH1 0x0 DUP2 PUSH1 0x0 SWAP1 SSTORE POP PUSH1 0x1 ADD PUSH2 0xAD JUMP JUMPDEST POP SWAP1 JUMP JUMPDEST PUSH2 0x2D5 DUP1 PUSH2 0xD8 PUSH1 0x0 CODECOPY PUSH1 0x0 RETURN INVALID PUSH1 0x80 PUSH1 0x40 MSTORE CALLVALUE DUP1 ISZERO PUSH2 0x10 JUMPI PUSH1 0x0 DUP1 REVERT JUMPDEST POP PUSH1 0x4 CALLDATASIZE LT PUSH2 0x4C JUMPI PUSH1 0x0 CALLDATALOAD PUSH1 0xE0 SHR DUP1 PUSH4 0x2755F691 EQ PUSH2 0x51 JUMPI DUP1 PUSH4 0x37BE827D EQ PUSH2 0x5B JUMPI DUP1 PUSH4 0x604154BE EQ PUSH2 0x79 JUMPI DUP1 PUSH4 0x62FF0853 EQ PUSH2 0x83 JUMPI JUMPDEST PUSH1 0x0 DUP1 REVERT JUMPDEST PUSH2 0x59 PUSH2 0x8D JUMP JUMPDEST STOP JUMPDEST PUSH2 0x63 PUSH2 0xD2 JUMP JUMPDEST PUSH1 0x40 MLOAD PUSH2 0x70 SWAP2 SWAP1 PUSH2 0x17D JUMP JUMPDEST PUSH1 0x40 MLOAD DUP1 SWAP2 SUB SWAP1 RETURN JUMPDEST PUSH2 0x81 PUSH2 0xD8 JUMP JUMPDEST STOP JUMPDEST PUSH2 0x8B PUSH2 0x123 JUMP JUMPDEST STOP JUMPDEST PUSH1 0x0 JUMPDEST PUSH1 0x0 DUP2 PUSH1 0x5 DUP2 LT PUSH2 0xA4 JUMPI PUSH2 0xA3 PUSH2 0x270 JUMP JUMPDEST JUMPDEST ADD SLOAD PUSH1 0x5 SLOAD PUSH2 0xB3 SWAP2 SWAP1 PUSH2 0x198 JUMP JUMPDEST PUSH1 0x5 DUP2 SWAP1 SSTORE POP DUP1 DUP1 PUSH2 0xC4 SWAP1 PUSH2 0x1F8 JUMP JUMPDEST SWAP2 POP POP PUSH1 0x5 DUP2 LT PUSH2 0x90 JUMPI POP JUMP JUMPDEST PUSH1 0x5 SLOAD DUP2 JUMP JUMPDEST PUSH1 0x0 JUMPDEST PUSH1 0x5 DUP2 LT ISZERO PUSH2 0x120 JUMPI PUSH1 0x0 DUP2 PUSH1 0x5 DUP2 LT PUSH2 0xF8 JUMPI PUSH2 0xF7 PUSH2 0x270 JUMP JUMPDEST JUMPDEST ADD SLOAD PUSH1 0x5 SLOAD PUSH2 0x107 SWAP2 SWAP1 PUSH2 0x198 JUMP JUMPDEST PUSH1 0x5 DUP2 SWAP1 SSTORE POP DUP1 DUP1 PUSH2 0x118 SWAP1 PUSH2 0x1F8 JUMP JUMPDEST SWAP2 POP POP PUSH2 0xDB JUMP JUMPDEST POP JUMP JUMPDEST PUSH1 0x0 JUMPDEST PUSH1 0x5 DUP2 LT ISZERO PUSH2 0x16B JUMPI PUSH1 0x0 DUP2 PUSH1 0x5 DUP2 LT PUSH2 0x143 JUMPI PUSH2 0x142 PUSH2 0x270 JUMP JUMPDEST JUMPDEST ADD SLOAD PUSH1 0x5 SLOAD PUSH2 0x152 SWAP2 SWAP1 PUSH2 0x198 JUMP JUMPDEST PUSH1 0x5 DUP2 SWAP1 SSTORE POP DUP1 DUP1 PUSH2 0x163 SWAP1 PUSH2 0x1F8 JUMP JUMPDEST SWAP2 POP POP PUSH2 0x126 JUMP JUMPDEST POP JUMP JUMPDEST PUSH2 0x177 DUP2 PUSH2 0x1EE JUMP JUMPDEST DUP3 MSTORE POP POP JUMP JUMPDEST PUSH1 0x0 PUSH1 0x20 DUP3 ADD SWAP1 POP PUSH2 0x192 PUSH1 0x0 DUP4 ADD DUP5 PUSH2 0x16E JUMP JUMPDEST SWAP3 SWAP2 POP POP JUMP JUMPDEST PUSH1 0x0 PUSH2 0x1A3 DUP3 PUSH2 0x1EE JUMP JUMPDEST SWAP2 POP PUSH2 0x1AE DUP4 PUSH2 0x1EE JUMP JUMPDEST SWAP3 POP DUP3 PUSH32 0xFFFFFFFFFFFFFFFFFFFFFFFFFFFFFFFFFFFFFFFFFFFFFFFFFFFFFFFFFFFFFFFF SUB DUP3 GT ISZERO PUSH2 0x1E3 JUMPI PUSH2 0x1E2 PUSH2 0x241 JUMP JUMPDEST JUMPDEST DUP3 DUP3 ADD SWAP1 POP SWAP3 SWAP2 POP POP JUMP JUMPDEST PUSH1 0x0 DUP2 SWAP1 POP SWAP2 SWAP1 POP JUMP JUMPDEST PUSH1 0x0 PUSH2 0x203 DUP3 PUSH2 0x1EE JUMP JUMPDEST SWAP2 POP PUSH32 0xFFFFFFFFFFFFFFFFFFFFFFFFFFFFFFFFFFFFFFFFFFFFFFFFFFFFFFFFFFFFFFFF DUP3 EQ ISZERO PUSH2 0x236 JUMPI PUSH2 0x235 PUSH2 0x241 JUMP JUMPDEST JUMPDEST PUSH1 0x1 DUP3 ADD SWAP1 POP SWAP2 SWAP1 POP JUMP JUMPDEST PUSH32 0x4E487B7100000000000000000000000000000000000000000000000000000000 PUSH1 0x0 MSTORE PUSH1 0x11 PUSH1 0x4 MSTORE PUSH1 0x24 PUSH1 0x0 REVERT JUMPDEST PUSH32 0x4E487B7100000000000000000000000000000000000000000000000000000000 PUSH1 0x0 MSTORE PUSH1 0x32 PUSH1 0x4 MSTORE PUSH1 0x24 PUSH1 0x0 REVERT INVALID LOG2 PUSH5 0x6970667358 0x22 SLT KECCAK256 DUP2 CALLER 0xBD PUSH32 0xD422F19586ABF1229452D2107EC368F24F73FB2C9B5E1B4F608E6D3C64736F6C PUSH4 0x43000807 STOP CALLER "
				},
				"gasEstimates": {
					"creation": {
						"codeDepositCost": "145000",
						"executionCost": "infinite",
						"totalCost": "infinite"
					},
					"external": {
						"Do_While_Loop()": "infinite",
						"For_Loop()": "infinite",
						"Sum()": "2429",
						"While_Loop()": "infinite"
					}
				},
				"methodIdentifiers": {
					"Do_While_Loop()": "2755f691",
					"For_Loop()": "62ff0853",
					"Sum()": "37be827d",
					"While_Loop()": "604154be"
				}
			},
			"storageLayout": {
				"storage": [
					{
						"astId": 11,
						"contract": "Loops.sol:Loop",
						"label": "myArr",
						"offset": 0,
						"slot": "0",
						"type": "t_array(t_uint256)5_storage"
					},
					{
						"astId": 14,
						"contract": "Loops.sol:Loop",
						"label": "Sum",
						"offset": 0,
						"slot": "5",
						"type": "t_uint256"
					}
				],
				"types": {
					"t_array(t_uint256)5_storage": {
						"base": "t_uint256",
						"encoding": "inplace",
						"label": "uint256[5]",
						"numberOfBytes": "160"
					},
					"t_uint256": {
						"encoding": "inplace",
						"label": "uint256",
						"numberOfBytes": "32"
					}
				}
			},
			"userdoc": {
				"kind": "user",
				"methods": {},
				"version": 1
			}
		}
	}
}