{
	"Bank_Contract.sol": {
		"DBank": {
			"abi": [
				{
					"inputs": [],
					"stateMutability": "nonpayable",
					"type": "constructor"
				},
				{
					"inputs": [
						{
							"internalType": "address",
							"name": "recipient",
							"type": "address"
						},
						{
							"internalType": "uint256",
							"name": "amount",
							"type": "uint256"
						}
					],
					"name": "Transfer",
					"outputs": [],
					"stateMutability": "nonpayable",
					"type": "function"
				},
				{
					"inputs": [
						{
							"internalType": "uint256",
							"name": "amount",
							"type": "uint256"
						}
					],
					"name": "addBalance",
					"outputs": [
						{
							"internalType": "uint256",
							"name": "",
							"type": "uint256"
						}
					],
					"stateMutability": "nonpayable",
					"type": "function"
				},
				{
					"inputs": [],
					"name": "getBalance",
					"outputs": [
						{
							"internalType": "uint256",
							"name": "",
							"type": "uint256"
						}
					],
					"stateMutability": "view",
					"type": "function"
				}
			],
			"devdoc": {
				"kind": "dev",
				"methods": {},
				"version": 1
			},
			"evm": {
				"assembly": "    /* \"Bank_Contract.sol\":75:1520  contract DBank\r... */\n  mstore(0x40, 0x80)\n    /* \"Bank_Contract.sol\":286:342  constructor()\r... */\n  callvalue\n  dup1\n  iszero\n  tag_1\n  jumpi\n  0x00\n  dup1\n  revert\ntag_1:\n  pop\n    /* \"Bank_Contract.sol\":324:334  msg.sender */\n  caller\n    /* \"Bank_Contract.sol\":316:321  Owner */\n  0x00\n  dup1\n    /* \"Bank_Contract.sol\":316:334  Owner = msg.sender */\n  0x0100\n  exp\n  dup2\n  sload\n  dup2\n  0xffffffffffffffffffffffffffffffffffffffff\n  mul\n  not\n  and\n  swap1\n  dup4\n  0xffffffffffffffffffffffffffffffffffffffff\n  and\n  mul\n  or\n  swap1\n  sstore\n  pop\n    /* \"Bank_Contract.sol\":75:1520  contract DBank\r... */\n  dataSize(sub_0)\n  dup1\n  dataOffset(sub_0)\n  0x00\n  codecopy\n  0x00\n  return\nstop\n\nsub_0: assembly {\n        /* \"Bank_Contract.sol\":75:1520  contract DBank\r... */\n      mstore(0x40, 0x80)\n      callvalue\n      dup1\n      iszero\n      tag_1\n      jumpi\n      0x00\n      dup1\n      revert\n    tag_1:\n      pop\n      jumpi(tag_2, lt(calldatasize, 0x04))\n      shr(0xe0, calldataload(0x00))\n      dup1\n      0x12065fe0\n      eq\n      tag_3\n      jumpi\n      dup1\n      0x69ca02dd\n      eq\n      tag_4\n      jumpi\n      dup1\n      0xd91921ed\n      eq\n      tag_5\n      jumpi\n    tag_2:\n      0x00\n      dup1\n      revert\n        /* \"Bank_Contract.sol\":766:864  function getBalance() public view returns(uint)\r... */\n    tag_3:\n      tag_6\n      tag_7\n      jump\t// in\n    tag_6:\n      mload(0x40)\n      tag_8\n      swap2\n      swap1\n      tag_9\n      jump\t// in\n    tag_8:\n      mload(0x40)\n      dup1\n      swap2\n      sub\n      swap1\n      return\n        /* \"Bank_Contract.sol\":927:1334  function Transfer(address recipient, uint amount) public\r... */\n    tag_4:\n      tag_10\n      0x04\n      dup1\n      calldatasize\n      sub\n      dup2\n      add\n      swap1\n      tag_11\n      swap2\n      swap1\n      tag_12\n      jump\t// in\n    tag_11:\n      tag_13\n      jump\t// in\n    tag_10:\n      stop\n        /* \"Bank_Contract.sol\":402:705  function addBalance(uint amount) public returns(uint)\r... */\n    tag_5:\n      tag_14\n      0x04\n      dup1\n      calldatasize\n      sub\n      dup2\n      add\n      swap1\n      tag_15\n      swap2\n      swap1\n      tag_16\n      jump\t// in\n    tag_15:\n      tag_17\n      jump\t// in\n    tag_14:\n      mload(0x40)\n      tag_18\n      swap2\n      swap1\n      tag_9\n      jump\t// in\n    tag_18:\n      mload(0x40)\n      dup1\n      swap2\n      sub\n      swap1\n      return\n        /* \"Bank_Contract.sol\":766:864  function getBalance() public view returns(uint)\r... */\n    tag_7:\n        /* \"Bank_Contract.sol\":808:812  uint */\n      0x00\n        /* \"Bank_Contract.sol\":837:844  Balance */\n      0x01\n        /* \"Bank_Contract.sol\":837:856  Balance[msg.sender] */\n      0x00\n        /* \"Bank_Contract.sol\":845:855  msg.sender */\n      caller\n        /* \"Bank_Contract.sol\":837:856  Balance[msg.sender] */\n      0xffffffffffffffffffffffffffffffffffffffff\n      and\n      0xffffffffffffffffffffffffffffffffffffffff\n      and\n      dup2\n      mstore\n      0x20\n      add\n      swap1\n      dup2\n      mstore\n      0x20\n      add\n      0x00\n      keccak256\n      sload\n        /* \"Bank_Contract.sol\":830:856  return Balance[msg.sender] */\n      swap1\n      pop\n        /* \"Bank_Contract.sol\":766:864  function getBalance() public view returns(uint)\r... */\n      swap1\n      jump\t// out\n        /* \"Bank_Contract.sol\":927:1334  function Transfer(address recipient, uint amount) public\r... */\n    tag_13:\n        /* \"Bank_Contract.sol\":1067:1076  recipient */\n      dup2\n        /* \"Bank_Contract.sol\":1053:1076  msg.sender != recipient */\n      0xffffffffffffffffffffffffffffffffffffffff\n      and\n        /* \"Bank_Contract.sol\":1053:1063  msg.sender */\n      caller\n        /* \"Bank_Contract.sol\":1053:1076  msg.sender != recipient */\n      0xffffffffffffffffffffffffffffffffffffffff\n      and\n      eq\n      iszero\n        /* \"Bank_Contract.sol\":1045:1112  require(msg.sender != recipient, \"Can't Transfer !! Self Account.\") */\n      tag_21\n      jumpi\n      mload(0x40)\n      0x08c379a000000000000000000000000000000000000000000000000000000000\n      dup2\n      mstore\n      0x04\n      add\n      tag_22\n      swap1\n      tag_23\n      jump\t// in\n    tag_22:\n      mload(0x40)\n      dup1\n      swap2\n      sub\n      swap1\n      revert\n    tag_21:\n        /* \"Bank_Contract.sol\":1216:1222  amount */\n      dup1\n        /* \"Bank_Contract.sol\":1193:1200  Balance */\n      0x01\n        /* \"Bank_Contract.sol\":1193:1212  Balance[msg.sender] */\n      0x00\n        /* \"Bank_Contract.sol\":1201:1211  msg.sender */\n      caller\n        /* \"Bank_Contract.sol\":1193:1212  Balance[msg.sender] */\n      0xffffffffffffffffffffffffffffffffffffffff\n      and\n      0xffffffffffffffffffffffffffffffffffffffff\n      and\n      dup2\n      mstore\n      0x20\n      add\n      swap1\n      dup2\n      mstore\n      0x20\n      add\n      0x00\n      keccak256\n      sload\n        /* \"Bank_Contract.sol\":1193:1222  Balance[msg.sender] >= amount */\n      lt\n      iszero\n        /* \"Bank_Contract.sol\":1185:1273  require(Balance[msg.sender] >= amount, \"No, We Can't Transfer. Insufficient Balance !!\") */\n      tag_24\n      jumpi\n      mload(0x40)\n      0x08c379a000000000000000000000000000000000000000000000000000000000\n      dup2\n      mstore\n      0x04\n      add\n      tag_25\n      swap1\n      tag_26\n      jump\t// in\n    tag_25:\n      mload(0x40)\n      dup1\n      swap2\n      sub\n      swap1\n      revert\n    tag_24:\n        /* \"Bank_Contract.sol\":1286:1326  _transfer(msg.sender, recipient, amount) */\n      tag_27\n        /* \"Bank_Contract.sol\":1296:1306  msg.sender */\n      caller\n        /* \"Bank_Contract.sol\":1308:1317  recipient */\n      dup4\n        /* \"Bank_Contract.sol\":1319:1325  amount */\n      dup4\n        /* \"Bank_Contract.sol\":1286:1295  _transfer */\n      tag_28\n        /* \"Bank_Contract.sol\":1286:1326  _transfer(msg.sender, recipient, amount) */\n      jump\t// in\n    tag_27:\n        /* \"Bank_Contract.sol\":927:1334  function Transfer(address recipient, uint amount) public\r... */\n      pop\n      pop\n      jump\t// out\n        /* \"Bank_Contract.sol\":402:705  function addBalance(uint amount) public returns(uint)\r... */\n    tag_17:\n        /* \"Bank_Contract.sol\":450:454  uint */\n      0x00\n        /* \"Bank_Contract.sol\":561:566  Owner */\n      dup1\n      0x00\n      swap1\n      sload\n      swap1\n      0x0100\n      exp\n      swap1\n      div\n      0xffffffffffffffffffffffffffffffffffffffff\n      and\n        /* \"Bank_Contract.sol\":547:566  msg.sender == Owner */\n      0xffffffffffffffffffffffffffffffffffffffff\n      and\n        /* \"Bank_Contract.sol\":547:557  msg.sender */\n      caller\n        /* \"Bank_Contract.sol\":547:566  msg.sender == Owner */\n      0xffffffffffffffffffffffffffffffffffffffff\n      and\n      eq\n        /* \"Bank_Contract.sol\":539:597  require(msg.sender == Owner, \"Yes it is Owner Account !!\") */\n      tag_30\n      jumpi\n      mload(0x40)\n      0x08c379a000000000000000000000000000000000000000000000000000000000\n      dup2\n      mstore\n      0x04\n      add\n      tag_31\n      swap1\n      tag_32\n      jump\t// in\n    tag_31:\n      mload(0x40)\n      dup1\n      swap2\n      sub\n      swap1\n      revert\n    tag_30:\n        /* \"Bank_Contract.sol\":652:658  amount */\n      dup2\n        /* \"Bank_Contract.sol\":630:637  Balance */\n      0x01\n        /* \"Bank_Contract.sol\":630:649  Balance[msg.sender] */\n      0x00\n        /* \"Bank_Contract.sol\":638:648  msg.sender */\n      caller\n        /* \"Bank_Contract.sol\":630:649  Balance[msg.sender] */\n      0xffffffffffffffffffffffffffffffffffffffff\n      and\n      0xffffffffffffffffffffffffffffffffffffffff\n      and\n      dup2\n      mstore\n      0x20\n      add\n      swap1\n      dup2\n      mstore\n      0x20\n      add\n      0x00\n      keccak256\n      sload\n        /* \"Bank_Contract.sol\":630:658  Balance[msg.sender] + amount */\n      tag_33\n      swap2\n      swap1\n      tag_34\n      jump\t// in\n    tag_33:\n        /* \"Bank_Contract.sol\":608:615  Balance */\n      0x01\n        /* \"Bank_Contract.sol\":608:627  Balance[msg.sender] */\n      0x00\n        /* \"Bank_Contract.sol\":616:626  msg.sender */\n      caller\n        /* \"Bank_Contract.sol\":608:627  Balance[msg.sender] */\n      0xffffffffffffffffffffffffffffffffffffffff\n      and\n      0xffffffffffffffffffffffffffffffffffffffff\n      and\n      dup2\n      mstore\n      0x20\n      add\n      swap1\n      dup2\n      mstore\n      0x20\n      add\n      0x00\n      keccak256\n        /* \"Bank_Contract.sol\":608:658  Balance[msg.sender] = Balance[msg.sender] + amount */\n      dup2\n      swap1\n      sstore\n      pop\n        /* \"Bank_Contract.sol\":678:685  Balance */\n      0x01\n        /* \"Bank_Contract.sol\":678:697  Balance[msg.sender] */\n      0x00\n        /* \"Bank_Contract.sol\":686:696  msg.sender */\n      caller\n        /* \"Bank_Contract.sol\":678:697  Balance[msg.sender] */\n      0xffffffffffffffffffffffffffffffffffffffff\n      and\n      0xffffffffffffffffffffffffffffffffffffffff\n      and\n      dup2\n      mstore\n      0x20\n      add\n      swap1\n      dup2\n      mstore\n      0x20\n      add\n      0x00\n      keccak256\n      sload\n        /* \"Bank_Contract.sol\":671:697  return Balance[msg.sender] */\n      swap1\n      pop\n        /* \"Bank_Contract.sol\":402:705  function addBalance(uint amount) public returns(uint)\r... */\n      swap2\n      swap1\n      pop\n      jump\t// out\n        /* \"Bank_Contract.sol\":1342:1515  function _transfer(address From, address To, uint Amount) private\r... */\n    tag_28:\n        /* \"Bank_Contract.sol\":1456:1462  Amount */\n      dup1\n        /* \"Bank_Contract.sol\":1440:1447  Balance */\n      0x01\n        /* \"Bank_Contract.sol\":1440:1453  Balance[From] */\n      0x00\n        /* \"Bank_Contract.sol\":1448:1452  From */\n      dup6\n        /* \"Bank_Contract.sol\":1440:1453  Balance[From] */\n      0xffffffffffffffffffffffffffffffffffffffff\n      and\n      0xffffffffffffffffffffffffffffffffffffffff\n      and\n      dup2\n      mstore\n      0x20\n      add\n      swap1\n      dup2\n      mstore\n      0x20\n      add\n      0x00\n      keccak256\n      sload\n        /* \"Bank_Contract.sol\":1440:1462  Balance[From] - Amount */\n      tag_36\n      swap2\n      swap1\n      tag_37\n      jump\t// in\n    tag_36:\n        /* \"Bank_Contract.sol\":1424:1431  Balance */\n      0x01\n        /* \"Bank_Contract.sol\":1424:1437  Balance[From] */\n      0x00\n        /* \"Bank_Contract.sol\":1432:1436  From */\n      dup6\n        /* \"Bank_Contract.sol\":1424:1437  Balance[From] */\n      0xffffffffffffffffffffffffffffffffffffffff\n      and\n      0xffffffffffffffffffffffffffffffffffffffff\n      and\n      dup2\n      mstore\n      0x20\n      add\n      swap1\n      dup2\n      mstore\n      0x20\n      add\n      0x00\n      keccak256\n        /* \"Bank_Contract.sol\":1424:1462  Balance[From] = Balance[From] - Amount */\n      dup2\n      swap1\n      sstore\n      pop\n        /* \"Bank_Contract.sol\":1501:1507  Amount */\n      dup1\n        /* \"Bank_Contract.sol\":1487:1494  Balance */\n      0x01\n        /* \"Bank_Contract.sol\":1487:1498  Balance[To] */\n      0x00\n        /* \"Bank_Contract.sol\":1495:1497  To */\n      dup5\n        /* \"Bank_Contract.sol\":1487:1498  Balance[To] */\n      0xffffffffffffffffffffffffffffffffffffffff\n      and\n      0xffffffffffffffffffffffffffffffffffffffff\n      and\n      dup2\n      mstore\n      0x20\n      add\n      swap1\n      dup2\n      mstore\n      0x20\n      add\n      0x00\n      keccak256\n      sload\n        /* \"Bank_Contract.sol\":1487:1507  Balance[To] + Amount */\n      tag_38\n      swap2\n      swap1\n      tag_34\n      jump\t// in\n    tag_38:\n        /* \"Bank_Contract.sol\":1473:1480  Balance */\n      0x01\n        /* \"Bank_Contract.sol\":1473:1484  Balance[To] */\n      0x00\n        /* \"Bank_Contract.sol\":1481:1483  To */\n      dup5\n        /* \"Bank_Contract.sol\":1473:1484  Balance[To] */\n      0xffffffffffffffffffffffffffffffffffffffff\n      and\n      0xffffffffffffffffffffffffffffffffffffffff\n      and\n      dup2\n      mstore\n      0x20\n      add\n      swap1\n      dup2\n      mstore\n      0x20\n      add\n      0x00\n      keccak256\n        /* \"Bank_Contract.sol\":1473:1507  Balance[To] = Balance[To] + Amount */\n      dup2\n      swap1\n      sstore\n      pop\n        /* \"Bank_Contract.sol\":1342:1515  function _transfer(address From, address To, uint Amount) private\r... */\n      pop\n      pop\n      pop\n      jump\t// out\n        /* \"#utility.yul\":7:146   */\n    tag_40:\n        /* \"#utility.yul\":53:58   */\n      0x00\n        /* \"#utility.yul\":91:97   */\n      dup2\n        /* \"#utility.yul\":78:98   */\n      calldataload\n        /* \"#utility.yul\":69:98   */\n      swap1\n      pop\n        /* \"#utility.yul\":107:140   */\n      tag_42\n        /* \"#utility.yul\":134:139   */\n      dup2\n        /* \"#utility.yul\":107:140   */\n      tag_43\n      jump\t// in\n    tag_42:\n        /* \"#utility.yul\":7:146   */\n      swap3\n      swap2\n      pop\n      pop\n      jump\t// out\n        /* \"#utility.yul\":152:291   */\n    tag_44:\n        /* \"#utility.yul\":198:203   */\n      0x00\n        /* \"#utility.yul\":236:242   */\n      dup2\n        /* \"#utility.yul\":223:243   */\n      calldataload\n        /* \"#utility.yul\":214:243   */\n      swap1\n      pop\n        /* \"#utility.yul\":252:285   */\n      tag_46\n        /* \"#utility.yul\":279:284   */\n      dup2\n        /* \"#utility.yul\":252:285   */\n      tag_47\n      jump\t// in\n    tag_46:\n        /* \"#utility.yul\":152:291   */\n      swap3\n      swap2\n      pop\n      pop\n      jump\t// out\n        /* \"#utility.yul\":297:771   */\n    tag_12:\n        /* \"#utility.yul\":365:371   */\n      0x00\n        /* \"#utility.yul\":373:379   */\n      dup1\n        /* \"#utility.yul\":422:424   */\n      0x40\n        /* \"#utility.yul\":410:419   */\n      dup4\n        /* \"#utility.yul\":401:408   */\n      dup6\n        /* \"#utility.yul\":397:420   */\n      sub\n        /* \"#utility.yul\":393:425   */\n      slt\n        /* \"#utility.yul\":390:509   */\n      iszero\n      tag_49\n      jumpi\n        /* \"#utility.yul\":428:507   */\n      tag_50\n      tag_51\n      jump\t// in\n    tag_50:\n        /* \"#utility.yul\":390:509   */\n    tag_49:\n        /* \"#utility.yul\":548:549   */\n      0x00\n        /* \"#utility.yul\":573:626   */\n      tag_52\n        /* \"#utility.yul\":618:625   */\n      dup6\n        /* \"#utility.yul\":609:615   */\n      dup3\n        /* \"#utility.yul\":598:607   */\n      dup7\n        /* \"#utility.yul\":594:616   */\n      add\n        /* \"#utility.yul\":573:626   */\n      tag_40\n      jump\t// in\n    tag_52:\n        /* \"#utility.yul\":563:626   */\n      swap3\n      pop\n        /* \"#utility.yul\":519:636   */\n      pop\n        /* \"#utility.yul\":675:677   */\n      0x20\n        /* \"#utility.yul\":701:754   */\n      tag_53\n        /* \"#utility.yul\":746:753   */\n      dup6\n        /* \"#utility.yul\":737:743   */\n      dup3\n        /* \"#utility.yul\":726:735   */\n      dup7\n        /* \"#utility.yul\":722:744   */\n      add\n        /* \"#utility.yul\":701:754   */\n      tag_44\n      jump\t// in\n    tag_53:\n        /* \"#utility.yul\":691:754   */\n      swap2\n      pop\n        /* \"#utility.yul\":646:764   */\n      pop\n        /* \"#utility.yul\":297:771   */\n      swap3\n      pop\n      swap3\n      swap1\n      pop\n      jump\t// out\n        /* \"#utility.yul\":777:1106   */\n    tag_16:\n        /* \"#utility.yul\":836:842   */\n      0x00\n        /* \"#utility.yul\":885:887   */\n      0x20\n        /* \"#utility.yul\":873:882   */\n      dup3\n        /* \"#utility.yul\":864:871   */\n      dup5\n        /* \"#utility.yul\":860:883   */\n      sub\n        /* \"#utility.yul\":856:888   */\n      slt\n        /* \"#utility.yul\":853:972   */\n      iszero\n      tag_55\n      jumpi\n        /* \"#utility.yul\":891:970   */\n      tag_56\n      tag_51\n      jump\t// in\n    tag_56:\n        /* \"#utility.yul\":853:972   */\n    tag_55:\n        /* \"#utility.yul\":1011:1012   */\n      0x00\n        /* \"#utility.yul\":1036:1089   */\n      tag_57\n        /* \"#utility.yul\":1081:1088   */\n      dup5\n        /* \"#utility.yul\":1072:1078   */\n      dup3\n        /* \"#utility.yul\":1061:1070   */\n      dup6\n        /* \"#utility.yul\":1057:1079   */\n      add\n        /* \"#utility.yul\":1036:1089   */\n      tag_44\n      jump\t// in\n    tag_57:\n        /* \"#utility.yul\":1026:1089   */\n      swap2\n      pop\n        /* \"#utility.yul\":982:1099   */\n      pop\n        /* \"#utility.yul\":777:1106   */\n      swap3\n      swap2\n      pop\n      pop\n      jump\t// out\n        /* \"#utility.yul\":1112:1478   */\n    tag_58:\n        /* \"#utility.yul\":1254:1257   */\n      0x00\n        /* \"#utility.yul\":1275:1342   */\n      tag_60\n        /* \"#utility.yul\":1339:1341   */\n      0x1f\n        /* \"#utility.yul\":1334:1337   */\n      dup4\n        /* \"#utility.yul\":1275:1342   */\n      tag_61\n      jump\t// in\n    tag_60:\n        /* \"#utility.yul\":1268:1342   */\n      swap2\n      pop\n        /* \"#utility.yul\":1351:1444   */\n      tag_62\n        /* \"#utility.yul\":1440:1443   */\n      dup3\n        /* \"#utility.yul\":1351:1444   */\n      tag_63\n      jump\t// in\n    tag_62:\n        /* \"#utility.yul\":1469:1471   */\n      0x20\n        /* \"#utility.yul\":1464:1467   */\n      dup3\n        /* \"#utility.yul\":1460:1472   */\n      add\n        /* \"#utility.yul\":1453:1472   */\n      swap1\n      pop\n        /* \"#utility.yul\":1112:1478   */\n      swap2\n      swap1\n      pop\n      jump\t// out\n        /* \"#utility.yul\":1484:1850   */\n    tag_64:\n        /* \"#utility.yul\":1626:1629   */\n      0x00\n        /* \"#utility.yul\":1647:1714   */\n      tag_66\n        /* \"#utility.yul\":1711:1713   */\n      0x1a\n        /* \"#utility.yul\":1706:1709   */\n      dup4\n        /* \"#utility.yul\":1647:1714   */\n      tag_61\n      jump\t// in\n    tag_66:\n        /* \"#utility.yul\":1640:1714   */\n      swap2\n      pop\n        /* \"#utility.yul\":1723:1816   */\n      tag_67\n        /* \"#utility.yul\":1812:1815   */\n      dup3\n        /* \"#utility.yul\":1723:1816   */\n      tag_68\n      jump\t// in\n    tag_67:\n        /* \"#utility.yul\":1841:1843   */\n      0x20\n        /* \"#utility.yul\":1836:1839   */\n      dup3\n        /* \"#utility.yul\":1832:1844   */\n      add\n        /* \"#utility.yul\":1825:1844   */\n      swap1\n      pop\n        /* \"#utility.yul\":1484:1850   */\n      swap2\n      swap1\n      pop\n      jump\t// out\n        /* \"#utility.yul\":1856:2222   */\n    tag_69:\n        /* \"#utility.yul\":1998:2001   */\n      0x00\n        /* \"#utility.yul\":2019:2086   */\n      tag_71\n        /* \"#utility.yul\":2083:2085   */\n      0x2e\n        /* \"#utility.yul\":2078:2081   */\n      dup4\n        /* \"#utility.yul\":2019:2086   */\n      tag_61\n      jump\t// in\n    tag_71:\n        /* \"#utility.yul\":2012:2086   */\n      swap2\n      pop\n        /* \"#utility.yul\":2095:2188   */\n      tag_72\n        /* \"#utility.yul\":2184:2187   */\n      dup3\n        /* \"#utility.yul\":2095:2188   */\n      tag_73\n      jump\t// in\n    tag_72:\n        /* \"#utility.yul\":2213:2215   */\n      0x40\n        /* \"#utility.yul\":2208:2211   */\n      dup3\n        /* \"#utility.yul\":2204:2216   */\n      add\n        /* \"#utility.yul\":2197:2216   */\n      swap1\n      pop\n        /* \"#utility.yul\":1856:2222   */\n      swap2\n      swap1\n      pop\n      jump\t// out\n        /* \"#utility.yul\":2228:2346   */\n    tag_74:\n        /* \"#utility.yul\":2315:2339   */\n      tag_76\n        /* \"#utility.yul\":2333:2338   */\n      dup2\n        /* \"#utility.yul\":2315:2339   */\n      tag_77\n      jump\t// in\n    tag_76:\n        /* \"#utility.yul\":2310:2313   */\n      dup3\n        /* \"#utility.yul\":2303:2340   */\n      mstore\n        /* \"#utility.yul\":2228:2346   */\n      pop\n      pop\n      jump\t// out\n        /* \"#utility.yul\":2352:2771   */\n    tag_23:\n        /* \"#utility.yul\":2518:2522   */\n      0x00\n        /* \"#utility.yul\":2556:2558   */\n      0x20\n        /* \"#utility.yul\":2545:2554   */\n      dup3\n        /* \"#utility.yul\":2541:2559   */\n      add\n        /* \"#utility.yul\":2533:2559   */\n      swap1\n      pop\n        /* \"#utility.yul\":2605:2614   */\n      dup2\n        /* \"#utility.yul\":2599:2603   */\n      dup2\n        /* \"#utility.yul\":2595:2615   */\n      sub\n        /* \"#utility.yul\":2591:2592   */\n      0x00\n        /* \"#utility.yul\":2580:2589   */\n      dup4\n        /* \"#utility.yul\":2576:2593   */\n      add\n        /* \"#utility.yul\":2569:2616   */\n      mstore\n        /* \"#utility.yul\":2633:2764   */\n      tag_79\n        /* \"#utility.yul\":2759:2763   */\n      dup2\n        /* \"#utility.yul\":2633:2764   */\n      tag_58\n      jump\t// in\n    tag_79:\n        /* \"#utility.yul\":2625:2764   */\n      swap1\n      pop\n        /* \"#utility.yul\":2352:2771   */\n      swap2\n      swap1\n      pop\n      jump\t// out\n        /* \"#utility.yul\":2777:3196   */\n    tag_32:\n        /* \"#utility.yul\":2943:2947   */\n      0x00\n        /* \"#utility.yul\":2981:2983   */\n      0x20\n        /* \"#utility.yul\":2970:2979   */\n      dup3\n        /* \"#utility.yul\":2966:2984   */\n      add\n        /* \"#utility.yul\":2958:2984   */\n      swap1\n      pop\n        /* \"#utility.yul\":3030:3039   */\n      dup2\n        /* \"#utility.yul\":3024:3028   */\n      dup2\n        /* \"#utility.yul\":3020:3040   */\n      sub\n        /* \"#utility.yul\":3016:3017   */\n      0x00\n        /* \"#utility.yul\":3005:3014   */\n      dup4\n        /* \"#utility.yul\":3001:3018   */\n      add\n        /* \"#utility.yul\":2994:3041   */\n      mstore\n        /* \"#utility.yul\":3058:3189   */\n      tag_81\n        /* \"#utility.yul\":3184:3188   */\n      dup2\n        /* \"#utility.yul\":3058:3189   */\n      tag_64\n      jump\t// in\n    tag_81:\n        /* \"#utility.yul\":3050:3189   */\n      swap1\n      pop\n        /* \"#utility.yul\":2777:3196   */\n      swap2\n      swap1\n      pop\n      jump\t// out\n        /* \"#utility.yul\":3202:3621   */\n    tag_26:\n        /* \"#utility.yul\":3368:3372   */\n      0x00\n        /* \"#utility.yul\":3406:3408   */\n      0x20\n        /* \"#utility.yul\":3395:3404   */\n      dup3\n        /* \"#utility.yul\":3391:3409   */\n      add\n        /* \"#utility.yul\":3383:3409   */\n      swap1\n      pop\n        /* \"#utility.yul\":3455:3464   */\n      dup2\n        /* \"#utility.yul\":3449:3453   */\n      dup2\n        /* \"#utility.yul\":3445:3465   */\n      sub\n        /* \"#utility.yul\":3441:3442   */\n      0x00\n        /* \"#utility.yul\":3430:3439   */\n      dup4\n        /* \"#utility.yul\":3426:3443   */\n      add\n        /* \"#utility.yul\":3419:3466   */\n      mstore\n        /* \"#utility.yul\":3483:3614   */\n      tag_83\n        /* \"#utility.yul\":3609:3613   */\n      dup2\n        /* \"#utility.yul\":3483:3614   */\n      tag_69\n      jump\t// in\n    tag_83:\n        /* \"#utility.yul\":3475:3614   */\n      swap1\n      pop\n        /* \"#utility.yul\":3202:3621   */\n      swap2\n      swap1\n      pop\n      jump\t// out\n        /* \"#utility.yul\":3627:3849   */\n    tag_9:\n        /* \"#utility.yul\":3720:3724   */\n      0x00\n        /* \"#utility.yul\":3758:3760   */\n      0x20\n        /* \"#utility.yul\":3747:3756   */\n      dup3\n        /* \"#utility.yul\":3743:3761   */\n      add\n        /* \"#utility.yul\":3735:3761   */\n      swap1\n      pop\n        /* \"#utility.yul\":3771:3842   */\n      tag_85\n        /* \"#utility.yul\":3839:3840   */\n      0x00\n        /* \"#utility.yul\":3828:3837   */\n      dup4\n        /* \"#utility.yul\":3824:3841   */\n      add\n        /* \"#utility.yul\":3815:3821   */\n      dup5\n        /* \"#utility.yul\":3771:3842   */\n      tag_74\n      jump\t// in\n    tag_85:\n        /* \"#utility.yul\":3627:3849   */\n      swap3\n      swap2\n      pop\n      pop\n      jump\t// out\n        /* \"#utility.yul\":3936:4105   */\n    tag_61:\n        /* \"#utility.yul\":4020:4031   */\n      0x00\n        /* \"#utility.yul\":4054:4060   */\n      dup3\n        /* \"#utility.yul\":4049:4052   */\n      dup3\n        /* \"#utility.yul\":4042:4061   */\n      mstore\n        /* \"#utility.yul\":4094:4098   */\n      0x20\n        /* \"#utility.yul\":4089:4092   */\n      dup3\n        /* \"#utility.yul\":4085:4099   */\n      add\n        /* \"#utility.yul\":4070:4099   */\n      swap1\n      pop\n        /* \"#utility.yul\":3936:4105   */\n      swap3\n      swap2\n      pop\n      pop\n      jump\t// out\n        /* \"#utility.yul\":4111:4416   */\n    tag_34:\n        /* \"#utility.yul\":4151:4154   */\n      0x00\n        /* \"#utility.yul\":4170:4190   */\n      tag_90\n        /* \"#utility.yul\":4188:4189   */\n      dup3\n        /* \"#utility.yul\":4170:4190   */\n      tag_77\n      jump\t// in\n    tag_90:\n        /* \"#utility.yul\":4165:4190   */\n      swap2\n      pop\n        /* \"#utility.yul\":4204:4224   */\n      tag_91\n        /* \"#utility.yul\":4222:4223   */\n      dup4\n        /* \"#utility.yul\":4204:4224   */\n      tag_77\n      jump\t// in\n    tag_91:\n        /* \"#utility.yul\":4199:4224   */\n      swap3\n      pop\n        /* \"#utility.yul\":4358:4359   */\n      dup3\n        /* \"#utility.yul\":4290:4356   */\n      0xffffffffffffffffffffffffffffffffffffffffffffffffffffffffffffffff\n        /* \"#utility.yul\":4286:4360   */\n      sub\n        /* \"#utility.yul\":4283:4284   */\n      dup3\n        /* \"#utility.yul\":4280:4361   */\n      gt\n        /* \"#utility.yul\":4277:4384   */\n      iszero\n      tag_92\n      jumpi\n        /* \"#utility.yul\":4364:4382   */\n      tag_93\n      tag_94\n      jump\t// in\n    tag_93:\n        /* \"#utility.yul\":4277:4384   */\n    tag_92:\n        /* \"#utility.yul\":4408:4409   */\n      dup3\n        /* \"#utility.yul\":4405:4406   */\n      dup3\n        /* \"#utility.yul\":4401:4410   */\n      add\n        /* \"#utility.yul\":4394:4410   */\n      swap1\n      pop\n        /* \"#utility.yul\":4111:4416   */\n      swap3\n      swap2\n      pop\n      pop\n      jump\t// out\n        /* \"#utility.yul\":4422:4613   */\n    tag_37:\n        /* \"#utility.yul\":4462:4466   */\n      0x00\n        /* \"#utility.yul\":4482:4502   */\n      tag_96\n        /* \"#utility.yul\":4500:4501   */\n      dup3\n        /* \"#utility.yul\":4482:4502   */\n      tag_77\n      jump\t// in\n    tag_96:\n        /* \"#utility.yul\":4477:4502   */\n      swap2\n      pop\n        /* \"#utility.yul\":4516:4536   */\n      tag_97\n        /* \"#utility.yul\":4534:4535   */\n      dup4\n        /* \"#utility.yul\":4516:4536   */\n      tag_77\n      jump\t// in\n    tag_97:\n        /* \"#utility.yul\":4511:4536   */\n      swap3\n      pop\n        /* \"#utility.yul\":4555:4556   */\n      dup3\n        /* \"#utility.yul\":4552:4553   */\n      dup3\n        /* \"#utility.yul\":4549:4557   */\n      lt\n        /* \"#utility.yul\":4546:4580   */\n      iszero\n      tag_98\n      jumpi\n        /* \"#utility.yul\":4560:4578   */\n      tag_99\n      tag_94\n      jump\t// in\n    tag_99:\n        /* \"#utility.yul\":4546:4580   */\n    tag_98:\n        /* \"#utility.yul\":4605:4606   */\n      dup3\n        /* \"#utility.yul\":4602:4603   */\n      dup3\n        /* \"#utility.yul\":4598:4607   */\n      sub\n        /* \"#utility.yul\":4590:4607   */\n      swap1\n      pop\n        /* \"#utility.yul\":4422:4613   */\n      swap3\n      swap2\n      pop\n      pop\n      jump\t// out\n        /* \"#utility.yul\":4619:4715   */\n    tag_100:\n        /* \"#utility.yul\":4656:4663   */\n      0x00\n        /* \"#utility.yul\":4685:4709   */\n      tag_102\n        /* \"#utility.yul\":4703:4708   */\n      dup3\n        /* \"#utility.yul\":4685:4709   */\n      tag_103\n      jump\t// in\n    tag_102:\n        /* \"#utility.yul\":4674:4709   */\n      swap1\n      pop\n        /* \"#utility.yul\":4619:4715   */\n      swap2\n      swap1\n      pop\n      jump\t// out\n        /* \"#utility.yul\":4721:4847   */\n    tag_103:\n        /* \"#utility.yul\":4758:4765   */\n      0x00\n        /* \"#utility.yul\":4798:4840   */\n      0xffffffffffffffffffffffffffffffffffffffff\n        /* \"#utility.yul\":4791:4796   */\n      dup3\n        /* \"#utility.yul\":4787:4841   */\n      and\n        /* \"#utility.yul\":4776:4841   */\n      swap1\n      pop\n        /* \"#utility.yul\":4721:4847   */\n      swap2\n      swap1\n      pop\n      jump\t// out\n        /* \"#utility.yul\":4853:4930   */\n    tag_77:\n        /* \"#utility.yul\":4890:4897   */\n      0x00\n        /* \"#utility.yul\":4919:4924   */\n      dup2\n        /* \"#utility.yul\":4908:4924   */\n      swap1\n      pop\n        /* \"#utility.yul\":4853:4930   */\n      swap2\n      swap1\n      pop\n      jump\t// out\n        /* \"#utility.yul\":4936:5116   */\n    tag_94:\n        /* \"#utility.yul\":4984:5061   */\n      0x4e487b7100000000000000000000000000000000000000000000000000000000\n        /* \"#utility.yul\":4981:4982   */\n      0x00\n        /* \"#utility.yul\":4974:5062   */\n      mstore\n        /* \"#utility.yul\":5081:5085   */\n      0x11\n        /* \"#utility.yul\":5078:5079   */\n      0x04\n        /* \"#utility.yul\":5071:5086   */\n      mstore\n        /* \"#utility.yul\":5105:5109   */\n      0x24\n        /* \"#utility.yul\":5102:5103   */\n      0x00\n        /* \"#utility.yul\":5095:5110   */\n      revert\n        /* \"#utility.yul\":5245:5362   */\n    tag_51:\n        /* \"#utility.yul\":5354:5355   */\n      0x00\n        /* \"#utility.yul\":5351:5352   */\n      dup1\n        /* \"#utility.yul\":5344:5356   */\n      revert\n        /* \"#utility.yul\":5368:5549   */\n    tag_63:\n        /* \"#utility.yul\":5508:5541   */\n      0x43616e2774205472616e736665722021212053656c66204163636f756e742e00\n        /* \"#utility.yul\":5504:5505   */\n      0x00\n        /* \"#utility.yul\":5496:5502   */\n      dup3\n        /* \"#utility.yul\":5492:5506   */\n      add\n        /* \"#utility.yul\":5485:5542   */\n      mstore\n        /* \"#utility.yul\":5368:5549   */\n      pop\n      jump\t// out\n        /* \"#utility.yul\":5555:5731   */\n    tag_68:\n        /* \"#utility.yul\":5695:5723   */\n      0x596573206974206973204f776e6572204163636f756e74202121000000000000\n        /* \"#utility.yul\":5691:5692   */\n      0x00\n        /* \"#utility.yul\":5683:5689   */\n      dup3\n        /* \"#utility.yul\":5679:5693   */\n      add\n        /* \"#utility.yul\":5672:5724   */\n      mstore\n        /* \"#utility.yul\":5555:5731   */\n      pop\n      jump\t// out\n        /* \"#utility.yul\":5737:5970   */\n    tag_73:\n        /* \"#utility.yul\":5877:5911   */\n      0x4e6f2c2057652043616e2774205472616e736665722e20496e73756666696369\n        /* \"#utility.yul\":5873:5874   */\n      0x00\n        /* \"#utility.yul\":5865:5871   */\n      dup3\n        /* \"#utility.yul\":5861:5875   */\n      add\n        /* \"#utility.yul\":5854:5912   */\n      mstore\n        /* \"#utility.yul\":5946:5962   */\n      0x656e742042616c616e6365202121000000000000000000000000000000000000\n        /* \"#utility.yul\":5941:5943   */\n      0x20\n        /* \"#utility.yul\":5933:5939   */\n      dup3\n        /* \"#utility.yul\":5929:5944   */\n      add\n        /* \"#utility.yul\":5922:5963   */\n      mstore\n        /* \"#utility.yul\":5737:5970   */\n      pop\n      jump\t// out\n        /* \"#utility.yul\":5976:6098   */\n    tag_43:\n        /* \"#utility.yul\":6049:6073   */\n      tag_114\n        /* \"#utility.yul\":6067:6072   */\n      dup2\n        /* \"#utility.yul\":6049:6073   */\n      tag_100\n      jump\t// in\n    tag_114:\n        /* \"#utility.yul\":6042:6047   */\n      dup2\n        /* \"#utility.yul\":6039:6074   */\n      eq\n        /* \"#utility.yul\":6029:6092   */\n      tag_115\n      jumpi\n        /* \"#utility.yul\":6088:6089   */\n      0x00\n        /* \"#utility.yul\":6085:6086   */\n      dup1\n        /* \"#utility.yul\":6078:6090   */\n      revert\n        /* \"#utility.yul\":6029:6092   */\n    tag_115:\n        /* \"#utility.yul\":5976:6098   */\n      pop\n      jump\t// out\n        /* \"#utility.yul\":6104:6226   */\n    tag_47:\n        /* \"#utility.yul\":6177:6201   */\n      tag_117\n        /* \"#utility.yul\":6195:6200   */\n      dup2\n        /* \"#utility.yul\":6177:6201   */\n      tag_77\n      jump\t// in\n    tag_117:\n        /* \"#utility.yul\":6170:6175   */\n      dup2\n        /* \"#utility.yul\":6167:6202   */\n      eq\n        /* \"#utility.yul\":6157:6220   */\n      tag_118\n      jumpi\n        /* \"#utility.yul\":6216:6217   */\n      0x00\n        /* \"#utility.yul\":6213:6214   */\n      dup1\n        /* \"#utility.yul\":6206:6218   */\n      revert\n        /* \"#utility.yul\":6157:6220   */\n    tag_118:\n        /* \"#utility.yul\":6104:6226   */\n      pop\n      jump\t// out\n\n    auxdata: 0xa2646970667358221220d598818f973b781fe345475f10b389565d6e189f8c478119f3fd5ac615e9aa2f64736f6c63430008070033\n}\n",
				"bytecode": {
					"linkReferences": {},
					"object": "608060405234801561001057600080fd5b50336000806101000a81548173ffffffffffffffffffffffffffffffffffffffff021916908373ffffffffffffffffffffffffffffffffffffffff160217905550610818806100606000396000f3fe608060405234801561001057600080fd5b50600436106100415760003560e01c806312065fe01461004657806369ca02dd14610064578063d91921ed14610080575b600080fd5b61004e6100b0565b60405161005b91906105ed565b60405180910390f35b61007e600480360381019061007991906104a8565b6100f7565b005b61009a600480360381019061009591906104e8565b6101f7565b6040516100a791906105ed565b60405180910390f35b6000600160003373ffffffffffffffffffffffffffffffffffffffff1673ffffffffffffffffffffffffffffffffffffffff16815260200190815260200160002054905090565b8173ffffffffffffffffffffffffffffffffffffffff163373ffffffffffffffffffffffffffffffffffffffff161415610166576040517f08c379a000000000000000000000000000000000000000000000000000000000815260040161015d9061058d565b60405180910390fd5b80600160003373ffffffffffffffffffffffffffffffffffffffff1673ffffffffffffffffffffffffffffffffffffffff1681526020019081526020016000205410156101e8576040517f08c379a00000000000000000000000000000000000000000000000000000000081526004016101df906105cd565b60405180910390fd5b6101f333838361035d565b5050565b60008060009054906101000a900473ffffffffffffffffffffffffffffffffffffffff1673ffffffffffffffffffffffffffffffffffffffff163373ffffffffffffffffffffffffffffffffffffffff1614610288576040517f08c379a000000000000000000000000000000000000000000000000000000000815260040161027f906105ad565b60405180910390fd5b81600160003373ffffffffffffffffffffffffffffffffffffffff1673ffffffffffffffffffffffffffffffffffffffff168152602001908152602001600020546102d39190610619565b600160003373ffffffffffffffffffffffffffffffffffffffff1673ffffffffffffffffffffffffffffffffffffffff16815260200190815260200160002081905550600160003373ffffffffffffffffffffffffffffffffffffffff1673ffffffffffffffffffffffffffffffffffffffff168152602001908152602001600020549050919050565b80600160008573ffffffffffffffffffffffffffffffffffffffff1673ffffffffffffffffffffffffffffffffffffffff168152602001908152602001600020546103a8919061066f565b600160008573ffffffffffffffffffffffffffffffffffffffff1673ffffffffffffffffffffffffffffffffffffffff1681526020019081526020016000208190555080600160008473ffffffffffffffffffffffffffffffffffffffff1673ffffffffffffffffffffffffffffffffffffffff168152602001908152602001600020546104369190610619565b600160008473ffffffffffffffffffffffffffffffffffffffff1673ffffffffffffffffffffffffffffffffffffffff16815260200190815260200160002081905550505050565b60008135905061048d816107b4565b92915050565b6000813590506104a2816107cb565b92915050565b600080604083850312156104bf576104be61070e565b5b60006104cd8582860161047e565b92505060206104de85828601610493565b9150509250929050565b6000602082840312156104fe576104fd61070e565b5b600061050c84828501610493565b91505092915050565b6000610522601f83610608565b915061052d82610713565b602082019050919050565b6000610545601a83610608565b91506105508261073c565b602082019050919050565b6000610568602e83610608565b915061057382610765565b604082019050919050565b610587816106d5565b82525050565b600060208201905081810360008301526105a681610515565b9050919050565b600060208201905081810360008301526105c681610538565b9050919050565b600060208201905081810360008301526105e68161055b565b9050919050565b6000602082019050610602600083018461057e565b92915050565b600082825260208201905092915050565b6000610624826106d5565b915061062f836106d5565b9250827fffffffffffffffffffffffffffffffffffffffffffffffffffffffffffffffff03821115610664576106636106df565b5b828201905092915050565b600061067a826106d5565b9150610685836106d5565b925082821015610698576106976106df565b5b828203905092915050565b60006106ae826106b5565b9050919050565b600073ffffffffffffffffffffffffffffffffffffffff82169050919050565b6000819050919050565b7f4e487b7100000000000000000000000000000000000000000000000000000000600052601160045260246000fd5b600080fd5b7f43616e2774205472616e736665722021212053656c66204163636f756e742e00600082015250565b7f596573206974206973204f776e6572204163636f756e74202121000000000000600082015250565b7f4e6f2c2057652043616e2774205472616e736665722e20496e7375666669636960008201527f656e742042616c616e6365202121000000000000000000000000000000000000602082015250565b6107bd816106a3565b81146107c857600080fd5b50565b6107d4816106d5565b81146107df57600080fd5b5056fea2646970667358221220d598818f973b781fe345475f10b389565d6e189f8c478119f3fd5ac615e9aa2f64736f6c63430008070033",
					"opcodes": "PUSH1 0x80 PUSH1 0x40 MSTORE CALLVALUE DUP1 ISZERO PUSH2 0x10 JUMPI PUSH1 0x0 DUP1 REVERT JUMPDEST POP CALLER PUSH1 0x0 DUP1 PUSH2 0x100 EXP DUP2 SLOAD DUP2 PUSH20 0xFFFFFFFFFFFFFFFFFFFFFFFFFFFFFFFFFFFFFFFF MUL NOT AND SWAP1 DUP4 PUSH20 0xFFFFFFFFFFFFFFFFFFFFFFFFFFFFFFFFFFFFFFFF AND MUL OR SWAP1 SSTORE POP PUSH2 0x818 DUP1 PUSH2 0x60 PUSH1 0x0 CODECOPY PUSH1 0x0 RETURN INVALID PUSH1 0x80 PUSH1 0x40 MSTORE CALLVALUE DUP1 ISZERO PUSH2 0x10 JUMPI PUSH1 0x0 DUP1 REVERT JUMPDEST POP PUSH1 0x4 CALLDATASIZE LT PUSH2 0x41 JUMPI PUSH1 0x0 CALLDATALOAD PUSH1 0xE0 SHR DUP1 PUSH4 0x12065FE0 EQ PUSH2 0x46 JUMPI DUP1 PUSH4 0x69CA02DD EQ PUSH2 0x64 JUMPI DUP1 PUSH4 0xD91921ED EQ PUSH2 0x80 JUMPI JUMPDEST PUSH1 0x0 DUP1 REVERT JUMPDEST PUSH2 0x4E PUSH2 0xB0 JUMP JUMPDEST PUSH1 0x40 MLOAD PUSH2 0x5B SWAP2 SWAP1 PUSH2 0x5ED JUMP JUMPDEST PUSH1 0x40 MLOAD DUP1 SWAP2 SUB SWAP1 RETURN JUMPDEST PUSH2 0x7E PUSH1 0x4 DUP1 CALLDATASIZE SUB DUP2 ADD SWAP1 PUSH2 0x79 SWAP2 SWAP1 PUSH2 0x4A8 JUMP JUMPDEST PUSH2 0xF7 JUMP JUMPDEST STOP JUMPDEST PUSH2 0x9A PUSH1 0x4 DUP1 CALLDATASIZE SUB DUP2 ADD SWAP1 PUSH2 0x95 SWAP2 SWAP1 PUSH2 0x4E8 JUMP JUMPDEST PUSH2 0x1F7 JUMP JUMPDEST PUSH1 0x40 MLOAD PUSH2 0xA7 SWAP2 SWAP1 PUSH2 0x5ED JUMP JUMPDEST PUSH1 0x40 MLOAD DUP1 SWAP2 SUB SWAP1 RETURN JUMPDEST PUSH1 0x0 PUSH1 0x1 PUSH1 0x0 CALLER PUSH20 0xFFFFFFFFFFFFFFFFFFFFFFFFFFFFFFFFFFFFFFFF AND PUSH20 0xFFFFFFFFFFFFFFFFFFFFFFFFFFFFFFFFFFFFFFFF AND DUP2 MSTORE PUSH1 0x20 ADD SWAP1 DUP2 MSTORE PUSH1 0x20 ADD PUSH1 0x0 KECCAK256 SLOAD SWAP1 POP SWAP1 JUMP JUMPDEST DUP2 PUSH20 0xFFFFFFFFFFFFFFFFFFFFFFFFFFFFFFFFFFFFFFFF AND CALLER PUSH20 0xFFFFFFFFFFFFFFFFFFFFFFFFFFFFFFFFFFFFFFFF AND EQ ISZERO PUSH2 0x166 JUMPI PUSH1 0x40 MLOAD PUSH32 0x8C379A000000000000000000000000000000000000000000000000000000000 DUP2 MSTORE PUSH1 0x4 ADD PUSH2 0x15D SWAP1 PUSH2 0x58D JUMP JUMPDEST PUSH1 0x40 MLOAD DUP1 SWAP2 SUB SWAP1 REVERT JUMPDEST DUP1 PUSH1 0x1 PUSH1 0x0 CALLER PUSH20 0xFFFFFFFFFFFFFFFFFFFFFFFFFFFFFFFFFFFFFFFF AND PUSH20 0xFFFFFFFFFFFFFFFFFFFFFFFFFFFFFFFFFFFFFFFF AND DUP2 MSTORE PUSH1 0x20 ADD SWAP1 DUP2 MSTORE PUSH1 0x20 ADD PUSH1 0x0 KECCAK256 SLOAD LT ISZERO PUSH2 0x1E8 JUMPI PUSH1 0x40 MLOAD PUSH32 0x8C379A000000000000000000000000000000000000000000000000000000000 DUP2 MSTORE PUSH1 0x4 ADD PUSH2 0x1DF SWAP1 PUSH2 0x5CD JUMP JUMPDEST PUSH1 0x40 MLOAD DUP1 SWAP2 SUB SWAP1 REVERT JUMPDEST PUSH2 0x1F3 CALLER DUP4 DUP4 PUSH2 0x35D JUMP JUMPDEST POP POP JUMP JUMPDEST PUSH1 0x0 DUP1 PUSH1 0x0 SWAP1 SLOAD SWAP1 PUSH2 0x100 EXP SWAP1 DIV PUSH20 0xFFFFFFFFFFFFFFFFFFFFFFFFFFFFFFFFFFFFFFFF AND PUSH20 0xFFFFFFFFFFFFFFFFFFFFFFFFFFFFFFFFFFFFFFFF AND CALLER PUSH20 0xFFFFFFFFFFFFFFFFFFFFFFFFFFFFFFFFFFFFFFFF AND EQ PUSH2 0x288 JUMPI PUSH1 0x40 MLOAD PUSH32 0x8C379A000000000000000000000000000000000000000000000000000000000 DUP2 MSTORE PUSH1 0x4 ADD PUSH2 0x27F SWAP1 PUSH2 0x5AD JUMP JUMPDEST PUSH1 0x40 MLOAD DUP1 SWAP2 SUB SWAP1 REVERT JUMPDEST DUP2 PUSH1 0x1 PUSH1 0x0 CALLER PUSH20 0xFFFFFFFFFFFFFFFFFFFFFFFFFFFFFFFFFFFFFFFF AND PUSH20 0xFFFFFFFFFFFFFFFFFFFFFFFFFFFFFFFFFFFFFFFF AND DUP2 MSTORE PUSH1 0x20 ADD SWAP1 DUP2 MSTORE PUSH1 0x20 ADD PUSH1 0x0 KECCAK256 SLOAD PUSH2 0x2D3 SWAP2 SWAP1 PUSH2 0x619 JUMP JUMPDEST PUSH1 0x1 PUSH1 0x0 CALLER PUSH20 0xFFFFFFFFFFFFFFFFFFFFFFFFFFFFFFFFFFFFFFFF AND PUSH20 0xFFFFFFFFFFFFFFFFFFFFFFFFFFFFFFFFFFFFFFFF AND DUP2 MSTORE PUSH1 0x20 ADD SWAP1 DUP2 MSTORE PUSH1 0x20 ADD PUSH1 0x0 KECCAK256 DUP2 SWAP1 SSTORE POP PUSH1 0x1 PUSH1 0x0 CALLER PUSH20 0xFFFFFFFFFFFFFFFFFFFFFFFFFFFFFFFFFFFFFFFF AND PUSH20 0xFFFFFFFFFFFFFFFFFFFFFFFFFFFFFFFFFFFFFFFF AND DUP2 MSTORE PUSH1 0x20 ADD SWAP1 DUP2 MSTORE PUSH1 0x20 ADD PUSH1 0x0 KECCAK256 SLOAD SWAP1 POP SWAP2 SWAP1 POP JUMP JUMPDEST DUP1 PUSH1 0x1 PUSH1 0x0 DUP6 PUSH20 0xFFFFFFFFFFFFFFFFFFFFFFFFFFFFFFFFFFFFFFFF AND PUSH20 0xFFFFFFFFFFFFFFFFFFFFFFFFFFFFFFFFFFFFFFFF AND DUP2 MSTORE PUSH1 0x20 ADD SWAP1 DUP2 MSTORE PUSH1 0x20 ADD PUSH1 0x0 KECCAK256 SLOAD PUSH2 0x3A8 SWAP2 SWAP1 PUSH2 0x66F JUMP JUMPDEST PUSH1 0x1 PUSH1 0x0 DUP6 PUSH20 0xFFFFFFFFFFFFFFFFFFFFFFFFFFFFFFFFFFFFFFFF AND PUSH20 0xFFFFFFFFFFFFFFFFFFFFFFFFFFFFFFFFFFFFFFFF AND DUP2 MSTORE PUSH1 0x20 ADD SWAP1 DUP2 MSTORE PUSH1 0x20 ADD PUSH1 0x0 KECCAK256 DUP2 SWAP1 SSTORE POP DUP1 PUSH1 0x1 PUSH1 0x0 DUP5 PUSH20 0xFFFFFFFFFFFFFFFFFFFFFFFFFFFFFFFFFFFFFFFF AND PUSH20 0xFFFFFFFFFFFFFFFFFFFFFFFFFFFFFFFFFFFFFFFF AND DUP2 MSTORE PUSH1 0x20 ADD SWAP1 DUP2 MSTORE PUSH1 0x20 ADD PUSH1 0x0 KECCAK256 SLOAD PUSH2 0x436 SWAP2 SWAP1 PUSH2 0x619 JUMP JUMPDEST PUSH1 0x1 PUSH1 0x0 DUP5 PUSH20 0xFFFFFFFFFFFFFFFFFFFFFFFFFFFFFFFFFFFFFFFF AND PUSH20 0xFFFFFFFFFFFFFFFFFFFFFFFFFFFFFFFFFFFFFFFF AND DUP2 MSTORE PUSH1 0x20 ADD SWAP1 DUP2 MSTORE PUSH1 0x20 ADD PUSH1 0x0 KECCAK256 DUP2 SWAP1 SSTORE POP POP POP POP JUMP JUMPDEST PUSH1 0x0 DUP2 CALLDATALOAD SWAP1 POP PUSH2 0x48D DUP2 PUSH2 0x7B4 JUMP JUMPDEST SWAP3 SWAP2 POP POP JUMP JUMPDEST PUSH1 0x0 DUP2 CALLDATALOAD SWAP1 POP PUSH2 0x4A2 DUP2 PUSH2 0x7CB JUMP JUMPDEST SWAP3 SWAP2 POP POP JUMP JUMPDEST PUSH1 0x0 DUP1 PUSH1 0x40 DUP4 DUP6 SUB SLT ISZERO PUSH2 0x4BF JUMPI PUSH2 0x4BE PUSH2 0x70E JUMP JUMPDEST JUMPDEST PUSH1 0x0 PUSH2 0x4CD DUP6 DUP3 DUP7 ADD PUSH2 0x47E JUMP JUMPDEST SWAP3 POP POP PUSH1 0x20 PUSH2 0x4DE DUP6 DUP3 DUP7 ADD PUSH2 0x493 JUMP JUMPDEST SWAP2 POP POP SWAP3 POP SWAP3 SWAP1 POP JUMP JUMPDEST PUSH1 0x0 PUSH1 0x20 DUP3 DUP5 SUB SLT ISZERO PUSH2 0x4FE JUMPI PUSH2 0x4FD PUSH2 0x70E JUMP JUMPDEST JUMPDEST PUSH1 0x0 PUSH2 0x50C DUP5 DUP3 DUP6 ADD PUSH2 0x493 JUMP JUMPDEST SWAP2 POP POP SWAP3 SWAP2 POP POP JUMP JUMPDEST PUSH1 0x0 PUSH2 0x522 PUSH1 0x1F DUP4 PUSH2 0x608 JUMP JUMPDEST SWAP2 POP PUSH2 0x52D DUP3 PUSH2 0x713 JUMP JUMPDEST PUSH1 0x20 DUP3 ADD SWAP1 POP SWAP2 SWAP1 POP JUMP JUMPDEST PUSH1 0x0 PUSH2 0x545 PUSH1 0x1A DUP4 PUSH2 0x608 JUMP JUMPDEST SWAP2 POP PUSH2 0x550 DUP3 PUSH2 0x73C JUMP JUMPDEST PUSH1 0x20 DUP3 ADD SWAP1 POP SWAP2 SWAP1 POP JUMP JUMPDEST PUSH1 0x0 PUSH2 0x568 PUSH1 0x2E DUP4 PUSH2 0x608 JUMP JUMPDEST SWAP2 POP PUSH2 0x573 DUP3 PUSH2 0x765 JUMP JUMPDEST PUSH1 0x40 DUP3 ADD SWAP1 POP SWAP2 SWAP1 POP JUMP JUMPDEST PUSH2 0x587 DUP2 PUSH2 0x6D5 JUMP JUMPDEST DUP3 MSTORE POP POP JUMP JUMPDEST PUSH1 0x0 PUSH1 0x20 DUP3 ADD SWAP1 POP DUP2 DUP2 SUB PUSH1 0x0 DUP4 ADD MSTORE PUSH2 0x5A6 DUP2 PUSH2 0x515 JUMP JUMPDEST SWAP1 POP SWAP2 SWAP1 POP JUMP JUMPDEST PUSH1 0x0 PUSH1 0x20 DUP3 ADD SWAP1 POP DUP2 DUP2 SUB PUSH1 0x0 DUP4 ADD MSTORE PUSH2 0x5C6 DUP2 PUSH2 0x538 JUMP JUMPDEST SWAP1 POP SWAP2 SWAP1 POP JUMP JUMPDEST PUSH1 0x0 PUSH1 0x20 DUP3 ADD SWAP1 POP DUP2 DUP2 SUB PUSH1 0x0 DUP4 ADD MSTORE PUSH2 0x5E6 DUP2 PUSH2 0x55B JUMP JUMPDEST SWAP1 POP SWAP2 SWAP1 POP JUMP JUMPDEST PUSH1 0x0 PUSH1 0x20 DUP3 ADD SWAP1 POP PUSH2 0x602 PUSH1 0x0 DUP4 ADD DUP5 PUSH2 0x57E JUMP JUMPDEST SWAP3 SWAP2 POP POP JUMP JUMPDEST PUSH1 0x0 DUP3 DUP3 MSTORE PUSH1 0x20 DUP3 ADD SWAP1 POP SWAP3 SWAP2 POP POP JUMP JUMPDEST PUSH1 0x0 PUSH2 0x624 DUP3 PUSH2 0x6D5 JUMP JUMPDEST SWAP2 POP PUSH2 0x62F DUP4 PUSH2 0x6D5 JUMP JUMPDEST SWAP3 POP DUP3 PUSH32 0xFFFFFFFFFFFFFFFFFFFFFFFFFFFFFFFFFFFFFFFFFFFFFFFFFFFFFFFFFFFFFFFF SUB DUP3 GT ISZERO PUSH2 0x664 JUMPI PUSH2 0x663 PUSH2 0x6DF JUMP JUMPDEST JUMPDEST DUP3 DUP3 ADD SWAP1 POP SWAP3 SWAP2 POP POP JUMP JUMPDEST PUSH1 0x0 PUSH2 0x67A DUP3 PUSH2 0x6D5 JUMP JUMPDEST SWAP2 POP PUSH2 0x685 DUP4 PUSH2 0x6D5 JUMP JUMPDEST SWAP3 POP DUP3 DUP3 LT ISZERO PUSH2 0x698 JUMPI PUSH2 0x697 PUSH2 0x6DF JUMP JUMPDEST JUMPDEST DUP3 DUP3 SUB SWAP1 POP SWAP3 SWAP2 POP POP JUMP JUMPDEST PUSH1 0x0 PUSH2 0x6AE DUP3 PUSH2 0x6B5 JUMP JUMPDEST SWAP1 POP SWAP2 SWAP1 POP JUMP JUMPDEST PUSH1 0x0 PUSH20 0xFFFFFFFFFFFFFFFFFFFFFFFFFFFFFFFFFFFFFFFF DUP3 AND SWAP1 POP SWAP2 SWAP1 POP JUMP JUMPDEST PUSH1 0x0 DUP2 SWAP1 POP SWAP2 SWAP1 POP JUMP JUMPDEST PUSH32 0x4E487B7100000000000000000000000000000000000000000000000000000000 PUSH1 0x0 MSTORE PUSH1 0x11 PUSH1 0x4 MSTORE PUSH1 0x24 PUSH1 0x0 REVERT JUMPDEST PUSH1 0x0 DUP1 REVERT JUMPDEST PUSH32 0x43616E2774205472616E736665722021212053656C66204163636F756E742E00 PUSH1 0x0 DUP3 ADD MSTORE POP JUMP JUMPDEST PUSH32 0x596573206974206973204F776E6572204163636F756E74202121000000000000 PUSH1 0x0 DUP3 ADD MSTORE POP JUMP JUMPDEST PUSH32 0x4E6F2C2057652043616E2774205472616E736665722E20496E73756666696369 PUSH1 0x0 DUP3 ADD MSTORE PUSH32 0x656E742042616C616E6365202121000000000000000000000000000000000000 PUSH1 0x20 DUP3 ADD MSTORE POP JUMP JUMPDEST PUSH2 0x7BD DUP2 PUSH2 0x6A3 JUMP JUMPDEST DUP2 EQ PUSH2 0x7C8 JUMPI PUSH1 0x0 DUP1 REVERT JUMPDEST POP JUMP JUMPDEST PUSH2 0x7D4 DUP2 PUSH2 0x6D5 JUMP JUMPDEST DUP2 EQ PUSH2 0x7DF JUMPI PUSH1 0x0 DUP1 REVERT JUMPDEST POP JUMP INVALID LOG2 PUSH5 0x6970667358 0x22 SLT KECCAK256 0xD5 SWAP9 DUP2 DUP16 SWAP8 EXTCODESIZE PUSH25 0x1FE345475F10B389565D6E189F8C478119F3FD5AC615E9AA2F PUSH5 0x736F6C6343 STOP ADDMOD SMOD STOP CALLER "
				},
				"gasEstimates": {
					"creation": {
						"codeDepositCost": "414400",
						"executionCost": "24715",
						"totalCost": "439115"
					},
					"external": {
						"Transfer(address,uint256)": "infinite",
						"addBalance(uint256)": "infinite",
						"getBalance()": "2504"
					},
					"internal": {
						"_transfer(address,address,uint256)": "infinite"
					}
				},
				"methodIdentifiers": {
					"Transfer(address,uint256)": "69ca02dd",
					"addBalance(uint256)": "d91921ed",
					"getBalance()": "12065fe0"
				}
			},
			"storageLayout": {
				"storage": [
					{
						"astId": 3,
						"contract": "Bank_Contract.sol:DBank",
						"label": "Owner",
						"offset": 0,
						"slot": "0",
						"type": "t_address"
					},
					{
						"astId": 7,
						"contract": "Bank_Contract.sol:DBank",
						"label": "Balance",
						"offset": 0,
						"slot": "1",
						"type": "t_mapping(t_address,t_uint256)"
					}
				],
				"types": {
					"t_address": {
						"encoding": "inplace",
						"label": "address",
						"numberOfBytes": "20"
					},
					"t_mapping(t_address,t_uint256)": {
						"encoding": "mapping",
						"key": "t_address",
						"label": "mapping(address => uint256)",
						"numberOfBytes": "32",
						"value": "t_uint256"
					},
					"t_uint256": {
						"encoding": "inplace",
						"label": "uint256",
						"numberOfBytes": "32"
					}
				}
			},
			"userdoc": {
				"kind": "user",
				"methods": {},
				"version": 1
			}
		}
	}
}