{
	"Booleans.sol": {
		"Boolean": {
			"abi": [
				{
					"inputs": [
						{
							"internalType": "uint256",
							"name": "N",
							"type": "uint256"
						}
					],
					"name": "Bool",
					"outputs": [
						{
							"internalType": "uint256",
							"name": "",
							"type": "uint256"
						},
						{
							"internalType": "bool",
							"name": "",
							"type": "bool"
						}
					],
					"stateMutability": "nonpayable",
					"type": "function"
				},
				{
					"inputs": [],
					"name": "Value",
					"outputs": [
						{
							"internalType": "bool",
							"name": "",
							"type": "bool"
						}
					],
					"stateMutability": "view",
					"type": "function"
				}
			],
			"devdoc": {
				"kind": "dev",
				"methods": {},
				"version": 1
			},
			"evm": {
				"assembly": "    /* \"Booleans.sol\":75:419  contract Boolean\r... */\n  mstore(0x40, 0x80)\n    /* \"Booleans.sol\":120:124  true */\n  0x01\n    /* \"Booleans.sol\":100:124  bool public Value = true */\n  0x00\n  dup1\n  0x0100\n  exp\n  dup2\n  sload\n  dup2\n  0xff\n  mul\n  not\n  and\n  swap1\n  dup4\n  iszero\n  iszero\n  mul\n  or\n  swap1\n  sstore\n  pop\n    /* \"Booleans.sol\":75:419  contract Boolean\r... */\n  callvalue\n  dup1\n  iszero\n  tag_1\n  jumpi\n  0x00\n  dup1\n  revert\ntag_1:\n  pop\n  dataSize(sub_0)\n  dup1\n  dataOffset(sub_0)\n  0x00\n  codecopy\n  0x00\n  return\nstop\n\nsub_0: assembly {\n        /* \"Booleans.sol\":75:419  contract Boolean\r... */\n      mstore(0x40, 0x80)\n      callvalue\n      dup1\n      iszero\n      tag_1\n      jumpi\n      0x00\n      dup1\n      revert\n    tag_1:\n      pop\n      jumpi(tag_2, lt(calldatasize, 0x04))\n      shr(0xe0, calldataload(0x00))\n      dup1\n      0x61746e31\n      eq\n      tag_3\n      jumpi\n      dup1\n      0xf1d876b4\n      eq\n      tag_4\n      jumpi\n    tag_2:\n      0x00\n      dup1\n      revert\n        /* \"Booleans.sol\":188:416  function Bool(uint N) public returns(uint, bool)\r... */\n    tag_3:\n      tag_5\n      0x04\n      dup1\n      calldatasize\n      sub\n      dup2\n      add\n      swap1\n      tag_6\n      swap2\n      swap1\n      tag_7\n      jump\t// in\n    tag_6:\n      tag_8\n      jump\t// in\n    tag_5:\n      mload(0x40)\n      tag_9\n      swap3\n      swap2\n      swap1\n      tag_10\n      jump\t// in\n    tag_9:\n      mload(0x40)\n      dup1\n      swap2\n      sub\n      swap1\n      return\n        /* \"Booleans.sol\":100:124  bool public Value = true */\n    tag_4:\n      tag_11\n      tag_12\n      jump\t// in\n    tag_11:\n      mload(0x40)\n      tag_13\n      swap2\n      swap1\n      tag_14\n      jump\t// in\n    tag_13:\n      mload(0x40)\n      dup1\n      swap2\n      sub\n      swap1\n      return\n        /* \"Booleans.sol\":188:416  function Bool(uint N) public returns(uint, bool)\r... */\n    tag_8:\n        /* \"Booleans.sol\":225:229  uint */\n      0x00\n        /* \"Booleans.sol\":231:235  bool */\n      dup1\n        /* \"Booleans.sol\":262:265  100 */\n      0x64\n        /* \"Booleans.sol\":258:259  N */\n      dup4\n        /* \"Booleans.sol\":258:265  N > 100 */\n      gt\n        /* \"Booleans.sol\":255:379  if(N > 100)\r... */\n      iszero\n      tag_16\n      jumpi\n        /* \"Booleans.sol\":299:304  false */\n      0x00\n        /* \"Booleans.sol\":291:296  Value */\n      dup1\n      0x00\n        /* \"Booleans.sol\":291:304  Value = false */\n      0x0100\n      exp\n      dup2\n      sload\n      dup2\n      0xff\n      mul\n      not\n      and\n      swap1\n      dup4\n      iszero\n      iszero\n      mul\n      or\n      swap1\n      sstore\n      pop\n        /* \"Booleans.sol\":255:379  if(N > 100)\r... */\n      jump(tag_17)\n    tag_16:\n        /* \"Booleans.sol\":363:367  true */\n      0x01\n        /* \"Booleans.sol\":355:360  Value */\n      0x00\n      dup1\n        /* \"Booleans.sol\":355:367  Value = true */\n      0x0100\n      exp\n      dup2\n      sload\n      dup2\n      0xff\n      mul\n      not\n      and\n      swap1\n      dup4\n      iszero\n      iszero\n      mul\n      or\n      swap1\n      sstore\n      pop\n        /* \"Booleans.sol\":255:379  if(N > 100)\r... */\n    tag_17:\n        /* \"Booleans.sol\":399:400  N */\n      dup3\n        /* \"Booleans.sol\":402:407  Value */\n      0x00\n      dup1\n      sload\n      swap1\n      0x0100\n      exp\n      swap1\n      div\n      0xff\n      and\n        /* \"Booleans.sol\":391:408  return (N, Value) */\n      swap2\n      pop\n      swap2\n      pop\n        /* \"Booleans.sol\":188:416  function Bool(uint N) public returns(uint, bool)\r... */\n      swap2\n      pop\n      swap2\n      jump\t// out\n        /* \"Booleans.sol\":100:124  bool public Value = true */\n    tag_12:\n      0x00\n      dup1\n      sload\n      swap1\n      0x0100\n      exp\n      swap1\n      div\n      0xff\n      and\n      dup2\n      jump\t// out\n        /* \"#utility.yul\":7:146   */\n    tag_19:\n        /* \"#utility.yul\":53:58   */\n      0x00\n        /* \"#utility.yul\":91:97   */\n      dup2\n        /* \"#utility.yul\":78:98   */\n      calldataload\n        /* \"#utility.yul\":69:98   */\n      swap1\n      pop\n        /* \"#utility.yul\":107:140   */\n      tag_21\n        /* \"#utility.yul\":134:139   */\n      dup2\n        /* \"#utility.yul\":107:140   */\n      tag_22\n      jump\t// in\n    tag_21:\n        /* \"#utility.yul\":7:146   */\n      swap3\n      swap2\n      pop\n      pop\n      jump\t// out\n        /* \"#utility.yul\":152:481   */\n    tag_7:\n        /* \"#utility.yul\":211:217   */\n      0x00\n        /* \"#utility.yul\":260:262   */\n      0x20\n        /* \"#utility.yul\":248:257   */\n      dup3\n        /* \"#utility.yul\":239:246   */\n      dup5\n        /* \"#utility.yul\":235:258   */\n      sub\n        /* \"#utility.yul\":231:263   */\n      slt\n        /* \"#utility.yul\":228:347   */\n      iszero\n      tag_24\n      jumpi\n        /* \"#utility.yul\":266:345   */\n      tag_25\n      tag_26\n      jump\t// in\n    tag_25:\n        /* \"#utility.yul\":228:347   */\n    tag_24:\n        /* \"#utility.yul\":386:387   */\n      0x00\n        /* \"#utility.yul\":411:464   */\n      tag_27\n        /* \"#utility.yul\":456:463   */\n      dup5\n        /* \"#utility.yul\":447:453   */\n      dup3\n        /* \"#utility.yul\":436:445   */\n      dup6\n        /* \"#utility.yul\":432:454   */\n      add\n        /* \"#utility.yul\":411:464   */\n      tag_19\n      jump\t// in\n    tag_27:\n        /* \"#utility.yul\":401:464   */\n      swap2\n      pop\n        /* \"#utility.yul\":357:474   */\n      pop\n        /* \"#utility.yul\":152:481   */\n      swap3\n      swap2\n      pop\n      pop\n      jump\t// out\n        /* \"#utility.yul\":487:596   */\n    tag_28:\n        /* \"#utility.yul\":568:589   */\n      tag_30\n        /* \"#utility.yul\":583:588   */\n      dup2\n        /* \"#utility.yul\":568:589   */\n      tag_31\n      jump\t// in\n    tag_30:\n        /* \"#utility.yul\":563:566   */\n      dup3\n        /* \"#utility.yul\":556:590   */\n      mstore\n        /* \"#utility.yul\":487:596   */\n      pop\n      pop\n      jump\t// out\n        /* \"#utility.yul\":602:720   */\n    tag_32:\n        /* \"#utility.yul\":689:713   */\n      tag_34\n        /* \"#utility.yul\":707:712   */\n      dup2\n        /* \"#utility.yul\":689:713   */\n      tag_35\n      jump\t// in\n    tag_34:\n        /* \"#utility.yul\":684:687   */\n      dup3\n        /* \"#utility.yul\":677:714   */\n      mstore\n        /* \"#utility.yul\":602:720   */\n      pop\n      pop\n      jump\t// out\n        /* \"#utility.yul\":726:936   */\n    tag_14:\n        /* \"#utility.yul\":813:817   */\n      0x00\n        /* \"#utility.yul\":851:853   */\n      0x20\n        /* \"#utility.yul\":840:849   */\n      dup3\n        /* \"#utility.yul\":836:854   */\n      add\n        /* \"#utility.yul\":828:854   */\n      swap1\n      pop\n        /* \"#utility.yul\":864:929   */\n      tag_37\n        /* \"#utility.yul\":926:927   */\n      0x00\n        /* \"#utility.yul\":915:924   */\n      dup4\n        /* \"#utility.yul\":911:928   */\n      add\n        /* \"#utility.yul\":902:908   */\n      dup5\n        /* \"#utility.yul\":864:929   */\n      tag_28\n      jump\t// in\n    tag_37:\n        /* \"#utility.yul\":726:936   */\n      swap3\n      swap2\n      pop\n      pop\n      jump\t// out\n        /* \"#utility.yul\":942:1262   */\n    tag_10:\n        /* \"#utility.yul\":1057:1061   */\n      0x00\n        /* \"#utility.yul\":1095:1097   */\n      0x40\n        /* \"#utility.yul\":1084:1093   */\n      dup3\n        /* \"#utility.yul\":1080:1098   */\n      add\n        /* \"#utility.yul\":1072:1098   */\n      swap1\n      pop\n        /* \"#utility.yul\":1108:1179   */\n      tag_39\n        /* \"#utility.yul\":1176:1177   */\n      0x00\n        /* \"#utility.yul\":1165:1174   */\n      dup4\n        /* \"#utility.yul\":1161:1178   */\n      add\n        /* \"#utility.yul\":1152:1158   */\n      dup6\n        /* \"#utility.yul\":1108:1179   */\n      tag_32\n      jump\t// in\n    tag_39:\n        /* \"#utility.yul\":1189:1255   */\n      tag_40\n        /* \"#utility.yul\":1251:1253   */\n      0x20\n        /* \"#utility.yul\":1240:1249   */\n      dup4\n        /* \"#utility.yul\":1236:1254   */\n      add\n        /* \"#utility.yul\":1227:1233   */\n      dup5\n        /* \"#utility.yul\":1189:1255   */\n      tag_28\n      jump\t// in\n    tag_40:\n        /* \"#utility.yul\":942:1262   */\n      swap4\n      swap3\n      pop\n      pop\n      pop\n      jump\t// out\n        /* \"#utility.yul\":1349:1439   */\n    tag_31:\n        /* \"#utility.yul\":1383:1390   */\n      0x00\n        /* \"#utility.yul\":1426:1431   */\n      dup2\n        /* \"#utility.yul\":1419:1432   */\n      iszero\n        /* \"#utility.yul\":1412:1433   */\n      iszero\n        /* \"#utility.yul\":1401:1433   */\n      swap1\n      pop\n        /* \"#utility.yul\":1349:1439   */\n      swap2\n      swap1\n      pop\n      jump\t// out\n        /* \"#utility.yul\":1445:1522   */\n    tag_35:\n        /* \"#utility.yul\":1482:1489   */\n      0x00\n        /* \"#utility.yul\":1511:1516   */\n      dup2\n        /* \"#utility.yul\":1500:1516   */\n      swap1\n      pop\n        /* \"#utility.yul\":1445:1522   */\n      swap2\n      swap1\n      pop\n      jump\t// out\n        /* \"#utility.yul\":1651:1768   */\n    tag_26:\n        /* \"#utility.yul\":1760:1761   */\n      0x00\n        /* \"#utility.yul\":1757:1758   */\n      dup1\n        /* \"#utility.yul\":1750:1762   */\n      revert\n        /* \"#utility.yul\":1774:1896   */\n    tag_22:\n        /* \"#utility.yul\":1847:1871   */\n      tag_49\n        /* \"#utility.yul\":1865:1870   */\n      dup2\n        /* \"#utility.yul\":1847:1871   */\n      tag_35\n      jump\t// in\n    tag_49:\n        /* \"#utility.yul\":1840:1845   */\n      dup2\n        /* \"#utility.yul\":1837:1872   */\n      eq\n        /* \"#utility.yul\":1827:1890   */\n      tag_50\n      jumpi\n        /* \"#utility.yul\":1886:1887   */\n      0x00\n        /* \"#utility.yul\":1883:1884   */\n      dup1\n        /* \"#utility.yul\":1876:1888   */\n      revert\n        /* \"#utility.yul\":1827:1890   */\n    tag_50:\n        /* \"#utility.yul\":1774:1896   */\n      pop\n      jump\t// out\n\n    auxdata: 0xa2646970667358221220ed6fc4f47dca8ffaa6a7ab2296d5ff3a39e46a4ce910d8c04ce20f3b5b7f3cef64736f6c63430008070033\n}\n",
				"bytecode": {
					"linkReferences": {},
					"object": "608060405260016000806101000a81548160ff02191690831515021790555034801561002a57600080fd5b506102058061003a6000396000f3fe608060405234801561001057600080fd5b50600436106100365760003560e01c806361746e311461003b578063f1d876b41461006c575b600080fd5b6100556004803603810190610050919061010e565b61008a565b604051610063929190610174565b60405180910390f35b6100746100e8565b6040516100819190610159565b60405180910390f35b60008060648311156100b55760008060006101000a81548160ff0219169083151502179055506100d0565b60016000806101000a81548160ff0219169083151502179055505b8260008054906101000a900460ff1691509150915091565b60008054906101000a900460ff1681565b600081359050610108816101b8565b92915050565b600060208284031215610124576101236101b3565b5b6000610132848285016100f9565b91505092915050565b6101448161019d565b82525050565b610153816101a9565b82525050565b600060208201905061016e600083018461013b565b92915050565b6000604082019050610189600083018561014a565b610196602083018461013b565b9392505050565b60008115159050919050565b6000819050919050565b600080fd5b6101c1816101a9565b81146101cc57600080fd5b5056fea2646970667358221220ed6fc4f47dca8ffaa6a7ab2296d5ff3a39e46a4ce910d8c04ce20f3b5b7f3cef64736f6c63430008070033",
					"opcodes": "PUSH1 0x80 PUSH1 0x40 MSTORE PUSH1 0x1 PUSH1 0x0 DUP1 PUSH2 0x100 EXP DUP2 SLOAD DUP2 PUSH1 0xFF MUL NOT AND SWAP1 DUP4 ISZERO ISZERO MUL OR SWAP1 SSTORE POP CALLVALUE DUP1 ISZERO PUSH2 0x2A JUMPI PUSH1 0x0 DUP1 REVERT JUMPDEST POP PUSH2 0x205 DUP1 PUSH2 0x3A PUSH1 0x0 CODECOPY PUSH1 0x0 RETURN INVALID PUSH1 0x80 PUSH1 0x40 MSTORE CALLVALUE DUP1 ISZERO PUSH2 0x10 JUMPI PUSH1 0x0 DUP1 REVERT JUMPDEST POP PUSH1 0x4 CALLDATASIZE LT PUSH2 0x36 JUMPI PUSH1 0x0 CALLDATALOAD PUSH1 0xE0 SHR DUP1 PUSH4 0x61746E31 EQ PUSH2 0x3B JUMPI DUP1 PUSH4 0xF1D876B4 EQ PUSH2 0x6C JUMPI JUMPDEST PUSH1 0x0 DUP1 REVERT JUMPDEST PUSH2 0x55 PUSH1 0x4 DUP1 CALLDATASIZE SUB DUP2 ADD SWAP1 PUSH2 0x50 SWAP2 SWAP1 PUSH2 0x10E JUMP JUMPDEST PUSH2 0x8A JUMP JUMPDEST PUSH1 0x40 MLOAD PUSH2 0x63 SWAP3 SWAP2 SWAP1 PUSH2 0x174 JUMP JUMPDEST PUSH1 0x40 MLOAD DUP1 SWAP2 SUB SWAP1 RETURN JUMPDEST PUSH2 0x74 PUSH2 0xE8 JUMP JUMPDEST PUSH1 0x40 MLOAD PUSH2 0x81 SWAP2 SWAP1 PUSH2 0x159 JUMP JUMPDEST PUSH1 0x40 MLOAD DUP1 SWAP2 SUB SWAP1 RETURN JUMPDEST PUSH1 0x0 DUP1 PUSH1 0x64 DUP4 GT ISZERO PUSH2 0xB5 JUMPI PUSH1 0x0 DUP1 PUSH1 0x0 PUSH2 0x100 EXP DUP2 SLOAD DUP2 PUSH1 0xFF MUL NOT AND SWAP1 DUP4 ISZERO ISZERO MUL OR SWAP1 SSTORE POP PUSH2 0xD0 JUMP JUMPDEST PUSH1 0x1 PUSH1 0x0 DUP1 PUSH2 0x100 EXP DUP2 SLOAD DUP2 PUSH1 0xFF MUL NOT AND SWAP1 DUP4 ISZERO ISZERO MUL OR SWAP1 SSTORE POP JUMPDEST DUP3 PUSH1 0x0 DUP1 SLOAD SWAP1 PUSH2 0x100 EXP SWAP1 DIV PUSH1 0xFF AND SWAP2 POP SWAP2 POP SWAP2 POP SWAP2 JUMP JUMPDEST PUSH1 0x0 DUP1 SLOAD SWAP1 PUSH2 0x100 EXP SWAP1 DIV PUSH1 0xFF AND DUP2 JUMP JUMPDEST PUSH1 0x0 DUP2 CALLDATALOAD SWAP1 POP PUSH2 0x108 DUP2 PUSH2 0x1B8 JUMP JUMPDEST SWAP3 SWAP2 POP POP JUMP JUMPDEST PUSH1 0x0 PUSH1 0x20 DUP3 DUP5 SUB SLT ISZERO PUSH2 0x124 JUMPI PUSH2 0x123 PUSH2 0x1B3 JUMP JUMPDEST JUMPDEST PUSH1 0x0 PUSH2 0x132 DUP5 DUP3 DUP6 ADD PUSH2 0xF9 JUMP JUMPDEST SWAP2 POP POP SWAP3 SWAP2 POP POP JUMP JUMPDEST PUSH2 0x144 DUP2 PUSH2 0x19D JUMP JUMPDEST DUP3 MSTORE POP POP JUMP JUMPDEST PUSH2 0x153 DUP2 PUSH2 0x1A9 JUMP JUMPDEST DUP3 MSTORE POP POP JUMP JUMPDEST PUSH1 0x0 PUSH1 0x20 DUP3 ADD SWAP1 POP PUSH2 0x16E PUSH1 0x0 DUP4 ADD DUP5 PUSH2 0x13B JUMP JUMPDEST SWAP3 SWAP2 POP POP JUMP JUMPDEST PUSH1 0x0 PUSH1 0x40 DUP3 ADD SWAP1 POP PUSH2 0x189 PUSH1 0x0 DUP4 ADD DUP6 PUSH2 0x14A JUMP JUMPDEST PUSH2 0x196 PUSH1 0x20 DUP4 ADD DUP5 PUSH2 0x13B JUMP JUMPDEST SWAP4 SWAP3 POP POP POP JUMP JUMPDEST PUSH1 0x0 DUP2 ISZERO ISZERO SWAP1 POP SWAP2 SWAP1 POP JUMP JUMPDEST PUSH1 0x0 DUP2 SWAP1 POP SWAP2 SWAP1 POP JUMP JUMPDEST PUSH1 0x0 DUP1 REVERT JUMPDEST PUSH2 0x1C1 DUP2 PUSH2 0x1A9 JUMP JUMPDEST DUP2 EQ PUSH2 0x1CC JUMPI PUSH1 0x0 DUP1 REVERT JUMPDEST POP JUMP INVALID LOG2 PUSH5 0x6970667358 0x22 SLT KECCAK256 0xED PUSH16 0xC4F47DCA8FFAA6A7AB2296D5FF3A39E4 PUSH11 0x4CE910D8C04CE20F3B5B7F EXTCODECOPY 0xEF PUSH5 0x736F6C6343 STOP ADDMOD SMOD STOP CALLER "
				},
				"gasEstimates": {
					"creation": {
						"codeDepositCost": "103400",
						"executionCost": "24420",
						"totalCost": "127820"
					},
					"external": {
						"Bool(uint256)": "infinite",
						"Value()": "2468"
					}
				},
				"methodIdentifiers": {
					"Bool(uint256)": "61746e31",
					"Value()": "f1d876b4"
				}
			},
			"storageLayout": {
				"storage": [
					{
						"astId": 4,
						"contract": "Booleans.sol:Boolean",
						"label": "Value",
						"offset": 0,
						"slot": "0",
						"type": "t_bool"
					}
				],
				"types": {
					"t_bool": {
						"encoding": "inplace",
						"label": "bool",
						"numberOfBytes": "1"
					}
				}
			},
			"userdoc": {
				"kind": "user",
				"methods": {},
				"version": 1
			}
		}
	}
}