{
	"Functions.sol": {
		"Functions": {
			"abi": [
				{
					"inputs": [
						{
							"internalType": "uint256",
							"name": "x1",
							"type": "uint256"
						},
						{
							"internalType": "uint256",
							"name": "y1",
							"type": "uint256"
						}
					],
					"name": "Add",
					"outputs": [
						{
							"internalType": "uint256",
							"name": "",
							"type": "uint256"
						}
					],
					"stateMutability": "pure",
					"type": "function"
				},
				{
					"inputs": [],
					"name": "Increment",
					"outputs": [],
					"stateMutability": "nonpayable",
					"type": "function"
				},
				{
					"inputs": [],
					"name": "N",
					"outputs": [
						{
							"internalType": "uint256",
							"name": "",
							"type": "uint256"
						}
					],
					"stateMutability": "view",
					"type": "function"
				},
				{
					"inputs": [
						{
							"internalType": "uint256",
							"name": "newN",
							"type": "uint256"
						}
					],
					"name": "Setter",
					"outputs": [],
					"stateMutability": "nonpayable",
					"type": "function"
				},
				{
					"inputs": [
						{
							"internalType": "uint256",
							"name": "a",
							"type": "uint256"
						},
						{
							"internalType": "uint256",
							"name": "b",
							"type": "uint256"
						}
					],
					"name": "Sub",
					"outputs": [
						{
							"internalType": "uint256",
							"name": "",
							"type": "uint256"
						}
					],
					"stateMutability": "pure",
					"type": "function"
				}
			],
			"devdoc": {
				"kind": "dev",
				"methods": {},
				"version": 1
			},
			"evm": {
				"assembly": "    /* \"Functions.sol\":75:669  contract Functions\r... */\n  mstore(0x40, 0x80)\n    /* \"Functions.sol\":118:120  10 */\n  0x0a\n    /* \"Functions.sol\":102:120  uint public N = 10 */\n  0x00\n  sstore\n    /* \"Functions.sol\":75:669  contract Functions\r... */\n  callvalue\n  dup1\n  iszero\n  tag_1\n  jumpi\n  0x00\n  dup1\n  revert\ntag_1:\n  pop\n  dataSize(sub_0)\n  dup1\n  dataOffset(sub_0)\n  0x00\n  codecopy\n  0x00\n  return\nstop\n\nsub_0: assembly {\n        /* \"Functions.sol\":75:669  contract Functions\r... */\n      mstore(0x40, 0x80)\n      callvalue\n      dup1\n      iszero\n      tag_1\n      jumpi\n      0x00\n      dup1\n      revert\n    tag_1:\n      pop\n      jumpi(tag_2, lt(calldatasize, 0x04))\n      shr(0xe0, calldataload(0x00))\n      dup1\n      0x1ec9c2c0\n      eq\n      tag_3\n      jumpi\n      dup1\n      0x648b7ce8\n      eq\n      tag_4\n      jumpi\n      dup1\n      0x7afbe4f1\n      eq\n      tag_5\n      jumpi\n      dup1\n      0xc9e525df\n      eq\n      tag_6\n      jumpi\n      dup1\n      0xdd611e8d\n      eq\n      tag_7\n      jumpi\n    tag_2:\n      0x00\n      dup1\n      revert\n        /* \"Functions.sol\":575:666  function Sub(uint a, uint b) public pure returns(uint)\r... */\n    tag_3:\n      tag_8\n      0x04\n      dup1\n      calldatasize\n      sub\n      dup2\n      add\n      swap1\n      tag_9\n      swap2\n      swap1\n      tag_10\n      jump\t// in\n    tag_9:\n      tag_11\n      jump\t// in\n    tag_8:\n      mload(0x40)\n      tag_12\n      swap2\n      swap1\n      tag_13\n      jump\t// in\n    tag_12:\n      mload(0x40)\n      dup1\n      swap2\n      sub\n      swap1\n      return\n        /* \"Functions.sol\":164:225  function Increment() public\r... */\n    tag_4:\n      tag_14\n      tag_15\n      jump\t// in\n    tag_14:\n      stop\n        /* \"Functions.sol\":381:476  function Add(uint x1, uint y1) public pure returns(uint)\r... */\n    tag_5:\n      tag_16\n      0x04\n      dup1\n      calldatasize\n      sub\n      dup2\n      add\n      swap1\n      tag_17\n      swap2\n      swap1\n      tag_10\n      jump\t// in\n    tag_17:\n      tag_18\n      jump\t// in\n    tag_16:\n      mload(0x40)\n      tag_19\n      swap2\n      swap1\n      tag_13\n      jump\t// in\n    tag_19:\n      mload(0x40)\n      dup1\n      swap2\n      sub\n      swap1\n      return\n        /* \"Functions.sol\":102:120  uint public N = 10 */\n    tag_6:\n      tag_20\n      tag_21\n      jump\t// in\n    tag_20:\n      mload(0x40)\n      tag_22\n      swap2\n      swap1\n      tag_13\n      jump\t// in\n    tag_22:\n      mload(0x40)\n      dup1\n      swap2\n      sub\n      swap1\n      return\n        /* \"Functions.sol\":233:298  function Setter(uint newN)public\r... */\n    tag_7:\n      tag_23\n      0x04\n      dup1\n      calldatasize\n      sub\n      dup2\n      add\n      swap1\n      tag_24\n      swap2\n      swap1\n      tag_25\n      jump\t// in\n    tag_24:\n      tag_26\n      jump\t// in\n    tag_23:\n      stop\n        /* \"Functions.sol\":575:666  function Sub(uint a, uint b) public pure returns(uint)\r... */\n    tag_11:\n        /* \"Functions.sol\":624:628  uint */\n      0x00\n        /* \"Functions.sol\":656:657  b */\n      dup2\n        /* \"Functions.sol\":654:655  a */\n      dup4\n        /* \"Functions.sol\":654:657  a-b */\n      tag_28\n      swap2\n      swap1\n      tag_29\n      jump\t// in\n    tag_28:\n        /* \"Functions.sol\":646:658  return (a-b) */\n      swap1\n      pop\n        /* \"Functions.sol\":575:666  function Sub(uint a, uint b) public pure returns(uint)\r... */\n      swap3\n      swap2\n      pop\n      pop\n      jump\t// out\n        /* \"Functions.sol\":164:225  function Increment() public\r... */\n    tag_15:\n        /* \"Functions.sol\":216:217  1 */\n      0x01\n        /* \"Functions.sol\":212:213  N */\n      sload(0x00)\n        /* \"Functions.sol\":212:217  N + 1 */\n      tag_31\n      swap2\n      swap1\n      tag_32\n      jump\t// in\n    tag_31:\n        /* \"Functions.sol\":208:209  N */\n      0x00\n        /* \"Functions.sol\":208:217  N = N + 1 */\n      dup2\n      swap1\n      sstore\n      pop\n        /* \"Functions.sol\":164:225  function Increment() public\r... */\n      jump\t// out\n        /* \"Functions.sol\":381:476  function Add(uint x1, uint y1) public pure returns(uint)\r... */\n    tag_18:\n        /* \"Functions.sol\":432:436  uint */\n      0x00\n        /* \"Functions.sol\":465:467  y1 */\n      dup2\n        /* \"Functions.sol\":462:464  x1 */\n      dup4\n        /* \"Functions.sol\":462:467  x1+y1 */\n      tag_34\n      swap2\n      swap1\n      tag_32\n      jump\t// in\n    tag_34:\n        /* \"Functions.sol\":454:468  return (x1+y1) */\n      swap1\n      pop\n        /* \"Functions.sol\":381:476  function Add(uint x1, uint y1) public pure returns(uint)\r... */\n      swap3\n      swap2\n      pop\n      pop\n      jump\t// out\n        /* \"Functions.sol\":102:120  uint public N = 10 */\n    tag_21:\n      sload(0x00)\n      dup2\n      jump\t// out\n        /* \"Functions.sol\":233:298  function Setter(uint newN)public\r... */\n    tag_26:\n        /* \"Functions.sol\":286:290  newN */\n      dup1\n        /* \"Functions.sol\":282:283  N */\n      0x00\n        /* \"Functions.sol\":282:290  N = newN */\n      dup2\n      swap1\n      sstore\n      pop\n        /* \"Functions.sol\":233:298  function Setter(uint newN)public\r... */\n      pop\n      jump\t// out\n        /* \"#utility.yul\":7:146   */\n    tag_37:\n        /* \"#utility.yul\":53:58   */\n      0x00\n        /* \"#utility.yul\":91:97   */\n      dup2\n        /* \"#utility.yul\":78:98   */\n      calldataload\n        /* \"#utility.yul\":69:98   */\n      swap1\n      pop\n        /* \"#utility.yul\":107:140   */\n      tag_39\n        /* \"#utility.yul\":134:139   */\n      dup2\n        /* \"#utility.yul\":107:140   */\n      tag_40\n      jump\t// in\n    tag_39:\n        /* \"#utility.yul\":7:146   */\n      swap3\n      swap2\n      pop\n      pop\n      jump\t// out\n        /* \"#utility.yul\":152:481   */\n    tag_25:\n        /* \"#utility.yul\":211:217   */\n      0x00\n        /* \"#utility.yul\":260:262   */\n      0x20\n        /* \"#utility.yul\":248:257   */\n      dup3\n        /* \"#utility.yul\":239:246   */\n      dup5\n        /* \"#utility.yul\":235:258   */\n      sub\n        /* \"#utility.yul\":231:263   */\n      slt\n        /* \"#utility.yul\":228:347   */\n      iszero\n      tag_42\n      jumpi\n        /* \"#utility.yul\":266:345   */\n      tag_43\n      tag_44\n      jump\t// in\n    tag_43:\n        /* \"#utility.yul\":228:347   */\n    tag_42:\n        /* \"#utility.yul\":386:387   */\n      0x00\n        /* \"#utility.yul\":411:464   */\n      tag_45\n        /* \"#utility.yul\":456:463   */\n      dup5\n        /* \"#utility.yul\":447:453   */\n      dup3\n        /* \"#utility.yul\":436:445   */\n      dup6\n        /* \"#utility.yul\":432:454   */\n      add\n        /* \"#utility.yul\":411:464   */\n      tag_37\n      jump\t// in\n    tag_45:\n        /* \"#utility.yul\":401:464   */\n      swap2\n      pop\n        /* \"#utility.yul\":357:474   */\n      pop\n        /* \"#utility.yul\":152:481   */\n      swap3\n      swap2\n      pop\n      pop\n      jump\t// out\n        /* \"#utility.yul\":487:961   */\n    tag_10:\n        /* \"#utility.yul\":555:561   */\n      0x00\n        /* \"#utility.yul\":563:569   */\n      dup1\n        /* \"#utility.yul\":612:614   */\n      0x40\n        /* \"#utility.yul\":600:609   */\n      dup4\n        /* \"#utility.yul\":591:598   */\n      dup6\n        /* \"#utility.yul\":587:610   */\n      sub\n        /* \"#utility.yul\":583:615   */\n      slt\n        /* \"#utility.yul\":580:699   */\n      iszero\n      tag_47\n      jumpi\n        /* \"#utility.yul\":618:697   */\n      tag_48\n      tag_44\n      jump\t// in\n    tag_48:\n        /* \"#utility.yul\":580:699   */\n    tag_47:\n        /* \"#utility.yul\":738:739   */\n      0x00\n        /* \"#utility.yul\":763:816   */\n      tag_49\n        /* \"#utility.yul\":808:815   */\n      dup6\n        /* \"#utility.yul\":799:805   */\n      dup3\n        /* \"#utility.yul\":788:797   */\n      dup7\n        /* \"#utility.yul\":784:806   */\n      add\n        /* \"#utility.yul\":763:816   */\n      tag_37\n      jump\t// in\n    tag_49:\n        /* \"#utility.yul\":753:816   */\n      swap3\n      pop\n        /* \"#utility.yul\":709:826   */\n      pop\n        /* \"#utility.yul\":865:867   */\n      0x20\n        /* \"#utility.yul\":891:944   */\n      tag_50\n        /* \"#utility.yul\":936:943   */\n      dup6\n        /* \"#utility.yul\":927:933   */\n      dup3\n        /* \"#utility.yul\":916:925   */\n      dup7\n        /* \"#utility.yul\":912:934   */\n      add\n        /* \"#utility.yul\":891:944   */\n      tag_37\n      jump\t// in\n    tag_50:\n        /* \"#utility.yul\":881:944   */\n      swap2\n      pop\n        /* \"#utility.yul\":836:954   */\n      pop\n        /* \"#utility.yul\":487:961   */\n      swap3\n      pop\n      swap3\n      swap1\n      pop\n      jump\t// out\n        /* \"#utility.yul\":967:1085   */\n    tag_51:\n        /* \"#utility.yul\":1054:1078   */\n      tag_53\n        /* \"#utility.yul\":1072:1077   */\n      dup2\n        /* \"#utility.yul\":1054:1078   */\n      tag_54\n      jump\t// in\n    tag_53:\n        /* \"#utility.yul\":1049:1052   */\n      dup3\n        /* \"#utility.yul\":1042:1079   */\n      mstore\n        /* \"#utility.yul\":967:1085   */\n      pop\n      pop\n      jump\t// out\n        /* \"#utility.yul\":1091:1313   */\n    tag_13:\n        /* \"#utility.yul\":1184:1188   */\n      0x00\n        /* \"#utility.yul\":1222:1224   */\n      0x20\n        /* \"#utility.yul\":1211:1220   */\n      dup3\n        /* \"#utility.yul\":1207:1225   */\n      add\n        /* \"#utility.yul\":1199:1225   */\n      swap1\n      pop\n        /* \"#utility.yul\":1235:1306   */\n      tag_56\n        /* \"#utility.yul\":1303:1304   */\n      0x00\n        /* \"#utility.yul\":1292:1301   */\n      dup4\n        /* \"#utility.yul\":1288:1305   */\n      add\n        /* \"#utility.yul\":1279:1285   */\n      dup5\n        /* \"#utility.yul\":1235:1306   */\n      tag_51\n      jump\t// in\n    tag_56:\n        /* \"#utility.yul\":1091:1313   */\n      swap3\n      swap2\n      pop\n      pop\n      jump\t// out\n        /* \"#utility.yul\":1400:1705   */\n    tag_32:\n        /* \"#utility.yul\":1440:1443   */\n      0x00\n        /* \"#utility.yul\":1459:1479   */\n      tag_60\n        /* \"#utility.yul\":1477:1478   */\n      dup3\n        /* \"#utility.yul\":1459:1479   */\n      tag_54\n      jump\t// in\n    tag_60:\n        /* \"#utility.yul\":1454:1479   */\n      swap2\n      pop\n        /* \"#utility.yul\":1493:1513   */\n      tag_61\n        /* \"#utility.yul\":1511:1512   */\n      dup4\n        /* \"#utility.yul\":1493:1513   */\n      tag_54\n      jump\t// in\n    tag_61:\n        /* \"#utility.yul\":1488:1513   */\n      swap3\n      pop\n        /* \"#utility.yul\":1647:1648   */\n      dup3\n        /* \"#utility.yul\":1579:1645   */\n      0xffffffffffffffffffffffffffffffffffffffffffffffffffffffffffffffff\n        /* \"#utility.yul\":1575:1649   */\n      sub\n        /* \"#utility.yul\":1572:1573   */\n      dup3\n        /* \"#utility.yul\":1569:1650   */\n      gt\n        /* \"#utility.yul\":1566:1673   */\n      iszero\n      tag_62\n      jumpi\n        /* \"#utility.yul\":1653:1671   */\n      tag_63\n      tag_64\n      jump\t// in\n    tag_63:\n        /* \"#utility.yul\":1566:1673   */\n    tag_62:\n        /* \"#utility.yul\":1697:1698   */\n      dup3\n        /* \"#utility.yul\":1694:1695   */\n      dup3\n        /* \"#utility.yul\":1690:1699   */\n      add\n        /* \"#utility.yul\":1683:1699   */\n      swap1\n      pop\n        /* \"#utility.yul\":1400:1705   */\n      swap3\n      swap2\n      pop\n      pop\n      jump\t// out\n        /* \"#utility.yul\":1711:1902   */\n    tag_29:\n        /* \"#utility.yul\":1751:1755   */\n      0x00\n        /* \"#utility.yul\":1771:1791   */\n      tag_66\n        /* \"#utility.yul\":1789:1790   */\n      dup3\n        /* \"#utility.yul\":1771:1791   */\n      tag_54\n      jump\t// in\n    tag_66:\n        /* \"#utility.yul\":1766:1791   */\n      swap2\n      pop\n        /* \"#utility.yul\":1805:1825   */\n      tag_67\n        /* \"#utility.yul\":1823:1824   */\n      dup4\n        /* \"#utility.yul\":1805:1825   */\n      tag_54\n      jump\t// in\n    tag_67:\n        /* \"#utility.yul\":1800:1825   */\n      swap3\n      pop\n        /* \"#utility.yul\":1844:1845   */\n      dup3\n        /* \"#utility.yul\":1841:1842   */\n      dup3\n        /* \"#utility.yul\":1838:1846   */\n      lt\n        /* \"#utility.yul\":1835:1869   */\n      iszero\n      tag_68\n      jumpi\n        /* \"#utility.yul\":1849:1867   */\n      tag_69\n      tag_64\n      jump\t// in\n    tag_69:\n        /* \"#utility.yul\":1835:1869   */\n    tag_68:\n        /* \"#utility.yul\":1894:1895   */\n      dup3\n        /* \"#utility.yul\":1891:1892   */\n      dup3\n        /* \"#utility.yul\":1887:1896   */\n      sub\n        /* \"#utility.yul\":1879:1896   */\n      swap1\n      pop\n        /* \"#utility.yul\":1711:1902   */\n      swap3\n      swap2\n      pop\n      pop\n      jump\t// out\n        /* \"#utility.yul\":1908:1985   */\n    tag_54:\n        /* \"#utility.yul\":1945:1952   */\n      0x00\n        /* \"#utility.yul\":1974:1979   */\n      dup2\n        /* \"#utility.yul\":1963:1979   */\n      swap1\n      pop\n        /* \"#utility.yul\":1908:1985   */\n      swap2\n      swap1\n      pop\n      jump\t// out\n        /* \"#utility.yul\":1991:2171   */\n    tag_64:\n        /* \"#utility.yul\":2039:2116   */\n      0x4e487b7100000000000000000000000000000000000000000000000000000000\n        /* \"#utility.yul\":2036:2037   */\n      0x00\n        /* \"#utility.yul\":2029:2117   */\n      mstore\n        /* \"#utility.yul\":2136:2140   */\n      0x11\n        /* \"#utility.yul\":2133:2134   */\n      0x04\n        /* \"#utility.yul\":2126:2141   */\n      mstore\n        /* \"#utility.yul\":2160:2164   */\n      0x24\n        /* \"#utility.yul\":2157:2158   */\n      0x00\n        /* \"#utility.yul\":2150:2165   */\n      revert\n        /* \"#utility.yul\":2300:2417   */\n    tag_44:\n        /* \"#utility.yul\":2409:2410   */\n      0x00\n        /* \"#utility.yul\":2406:2407   */\n      dup1\n        /* \"#utility.yul\":2399:2411   */\n      revert\n        /* \"#utility.yul\":2423:2545   */\n    tag_40:\n        /* \"#utility.yul\":2496:2520   */\n      tag_76\n        /* \"#utility.yul\":2514:2519   */\n      dup2\n        /* \"#utility.yul\":2496:2520   */\n      tag_54\n      jump\t// in\n    tag_76:\n        /* \"#utility.yul\":2489:2494   */\n      dup2\n        /* \"#utility.yul\":2486:2521   */\n      eq\n        /* \"#utility.yul\":2476:2539   */\n      tag_77\n      jumpi\n        /* \"#utility.yul\":2535:2536   */\n      0x00\n        /* \"#utility.yul\":2532:2533   */\n      dup1\n        /* \"#utility.yul\":2525:2537   */\n      revert\n        /* \"#utility.yul\":2476:2539   */\n    tag_77:\n        /* \"#utility.yul\":2423:2545   */\n      pop\n      jump\t// out\n\n    auxdata: 0xa2646970667358221220e58194c2bef39d5c6043e2fa50a842e999f39836bce85d4b81d26fec6fd4b37f64736f6c63430008070033\n}\n",
				"bytecode": {
					"linkReferences": {},
					"object": "6080604052600a60005534801561001557600080fd5b50610314806100256000396000f3fe608060405234801561001057600080fd5b50600436106100575760003560e01c80631ec9c2c01461005c578063648b7ce81461008c5780637afbe4f114610096578063c9e525df146100c6578063dd611e8d146100e4575b600080fd5b61007660048036038101906100719190610195565b610100565b60405161008391906101e4565b60405180910390f35b610094610116565b005b6100b060048036038101906100ab9190610195565b61012d565b6040516100bd91906101e4565b60405180910390f35b6100ce610143565b6040516100db91906101e4565b60405180910390f35b6100fe60048036038101906100f99190610168565b610149565b005b6000818361010e9190610255565b905092915050565b600160005461012591906101ff565b600081905550565b6000818361013b91906101ff565b905092915050565b60005481565b8060008190555050565b600081359050610162816102c7565b92915050565b60006020828403121561017e5761017d6102c2565b5b600061018c84828501610153565b91505092915050565b600080604083850312156101ac576101ab6102c2565b5b60006101ba85828601610153565b92505060206101cb85828601610153565b9150509250929050565b6101de81610289565b82525050565b60006020820190506101f960008301846101d5565b92915050565b600061020a82610289565b915061021583610289565b9250827fffffffffffffffffffffffffffffffffffffffffffffffffffffffffffffffff0382111561024a57610249610293565b5b828201905092915050565b600061026082610289565b915061026b83610289565b92508282101561027e5761027d610293565b5b828203905092915050565b6000819050919050565b7f4e487b7100000000000000000000000000000000000000000000000000000000600052601160045260246000fd5b600080fd5b6102d081610289565b81146102db57600080fd5b5056fea2646970667358221220e58194c2bef39d5c6043e2fa50a842e999f39836bce85d4b81d26fec6fd4b37f64736f6c63430008070033",
					"opcodes": "PUSH1 0x80 PUSH1 0x40 MSTORE PUSH1 0xA PUSH1 0x0 SSTORE CALLVALUE DUP1 ISZERO PUSH2 0x15 JUMPI PUSH1 0x0 DUP1 REVERT JUMPDEST POP PUSH2 0x314 DUP1 PUSH2 0x25 PUSH1 0x0 CODECOPY PUSH1 0x0 RETURN INVALID PUSH1 0x80 PUSH1 0x40 MSTORE CALLVALUE DUP1 ISZERO PUSH2 0x10 JUMPI PUSH1 0x0 DUP1 REVERT JUMPDEST POP PUSH1 0x4 CALLDATASIZE LT PUSH2 0x57 JUMPI PUSH1 0x0 CALLDATALOAD PUSH1 0xE0 SHR DUP1 PUSH4 0x1EC9C2C0 EQ PUSH2 0x5C JUMPI DUP1 PUSH4 0x648B7CE8 EQ PUSH2 0x8C JUMPI DUP1 PUSH4 0x7AFBE4F1 EQ PUSH2 0x96 JUMPI DUP1 PUSH4 0xC9E525DF EQ PUSH2 0xC6 JUMPI DUP1 PUSH4 0xDD611E8D EQ PUSH2 0xE4 JUMPI JUMPDEST PUSH1 0x0 DUP1 REVERT JUMPDEST PUSH2 0x76 PUSH1 0x4 DUP1 CALLDATASIZE SUB DUP2 ADD SWAP1 PUSH2 0x71 SWAP2 SWAP1 PUSH2 0x195 JUMP JUMPDEST PUSH2 0x100 JUMP JUMPDEST PUSH1 0x40 MLOAD PUSH2 0x83 SWAP2 SWAP1 PUSH2 0x1E4 JUMP JUMPDEST PUSH1 0x40 MLOAD DUP1 SWAP2 SUB SWAP1 RETURN JUMPDEST PUSH2 0x94 PUSH2 0x116 JUMP JUMPDEST STOP JUMPDEST PUSH2 0xB0 PUSH1 0x4 DUP1 CALLDATASIZE SUB DUP2 ADD SWAP1 PUSH2 0xAB SWAP2 SWAP1 PUSH2 0x195 JUMP JUMPDEST PUSH2 0x12D JUMP JUMPDEST PUSH1 0x40 MLOAD PUSH2 0xBD SWAP2 SWAP1 PUSH2 0x1E4 JUMP JUMPDEST PUSH1 0x40 MLOAD DUP1 SWAP2 SUB SWAP1 RETURN JUMPDEST PUSH2 0xCE PUSH2 0x143 JUMP JUMPDEST PUSH1 0x40 MLOAD PUSH2 0xDB SWAP2 SWAP1 PUSH2 0x1E4 JUMP JUMPDEST PUSH1 0x40 MLOAD DUP1 SWAP2 SUB SWAP1 RETURN JUMPDEST PUSH2 0xFE PUSH1 0x4 DUP1 CALLDATASIZE SUB DUP2 ADD SWAP1 PUSH2 0xF9 SWAP2 SWAP1 PUSH2 0x168 JUMP JUMPDEST PUSH2 0x149 JUMP JUMPDEST STOP JUMPDEST PUSH1 0x0 DUP2 DUP4 PUSH2 0x10E SWAP2 SWAP1 PUSH2 0x255 JUMP JUMPDEST SWAP1 POP SWAP3 SWAP2 POP POP JUMP JUMPDEST PUSH1 0x1 PUSH1 0x0 SLOAD PUSH2 0x125 SWAP2 SWAP1 PUSH2 0x1FF JUMP JUMPDEST PUSH1 0x0 DUP2 SWAP1 SSTORE POP JUMP JUMPDEST PUSH1 0x0 DUP2 DUP4 PUSH2 0x13B SWAP2 SWAP1 PUSH2 0x1FF JUMP JUMPDEST SWAP1 POP SWAP3 SWAP2 POP POP JUMP JUMPDEST PUSH1 0x0 SLOAD DUP2 JUMP JUMPDEST DUP1 PUSH1 0x0 DUP2 SWAP1 SSTORE POP POP JUMP JUMPDEST PUSH1 0x0 DUP2 CALLDATALOAD SWAP1 POP PUSH2 0x162 DUP2 PUSH2 0x2C7 JUMP JUMPDEST SWAP3 SWAP2 POP POP JUMP JUMPDEST PUSH1 0x0 PUSH1 0x20 DUP3 DUP5 SUB SLT ISZERO PUSH2 0x17E JUMPI PUSH2 0x17D PUSH2 0x2C2 JUMP JUMPDEST JUMPDEST PUSH1 0x0 PUSH2 0x18C DUP5 DUP3 DUP6 ADD PUSH2 0x153 JUMP JUMPDEST SWAP2 POP POP SWAP3 SWAP2 POP POP JUMP JUMPDEST PUSH1 0x0 DUP1 PUSH1 0x40 DUP4 DUP6 SUB SLT ISZERO PUSH2 0x1AC JUMPI PUSH2 0x1AB PUSH2 0x2C2 JUMP JUMPDEST JUMPDEST PUSH1 0x0 PUSH2 0x1BA DUP6 DUP3 DUP7 ADD PUSH2 0x153 JUMP JUMPDEST SWAP3 POP POP PUSH1 0x20 PUSH2 0x1CB DUP6 DUP3 DUP7 ADD PUSH2 0x153 JUMP JUMPDEST SWAP2 POP POP SWAP3 POP SWAP3 SWAP1 POP JUMP JUMPDEST PUSH2 0x1DE DUP2 PUSH2 0x289 JUMP JUMPDEST DUP3 MSTORE POP POP JUMP JUMPDEST PUSH1 0x0 PUSH1 0x20 DUP3 ADD SWAP1 POP PUSH2 0x1F9 PUSH1 0x0 DUP4 ADD DUP5 PUSH2 0x1D5 JUMP JUMPDEST SWAP3 SWAP2 POP POP JUMP JUMPDEST PUSH1 0x0 PUSH2 0x20A DUP3 PUSH2 0x289 JUMP JUMPDEST SWAP2 POP PUSH2 0x215 DUP4 PUSH2 0x289 JUMP JUMPDEST SWAP3 POP DUP3 PUSH32 0xFFFFFFFFFFFFFFFFFFFFFFFFFFFFFFFFFFFFFFFFFFFFFFFFFFFFFFFFFFFFFFFF SUB DUP3 GT ISZERO PUSH2 0x24A JUMPI PUSH2 0x249 PUSH2 0x293 JUMP JUMPDEST JUMPDEST DUP3 DUP3 ADD SWAP1 POP SWAP3 SWAP2 POP POP JUMP JUMPDEST PUSH1 0x0 PUSH2 0x260 DUP3 PUSH2 0x289 JUMP JUMPDEST SWAP2 POP PUSH2 0x26B DUP4 PUSH2 0x289 JUMP JUMPDEST SWAP3 POP DUP3 DUP3 LT ISZERO PUSH2 0x27E JUMPI PUSH2 0x27D PUSH2 0x293 JUMP JUMPDEST JUMPDEST DUP3 DUP3 SUB SWAP1 POP SWAP3 SWAP2 POP POP JUMP JUMPDEST PUSH1 0x0 DUP2 SWAP1 POP SWAP2 SWAP1 POP JUMP JUMPDEST PUSH32 0x4E487B7100000000000000000000000000000000000000000000000000000000 PUSH1 0x0 MSTORE PUSH1 0x11 PUSH1 0x4 MSTORE PUSH1 0x24 PUSH1 0x0 REVERT JUMPDEST PUSH1 0x0 DUP1 REVERT JUMPDEST PUSH2 0x2D0 DUP2 PUSH2 0x289 JUMP JUMPDEST DUP2 EQ PUSH2 0x2DB JUMPI PUSH1 0x0 DUP1 REVERT JUMPDEST POP JUMP INVALID LOG2 PUSH5 0x6970667358 0x22 SLT KECCAK256 0xE5 DUP2 SWAP5 0xC2 0xBE RETURN SWAP14 0x5C PUSH1 0x43 0xE2 STATICCALL POP 0xA8 TIMESTAMP 0xE9 SWAP10 RETURN SWAP9 CALLDATASIZE 0xBC 0xE8 0x5D 0x4B DUP2 0xD2 PUSH16 0xEC6FD4B37F64736F6C63430008070033 "
				},
				"gasEstimates": {
					"creation": {
						"codeDepositCost": "157600",
						"executionCost": "22308",
						"totalCost": "179908"
					},
					"external": {
						"Add(uint256,uint256)": "infinite",
						"Increment()": "infinite",
						"N()": "2473",
						"Setter(uint256)": "22586",
						"Sub(uint256,uint256)": "infinite"
					}
				},
				"methodIdentifiers": {
					"Add(uint256,uint256)": "7afbe4f1",
					"Increment()": "648b7ce8",
					"N()": "c9e525df",
					"Setter(uint256)": "dd611e8d",
					"Sub(uint256,uint256)": "1ec9c2c0"
				}
			},
			"storageLayout": {
				"storage": [
					{
						"astId": 4,
						"contract": "Functions.sol:Functions",
						"label": "N",
						"offset": 0,
						"slot": "0",
						"type": "t_uint256"
					}
				],
				"types": {
					"t_uint256": {
						"encoding": "inplace",
						"label": "uint256",
						"numberOfBytes": "32"
					}
				}
			},
			"userdoc": {
				"kind": "user",
				"methods": {},
				"version": 1
			}
		}
	}
}