{
	"State_Variable.sol": {
		"state_Variable": {
			"abi": [
				{
					"inputs": [],
					"stateMutability": "nonpayable",
					"type": "constructor"
				},
				{
					"inputs": [],
					"name": "Number",
					"outputs": [
						{
							"internalType": "uint256",
							"name": "",
							"type": "uint256"
						}
					],
					"stateMutability": "view",
					"type": "function"
				},
				{
					"inputs": [],
					"name": "age",
					"outputs": [
						{
							"internalType": "uint256",
							"name": "",
							"type": "uint256"
						}
					],
					"stateMutability": "view",
					"type": "function"
				},
				{
					"inputs": [],
					"name": "pid",
					"outputs": [
						{
							"internalType": "uint256",
							"name": "",
							"type": "uint256"
						}
					],
					"stateMutability": "view",
					"type": "function"
				},
				{
					"inputs": [],
					"name": "set",
					"outputs": [],
					"stateMutability": "nonpayable",
					"type": "function"
				}
			],
			"devdoc": {
				"kind": "dev",
				"methods": {},
				"version": 1
			},
			"evm": {
				"assembly": "    /* \"State_Variable.sol\":77:410  contract state_Variable\r... */\n  mstore(0x40, 0x80)\n    /* \"State_Variable.sol\":167:169  21 */\n  0x15\n    /* \"State_Variable.sol\":149:169  uint public age = 21 */\n  0x00\n  sstore\n    /* \"State_Variable.sol\":238:289  constructor()\r... */\n  callvalue\n  dup1\n  iszero\n  tag_1\n  jumpi\n  0x00\n  dup1\n  revert\ntag_1:\n  pop\n    /* \"State_Variable.sol\":277:281  6088 */\n  0x17c8\n    /* \"State_Variable.sol\":268:274  Number */\n  0x01\n    /* \"State_Variable.sol\":268:281  Number = 6088 */\n  dup2\n  swap1\n  sstore\n  pop\n    /* \"State_Variable.sol\":77:410  contract state_Variable\r... */\n  dataSize(sub_0)\n  dup1\n  dataOffset(sub_0)\n  0x00\n  codecopy\n  0x00\n  return\nstop\n\nsub_0: assembly {\n        /* \"State_Variable.sol\":77:410  contract state_Variable\r... */\n      mstore(0x40, 0x80)\n      callvalue\n      dup1\n      iszero\n      tag_1\n      jumpi\n      0x00\n      dup1\n      revert\n    tag_1:\n      pop\n      jumpi(tag_2, lt(calldatasize, 0x04))\n      shr(0xe0, calldataload(0x00))\n      dup1\n      0x262a9dff\n      eq\n      tag_3\n      jumpi\n      dup1\n      0x624de725\n      eq\n      tag_4\n      jumpi\n      dup1\n      0xb8e010de\n      eq\n      tag_5\n      jumpi\n      dup1\n      0xf1068454\n      eq\n      tag_6\n      jumpi\n    tag_2:\n      0x00\n      dup1\n      revert\n        /* \"State_Variable.sol\":149:169  uint public age = 21 */\n    tag_3:\n      tag_7\n      tag_8\n      jump\t// in\n    tag_7:\n      mload(0x40)\n      tag_9\n      swap2\n      swap1\n      tag_10\n      jump\t// in\n    tag_9:\n      mload(0x40)\n      dup1\n      swap2\n      sub\n      swap1\n      return\n        /* \"State_Variable.sol\":213:231  uint public Number */\n    tag_4:\n      tag_11\n      tag_12\n      jump\t// in\n    tag_11:\n      mload(0x40)\n      tag_13\n      swap2\n      swap1\n      tag_10\n      jump\t// in\n    tag_13:\n      mload(0x40)\n      dup1\n      swap2\n      sub\n      swap1\n      return\n        /* \"State_Variable.sol\":346:405  function set() public\r... */\n    tag_5:\n      tag_14\n      tag_15\n      jump\t// in\n    tag_14:\n      stop\n        /* \"State_Variable.sol\":324:339  uint public pid */\n    tag_6:\n      tag_16\n      tag_17\n      jump\t// in\n    tag_16:\n      mload(0x40)\n      tag_18\n      swap2\n      swap1\n      tag_10\n      jump\t// in\n    tag_18:\n      mload(0x40)\n      dup1\n      swap2\n      sub\n      swap1\n      return\n        /* \"State_Variable.sol\":149:169  uint public age = 21 */\n    tag_8:\n      sload(0x00)\n      dup2\n      jump\t// out\n        /* \"State_Variable.sol\":213:231  uint public Number */\n    tag_12:\n      sload(0x01)\n      dup2\n      jump\t// out\n        /* \"State_Variable.sol\":346:405  function set() public\r... */\n    tag_15:\n        /* \"State_Variable.sol\":390:397  1202011 */\n      0x12575b\n        /* \"State_Variable.sol\":384:387  pid */\n      0x02\n        /* \"State_Variable.sol\":384:397  pid = 1202011 */\n      dup2\n      swap1\n      sstore\n      pop\n        /* \"State_Variable.sol\":346:405  function set() public\r... */\n      jump\t// out\n        /* \"State_Variable.sol\":324:339  uint public pid */\n    tag_17:\n      sload(0x02)\n      dup2\n      jump\t// out\n        /* \"#utility.yul\":7:125   */\n    tag_21:\n        /* \"#utility.yul\":94:118   */\n      tag_23\n        /* \"#utility.yul\":112:117   */\n      dup2\n        /* \"#utility.yul\":94:118   */\n      tag_24\n      jump\t// in\n    tag_23:\n        /* \"#utility.yul\":89:92   */\n      dup3\n        /* \"#utility.yul\":82:119   */\n      mstore\n        /* \"#utility.yul\":7:125   */\n      pop\n      pop\n      jump\t// out\n        /* \"#utility.yul\":131:353   */\n    tag_10:\n        /* \"#utility.yul\":224:228   */\n      0x00\n        /* \"#utility.yul\":262:264   */\n      0x20\n        /* \"#utility.yul\":251:260   */\n      dup3\n        /* \"#utility.yul\":247:265   */\n      add\n        /* \"#utility.yul\":239:265   */\n      swap1\n      pop\n        /* \"#utility.yul\":275:346   */\n      tag_26\n        /* \"#utility.yul\":343:344   */\n      0x00\n        /* \"#utility.yul\":332:341   */\n      dup4\n        /* \"#utility.yul\":328:345   */\n      add\n        /* \"#utility.yul\":319:325   */\n      dup5\n        /* \"#utility.yul\":275:346   */\n      tag_21\n      jump\t// in\n    tag_26:\n        /* \"#utility.yul\":131:353   */\n      swap3\n      swap2\n      pop\n      pop\n      jump\t// out\n        /* \"#utility.yul\":359:436   */\n    tag_24:\n        /* \"#utility.yul\":396:403   */\n      0x00\n        /* \"#utility.yul\":425:430   */\n      dup2\n        /* \"#utility.yul\":414:430   */\n      swap1\n      pop\n        /* \"#utility.yul\":359:436   */\n      swap2\n      swap1\n      pop\n      jump\t// out\n\n    auxdata: 0xa264697066735822122080ac6bc67d4b6193b05577bb481f98a1a80393cbe14faa7f56ef27f000a1883964736f6c63430008070033\n}\n",
				"bytecode": {
					"linkReferences": {},
					"object": "6080604052601560005534801561001557600080fd5b506117c86001819055506101258061002e6000396000f3fe6080604052348015600f57600080fd5b506004361060465760003560e01c8063262a9dff14604b578063624de725146065578063b8e010de14607f578063f1068454146087575b600080fd5b605160a1565b604051605c919060cc565b60405180910390f35b606b60a7565b6040516076919060cc565b60405180910390f35b608560ad565b005b608d60b9565b6040516098919060cc565b60405180910390f35b60005481565b60015481565b6212575b600281905550565b60025481565b60c68160e5565b82525050565b600060208201905060df600083018460bf565b92915050565b600081905091905056fea264697066735822122080ac6bc67d4b6193b05577bb481f98a1a80393cbe14faa7f56ef27f000a1883964736f6c63430008070033",
					"opcodes": "PUSH1 0x80 PUSH1 0x40 MSTORE PUSH1 0x15 PUSH1 0x0 SSTORE CALLVALUE DUP1 ISZERO PUSH2 0x15 JUMPI PUSH1 0x0 DUP1 REVERT JUMPDEST POP PUSH2 0x17C8 PUSH1 0x1 DUP2 SWAP1 SSTORE POP PUSH2 0x125 DUP1 PUSH2 0x2E PUSH1 0x0 CODECOPY PUSH1 0x0 RETURN INVALID PUSH1 0x80 PUSH1 0x40 MSTORE CALLVALUE DUP1 ISZERO PUSH1 0xF JUMPI PUSH1 0x0 DUP1 REVERT JUMPDEST POP PUSH1 0x4 CALLDATASIZE LT PUSH1 0x46 JUMPI PUSH1 0x0 CALLDATALOAD PUSH1 0xE0 SHR DUP1 PUSH4 0x262A9DFF EQ PUSH1 0x4B JUMPI DUP1 PUSH4 0x624DE725 EQ PUSH1 0x65 JUMPI DUP1 PUSH4 0xB8E010DE EQ PUSH1 0x7F JUMPI DUP1 PUSH4 0xF1068454 EQ PUSH1 0x87 JUMPI JUMPDEST PUSH1 0x0 DUP1 REVERT JUMPDEST PUSH1 0x51 PUSH1 0xA1 JUMP JUMPDEST PUSH1 0x40 MLOAD PUSH1 0x5C SWAP2 SWAP1 PUSH1 0xCC JUMP JUMPDEST PUSH1 0x40 MLOAD DUP1 SWAP2 SUB SWAP1 RETURN JUMPDEST PUSH1 0x6B PUSH1 0xA7 JUMP JUMPDEST PUSH1 0x40 MLOAD PUSH1 0x76 SWAP2 SWAP1 PUSH1 0xCC JUMP JUMPDEST PUSH1 0x40 MLOAD DUP1 SWAP2 SUB SWAP1 RETURN JUMPDEST PUSH1 0x85 PUSH1 0xAD JUMP JUMPDEST STOP JUMPDEST PUSH1 0x8D PUSH1 0xB9 JUMP JUMPDEST PUSH1 0x40 MLOAD PUSH1 0x98 SWAP2 SWAP1 PUSH1 0xCC JUMP JUMPDEST PUSH1 0x40 MLOAD DUP1 SWAP2 SUB SWAP1 RETURN JUMPDEST PUSH1 0x0 SLOAD DUP2 JUMP JUMPDEST PUSH1 0x1 SLOAD DUP2 JUMP JUMPDEST PUSH3 0x12575B PUSH1 0x2 DUP2 SWAP1 SSTORE POP JUMP JUMPDEST PUSH1 0x2 SLOAD DUP2 JUMP JUMPDEST PUSH1 0xC6 DUP2 PUSH1 0xE5 JUMP JUMPDEST DUP3 MSTORE POP POP JUMP JUMPDEST PUSH1 0x0 PUSH1 0x20 DUP3 ADD SWAP1 POP PUSH1 0xDF PUSH1 0x0 DUP4 ADD DUP5 PUSH1 0xBF JUMP JUMPDEST SWAP3 SWAP2 POP POP JUMP JUMPDEST PUSH1 0x0 DUP2 SWAP1 POP SWAP2 SWAP1 POP JUMP INVALID LOG2 PUSH5 0x6970667358 0x22 SLT KECCAK256 DUP1 0xAC PUSH12 0xC67D4B6193B05577BB481F98 LOG1 0xA8 SUB SWAP4 0xCB 0xE1 0x4F 0xAA PUSH32 0x56EF27F000A1883964736F6C6343000807003300000000000000000000000000 "
				},
				"gasEstimates": {
					"creation": {
						"codeDepositCost": "58600",
						"executionCost": "44331",
						"totalCost": "102931"
					},
					"external": {
						"Number()": "2429",
						"age()": "2407",
						"pid()": "2473",
						"set()": "22280"
					}
				},
				"methodIdentifiers": {
					"Number()": "624de725",
					"age()": "262a9dff",
					"pid()": "f1068454",
					"set()": "b8e010de"
				}
			},
			"storageLayout": {
				"storage": [
					{
						"astId": 4,
						"contract": "State_Variable.sol:state_Variable",
						"label": "age",
						"offset": 0,
						"slot": "0",
						"type": "t_uint256"
					},
					{
						"astId": 6,
						"contract": "State_Variable.sol:state_Variable",
						"label": "Number",
						"offset": 0,
						"slot": "1",
						"type": "t_uint256"
					},
					{
						"astId": 16,
						"contract": "State_Variable.sol:state_Variable",
						"label": "pid",
						"offset": 0,
						"slot": "2",
						"type": "t_uint256"
					}
				],
				"types": {
					"t_uint256": {
						"encoding": "inplace",
						"label": "uint256",
						"numberOfBytes": "32"
					}
				}
			},
			"userdoc": {
				"kind": "user",
				"methods": {},
				"version": 1
			}
		}
	}
}