{
	"revert.sol": {
		"Revert": {
			"abi": [
				{
					"inputs": [
						{
							"internalType": "string",
							"name": "",
							"type": "string"
						},
						{
							"internalType": "address",
							"name": "",
							"type": "address"
						}
					],
					"name": "throwError",
					"type": "error"
				},
				{
					"inputs": [],
					"name": "Age",
					"outputs": [
						{
							"internalType": "uint256",
							"name": "",
							"type": "uint256"
						}
					],
					"stateMutability": "view",
					"type": "function"
				},
				{
					"inputs": [
						{
							"internalType": "uint256",
							"name": "x",
							"type": "uint256"
						}
					],
					"name": "CheckRevert",
					"outputs": [],
					"stateMutability": "nonpayable",
					"type": "function"
				},
				{
					"inputs": [],
					"name": "Owner",
					"outputs": [
						{
							"internalType": "address",
							"name": "",
							"type": "address"
						}
					],
					"stateMutability": "view",
					"type": "function"
				}
			],
			"devdoc": {
				"kind": "dev",
				"methods": {},
				"version": 1
			},
			"evm": {
				"assembly": "    /* \"revert.sol\":75:495  contract Revert\r... */\n  mstore(0x40, 0x80)\n    /* \"revert.sol\":122:132  msg.sender */\n  caller\n    /* \"revert.sol\":99:132  address public Owner = msg.sender */\n  0x00\n  dup1\n  0x0100\n  exp\n  dup2\n  sload\n  dup2\n  0xffffffffffffffffffffffffffffffffffffffff\n  mul\n  not\n  and\n  swap1\n  dup4\n  0xffffffffffffffffffffffffffffffffffffffff\n  and\n  mul\n  or\n  swap1\n  sstore\n  pop\n    /* \"revert.sol\":157:159  25 */\n  0x19\n    /* \"revert.sol\":139:159  uint public Age = 25 */\n  0x01\n  sstore\n    /* \"revert.sol\":75:495  contract Revert\r... */\n  callvalue\n  dup1\n  iszero\n  tag_1\n  jumpi\n  0x00\n  dup1\n  revert\ntag_1:\n  pop\n  dataSize(sub_0)\n  dup1\n  dataOffset(sub_0)\n  0x00\n  codecopy\n  0x00\n  return\nstop\n\nsub_0: assembly {\n        /* \"revert.sol\":75:495  contract Revert\r... */\n      mstore(0x40, 0x80)\n      callvalue\n      dup1\n      iszero\n      tag_1\n      jumpi\n      0x00\n      dup1\n      revert\n    tag_1:\n      pop\n      jumpi(tag_2, lt(calldatasize, 0x04))\n      shr(0xe0, calldataload(0x00))\n      dup1\n      0x17743560\n      eq\n      tag_3\n      jumpi\n      dup1\n      0xb4a99a4e\n      eq\n      tag_4\n      jumpi\n      dup1\n      0xff83b5aa\n      eq\n      tag_5\n      jumpi\n    tag_2:\n      0x00\n      dup1\n      revert\n        /* \"revert.sol\":139:159  uint public Age = 25 */\n    tag_3:\n      tag_6\n      tag_7\n      jump\t// in\n    tag_6:\n      mload(0x40)\n      tag_8\n      swap2\n      swap1\n      tag_9\n      jump\t// in\n    tag_8:\n      mload(0x40)\n      dup1\n      swap2\n      sub\n      swap1\n      return\n        /* \"revert.sol\":99:132  address public Owner = msg.sender */\n    tag_4:\n      tag_10\n      tag_11\n      jump\t// in\n    tag_10:\n      mload(0x40)\n      tag_12\n      swap2\n      swap1\n      tag_13\n      jump\t// in\n    tag_12:\n      mload(0x40)\n      dup1\n      swap2\n      sub\n      swap1\n      return\n        /* \"revert.sol\":311:492  function CheckRevert(uint x) public\r... */\n    tag_5:\n      tag_14\n      0x04\n      dup1\n      calldatasize\n      sub\n      dup2\n      add\n      swap1\n      tag_15\n      swap2\n      swap1\n      tag_16\n      jump\t// in\n    tag_15:\n      tag_17\n      jump\t// in\n    tag_14:\n      stop\n        /* \"revert.sol\":139:159  uint public Age = 25 */\n    tag_7:\n      sload(0x01)\n      dup2\n      jump\t// out\n        /* \"revert.sol\":99:132  address public Owner = msg.sender */\n    tag_11:\n      0x00\n      dup1\n      sload\n      swap1\n      0x0100\n      exp\n      swap1\n      div\n      0xffffffffffffffffffffffffffffffffffffffff\n      and\n      dup2\n      jump\t// out\n        /* \"revert.sol\":311:492  function CheckRevert(uint x) public\r... */\n    tag_17:\n        /* \"revert.sol\":375:376  5 */\n      0x05\n        /* \"revert.sol\":369:372  Age */\n      sload(0x01)\n        /* \"revert.sol\":369:376  Age - 5 */\n      tag_19\n      swap2\n      swap1\n      tag_20\n      jump\t// in\n    tag_19:\n        /* \"revert.sol\":363:366  Age */\n      0x01\n        /* \"revert.sol\":363:376  Age = Age - 5 */\n      dup2\n      swap1\n      sstore\n      pop\n        /* \"revert.sol\":396:398  20 */\n      0x14\n        /* \"revert.sol\":392:393  x */\n      dup2\n        /* \"revert.sol\":392:398  x < 20 */\n      lt\n        /* \"revert.sol\":389:485  if(x < 20)\r... */\n      iszero\n      tag_21\n      jumpi\n        /* \"revert.sol\":462:472  msg.sender */\n      caller\n        /* \"revert.sol\":431:473  throwError(\"x is Under 20 !!\", msg.sender) */\n      mload(0x40)\n      0xa1aad82000000000000000000000000000000000000000000000000000000000\n      dup2\n      mstore\n      0x04\n      add\n      tag_22\n      swap2\n      swap1\n      tag_23\n      jump\t// in\n    tag_22:\n      mload(0x40)\n      dup1\n      swap2\n      sub\n      swap1\n      revert\n        /* \"revert.sol\":389:485  if(x < 20)\r... */\n    tag_21:\n        /* \"revert.sol\":311:492  function CheckRevert(uint x) public\r... */\n      pop\n      jump\t// out\n        /* \"#utility.yul\":7:146   */\n    tag_25:\n        /* \"#utility.yul\":53:58   */\n      0x00\n        /* \"#utility.yul\":91:97   */\n      dup2\n        /* \"#utility.yul\":78:98   */\n      calldataload\n        /* \"#utility.yul\":69:98   */\n      swap1\n      pop\n        /* \"#utility.yul\":107:140   */\n      tag_27\n        /* \"#utility.yul\":134:139   */\n      dup2\n        /* \"#utility.yul\":107:140   */\n      tag_28\n      jump\t// in\n    tag_27:\n        /* \"#utility.yul\":7:146   */\n      swap3\n      swap2\n      pop\n      pop\n      jump\t// out\n        /* \"#utility.yul\":152:481   */\n    tag_16:\n        /* \"#utility.yul\":211:217   */\n      0x00\n        /* \"#utility.yul\":260:262   */\n      0x20\n        /* \"#utility.yul\":248:257   */\n      dup3\n        /* \"#utility.yul\":239:246   */\n      dup5\n        /* \"#utility.yul\":235:258   */\n      sub\n        /* \"#utility.yul\":231:263   */\n      slt\n        /* \"#utility.yul\":228:347   */\n      iszero\n      tag_30\n      jumpi\n        /* \"#utility.yul\":266:345   */\n      tag_31\n      tag_32\n      jump\t// in\n    tag_31:\n        /* \"#utility.yul\":228:347   */\n    tag_30:\n        /* \"#utility.yul\":386:387   */\n      0x00\n        /* \"#utility.yul\":411:464   */\n      tag_33\n        /* \"#utility.yul\":456:463   */\n      dup5\n        /* \"#utility.yul\":447:453   */\n      dup3\n        /* \"#utility.yul\":436:445   */\n      dup6\n        /* \"#utility.yul\":432:454   */\n      add\n        /* \"#utility.yul\":411:464   */\n      tag_25\n      jump\t// in\n    tag_33:\n        /* \"#utility.yul\":401:464   */\n      swap2\n      pop\n        /* \"#utility.yul\":357:474   */\n      pop\n        /* \"#utility.yul\":152:481   */\n      swap3\n      swap2\n      pop\n      pop\n      jump\t// out\n        /* \"#utility.yul\":487:605   */\n    tag_34:\n        /* \"#utility.yul\":574:598   */\n      tag_36\n        /* \"#utility.yul\":592:597   */\n      dup2\n        /* \"#utility.yul\":574:598   */\n      tag_37\n      jump\t// in\n    tag_36:\n        /* \"#utility.yul\":569:572   */\n      dup3\n        /* \"#utility.yul\":562:599   */\n      mstore\n        /* \"#utility.yul\":487:605   */\n      pop\n      pop\n      jump\t// out\n        /* \"#utility.yul\":611:977   */\n    tag_38:\n        /* \"#utility.yul\":753:756   */\n      0x00\n        /* \"#utility.yul\":774:841   */\n      tag_40\n        /* \"#utility.yul\":838:840   */\n      0x10\n        /* \"#utility.yul\":833:836   */\n      dup4\n        /* \"#utility.yul\":774:841   */\n      tag_41\n      jump\t// in\n    tag_40:\n        /* \"#utility.yul\":767:841   */\n      swap2\n      pop\n        /* \"#utility.yul\":850:943   */\n      tag_42\n        /* \"#utility.yul\":939:942   */\n      dup3\n        /* \"#utility.yul\":850:943   */\n      tag_43\n      jump\t// in\n    tag_42:\n        /* \"#utility.yul\":968:970   */\n      0x20\n        /* \"#utility.yul\":963:966   */\n      dup3\n        /* \"#utility.yul\":959:971   */\n      add\n        /* \"#utility.yul\":952:971   */\n      swap1\n      pop\n        /* \"#utility.yul\":611:977   */\n      swap2\n      swap1\n      pop\n      jump\t// out\n        /* \"#utility.yul\":983:1101   */\n    tag_44:\n        /* \"#utility.yul\":1070:1094   */\n      tag_46\n        /* \"#utility.yul\":1088:1093   */\n      dup2\n        /* \"#utility.yul\":1070:1094   */\n      tag_47\n      jump\t// in\n    tag_46:\n        /* \"#utility.yul\":1065:1068   */\n      dup3\n        /* \"#utility.yul\":1058:1095   */\n      mstore\n        /* \"#utility.yul\":983:1101   */\n      pop\n      pop\n      jump\t// out\n        /* \"#utility.yul\":1107:1329   */\n    tag_13:\n        /* \"#utility.yul\":1200:1204   */\n      0x00\n        /* \"#utility.yul\":1238:1240   */\n      0x20\n        /* \"#utility.yul\":1227:1236   */\n      dup3\n        /* \"#utility.yul\":1223:1241   */\n      add\n        /* \"#utility.yul\":1215:1241   */\n      swap1\n      pop\n        /* \"#utility.yul\":1251:1322   */\n      tag_49\n        /* \"#utility.yul\":1319:1320   */\n      0x00\n        /* \"#utility.yul\":1308:1317   */\n      dup4\n        /* \"#utility.yul\":1304:1321   */\n      add\n        /* \"#utility.yul\":1295:1301   */\n      dup5\n        /* \"#utility.yul\":1251:1322   */\n      tag_34\n      jump\t// in\n    tag_49:\n        /* \"#utility.yul\":1107:1329   */\n      swap3\n      swap2\n      pop\n      pop\n      jump\t// out\n        /* \"#utility.yul\":1335:1864   */\n    tag_23:\n        /* \"#utility.yul\":1529:1533   */\n      0x00\n        /* \"#utility.yul\":1567:1569   */\n      0x40\n        /* \"#utility.yul\":1556:1565   */\n      dup3\n        /* \"#utility.yul\":1552:1570   */\n      add\n        /* \"#utility.yul\":1544:1570   */\n      swap1\n      pop\n        /* \"#utility.yul\":1616:1625   */\n      dup2\n        /* \"#utility.yul\":1610:1614   */\n      dup2\n        /* \"#utility.yul\":1606:1626   */\n      sub\n        /* \"#utility.yul\":1602:1603   */\n      0x00\n        /* \"#utility.yul\":1591:1600   */\n      dup4\n        /* \"#utility.yul\":1587:1604   */\n      add\n        /* \"#utility.yul\":1580:1627   */\n      mstore\n        /* \"#utility.yul\":1644:1775   */\n      tag_51\n        /* \"#utility.yul\":1770:1774   */\n      dup2\n        /* \"#utility.yul\":1644:1775   */\n      tag_38\n      jump\t// in\n    tag_51:\n        /* \"#utility.yul\":1636:1775   */\n      swap1\n      pop\n        /* \"#utility.yul\":1785:1857   */\n      tag_52\n        /* \"#utility.yul\":1853:1855   */\n      0x20\n        /* \"#utility.yul\":1842:1851   */\n      dup4\n        /* \"#utility.yul\":1838:1856   */\n      add\n        /* \"#utility.yul\":1829:1835   */\n      dup5\n        /* \"#utility.yul\":1785:1857   */\n      tag_34\n      jump\t// in\n    tag_52:\n        /* \"#utility.yul\":1335:1864   */\n      swap3\n      swap2\n      pop\n      pop\n      jump\t// out\n        /* \"#utility.yul\":1870:2092   */\n    tag_9:\n        /* \"#utility.yul\":1963:1967   */\n      0x00\n        /* \"#utility.yul\":2001:2003   */\n      0x20\n        /* \"#utility.yul\":1990:1999   */\n      dup3\n        /* \"#utility.yul\":1986:2004   */\n      add\n        /* \"#utility.yul\":1978:2004   */\n      swap1\n      pop\n        /* \"#utility.yul\":2014:2085   */\n      tag_54\n        /* \"#utility.yul\":2082:2083   */\n      0x00\n        /* \"#utility.yul\":2071:2080   */\n      dup4\n        /* \"#utility.yul\":2067:2084   */\n      add\n        /* \"#utility.yul\":2058:2064   */\n      dup5\n        /* \"#utility.yul\":2014:2085   */\n      tag_44\n      jump\t// in\n    tag_54:\n        /* \"#utility.yul\":1870:2092   */\n      swap3\n      swap2\n      pop\n      pop\n      jump\t// out\n        /* \"#utility.yul\":2179:2348   */\n    tag_41:\n        /* \"#utility.yul\":2263:2274   */\n      0x00\n        /* \"#utility.yul\":2297:2303   */\n      dup3\n        /* \"#utility.yul\":2292:2295   */\n      dup3\n        /* \"#utility.yul\":2285:2304   */\n      mstore\n        /* \"#utility.yul\":2337:2341   */\n      0x20\n        /* \"#utility.yul\":2332:2335   */\n      dup3\n        /* \"#utility.yul\":2328:2342   */\n      add\n        /* \"#utility.yul\":2313:2342   */\n      swap1\n      pop\n        /* \"#utility.yul\":2179:2348   */\n      swap3\n      swap2\n      pop\n      pop\n      jump\t// out\n        /* \"#utility.yul\":2354:2545   */\n    tag_20:\n        /* \"#utility.yul\":2394:2398   */\n      0x00\n        /* \"#utility.yul\":2414:2434   */\n      tag_59\n        /* \"#utility.yul\":2432:2433   */\n      dup3\n        /* \"#utility.yul\":2414:2434   */\n      tag_47\n      jump\t// in\n    tag_59:\n        /* \"#utility.yul\":2409:2434   */\n      swap2\n      pop\n        /* \"#utility.yul\":2448:2468   */\n      tag_60\n        /* \"#utility.yul\":2466:2467   */\n      dup4\n        /* \"#utility.yul\":2448:2468   */\n      tag_47\n      jump\t// in\n    tag_60:\n        /* \"#utility.yul\":2443:2468   */\n      swap3\n      pop\n        /* \"#utility.yul\":2487:2488   */\n      dup3\n        /* \"#utility.yul\":2484:2485   */\n      dup3\n        /* \"#utility.yul\":2481:2489   */\n      lt\n        /* \"#utility.yul\":2478:2512   */\n      iszero\n      tag_61\n      jumpi\n        /* \"#utility.yul\":2492:2510   */\n      tag_62\n      tag_63\n      jump\t// in\n    tag_62:\n        /* \"#utility.yul\":2478:2512   */\n    tag_61:\n        /* \"#utility.yul\":2537:2538   */\n      dup3\n        /* \"#utility.yul\":2534:2535   */\n      dup3\n        /* \"#utility.yul\":2530:2539   */\n      sub\n        /* \"#utility.yul\":2522:2539   */\n      swap1\n      pop\n        /* \"#utility.yul\":2354:2545   */\n      swap3\n      swap2\n      pop\n      pop\n      jump\t// out\n        /* \"#utility.yul\":2551:2647   */\n    tag_37:\n        /* \"#utility.yul\":2588:2595   */\n      0x00\n        /* \"#utility.yul\":2617:2641   */\n      tag_65\n        /* \"#utility.yul\":2635:2640   */\n      dup3\n        /* \"#utility.yul\":2617:2641   */\n      tag_66\n      jump\t// in\n    tag_65:\n        /* \"#utility.yul\":2606:2641   */\n      swap1\n      pop\n        /* \"#utility.yul\":2551:2647   */\n      swap2\n      swap1\n      pop\n      jump\t// out\n        /* \"#utility.yul\":2653:2779   */\n    tag_66:\n        /* \"#utility.yul\":2690:2697   */\n      0x00\n        /* \"#utility.yul\":2730:2772   */\n      0xffffffffffffffffffffffffffffffffffffffff\n        /* \"#utility.yul\":2723:2728   */\n      dup3\n        /* \"#utility.yul\":2719:2773   */\n      and\n        /* \"#utility.yul\":2708:2773   */\n      swap1\n      pop\n        /* \"#utility.yul\":2653:2779   */\n      swap2\n      swap1\n      pop\n      jump\t// out\n        /* \"#utility.yul\":2785:2862   */\n    tag_47:\n        /* \"#utility.yul\":2822:2829   */\n      0x00\n        /* \"#utility.yul\":2851:2856   */\n      dup2\n        /* \"#utility.yul\":2840:2856   */\n      swap1\n      pop\n        /* \"#utility.yul\":2785:2862   */\n      swap2\n      swap1\n      pop\n      jump\t// out\n        /* \"#utility.yul\":2868:3048   */\n    tag_63:\n        /* \"#utility.yul\":2916:2993   */\n      0x4e487b7100000000000000000000000000000000000000000000000000000000\n        /* \"#utility.yul\":2913:2914   */\n      0x00\n        /* \"#utility.yul\":2906:2994   */\n      mstore\n        /* \"#utility.yul\":3013:3017   */\n      0x11\n        /* \"#utility.yul\":3010:3011   */\n      0x04\n        /* \"#utility.yul\":3003:3018   */\n      mstore\n        /* \"#utility.yul\":3037:3041   */\n      0x24\n        /* \"#utility.yul\":3034:3035   */\n      0x00\n        /* \"#utility.yul\":3027:3042   */\n      revert\n        /* \"#utility.yul\":3177:3294   */\n    tag_32:\n        /* \"#utility.yul\":3286:3287   */\n      0x00\n        /* \"#utility.yul\":3283:3284   */\n      dup1\n        /* \"#utility.yul\":3276:3288   */\n      revert\n        /* \"#utility.yul\":3300:3466   */\n    tag_43:\n        /* \"#utility.yul\":3440:3458   */\n      0x7820697320556e64657220323020212100000000000000000000000000000000\n        /* \"#utility.yul\":3436:3437   */\n      0x00\n        /* \"#utility.yul\":3428:3434   */\n      dup3\n        /* \"#utility.yul\":3424:3438   */\n      add\n        /* \"#utility.yul\":3417:3459   */\n      mstore\n        /* \"#utility.yul\":3300:3466   */\n      pop\n      jump\t// out\n        /* \"#utility.yul\":3472:3594   */\n    tag_28:\n        /* \"#utility.yul\":3545:3569   */\n      tag_75\n        /* \"#utility.yul\":3563:3568   */\n      dup2\n        /* \"#utility.yul\":3545:3569   */\n      tag_47\n      jump\t// in\n    tag_75:\n        /* \"#utility.yul\":3538:3543   */\n      dup2\n        /* \"#utility.yul\":3535:3570   */\n      eq\n        /* \"#utility.yul\":3525:3588   */\n      tag_76\n      jumpi\n        /* \"#utility.yul\":3584:3585   */\n      0x00\n        /* \"#utility.yul\":3581:3582   */\n      dup1\n        /* \"#utility.yul\":3574:3586   */\n      revert\n        /* \"#utility.yul\":3525:3588   */\n    tag_76:\n        /* \"#utility.yul\":3472:3594   */\n      pop\n      jump\t// out\n\n    auxdata: 0xa26469706673582212208120e249128dff1f53ed850647f0f2fc8311aa88e60e15273cb8025f2fbff2ca64736f6c63430008070033\n}\n",
				"bytecode": {
					"linkReferences": {},
					"object": "6080604052336000806101000a81548173ffffffffffffffffffffffffffffffffffffffff021916908373ffffffffffffffffffffffffffffffffffffffff160217905550601960015534801561005557600080fd5b50610338806100656000396000f3fe608060405234801561001057600080fd5b50600436106100415760003560e01c80631774356014610046578063b4a99a4e14610064578063ff83b5aa14610082575b600080fd5b61004e61009e565b60405161005b91906101f2565b60405180910390f35b61006c6100a4565b60405161007991906101a9565b60405180910390f35b61009c6004803603810190610097919061013b565b6100c8565b005b60015481565b60008054906101000a900473ffffffffffffffffffffffffffffffffffffffff1681565b60056001546100d7919061021e565b600181905550601481101561012357336040517fa1aad82000000000000000000000000000000000000000000000000000000000815260040161011a91906101c4565b60405180910390fd5b50565b600081359050610135816102eb565b92915050565b600060208284031215610151576101506102bd565b5b600061015f84828501610126565b91505092915050565b61017181610252565b82525050565b600061018460108361020d565b915061018f826102c2565b602082019050919050565b6101a381610284565b82525050565b60006020820190506101be6000830184610168565b92915050565b600060408201905081810360008301526101dd81610177565b90506101ec6020830184610168565b92915050565b6000602082019050610207600083018461019a565b92915050565b600082825260208201905092915050565b600061022982610284565b915061023483610284565b9250828210156102475761024661028e565b5b828203905092915050565b600061025d82610264565b9050919050565b600073ffffffffffffffffffffffffffffffffffffffff82169050919050565b6000819050919050565b7f4e487b7100000000000000000000000000000000000000000000000000000000600052601160045260246000fd5b600080fd5b7f7820697320556e64657220323020212100000000000000000000000000000000600082015250565b6102f481610284565b81146102ff57600080fd5b5056fea26469706673582212208120e249128dff1f53ed850647f0f2fc8311aa88e60e15273cb8025f2fbff2ca64736f6c63430008070033",
					"opcodes": "PUSH1 0x80 PUSH1 0x40 MSTORE CALLER PUSH1 0x0 DUP1 PUSH2 0x100 EXP DUP2 SLOAD DUP2 PUSH20 0xFFFFFFFFFFFFFFFFFFFFFFFFFFFFFFFFFFFFFFFF MUL NOT AND SWAP1 DUP4 PUSH20 0xFFFFFFFFFFFFFFFFFFFFFFFFFFFFFFFFFFFFFFFF AND MUL OR SWAP1 SSTORE POP PUSH1 0x19 PUSH1 0x1 SSTORE CALLVALUE DUP1 ISZERO PUSH2 0x55 JUMPI PUSH1 0x0 DUP1 REVERT JUMPDEST POP PUSH2 0x338 DUP1 PUSH2 0x65 PUSH1 0x0 CODECOPY PUSH1 0x0 RETURN INVALID PUSH1 0x80 PUSH1 0x40 MSTORE CALLVALUE DUP1 ISZERO PUSH2 0x10 JUMPI PUSH1 0x0 DUP1 REVERT JUMPDEST POP PUSH1 0x4 CALLDATASIZE LT PUSH2 0x41 JUMPI PUSH1 0x0 CALLDATALOAD PUSH1 0xE0 SHR DUP1 PUSH4 0x17743560 EQ PUSH2 0x46 JUMPI DUP1 PUSH4 0xB4A99A4E EQ PUSH2 0x64 JUMPI DUP1 PUSH4 0xFF83B5AA EQ PUSH2 0x82 JUMPI JUMPDEST PUSH1 0x0 DUP1 REVERT JUMPDEST PUSH2 0x4E PUSH2 0x9E JUMP JUMPDEST PUSH1 0x40 MLOAD PUSH2 0x5B SWAP2 SWAP1 PUSH2 0x1F2 JUMP JUMPDEST PUSH1 0x40 MLOAD DUP1 SWAP2 SUB SWAP1 RETURN JUMPDEST PUSH2 0x6C PUSH2 0xA4 JUMP JUMPDEST PUSH1 0x40 MLOAD PUSH2 0x79 SWAP2 SWAP1 PUSH2 0x1A9 JUMP JUMPDEST PUSH1 0x40 MLOAD DUP1 SWAP2 SUB SWAP1 RETURN JUMPDEST PUSH2 0x9C PUSH1 0x4 DUP1 CALLDATASIZE SUB DUP2 ADD SWAP1 PUSH2 0x97 SWAP2 SWAP1 PUSH2 0x13B JUMP JUMPDEST PUSH2 0xC8 JUMP JUMPDEST STOP JUMPDEST PUSH1 0x1 SLOAD DUP2 JUMP JUMPDEST PUSH1 0x0 DUP1 SLOAD SWAP1 PUSH2 0x100 EXP SWAP1 DIV PUSH20 0xFFFFFFFFFFFFFFFFFFFFFFFFFFFFFFFFFFFFFFFF AND DUP2 JUMP JUMPDEST PUSH1 0x5 PUSH1 0x1 SLOAD PUSH2 0xD7 SWAP2 SWAP1 PUSH2 0x21E JUMP JUMPDEST PUSH1 0x1 DUP2 SWAP1 SSTORE POP PUSH1 0x14 DUP2 LT ISZERO PUSH2 0x123 JUMPI CALLER PUSH1 0x40 MLOAD PUSH32 0xA1AAD82000000000000000000000000000000000000000000000000000000000 DUP2 MSTORE PUSH1 0x4 ADD PUSH2 0x11A SWAP2 SWAP1 PUSH2 0x1C4 JUMP JUMPDEST PUSH1 0x40 MLOAD DUP1 SWAP2 SUB SWAP1 REVERT JUMPDEST POP JUMP JUMPDEST PUSH1 0x0 DUP2 CALLDATALOAD SWAP1 POP PUSH2 0x135 DUP2 PUSH2 0x2EB JUMP JUMPDEST SWAP3 SWAP2 POP POP JUMP JUMPDEST PUSH1 0x0 PUSH1 0x20 DUP3 DUP5 SUB SLT ISZERO PUSH2 0x151 JUMPI PUSH2 0x150 PUSH2 0x2BD JUMP JUMPDEST JUMPDEST PUSH1 0x0 PUSH2 0x15F DUP5 DUP3 DUP6 ADD PUSH2 0x126 JUMP JUMPDEST SWAP2 POP POP SWAP3 SWAP2 POP POP JUMP JUMPDEST PUSH2 0x171 DUP2 PUSH2 0x252 JUMP JUMPDEST DUP3 MSTORE POP POP JUMP JUMPDEST PUSH1 0x0 PUSH2 0x184 PUSH1 0x10 DUP4 PUSH2 0x20D JUMP JUMPDEST SWAP2 POP PUSH2 0x18F DUP3 PUSH2 0x2C2 JUMP JUMPDEST PUSH1 0x20 DUP3 ADD SWAP1 POP SWAP2 SWAP1 POP JUMP JUMPDEST PUSH2 0x1A3 DUP2 PUSH2 0x284 JUMP JUMPDEST DUP3 MSTORE POP POP JUMP JUMPDEST PUSH1 0x0 PUSH1 0x20 DUP3 ADD SWAP1 POP PUSH2 0x1BE PUSH1 0x0 DUP4 ADD DUP5 PUSH2 0x168 JUMP JUMPDEST SWAP3 SWAP2 POP POP JUMP JUMPDEST PUSH1 0x0 PUSH1 0x40 DUP3 ADD SWAP1 POP DUP2 DUP2 SUB PUSH1 0x0 DUP4 ADD MSTORE PUSH2 0x1DD DUP2 PUSH2 0x177 JUMP JUMPDEST SWAP1 POP PUSH2 0x1EC PUSH1 0x20 DUP4 ADD DUP5 PUSH2 0x168 JUMP JUMPDEST SWAP3 SWAP2 POP POP JUMP JUMPDEST PUSH1 0x0 PUSH1 0x20 DUP3 ADD SWAP1 POP PUSH2 0x207 PUSH1 0x0 DUP4 ADD DUP5 PUSH2 0x19A JUMP JUMPDEST SWAP3 SWAP2 POP POP JUMP JUMPDEST PUSH1 0x0 DUP3 DUP3 MSTORE PUSH1 0x20 DUP3 ADD SWAP1 POP SWAP3 SWAP2 POP POP JUMP JUMPDEST PUSH1 0x0 PUSH2 0x229 DUP3 PUSH2 0x284 JUMP JUMPDEST SWAP2 POP PUSH2 0x234 DUP4 PUSH2 0x284 JUMP JUMPDEST SWAP3 POP DUP3 DUP3 LT ISZERO PUSH2 0x247 JUMPI PUSH2 0x246 PUSH2 0x28E JUMP JUMPDEST JUMPDEST DUP3 DUP3 SUB SWAP1 POP SWAP3 SWAP2 POP POP JUMP JUMPDEST PUSH1 0x0 PUSH2 0x25D DUP3 PUSH2 0x264 JUMP JUMPDEST SWAP1 POP SWAP2 SWAP1 POP JUMP JUMPDEST PUSH1 0x0 PUSH20 0xFFFFFFFFFFFFFFFFFFFFFFFFFFFFFFFFFFFFFFFF DUP3 AND SWAP1 POP SWAP2 SWAP1 POP JUMP JUMPDEST PUSH1 0x0 DUP2 SWAP1 POP SWAP2 SWAP1 POP JUMP JUMPDEST PUSH32 0x4E487B7100000000000000000000000000000000000000000000000000000000 PUSH1 0x0 MSTORE PUSH1 0x11 PUSH1 0x4 MSTORE PUSH1 0x24 PUSH1 0x0 REVERT JUMPDEST PUSH1 0x0 DUP1 REVERT JUMPDEST PUSH32 0x7820697320556E64657220323020212100000000000000000000000000000000 PUSH1 0x0 DUP3 ADD MSTORE POP JUMP JUMPDEST PUSH2 0x2F4 DUP2 PUSH2 0x284 JUMP JUMPDEST DUP2 EQ PUSH2 0x2FF JUMPI PUSH1 0x0 DUP1 REVERT JUMPDEST POP JUMP INVALID LOG2 PUSH5 0x6970667358 0x22 SLT KECCAK256 DUP2 KECCAK256 0xE2 0x49 SLT DUP14 SELFDESTRUCT 0x1F MSTORE8 0xED DUP6 MOD SELFBALANCE CREATE CALLCODE 0xFC DUP4 GT 0xAA DUP9 0xE6 0xE ISZERO 0x27 EXTCODECOPY 0xB8 MUL 0x5F 0x2F 0xBF CALLCODE 0xCA PUSH5 0x736F6C6343 STOP ADDMOD SMOD STOP CALLER "
				},
				"gasEstimates": {
					"creation": {
						"codeDepositCost": "164800",
						"executionCost": "46580",
						"totalCost": "211380"
					},
					"external": {
						"Age()": "2407",
						"CheckRevert(uint256)": "infinite",
						"Owner()": "2511"
					}
				},
				"methodIdentifiers": {
					"Age()": "17743560",
					"CheckRevert(uint256)": "ff83b5aa",
					"Owner()": "b4a99a4e"
				}
			},
			"storageLayout": {
				"storage": [
					{
						"astId": 5,
						"contract": "revert.sol:Revert",
						"label": "Owner",
						"offset": 0,
						"slot": "0",
						"type": "t_address"
					},
					{
						"astId": 8,
						"contract": "revert.sol:Revert",
						"label": "Age",
						"offset": 0,
						"slot": "1",
						"type": "t_uint256"
					}
				],
				"types": {
					"t_address": {
						"encoding": "inplace",
						"label": "address",
						"numberOfBytes": "20"
					},
					"t_uint256": {
						"encoding": "inplace",
						"label": "uint256",
						"numberOfBytes": "32"
					}
				}
			},
			"userdoc": {
				"kind": "user",
				"methods": {},
				"version": 1
			}
		}
	}
}