{
	"events.sol": {
		"Event": {
			"abi": [
				{
					"anonymous": false,
					"inputs": [],
					"name": "AnotherEvent",
					"type": "event"
				},
				{
					"anonymous": false,
					"inputs": [
						{
							"indexed": true,
							"internalType": "address",
							"name": "Orgnizer",
							"type": "address"
						},
						{
							"indexed": false,
							"internalType": "string",
							"name": "Name",
							"type": "string"
						},
						{
							"indexed": false,
							"internalType": "string",
							"name": "Company_Position",
							"type": "string"
						}
					],
					"name": "Register",
					"type": "event"
				},
				{
					"inputs": [],
					"name": "TestEvent",
					"outputs": [],
					"stateMutability": "nonpayable",
					"type": "function"
				}
			],
			"devdoc": {
				"kind": "dev",
				"methods": {},
				"version": 1
			},
			"evm": {
				"assembly": "    /* \"events.sol\":75:573  contract Event {\r... */\n  mstore(0x40, 0x80)\n  callvalue\n  dup1\n  iszero\n  tag_1\n  jumpi\n  0x00\n  dup1\n  revert\ntag_1:\n  pop\n  dataSize(sub_0)\n  dup1\n  dataOffset(sub_0)\n  0x00\n  codecopy\n  0x00\n  return\nstop\n\nsub_0: assembly {\n        /* \"events.sol\":75:573  contract Event {\r... */\n      mstore(0x40, 0x80)\n      callvalue\n      dup1\n      iszero\n      tag_1\n      jumpi\n      0x00\n      dup1\n      revert\n    tag_1:\n      pop\n      jumpi(tag_2, lt(calldatasize, 0x04))\n      shr(0xe0, calldataload(0x00))\n      dup1\n      0x24ec1d3f\n      eq\n      tag_3\n      jumpi\n    tag_2:\n      0x00\n      dup1\n      revert\n        /* \"events.sol\":380:570  function TestEvent() public\r... */\n    tag_3:\n      tag_4\n      tag_5\n      jump\t// in\n    tag_4:\n      stop\n    tag_5:\n        /* \"events.sol\":463:473  msg.sender */\n      caller\n        /* \"events.sol\":454:498  Register(msg.sender, \"Bhushan Patil\", \"CTO\") */\n      0xffffffffffffffffffffffffffffffffffffffff\n      and\n      0xf20b245a781ab35d1a9d5876c7d4fbf5e873637eb1358f3d5e5036ba473164b7\n      mload(0x40)\n      tag_7\n      swap1\n      tag_8\n      jump\t// in\n    tag_7:\n      mload(0x40)\n      dup1\n      swap2\n      sub\n      swap1\n      log2\n        /* \"events.sol\":548:562  AnotherEvent() */\n      0x601d819e31a3cd164f83f7a7cf9cb5042ab1acff87b773c68f63d059c0af2dc0\n      mload(0x40)\n      mload(0x40)\n      dup1\n      swap2\n      sub\n      swap1\n      log1\n        /* \"events.sol\":380:570  function TestEvent() public\r... */\n      jump\t// out\n        /* \"#utility.yul\":7:373   */\n    tag_10:\n        /* \"#utility.yul\":149:152   */\n      0x00\n        /* \"#utility.yul\":170:237   */\n      tag_12\n        /* \"#utility.yul\":234:236   */\n      0x0d\n        /* \"#utility.yul\":229:232   */\n      dup4\n        /* \"#utility.yul\":170:237   */\n      tag_13\n      jump\t// in\n    tag_12:\n        /* \"#utility.yul\":163:237   */\n      swap2\n      pop\n        /* \"#utility.yul\":246:339   */\n      tag_14\n        /* \"#utility.yul\":335:338   */\n      dup3\n        /* \"#utility.yul\":246:339   */\n      tag_15\n      jump\t// in\n    tag_14:\n        /* \"#utility.yul\":364:366   */\n      0x20\n        /* \"#utility.yul\":359:362   */\n      dup3\n        /* \"#utility.yul\":355:367   */\n      add\n        /* \"#utility.yul\":348:367   */\n      swap1\n      pop\n        /* \"#utility.yul\":7:373   */\n      swap2\n      swap1\n      pop\n      jump\t// out\n        /* \"#utility.yul\":379:744   */\n    tag_16:\n        /* \"#utility.yul\":521:524   */\n      0x00\n        /* \"#utility.yul\":542:608   */\n      tag_18\n        /* \"#utility.yul\":606:607   */\n      0x03\n        /* \"#utility.yul\":601:604   */\n      dup4\n        /* \"#utility.yul\":542:608   */\n      tag_13\n      jump\t// in\n    tag_18:\n        /* \"#utility.yul\":535:608   */\n      swap2\n      pop\n        /* \"#utility.yul\":617:710   */\n      tag_19\n        /* \"#utility.yul\":706:709   */\n      dup3\n        /* \"#utility.yul\":617:710   */\n      tag_20\n      jump\t// in\n    tag_19:\n        /* \"#utility.yul\":735:737   */\n      0x20\n        /* \"#utility.yul\":730:733   */\n      dup3\n        /* \"#utility.yul\":726:738   */\n      add\n        /* \"#utility.yul\":719:738   */\n      swap1\n      pop\n        /* \"#utility.yul\":379:744   */\n      swap2\n      swap1\n      pop\n      jump\t// out\n        /* \"#utility.yul\":750:1476   */\n    tag_8:\n        /* \"#utility.yul\":1017:1021   */\n      0x00\n        /* \"#utility.yul\":1055:1057   */\n      0x40\n        /* \"#utility.yul\":1044:1053   */\n      dup3\n        /* \"#utility.yul\":1040:1058   */\n      add\n        /* \"#utility.yul\":1032:1058   */\n      swap1\n      pop\n        /* \"#utility.yul\":1104:1113   */\n      dup2\n        /* \"#utility.yul\":1098:1102   */\n      dup2\n        /* \"#utility.yul\":1094:1114   */\n      sub\n        /* \"#utility.yul\":1090:1091   */\n      0x00\n        /* \"#utility.yul\":1079:1088   */\n      dup4\n        /* \"#utility.yul\":1075:1092   */\n      add\n        /* \"#utility.yul\":1068:1115   */\n      mstore\n        /* \"#utility.yul\":1132:1263   */\n      tag_22\n        /* \"#utility.yul\":1258:1262   */\n      dup2\n        /* \"#utility.yul\":1132:1263   */\n      tag_10\n      jump\t// in\n    tag_22:\n        /* \"#utility.yul\":1124:1263   */\n      swap1\n      pop\n        /* \"#utility.yul\":1310:1319   */\n      dup2\n        /* \"#utility.yul\":1304:1308   */\n      dup2\n        /* \"#utility.yul\":1300:1320   */\n      sub\n        /* \"#utility.yul\":1295:1297   */\n      0x20\n        /* \"#utility.yul\":1284:1293   */\n      dup4\n        /* \"#utility.yul\":1280:1298   */\n      add\n        /* \"#utility.yul\":1273:1321   */\n      mstore\n        /* \"#utility.yul\":1338:1469   */\n      tag_23\n        /* \"#utility.yul\":1464:1468   */\n      dup2\n        /* \"#utility.yul\":1338:1469   */\n      tag_16\n      jump\t// in\n    tag_23:\n        /* \"#utility.yul\":1330:1469   */\n      swap1\n      pop\n        /* \"#utility.yul\":750:1476   */\n      swap2\n      swap1\n      pop\n      jump\t// out\n        /* \"#utility.yul\":1482:1651   */\n    tag_13:\n        /* \"#utility.yul\":1566:1577   */\n      0x00\n        /* \"#utility.yul\":1600:1606   */\n      dup3\n        /* \"#utility.yul\":1595:1598   */\n      dup3\n        /* \"#utility.yul\":1588:1607   */\n      mstore\n        /* \"#utility.yul\":1640:1644   */\n      0x20\n        /* \"#utility.yul\":1635:1638   */\n      dup3\n        /* \"#utility.yul\":1631:1645   */\n      add\n        /* \"#utility.yul\":1616:1645   */\n      swap1\n      pop\n        /* \"#utility.yul\":1482:1651   */\n      swap3\n      swap2\n      pop\n      pop\n      jump\t// out\n        /* \"#utility.yul\":1657:1820   */\n    tag_15:\n        /* \"#utility.yul\":1797:1812   */\n      0x4268757368616e20506174696c00000000000000000000000000000000000000\n        /* \"#utility.yul\":1793:1794   */\n      0x00\n        /* \"#utility.yul\":1785:1791   */\n      dup3\n        /* \"#utility.yul\":1781:1795   */\n      add\n        /* \"#utility.yul\":1774:1813   */\n      mstore\n        /* \"#utility.yul\":1657:1820   */\n      pop\n      jump\t// out\n        /* \"#utility.yul\":1826:1979   */\n    tag_20:\n        /* \"#utility.yul\":1966:1971   */\n      0x43544f0000000000000000000000000000000000000000000000000000000000\n        /* \"#utility.yul\":1962:1963   */\n      0x00\n        /* \"#utility.yul\":1954:1960   */\n      dup3\n        /* \"#utility.yul\":1950:1964   */\n      add\n        /* \"#utility.yul\":1943:1972   */\n      mstore\n        /* \"#utility.yul\":1826:1979   */\n      pop\n      jump\t// out\n\n    auxdata: 0xa2646970667358221220b79689004b623b9d1d0ec460003529e22936b44c13d5202cb96e469859bb126f64736f6c63430008070033\n}\n",
				"bytecode": {
					"linkReferences": {},
					"object": "608060405234801561001057600080fd5b506101c6806100206000396000f3fe608060405234801561001057600080fd5b506004361061002b5760003560e01c806324ec1d3f14610030575b600080fd5b61003861003a565b005b3373ffffffffffffffffffffffffffffffffffffffff167ff20b245a781ab35d1a9d5876c7d4fbf5e873637eb1358f3d5e5036ba473164b760405161007e906100fa565b60405180910390a27f601d819e31a3cd164f83f7a7cf9cb5042ab1acff87b773c68f63d059c0af2dc060405160405180910390a1565b60006100c1600d8361012d565b91506100cc8261013e565b602082019050919050565b60006100e460038361012d565b91506100ef82610167565b602082019050919050565b60006040820190508181036000830152610113816100b4565b90508181036020830152610126816100d7565b9050919050565b600082825260208201905092915050565b7f4268757368616e20506174696c00000000000000000000000000000000000000600082015250565b7f43544f000000000000000000000000000000000000000000000000000000000060008201525056fea2646970667358221220b79689004b623b9d1d0ec460003529e22936b44c13d5202cb96e469859bb126f64736f6c63430008070033",
					"opcodes": "PUSH1 0x80 PUSH1 0x40 MSTORE CALLVALUE DUP1 ISZERO PUSH2 0x10 JUMPI PUSH1 0x0 DUP1 REVERT JUMPDEST POP PUSH2 0x1C6 DUP1 PUSH2 0x20 PUSH1 0x0 CODECOPY PUSH1 0x0 RETURN INVALID PUSH1 0x80 PUSH1 0x40 MSTORE CALLVALUE DUP1 ISZERO PUSH2 0x10 JUMPI PUSH1 0x0 DUP1 REVERT JUMPDEST POP PUSH1 0x4 CALLDATASIZE LT PUSH2 0x2B JUMPI PUSH1 0x0 CALLDATALOAD PUSH1 0xE0 SHR DUP1 PUSH4 0x24EC1D3F EQ PUSH2 0x30 JUMPI JUMPDEST PUSH1 0x0 DUP1 REVERT JUMPDEST PUSH2 0x38 PUSH2 0x3A JUMP JUMPDEST STOP JUMPDEST CALLER PUSH20 0xFFFFFFFFFFFFFFFFFFFFFFFFFFFFFFFFFFFFFFFF AND PUSH32 0xF20B245A781AB35D1A9D5876C7D4FBF5E873637EB1358F3D5E5036BA473164B7 PUSH1 0x40 MLOAD PUSH2 0x7E SWAP1 PUSH2 0xFA JUMP JUMPDEST PUSH1 0x40 MLOAD DUP1 SWAP2 SUB SWAP1 LOG2 PUSH32 0x601D819E31A3CD164F83F7A7CF9CB5042AB1ACFF87B773C68F63D059C0AF2DC0 PUSH1 0x40 MLOAD PUSH1 0x40 MLOAD DUP1 SWAP2 SUB SWAP1 LOG1 JUMP JUMPDEST PUSH1 0x0 PUSH2 0xC1 PUSH1 0xD DUP4 PUSH2 0x12D JUMP JUMPDEST SWAP2 POP PUSH2 0xCC DUP3 PUSH2 0x13E JUMP JUMPDEST PUSH1 0x20 DUP3 ADD SWAP1 POP SWAP2 SWAP1 POP JUMP JUMPDEST PUSH1 0x0 PUSH2 0xE4 PUSH1 0x3 DUP4 PUSH2 0x12D JUMP JUMPDEST SWAP2 POP PUSH2 0xEF DUP3 PUSH2 0x167 JUMP JUMPDEST PUSH1 0x20 DUP3 ADD SWAP1 POP SWAP2 SWAP1 POP JUMP JUMPDEST PUSH1 0x0 PUSH1 0x40 DUP3 ADD SWAP1 POP DUP2 DUP2 SUB PUSH1 0x0 DUP4 ADD MSTORE PUSH2 0x113 DUP2 PUSH2 0xB4 JUMP JUMPDEST SWAP1 POP DUP2 DUP2 SUB PUSH1 0x20 DUP4 ADD MSTORE PUSH2 0x126 DUP2 PUSH2 0xD7 JUMP JUMPDEST SWAP1 POP SWAP2 SWAP1 POP JUMP JUMPDEST PUSH1 0x0 DUP3 DUP3 MSTORE PUSH1 0x20 DUP3 ADD SWAP1 POP SWAP3 SWAP2 POP POP JUMP JUMPDEST PUSH32 0x4268757368616E20506174696C00000000000000000000000000000000000000 PUSH1 0x0 DUP3 ADD MSTORE POP JUMP JUMPDEST PUSH32 0x43544F0000000000000000000000000000000000000000000000000000000000 PUSH1 0x0 DUP3 ADD MSTORE POP JUMP INVALID LOG2 PUSH5 0x6970667358 0x22 SLT KECCAK256 0xB7 SWAP7 DUP10 STOP 0x4B PUSH3 0x3B9D1D 0xE 0xC4 PUSH1 0x0 CALLDATALOAD 0x29 0xE2 0x29 CALLDATASIZE 0xB4 0x4C SGT 0xD5 KECCAK256 0x2C 0xB9 PUSH15 0x469859BB126F64736F6C6343000807 STOP CALLER "
				},
				"gasEstimates": {
					"creation": {
						"codeDepositCost": "90800",
						"executionCost": "141",
						"totalCost": "90941"
					},
					"external": {
						"TestEvent()": "infinite"
					}
				},
				"methodIdentifiers": {
					"TestEvent()": "24ec1d3f"
				}
			},
			"storageLayout": {
				"storage": [],
				"types": null
			},
			"userdoc": {
				"kind": "user",
				"methods": {},
				"version": 1
			}
		}
	}
}