{
	"Solidity/If_Else.sol": {
		"IF_ELSE": {
			"abi": [
				{
					"inputs": [
						{
							"internalType": "uint256",
							"name": "N",
							"type": "uint256"
						}
					],
					"name": "EvenOdd",
					"outputs": [
						{
							"internalType": "uint256",
							"name": "",
							"type": "uint256"
						},
						{
							"internalType": "string",
							"name": "",
							"type": "string"
						}
					],
					"stateMutability": "pure",
					"type": "function"
				}
			],
			"devdoc": {
				"kind": "dev",
				"methods": {},
				"version": 1
			},
			"evm": {
				"assembly": "    /* \"Solidity/If_Else.sol\":75:895  contract IF_ELSE\r... */\n  mstore(0x40, 0x80)\n  callvalue\n  dup1\n  iszero\n  tag_1\n  jumpi\n  0x00\n  dup1\n  revert\ntag_1:\n  pop\n  dataSize(sub_0)\n  dup1\n  dataOffset(sub_0)\n  0x00\n  codecopy\n  0x00\n  return\nstop\n\nsub_0: assembly {\n        /* \"Solidity/If_Else.sol\":75:895  contract IF_ELSE\r... */\n      mstore(0x40, 0x80)\n      callvalue\n      dup1\n      iszero\n      tag_1\n      jumpi\n      0x00\n      dup1\n      revert\n    tag_1:\n      pop\n      jumpi(tag_2, lt(calldatasize, 0x04))\n      shr(0xe0, calldataload(0x00))\n      dup1\n      0x6d0261cc\n      eq\n      tag_3\n      jumpi\n    tag_2:\n      0x00\n      dup1\n      revert\n        /* \"Solidity/If_Else.sol\":602:892  function EvenOdd(uint N) public pure returns(uint, string memory)\r... */\n    tag_3:\n      tag_4\n      0x04\n      dup1\n      calldatasize\n      sub\n      dup2\n      add\n      swap1\n      tag_5\n      swap2\n      swap1\n      tag_6\n      jump\t// in\n    tag_5:\n      tag_7\n      jump\t// in\n    tag_4:\n      mload(0x40)\n      tag_8\n      swap3\n      swap2\n      swap1\n      tag_9\n      jump\t// in\n    tag_8:\n      mload(0x40)\n      dup1\n      swap2\n      sub\n      swap1\n      return\n    tag_7:\n        /* \"Solidity/If_Else.sol\":647:651  uint */\n      0x00\n        /* \"Solidity/If_Else.sol\":653:666  string memory */\n      0x60\n        /* \"Solidity/If_Else.sol\":684:699  string memory S */\n      dup1\n        /* \"Solidity/If_Else.sol\":724:725  0 */\n      0x00\n        /* \"Solidity/If_Else.sol\":719:720  2 */\n      0x02\n        /* \"Solidity/If_Else.sol\":715:716  N */\n      dup6\n        /* \"Solidity/If_Else.sol\":715:720  N % 2 */\n      tag_11\n      swap2\n      swap1\n      tag_12\n      jump\t// in\n    tag_11:\n        /* \"Solidity/If_Else.sol\":715:725  N % 2 == 0 */\n      eq\n        /* \"Solidity/If_Else.sol\":712:859  if(N % 2 == 0)\r... */\n      iszero\n      tag_13\n      jumpi\n        /* \"Solidity/If_Else.sol\":751:774  S = \"Number is Even !!\" */\n      mload(0x40)\n      dup1\n      0x40\n      add\n      0x40\n      mstore\n      dup1\n      0x11\n      dup2\n      mstore\n      0x20\n      add\n      0x4e756d626572206973204576656e202121000000000000000000000000000000\n      dup2\n      mstore\n      pop\n      swap1\n      pop\n        /* \"Solidity/If_Else.sol\":712:859  if(N % 2 == 0)\r... */\n      jump(tag_14)\n    tag_13:\n        /* \"Solidity/If_Else.sol\":825:847  S = \"Number is Odd !!\" */\n      mload(0x40)\n      dup1\n      0x40\n      add\n      0x40\n      mstore\n      dup1\n      0x10\n      dup2\n      mstore\n      0x20\n      add\n      0x4e756d626572206973204f646420212100000000000000000000000000000000\n      dup2\n      mstore\n      pop\n      swap1\n      pop\n        /* \"Solidity/If_Else.sol\":712:859  if(N % 2 == 0)\r... */\n    tag_14:\n        /* \"Solidity/If_Else.sol\":879:880  N */\n      dup4\n        /* \"Solidity/If_Else.sol\":882:883  S */\n      dup2\n        /* \"Solidity/If_Else.sol\":871:884  return (N, S) */\n      swap3\n      pop\n      swap3\n      pop\n      pop\n        /* \"Solidity/If_Else.sol\":602:892  function EvenOdd(uint N) public pure returns(uint, string memory)\r... */\n      swap2\n      pop\n      swap2\n      jump\t// out\n        /* \"#utility.yul\":7:146   */\n    tag_16:\n        /* \"#utility.yul\":53:58   */\n      0x00\n        /* \"#utility.yul\":91:97   */\n      dup2\n        /* \"#utility.yul\":78:98   */\n      calldataload\n        /* \"#utility.yul\":69:98   */\n      swap1\n      pop\n        /* \"#utility.yul\":107:140   */\n      tag_18\n        /* \"#utility.yul\":134:139   */\n      dup2\n        /* \"#utility.yul\":107:140   */\n      tag_19\n      jump\t// in\n    tag_18:\n        /* \"#utility.yul\":7:146   */\n      swap3\n      swap2\n      pop\n      pop\n      jump\t// out\n        /* \"#utility.yul\":152:481   */\n    tag_6:\n        /* \"#utility.yul\":211:217   */\n      0x00\n        /* \"#utility.yul\":260:262   */\n      0x20\n        /* \"#utility.yul\":248:257   */\n      dup3\n        /* \"#utility.yul\":239:246   */\n      dup5\n        /* \"#utility.yul\":235:258   */\n      sub\n        /* \"#utility.yul\":231:263   */\n      slt\n        /* \"#utility.yul\":228:347   */\n      iszero\n      tag_21\n      jumpi\n        /* \"#utility.yul\":266:345   */\n      tag_22\n      tag_23\n      jump\t// in\n    tag_22:\n        /* \"#utility.yul\":228:347   */\n    tag_21:\n        /* \"#utility.yul\":386:387   */\n      0x00\n        /* \"#utility.yul\":411:464   */\n      tag_24\n        /* \"#utility.yul\":456:463   */\n      dup5\n        /* \"#utility.yul\":447:453   */\n      dup3\n        /* \"#utility.yul\":436:445   */\n      dup6\n        /* \"#utility.yul\":432:454   */\n      add\n        /* \"#utility.yul\":411:464   */\n      tag_16\n      jump\t// in\n    tag_24:\n        /* \"#utility.yul\":401:464   */\n      swap2\n      pop\n        /* \"#utility.yul\":357:474   */\n      pop\n        /* \"#utility.yul\":152:481   */\n      swap3\n      swap2\n      pop\n      pop\n      jump\t// out\n        /* \"#utility.yul\":487:851   */\n    tag_25:\n        /* \"#utility.yul\":575:578   */\n      0x00\n        /* \"#utility.yul\":603:642   */\n      tag_27\n        /* \"#utility.yul\":636:641   */\n      dup3\n        /* \"#utility.yul\":603:642   */\n      tag_28\n      jump\t// in\n    tag_27:\n        /* \"#utility.yul\":658:729   */\n      tag_29\n        /* \"#utility.yul\":722:728   */\n      dup2\n        /* \"#utility.yul\":717:720   */\n      dup6\n        /* \"#utility.yul\":658:729   */\n      tag_30\n      jump\t// in\n    tag_29:\n        /* \"#utility.yul\":651:729   */\n      swap4\n      pop\n        /* \"#utility.yul\":738:790   */\n      tag_31\n        /* \"#utility.yul\":783:789   */\n      dup2\n        /* \"#utility.yul\":778:781   */\n      dup6\n        /* \"#utility.yul\":771:775   */\n      0x20\n        /* \"#utility.yul\":764:769   */\n      dup7\n        /* \"#utility.yul\":760:776   */\n      add\n        /* \"#utility.yul\":738:790   */\n      tag_32\n      jump\t// in\n    tag_31:\n        /* \"#utility.yul\":815:844   */\n      tag_33\n        /* \"#utility.yul\":837:843   */\n      dup2\n        /* \"#utility.yul\":815:844   */\n      tag_34\n      jump\t// in\n    tag_33:\n        /* \"#utility.yul\":810:813   */\n      dup5\n        /* \"#utility.yul\":806:845   */\n      add\n        /* \"#utility.yul\":799:845   */\n      swap2\n      pop\n        /* \"#utility.yul\":579:851   */\n      pop\n        /* \"#utility.yul\":487:851   */\n      swap3\n      swap2\n      pop\n      pop\n      jump\t// out\n        /* \"#utility.yul\":857:975   */\n    tag_35:\n        /* \"#utility.yul\":944:968   */\n      tag_37\n        /* \"#utility.yul\":962:967   */\n      dup2\n        /* \"#utility.yul\":944:968   */\n      tag_38\n      jump\t// in\n    tag_37:\n        /* \"#utility.yul\":939:942   */\n      dup3\n        /* \"#utility.yul\":932:969   */\n      mstore\n        /* \"#utility.yul\":857:975   */\n      pop\n      pop\n      jump\t// out\n        /* \"#utility.yul\":981:1404   */\n    tag_9:\n        /* \"#utility.yul\":1122:1126   */\n      0x00\n        /* \"#utility.yul\":1160:1162   */\n      0x40\n        /* \"#utility.yul\":1149:1158   */\n      dup3\n        /* \"#utility.yul\":1145:1163   */\n      add\n        /* \"#utility.yul\":1137:1163   */\n      swap1\n      pop\n        /* \"#utility.yul\":1173:1244   */\n      tag_40\n        /* \"#utility.yul\":1241:1242   */\n      0x00\n        /* \"#utility.yul\":1230:1239   */\n      dup4\n        /* \"#utility.yul\":1226:1243   */\n      add\n        /* \"#utility.yul\":1217:1223   */\n      dup6\n        /* \"#utility.yul\":1173:1244   */\n      tag_35\n      jump\t// in\n    tag_40:\n        /* \"#utility.yul\":1291:1300   */\n      dup2\n        /* \"#utility.yul\":1285:1289   */\n      dup2\n        /* \"#utility.yul\":1281:1301   */\n      sub\n        /* \"#utility.yul\":1276:1278   */\n      0x20\n        /* \"#utility.yul\":1265:1274   */\n      dup4\n        /* \"#utility.yul\":1261:1279   */\n      add\n        /* \"#utility.yul\":1254:1302   */\n      mstore\n        /* \"#utility.yul\":1319:1397   */\n      tag_41\n        /* \"#utility.yul\":1392:1396   */\n      dup2\n        /* \"#utility.yul\":1383:1389   */\n      dup5\n        /* \"#utility.yul\":1319:1397   */\n      tag_25\n      jump\t// in\n    tag_41:\n        /* \"#utility.yul\":1311:1397   */\n      swap1\n      pop\n        /* \"#utility.yul\":981:1404   */\n      swap4\n      swap3\n      pop\n      pop\n      pop\n      jump\t// out\n        /* \"#utility.yul\":1491:1590   */\n    tag_28:\n        /* \"#utility.yul\":1543:1549   */\n      0x00\n        /* \"#utility.yul\":1577:1582   */\n      dup2\n        /* \"#utility.yul\":1571:1583   */\n      mload\n        /* \"#utility.yul\":1561:1583   */\n      swap1\n      pop\n        /* \"#utility.yul\":1491:1590   */\n      swap2\n      swap1\n      pop\n      jump\t// out\n        /* \"#utility.yul\":1596:1765   */\n    tag_30:\n        /* \"#utility.yul\":1680:1691   */\n      0x00\n        /* \"#utility.yul\":1714:1720   */\n      dup3\n        /* \"#utility.yul\":1709:1712   */\n      dup3\n        /* \"#utility.yul\":1702:1721   */\n      mstore\n        /* \"#utility.yul\":1754:1758   */\n      0x20\n        /* \"#utility.yul\":1749:1752   */\n      dup3\n        /* \"#utility.yul\":1745:1759   */\n      add\n        /* \"#utility.yul\":1730:1759   */\n      swap1\n      pop\n        /* \"#utility.yul\":1596:1765   */\n      swap3\n      swap2\n      pop\n      pop\n      jump\t// out\n        /* \"#utility.yul\":1771:1848   */\n    tag_38:\n        /* \"#utility.yul\":1808:1815   */\n      0x00\n        /* \"#utility.yul\":1837:1842   */\n      dup2\n        /* \"#utility.yul\":1826:1842   */\n      swap1\n      pop\n        /* \"#utility.yul\":1771:1848   */\n      swap2\n      swap1\n      pop\n      jump\t// out\n        /* \"#utility.yul\":1854:2161   */\n    tag_32:\n        /* \"#utility.yul\":1922:1923   */\n      0x00\n        /* \"#utility.yul\":1932:2045   */\n    tag_48:\n        /* \"#utility.yul\":1946:1952   */\n      dup4\n        /* \"#utility.yul\":1943:1944   */\n      dup2\n        /* \"#utility.yul\":1940:1953   */\n      lt\n        /* \"#utility.yul\":1932:2045   */\n      iszero\n      tag_50\n      jumpi\n        /* \"#utility.yul\":2031:2032   */\n      dup1\n        /* \"#utility.yul\":2026:2029   */\n      dup3\n        /* \"#utility.yul\":2022:2033   */\n      add\n        /* \"#utility.yul\":2016:2034   */\n      mload\n        /* \"#utility.yul\":2012:2013   */\n      dup2\n        /* \"#utility.yul\":2007:2010   */\n      dup5\n        /* \"#utility.yul\":2003:2014   */\n      add\n        /* \"#utility.yul\":1996:2035   */\n      mstore\n        /* \"#utility.yul\":1968:1970   */\n      0x20\n        /* \"#utility.yul\":1965:1966   */\n      dup2\n        /* \"#utility.yul\":1961:1971   */\n      add\n        /* \"#utility.yul\":1956:1971   */\n      swap1\n      pop\n        /* \"#utility.yul\":1932:2045   */\n      jump(tag_48)\n    tag_50:\n        /* \"#utility.yul\":2063:2069   */\n      dup4\n        /* \"#utility.yul\":2060:2061   */\n      dup2\n        /* \"#utility.yul\":2057:2070   */\n      gt\n        /* \"#utility.yul\":2054:2155   */\n      iszero\n      tag_51\n      jumpi\n        /* \"#utility.yul\":2143:2144   */\n      0x00\n        /* \"#utility.yul\":2134:2140   */\n      dup5\n        /* \"#utility.yul\":2129:2132   */\n      dup5\n        /* \"#utility.yul\":2125:2141   */\n      add\n        /* \"#utility.yul\":2118:2145   */\n      mstore\n        /* \"#utility.yul\":2054:2155   */\n    tag_51:\n        /* \"#utility.yul\":1903:2161   */\n      pop\n        /* \"#utility.yul\":1854:2161   */\n      pop\n      pop\n      pop\n      jump\t// out\n        /* \"#utility.yul\":2167:2343   */\n    tag_12:\n        /* \"#utility.yul\":2199:2200   */\n      0x00\n        /* \"#utility.yul\":2216:2236   */\n      tag_53\n        /* \"#utility.yul\":2234:2235   */\n      dup3\n        /* \"#utility.yul\":2216:2236   */\n      tag_38\n      jump\t// in\n    tag_53:\n        /* \"#utility.yul\":2211:2236   */\n      swap2\n      pop\n        /* \"#utility.yul\":2250:2270   */\n      tag_54\n        /* \"#utility.yul\":2268:2269   */\n      dup4\n        /* \"#utility.yul\":2250:2270   */\n      tag_38\n      jump\t// in\n    tag_54:\n        /* \"#utility.yul\":2245:2270   */\n      swap3\n      pop\n        /* \"#utility.yul\":2289:2290   */\n      dup3\n        /* \"#utility.yul\":2279:2314   */\n      tag_55\n      jumpi\n        /* \"#utility.yul\":2294:2312   */\n      tag_56\n      tag_57\n      jump\t// in\n    tag_56:\n        /* \"#utility.yul\":2279:2314   */\n    tag_55:\n        /* \"#utility.yul\":2335:2336   */\n      dup3\n        /* \"#utility.yul\":2332:2333   */\n      dup3\n        /* \"#utility.yul\":2328:2337   */\n      mod\n        /* \"#utility.yul\":2323:2337   */\n      swap1\n      pop\n        /* \"#utility.yul\":2167:2343   */\n      swap3\n      swap2\n      pop\n      pop\n      jump\t// out\n        /* \"#utility.yul\":2349:2529   */\n    tag_57:\n        /* \"#utility.yul\":2397:2474   */\n      0x4e487b7100000000000000000000000000000000000000000000000000000000\n        /* \"#utility.yul\":2394:2395   */\n      0x00\n        /* \"#utility.yul\":2387:2475   */\n      mstore\n        /* \"#utility.yul\":2494:2498   */\n      0x12\n        /* \"#utility.yul\":2491:2492   */\n      0x04\n        /* \"#utility.yul\":2484:2499   */\n      mstore\n        /* \"#utility.yul\":2518:2522   */\n      0x24\n        /* \"#utility.yul\":2515:2516   */\n      0x00\n        /* \"#utility.yul\":2508:2523   */\n      revert\n        /* \"#utility.yul\":2658:2775   */\n    tag_23:\n        /* \"#utility.yul\":2767:2768   */\n      0x00\n        /* \"#utility.yul\":2764:2765   */\n      dup1\n        /* \"#utility.yul\":2757:2769   */\n      revert\n        /* \"#utility.yul\":2781:2883   */\n    tag_34:\n        /* \"#utility.yul\":2822:2828   */\n      0x00\n        /* \"#utility.yul\":2873:2875   */\n      0x1f\n        /* \"#utility.yul\":2869:2876   */\n      not\n        /* \"#utility.yul\":2864:2866   */\n      0x1f\n        /* \"#utility.yul\":2857:2862   */\n      dup4\n        /* \"#utility.yul\":2853:2867   */\n      add\n        /* \"#utility.yul\":2849:2877   */\n      and\n        /* \"#utility.yul\":2839:2877   */\n      swap1\n      pop\n        /* \"#utility.yul\":2781:2883   */\n      swap2\n      swap1\n      pop\n      jump\t// out\n        /* \"#utility.yul\":2889:3011   */\n    tag_19:\n        /* \"#utility.yul\":2962:2986   */\n      tag_64\n        /* \"#utility.yul\":2980:2985   */\n      dup2\n        /* \"#utility.yul\":2962:2986   */\n      tag_38\n      jump\t// in\n    tag_64:\n        /* \"#utility.yul\":2955:2960   */\n      dup2\n        /* \"#utility.yul\":2952:2987   */\n      eq\n        /* \"#utility.yul\":2942:3005   */\n      tag_65\n      jumpi\n        /* \"#utility.yul\":3001:3002   */\n      0x00\n        /* \"#utility.yul\":2998:2999   */\n      dup1\n        /* \"#utility.yul\":2991:3003   */\n      revert\n        /* \"#utility.yul\":2942:3005   */\n    tag_65:\n        /* \"#utility.yul\":2889:3011   */\n      pop\n      jump\t// out\n\n    auxdata: 0xa26469706673582212201e5194c650dae65195e0b9a55d161858b804a4b26f24075ad545d18f0bd7c5d264736f6c63430008070033\n}\n",
				"bytecode": {
					"linkReferences": {},
					"object": "608060405234801561001057600080fd5b506102d3806100206000396000f3fe608060405234801561001057600080fd5b506004361061002b5760003560e01c80636d0261cc14610030575b600080fd5b61004a60048036038101906100459190610112565b610061565b604051610058929190610187565b60405180910390f35b600060608060006002856100759190610210565b14156100b8576040518060400160405280601181526020017f4e756d626572206973204576656e20212100000000000000000000000000000081525090506100f1565b6040518060400160405280601081526020017f4e756d626572206973204f64642021210000000000000000000000000000000081525090505b83819250925050915091565b60008135905061010c81610286565b92915050565b60006020828403121561012857610127610270565b5b6000610136848285016100fd565b91505092915050565b600061014a826101b7565b61015481856101c2565b93506101648185602086016101dd565b61016d81610275565b840191505092915050565b610181816101d3565b82525050565b600060408201905061019c6000830185610178565b81810360208301526101ae818461013f565b90509392505050565b600081519050919050565b600082825260208201905092915050565b6000819050919050565b60005b838110156101fb5780820151818401526020810190506101e0565b8381111561020a576000848401525b50505050565b600061021b826101d3565b9150610226836101d3565b92508261023657610235610241565b5b828206905092915050565b7f4e487b7100000000000000000000000000000000000000000000000000000000600052601260045260246000fd5b600080fd5b6000601f19601f8301169050919050565b61028f816101d3565b811461029a57600080fd5b5056fea26469706673582212201e5194c650dae65195e0b9a55d161858b804a4b26f24075ad545d18f0bd7c5d264736f6c63430008070033",
					"opcodes": "PUSH1 0x80 PUSH1 0x40 MSTORE CALLVALUE DUP1 ISZERO PUSH2 0x10 JUMPI PUSH1 0x0 DUP1 REVERT JUMPDEST POP PUSH2 0x2D3 DUP1 PUSH2 0x20 PUSH1 0x0 CODECOPY PUSH1 0x0 RETURN INVALID PUSH1 0x80 PUSH1 0x40 MSTORE CALLVALUE DUP1 ISZERO PUSH2 0x10 JUMPI PUSH1 0x0 DUP1 REVERT JUMPDEST POP PUSH1 0x4 CALLDATASIZE LT PUSH2 0x2B JUMPI PUSH1 0x0 CALLDATALOAD PUSH1 0xE0 SHR DUP1 PUSH4 0x6D0261CC EQ PUSH2 0x30 JUMPI JUMPDEST PUSH1 0x0 DUP1 REVERT JUMPDEST PUSH2 0x4A PUSH1 0x4 DUP1 CALLDATASIZE SUB DUP2 ADD SWAP1 PUSH2 0x45 SWAP2 SWAP1 PUSH2 0x112 JUMP JUMPDEST PUSH2 0x61 JUMP JUMPDEST PUSH1 0x40 MLOAD PUSH2 0x58 SWAP3 SWAP2 SWAP1 PUSH2 0x187 JUMP JUMPDEST PUSH1 0x40 MLOAD DUP1 SWAP2 SUB SWAP1 RETURN JUMPDEST PUSH1 0x0 PUSH1 0x60 DUP1 PUSH1 0x0 PUSH1 0x2 DUP6 PUSH2 0x75 SWAP2 SWAP1 PUSH2 0x210 JUMP JUMPDEST EQ ISZERO PUSH2 0xB8 JUMPI PUSH1 0x40 MLOAD DUP1 PUSH1 0x40 ADD PUSH1 0x40 MSTORE DUP1 PUSH1 0x11 DUP2 MSTORE PUSH1 0x20 ADD PUSH32 0x4E756D626572206973204576656E202121000000000000000000000000000000 DUP2 MSTORE POP SWAP1 POP PUSH2 0xF1 JUMP JUMPDEST PUSH1 0x40 MLOAD DUP1 PUSH1 0x40 ADD PUSH1 0x40 MSTORE DUP1 PUSH1 0x10 DUP2 MSTORE PUSH1 0x20 ADD PUSH32 0x4E756D626572206973204F646420212100000000000000000000000000000000 DUP2 MSTORE POP SWAP1 POP JUMPDEST DUP4 DUP2 SWAP3 POP SWAP3 POP POP SWAP2 POP SWAP2 JUMP JUMPDEST PUSH1 0x0 DUP2 CALLDATALOAD SWAP1 POP PUSH2 0x10C DUP2 PUSH2 0x286 JUMP JUMPDEST SWAP3 SWAP2 POP POP JUMP JUMPDEST PUSH1 0x0 PUSH1 0x20 DUP3 DUP5 SUB SLT ISZERO PUSH2 0x128 JUMPI PUSH2 0x127 PUSH2 0x270 JUMP JUMPDEST JUMPDEST PUSH1 0x0 PUSH2 0x136 DUP5 DUP3 DUP6 ADD PUSH2 0xFD JUMP JUMPDEST SWAP2 POP POP SWAP3 SWAP2 POP POP JUMP JUMPDEST PUSH1 0x0 PUSH2 0x14A DUP3 PUSH2 0x1B7 JUMP JUMPDEST PUSH2 0x154 DUP2 DUP6 PUSH2 0x1C2 JUMP JUMPDEST SWAP4 POP PUSH2 0x164 DUP2 DUP6 PUSH1 0x20 DUP7 ADD PUSH2 0x1DD JUMP JUMPDEST PUSH2 0x16D DUP2 PUSH2 0x275 JUMP JUMPDEST DUP5 ADD SWAP2 POP POP SWAP3 SWAP2 POP POP JUMP JUMPDEST PUSH2 0x181 DUP2 PUSH2 0x1D3 JUMP JUMPDEST DUP3 MSTORE POP POP JUMP JUMPDEST PUSH1 0x0 PUSH1 0x40 DUP3 ADD SWAP1 POP PUSH2 0x19C PUSH1 0x0 DUP4 ADD DUP6 PUSH2 0x178 JUMP JUMPDEST DUP2 DUP2 SUB PUSH1 0x20 DUP4 ADD MSTORE PUSH2 0x1AE DUP2 DUP5 PUSH2 0x13F JUMP JUMPDEST SWAP1 POP SWAP4 SWAP3 POP POP POP JUMP JUMPDEST PUSH1 0x0 DUP2 MLOAD SWAP1 POP SWAP2 SWAP1 POP JUMP JUMPDEST PUSH1 0x0 DUP3 DUP3 MSTORE PUSH1 0x20 DUP3 ADD SWAP1 POP SWAP3 SWAP2 POP POP JUMP JUMPDEST PUSH1 0x0 DUP2 SWAP1 POP SWAP2 SWAP1 POP JUMP JUMPDEST PUSH1 0x0 JUMPDEST DUP4 DUP2 LT ISZERO PUSH2 0x1FB JUMPI DUP1 DUP3 ADD MLOAD DUP2 DUP5 ADD MSTORE PUSH1 0x20 DUP2 ADD SWAP1 POP PUSH2 0x1E0 JUMP JUMPDEST DUP4 DUP2 GT ISZERO PUSH2 0x20A JUMPI PUSH1 0x0 DUP5 DUP5 ADD MSTORE JUMPDEST POP POP POP POP JUMP JUMPDEST PUSH1 0x0 PUSH2 0x21B DUP3 PUSH2 0x1D3 JUMP JUMPDEST SWAP2 POP PUSH2 0x226 DUP4 PUSH2 0x1D3 JUMP JUMPDEST SWAP3 POP DUP3 PUSH2 0x236 JUMPI PUSH2 0x235 PUSH2 0x241 JUMP JUMPDEST JUMPDEST DUP3 DUP3 MOD SWAP1 POP SWAP3 SWAP2 POP POP JUMP JUMPDEST PUSH32 0x4E487B7100000000000000000000000000000000000000000000000000000000 PUSH1 0x0 MSTORE PUSH1 0x12 PUSH1 0x4 MSTORE PUSH1 0x24 PUSH1 0x0 REVERT JUMPDEST PUSH1 0x0 DUP1 REVERT JUMPDEST PUSH1 0x0 PUSH1 0x1F NOT PUSH1 0x1F DUP4 ADD AND SWAP1 POP SWAP2 SWAP1 POP JUMP JUMPDEST PUSH2 0x28F DUP2 PUSH2 0x1D3 JUMP JUMPDEST DUP2 EQ PUSH2 0x29A JUMPI PUSH1 0x0 DUP1 REVERT JUMPDEST POP JUMP INVALID LOG2 PUSH5 0x6970667358 0x22 SLT KECCAK256 0x1E MLOAD SWAP5 0xC6 POP 0xDA 0xE6 MLOAD SWAP6 0xE0 0xB9 0xA5 0x5D AND XOR PC 0xB8 DIV LOG4 0xB2 PUSH16 0x24075AD545D18F0BD7C5D264736F6C63 NUMBER STOP ADDMOD SMOD STOP CALLER "
				},
				"gasEstimates": {
					"creation": {
						"codeDepositCost": "144600",
						"executionCost": "190",
						"totalCost": "144790"
					},
					"external": {
						"EvenOdd(uint256)": "infinite"
					}
				},
				"methodIdentifiers": {
					"EvenOdd(uint256)": "6d0261cc"
				}
			},
			"storageLayout": {
				"storage": [],
				"types": null
			},
			"userdoc": {
				"kind": "user",
				"methods": {},
				"version": 1
			}
		}
	}
}