{
	"data": {
		"bytecode": {
			"linkReferences": {},
			"object": "6080604052600560005534801561001557600080fd5b5061021f806100256000396000f3fe608060405234801561001057600080fd5b50600436106100365760003560e01c8063648b7ce81461003b5780637afbe4f114610059575b600080fd5b610043610089565b6040516100509190610123565b60405180910390f35b610073600480360381019061006e91906100d4565b6100a4565b6040516100809190610123565b60405180910390f35b600080600160005461009b919061013e565b90508091505090565b60008082846100b3919061013e565b90508091505092915050565b6000813590506100ce816101d2565b92915050565b600080604083850312156100eb576100ea6101cd565b5b60006100f9858286016100bf565b925050602061010a858286016100bf565b9150509250929050565b61011d81610194565b82525050565b60006020820190506101386000830184610114565b92915050565b600061014982610194565b915061015483610194565b9250827fffffffffffffffffffffffffffffffffffffffffffffffffffffffffffffffff038211156101895761018861019e565b5b828201905092915050565b6000819050919050565b7f4e487b7100000000000000000000000000000000000000000000000000000000600052601160045260246000fd5b600080fd5b6101db81610194565b81146101e657600080fd5b5056fea2646970667358221220c2d154e68c3da4929a0b4020c89294549d62249ce3d3e5f6984ef7f1d812770e64736f6c63430008070033",
			"opcodes": "PUSH1 0x80 PUSH1 0x40 MSTORE PUSH1 0x5 PUSH1 0x0 SSTORE CALLVALUE DUP1 ISZERO PUSH2 0x15 JUMPI PUSH1 0x0 DUP1 REVERT JUMPDEST POP PUSH2 0x21F DUP1 PUSH2 0x25 PUSH1 0x0 CODECOPY PUSH1 0x0 RETURN INVALID PUSH1 0x80 PUSH1 0x40 MSTORE CALLVALUE DUP1 ISZERO PUSH2 0x10 JUMPI PUSH1 0x0 DUP1 REVERT JUMPDEST POP PUSH1 0x4 CALLDATASIZE LT PUSH2 0x36 JUMPI PUSH1 0x0 CALLDATALOAD PUSH1 0xE0 SHR DUP1 PUSH4 0x648B7CE8 EQ PUSH2 0x3B JUMPI DUP1 PUSH4 0x7AFBE4F1 EQ PUSH2 0x59 JUMPI JUMPDEST PUSH1 0x0 DUP1 REVERT JUMPDEST PUSH2 0x43 PUSH2 0x89 JUMP JUMPDEST PUSH1 0x40 MLOAD PUSH2 0x50 SWAP2 SWAP1 PUSH2 0x123 JUMP JUMPDEST PUSH1 0x40 MLOAD DUP1 SWAP2 SUB SWAP1 RETURN JUMPDEST PUSH2 0x73 PUSH1 0x4 DUP1 CALLDATASIZE SUB DUP2 ADD SWAP1 PUSH2 0x6E SWAP2 SWAP1 PUSH2 0xD4 JUMP JUMPDEST PUSH2 0xA4 JUMP JUMPDEST PUSH1 0x40 MLOAD PUSH2 0x80 SWAP2 SWAP1 PUSH2 0x123 JUMP JUMPDEST PUSH1 0x40 MLOAD DUP1 SWAP2 SUB SWAP1 RETURN JUMPDEST PUSH1 0x0 DUP1 PUSH1 0x1 PUSH1 0x0 SLOAD PUSH2 0x9B SWAP2 SWAP1 PUSH2 0x13E JUMP JUMPDEST SWAP1 POP DUP1 SWAP2 POP POP SWAP1 JUMP JUMPDEST PUSH1 0x0 DUP1 DUP3 DUP5 PUSH2 0xB3 SWAP2 SWAP1 PUSH2 0x13E JUMP JUMPDEST SWAP1 POP DUP1 SWAP2 POP POP SWAP3 SWAP2 POP POP JUMP JUMPDEST PUSH1 0x0 DUP2 CALLDATALOAD SWAP1 POP PUSH2 0xCE DUP2 PUSH2 0x1D2 JUMP JUMPDEST SWAP3 SWAP2 POP POP JUMP JUMPDEST PUSH1 0x0 DUP1 PUSH1 0x40 DUP4 DUP6 SUB SLT ISZERO PUSH2 0xEB JUMPI PUSH2 0xEA PUSH2 0x1CD JUMP JUMPDEST JUMPDEST PUSH1 0x0 PUSH2 0xF9 DUP6 DUP3 DUP7 ADD PUSH2 0xBF JUMP JUMPDEST SWAP3 POP POP PUSH1 0x20 PUSH2 0x10A DUP6 DUP3 DUP7 ADD PUSH2 0xBF JUMP JUMPDEST SWAP2 POP POP SWAP3 POP SWAP3 SWAP1 POP JUMP JUMPDEST PUSH2 0x11D DUP2 PUSH2 0x194 JUMP JUMPDEST DUP3 MSTORE POP POP JUMP JUMPDEST PUSH1 0x0 PUSH1 0x20 DUP3 ADD SWAP1 POP PUSH2 0x138 PUSH1 0x0 DUP4 ADD DUP5 PUSH2 0x114 JUMP JUMPDEST SWAP3 SWAP2 POP POP JUMP JUMPDEST PUSH1 0x0 PUSH2 0x149 DUP3 PUSH2 0x194 JUMP JUMPDEST SWAP2 POP PUSH2 0x154 DUP4 PUSH2 0x194 JUMP JUMPDEST SWAP3 POP DUP3 PUSH32 0xFFFFFFFFFFFFFFFFFFFFFFFFFFFFFFFFFFFFFFFFFFFFFFFFFFFFFFFFFFFFFFFF SUB DUP3 GT ISZERO PUSH2 0x189 JUMPI PUSH2 0x188 PUSH2 0x19E JUMP JUMPDEST JUMPDEST DUP3 DUP3 ADD SWAP1 POP SWAP3 SWAP2 POP POP JUMP JUMPDEST PUSH1 0x0 DUP2 SWAP1 POP SWAP2 SWAP1 POP JUMP JUMPDEST PUSH32 0x4E487B7100000000000000000000000000000000000000000000000000000000 PUSH1 0x0 MSTORE PUSH1 0x11 PUSH1 0x4 MSTORE PUSH1 0x24 PUSH1 0x0 REVERT JUMPDEST PUSH1 0x0 DUP1 REVERT JUMPDEST PUSH2 0x1DB DUP2 PUSH2 0x194 JUMP JUMPDEST DUP2 EQ PUSH2 0x1E6 JUMPI PUSH1 0x0 DUP1 REVERT JUMPDEST POP JUMP INVALID LOG2 PUSH5 0x6970667358 0x22 SLT KECCAK256 0xC2 0xD1 SLOAD 0xE6 DUP13 RETURNDATASIZE LOG4 SWAP3 SWAP11 SIGNEXTEND BLOCKHASH KECCAK256 0xC8 SWAP3 SWAP5 SLOAD SWAP14 PUSH3 0x249CE3 0xD3 0xE5 0xF6 SWAP9 0x4E 0xF7 CALL 0xD8 SLT PUSH24 0xE64736F6C63430008070033000000000000000000000000 "
		},
		"gasEstimates": {
			"creation": {
				"codeDepositCost": "108600",
				"executionCost": "22259",
				"totalCost": "130859"
			},
			"external": {
				"Add(uint256,uint256)": "infinite",
				"Increment()": "infinite"
			}
		},
		"methodIdentifiers": {
			"Add(uint256,uint256)": "7afbe4f1",
			"Increment()": "648b7ce8"
		}
	},
	"abi": [
		{
			"inputs": [
				{
					"internalType": "uint256",
					"name": "a",
					"type": "uint256"
				},
				{
					"internalType": "uint256",
					"name": "b",
					"type": "uint256"
				}
			],
			"name": "Add",
			"outputs": [
				{
					"internalType": "uint256",
					"name": "",
					"type": "uint256"
				}
			],
			"stateMutability": "pure",
			"type": "function"
		},
		{
			"inputs": [],
			"name": "Increment",
			"outputs": [
				{
					"internalType": "uint256",
					"name": "",
					"type": "uint256"
				}
			],
			"stateMutability": "view",
			"type": "function"
		}
	]
}