{
	"data": {
		"bytecode": {
			"linkReferences": {},
			"object": "608060405260008060006101000a81548160ff0219169083600481111561002957610028610144565b5b02179055506040518060600160405280603481526020016108c5603491396001908051906020019061005c92919061006f565b5034801561006957600080fd5b506101a2565b82805461007b90610112565b90600052602060002090601f01602090048101928261009d57600085556100e4565b82601f106100b657805160ff19168380011785556100e4565b828001600101855582156100e4579182015b828111156100e35782518255916020019190600101906100c8565b5b5090506100f191906100f5565b5090565b5b8082111561010e5760008160009055506001016100f6565b5090565b6000600282049050600182168061012a57607f821691505b6020821081141561013e5761013d610173565b5b50919050565b7f4e487b7100000000000000000000000000000000000000000000000000000000600052602160045260246000fd5b7f4e487b7100000000000000000000000000000000000000000000000000000000600052602260045260246000fd5b610714806101b16000396000f3fe608060405234801561001057600080fd5b506004361061004c5760003560e01c8063564328881461005157806375d3bda61461006f5780638bc2eb4f1461008d578063bbe6a833146100ab575b600080fd5b6100596100c7565b60405161006691906104ee565b60405180910390f35b6100776102c8565b60405161008491906104ee565b60405180910390f35b610095610356565b6040516100a291906104d3565b60405180910390f35b6100c560048036038101906100c0919061045e565b610367565b005b6060600160048111156100dd576100dc6105c0565b5b60008054906101000a900460ff1660048111156100fd576100fc6105c0565b5b1415610140576040518060400160405280601f81526020017f50726f64756374205375636365737366756c6c79204f7264657265642021210081525090506102c5565b60006004811115610154576101536105c0565b5b60008054906101000a900460ff166004811115610174576101736105c0565b5b141561019a576040518060600160405280602e815260200161068a602e913990506102c5565b6004808111156101ad576101ac6105c0565b5b60008054906101000a900460ff1660048111156101cd576101cc6105c0565b5b1415610210576040518060400160405280601d81526020017f50726f6475637420686173206265656e2043616e63656c6c656420212100000081525090506102c5565b60026004811115610224576102236105c0565b5b60008054906101000a900460ff166004811115610244576102436105c0565b5b141561026a576040518060600160405280602781526020016106b86027913990506102c5565b6003600481111561027e5761027d6105c0565b5b60008054906101000a900460ff16600481111561029e5761029d6105c0565b5b14156102c4576040518060600160405280602a8152602001610660602a913990506102c5565b5b90565b600180546102d59061058e565b80601f01602080910402602001604051908101604052809291908181526020018280546103019061058e565b801561034e5780601f106103235761010080835404028352916020019161034e565b820191906000526020600020905b81548152906001019060200180831161033157829003601f168201915b505050505081565b60008054906101000a900460ff1681565b600181141561039f5760016000806101000a81548160ff02191690836004811115610395576103946105c0565b5b0217905550610446565b60028114156103d75760026000806101000a81548160ff021916908360048111156103cd576103cc6105c0565b5b0217905550610445565b600381141561040f5760036000806101000a81548160ff02191690836004811115610405576104046105c0565b5b0217905550610444565b60048114156104435760046000806101000a81548160ff0219169083600481111561043d5761043c6105c0565b5b02179055505b5b5b5b50565b60008135905061045881610648565b92915050565b6000602082840312156104745761047361061e565b5b600061048284828501610449565b91505092915050565b61049481610549565b82525050565b60006104a582610510565b6104af818561051b565b93506104bf81856020860161055b565b6104c881610623565b840191505092915050565b60006020820190506104e8600083018461048b565b92915050565b60006020820190508181036000830152610508818461049a565b905092915050565b600081519050919050565b600082825260208201905092915050565b600081905061053a82610634565b919050565b6000819050919050565b60006105548261052c565b9050919050565b60005b8381101561057957808201518184015260208101905061055e565b83811115610588576000848401525b50505050565b600060028204905060018216806105a657607f821691505b602082108114156105ba576105b96105ef565b5b50919050565b7f4e487b7100000000000000000000000000000000000000000000000000000000600052602160045260246000fd5b7f4e487b7100000000000000000000000000000000000000000000000000000000600052602260045260246000fd5b600080fd5b6000601f19601f8301169050919050565b60058110610645576106446105c0565b5b50565b6106518161053f565b811461065c57600080fd5b5056fe50726f6475637420686173206265656e2044656c697665726564205375636365737366756c6c7920212150726f647563742061726520776973686c6973742028416464656420696e20746865204661766f7572697465732950726f647563742068617320536869707065642046726f6d204d616e7566616374757265202121a2646970667358221220ca37c422ac40b3d94c8d6f05955637dd8bb6c854649a956732e96afbea6bede464736f6c6343000807003353656c656374207468652050726f647563742057686963682068617320746f20706c61636520617320616e204f72646572202121",
			"opcodes": "PUSH1 0x80 PUSH1 0x40 MSTORE PUSH1 0x0 DUP1 PUSH1 0x0 PUSH2 0x100 EXP DUP2 SLOAD DUP2 PUSH1 0xFF MUL NOT AND SWAP1 DUP4 PUSH1 0x4 DUP2 GT ISZERO PUSH2 0x29 JUMPI PUSH2 0x28 PUSH2 0x144 JUMP JUMPDEST JUMPDEST MUL OR SWAP1 SSTORE POP PUSH1 0x40 MLOAD DUP1 PUSH1 0x60 ADD PUSH1 0x40 MSTORE DUP1 PUSH1 0x34 DUP2 MSTORE PUSH1 0x20 ADD PUSH2 0x8C5 PUSH1 0x34 SWAP2 CODECOPY PUSH1 0x1 SWAP1 DUP1 MLOAD SWAP1 PUSH1 0x20 ADD SWAP1 PUSH2 0x5C SWAP3 SWAP2 SWAP1 PUSH2 0x6F JUMP JUMPDEST POP CALLVALUE DUP1 ISZERO PUSH2 0x69 JUMPI PUSH1 0x0 DUP1 REVERT JUMPDEST POP PUSH2 0x1A2 JUMP JUMPDEST DUP3 DUP1 SLOAD PUSH2 0x7B SWAP1 PUSH2 0x112 JUMP JUMPDEST SWAP1 PUSH1 0x0 MSTORE PUSH1 0x20 PUSH1 0x0 KECCAK256 SWAP1 PUSH1 0x1F ADD PUSH1 0x20 SWAP1 DIV DUP2 ADD SWAP3 DUP3 PUSH2 0x9D JUMPI PUSH1 0x0 DUP6 SSTORE PUSH2 0xE4 JUMP JUMPDEST DUP3 PUSH1 0x1F LT PUSH2 0xB6 JUMPI DUP1 MLOAD PUSH1 0xFF NOT AND DUP4 DUP1 ADD OR DUP6 SSTORE PUSH2 0xE4 JUMP JUMPDEST DUP3 DUP1 ADD PUSH1 0x1 ADD DUP6 SSTORE DUP3 ISZERO PUSH2 0xE4 JUMPI SWAP2 DUP3 ADD JUMPDEST DUP3 DUP2 GT ISZERO PUSH2 0xE3 JUMPI DUP3 MLOAD DUP3 SSTORE SWAP2 PUSH1 0x20 ADD SWAP2 SWAP1 PUSH1 0x1 ADD SWAP1 PUSH2 0xC8 JUMP JUMPDEST JUMPDEST POP SWAP1 POP PUSH2 0xF1 SWAP2 SWAP1 PUSH2 0xF5 JUMP JUMPDEST POP SWAP1 JUMP JUMPDEST JUMPDEST DUP1 DUP3 GT ISZERO PUSH2 0x10E JUMPI PUSH1 0x0 DUP2 PUSH1 0x0 SWAP1 SSTORE POP PUSH1 0x1 ADD PUSH2 0xF6 JUMP JUMPDEST POP SWAP1 JUMP JUMPDEST PUSH1 0x0 PUSH1 0x2 DUP3 DIV SWAP1 POP PUSH1 0x1 DUP3 AND DUP1 PUSH2 0x12A JUMPI PUSH1 0x7F DUP3 AND SWAP2 POP JUMPDEST PUSH1 0x20 DUP3 LT DUP2 EQ ISZERO PUSH2 0x13E JUMPI PUSH2 0x13D PUSH2 0x173 JUMP JUMPDEST JUMPDEST POP SWAP2 SWAP1 POP JUMP JUMPDEST PUSH32 0x4E487B7100000000000000000000000000000000000000000000000000000000 PUSH1 0x0 MSTORE PUSH1 0x21 PUSH1 0x4 MSTORE PUSH1 0x24 PUSH1 0x0 REVERT JUMPDEST PUSH32 0x4E487B7100000000000000000000000000000000000000000000000000000000 PUSH1 0x0 MSTORE PUSH1 0x22 PUSH1 0x4 MSTORE PUSH1 0x24 PUSH1 0x0 REVERT JUMPDEST PUSH2 0x714 DUP1 PUSH2 0x1B1 PUSH1 0x0 CODECOPY PUSH1 0x0 RETURN INVALID PUSH1 0x80 PUSH1 0x40 MSTORE CALLVALUE DUP1 ISZERO PUSH2 0x10 JUMPI PUSH1 0x0 DUP1 REVERT JUMPDEST POP PUSH1 0x4 CALLDATASIZE LT PUSH2 0x4C JUMPI PUSH1 0x0 CALLDATALOAD PUSH1 0xE0 SHR DUP1 PUSH4 0x56432888 EQ PUSH2 0x51 JUMPI DUP1 PUSH4 0x75D3BDA6 EQ PUSH2 0x6F JUMPI DUP1 PUSH4 0x8BC2EB4F EQ PUSH2 0x8D JUMPI DUP1 PUSH4 0xBBE6A833 EQ PUSH2 0xAB JUMPI JUMPDEST PUSH1 0x0 DUP1 REVERT JUMPDEST PUSH2 0x59 PUSH2 0xC7 JUMP JUMPDEST PUSH1 0x40 MLOAD PUSH2 0x66 SWAP2 SWAP1 PUSH2 0x4EE JUMP JUMPDEST PUSH1 0x40 MLOAD DUP1 SWAP2 SUB SWAP1 RETURN JUMPDEST PUSH2 0x77 PUSH2 0x2C8 JUMP JUMPDEST PUSH1 0x40 MLOAD PUSH2 0x84 SWAP2 SWAP1 PUSH2 0x4EE JUMP JUMPDEST PUSH1 0x40 MLOAD DUP1 SWAP2 SUB SWAP1 RETURN JUMPDEST PUSH2 0x95 PUSH2 0x356 JUMP JUMPDEST PUSH1 0x40 MLOAD PUSH2 0xA2 SWAP2 SWAP1 PUSH2 0x4D3 JUMP JUMPDEST PUSH1 0x40 MLOAD DUP1 SWAP2 SUB SWAP1 RETURN JUMPDEST PUSH2 0xC5 PUSH1 0x4 DUP1 CALLDATASIZE SUB DUP2 ADD SWAP1 PUSH2 0xC0 SWAP2 SWAP1 PUSH2 0x45E JUMP JUMPDEST PUSH2 0x367 JUMP JUMPDEST STOP JUMPDEST PUSH1 0x60 PUSH1 0x1 PUSH1 0x4 DUP2 GT ISZERO PUSH2 0xDD JUMPI PUSH2 0xDC PUSH2 0x5C0 JUMP JUMPDEST JUMPDEST PUSH1 0x0 DUP1 SLOAD SWAP1 PUSH2 0x100 EXP SWAP1 DIV PUSH1 0xFF AND PUSH1 0x4 DUP2 GT ISZERO PUSH2 0xFD JUMPI PUSH2 0xFC PUSH2 0x5C0 JUMP JUMPDEST JUMPDEST EQ ISZERO PUSH2 0x140 JUMPI PUSH1 0x40 MLOAD DUP1 PUSH1 0x40 ADD PUSH1 0x40 MSTORE DUP1 PUSH1 0x1F DUP2 MSTORE PUSH1 0x20 ADD PUSH32 0x50726F64756374205375636365737366756C6C79204F72646572656420212100 DUP2 MSTORE POP SWAP1 POP PUSH2 0x2C5 JUMP JUMPDEST PUSH1 0x0 PUSH1 0x4 DUP2 GT ISZERO PUSH2 0x154 JUMPI PUSH2 0x153 PUSH2 0x5C0 JUMP JUMPDEST JUMPDEST PUSH1 0x0 DUP1 SLOAD SWAP1 PUSH2 0x100 EXP SWAP1 DIV PUSH1 0xFF AND PUSH1 0x4 DUP2 GT ISZERO PUSH2 0x174 JUMPI PUSH2 0x173 PUSH2 0x5C0 JUMP JUMPDEST JUMPDEST EQ ISZERO PUSH2 0x19A JUMPI PUSH1 0x40 MLOAD DUP1 PUSH1 0x60 ADD PUSH1 0x40 MSTORE DUP1 PUSH1 0x2E DUP2 MSTORE PUSH1 0x20 ADD PUSH2 0x68A PUSH1 0x2E SWAP2 CODECOPY SWAP1 POP PUSH2 0x2C5 JUMP JUMPDEST PUSH1 0x4 DUP1 DUP2 GT ISZERO PUSH2 0x1AD JUMPI PUSH2 0x1AC PUSH2 0x5C0 JUMP JUMPDEST JUMPDEST PUSH1 0x0 DUP1 SLOAD SWAP1 PUSH2 0x100 EXP SWAP1 DIV PUSH1 0xFF AND PUSH1 0x4 DUP2 GT ISZERO PUSH2 0x1CD JUMPI PUSH2 0x1CC PUSH2 0x5C0 JUMP JUMPDEST JUMPDEST EQ ISZERO PUSH2 0x210 JUMPI PUSH1 0x40 MLOAD DUP1 PUSH1 0x40 ADD PUSH1 0x40 MSTORE DUP1 PUSH1 0x1D DUP2 MSTORE PUSH1 0x20 ADD PUSH32 0x50726F6475637420686173206265656E2043616E63656C6C6564202121000000 DUP2 MSTORE POP SWAP1 POP PUSH2 0x2C5 JUMP JUMPDEST PUSH1 0x2 PUSH1 0x4 DUP2 GT ISZERO PUSH2 0x224 JUMPI PUSH2 0x223 PUSH2 0x5C0 JUMP JUMPDEST JUMPDEST PUSH1 0x0 DUP1 SLOAD SWAP1 PUSH2 0x100 EXP SWAP1 DIV PUSH1 0xFF AND PUSH1 0x4 DUP2 GT ISZERO PUSH2 0x244 JUMPI PUSH2 0x243 PUSH2 0x5C0 JUMP JUMPDEST JUMPDEST EQ ISZERO PUSH2 0x26A JUMPI PUSH1 0x40 MLOAD DUP1 PUSH1 0x60 ADD PUSH1 0x40 MSTORE DUP1 PUSH1 0x27 DUP2 MSTORE PUSH1 0x20 ADD PUSH2 0x6B8 PUSH1 0x27 SWAP2 CODECOPY SWAP1 POP PUSH2 0x2C5 JUMP JUMPDEST PUSH1 0x3 PUSH1 0x4 DUP2 GT ISZERO PUSH2 0x27E JUMPI PUSH2 0x27D PUSH2 0x5C0 JUMP JUMPDEST JUMPDEST PUSH1 0x0 DUP1 SLOAD SWAP1 PUSH2 0x100 EXP SWAP1 DIV PUSH1 0xFF AND PUSH1 0x4 DUP2 GT ISZERO PUSH2 0x29E JUMPI PUSH2 0x29D PUSH2 0x5C0 JUMP JUMPDEST JUMPDEST EQ ISZERO PUSH2 0x2C4 JUMPI PUSH1 0x40 MLOAD DUP1 PUSH1 0x60 ADD PUSH1 0x40 MSTORE DUP1 PUSH1 0x2A DUP2 MSTORE PUSH1 0x20 ADD PUSH2 0x660 PUSH1 0x2A SWAP2 CODECOPY SWAP1 POP PUSH2 0x2C5 JUMP JUMPDEST JUMPDEST SWAP1 JUMP JUMPDEST PUSH1 0x1 DUP1 SLOAD PUSH2 0x2D5 SWAP1 PUSH2 0x58E JUMP JUMPDEST DUP1 PUSH1 0x1F ADD PUSH1 0x20 DUP1 SWAP2 DIV MUL PUSH1 0x20 ADD PUSH1 0x40 MLOAD SWAP1 DUP2 ADD PUSH1 0x40 MSTORE DUP1 SWAP3 SWAP2 SWAP1 DUP2 DUP2 MSTORE PUSH1 0x20 ADD DUP3 DUP1 SLOAD PUSH2 0x301 SWAP1 PUSH2 0x58E JUMP JUMPDEST DUP1 ISZERO PUSH2 0x34E JUMPI DUP1 PUSH1 0x1F LT PUSH2 0x323 JUMPI PUSH2 0x100 DUP1 DUP4 SLOAD DIV MUL DUP4 MSTORE SWAP2 PUSH1 0x20 ADD SWAP2 PUSH2 0x34E JUMP JUMPDEST DUP3 ADD SWAP2 SWAP1 PUSH1 0x0 MSTORE PUSH1 0x20 PUSH1 0x0 KECCAK256 SWAP1 JUMPDEST DUP2 SLOAD DUP2 MSTORE SWAP1 PUSH1 0x1 ADD SWAP1 PUSH1 0x20 ADD DUP1 DUP4 GT PUSH2 0x331 JUMPI DUP3 SWAP1 SUB PUSH1 0x1F AND DUP3 ADD SWAP2 JUMPDEST POP POP POP POP POP DUP2 JUMP JUMPDEST PUSH1 0x0 DUP1 SLOAD SWAP1 PUSH2 0x100 EXP SWAP1 DIV PUSH1 0xFF AND DUP2 JUMP JUMPDEST PUSH1 0x1 DUP2 EQ ISZERO PUSH2 0x39F JUMPI PUSH1 0x1 PUSH1 0x0 DUP1 PUSH2 0x100 EXP DUP2 SLOAD DUP2 PUSH1 0xFF MUL NOT AND SWAP1 DUP4 PUSH1 0x4 DUP2 GT ISZERO PUSH2 0x395 JUMPI PUSH2 0x394 PUSH2 0x5C0 JUMP JUMPDEST JUMPDEST MUL OR SWAP1 SSTORE POP PUSH2 0x446 JUMP JUMPDEST PUSH1 0x2 DUP2 EQ ISZERO PUSH2 0x3D7 JUMPI PUSH1 0x2 PUSH1 0x0 DUP1 PUSH2 0x100 EXP DUP2 SLOAD DUP2 PUSH1 0xFF MUL NOT AND SWAP1 DUP4 PUSH1 0x4 DUP2 GT ISZERO PUSH2 0x3CD JUMPI PUSH2 0x3CC PUSH2 0x5C0 JUMP JUMPDEST JUMPDEST MUL OR SWAP1 SSTORE POP PUSH2 0x445 JUMP JUMPDEST PUSH1 0x3 DUP2 EQ ISZERO PUSH2 0x40F JUMPI PUSH1 0x3 PUSH1 0x0 DUP1 PUSH2 0x100 EXP DUP2 SLOAD DUP2 PUSH1 0xFF MUL NOT AND SWAP1 DUP4 PUSH1 0x4 DUP2 GT ISZERO PUSH2 0x405 JUMPI PUSH2 0x404 PUSH2 0x5C0 JUMP JUMPDEST JUMPDEST MUL OR SWAP1 SSTORE POP PUSH2 0x444 JUMP JUMPDEST PUSH1 0x4 DUP2 EQ ISZERO PUSH2 0x443 JUMPI PUSH1 0x4 PUSH1 0x0 DUP1 PUSH2 0x100 EXP DUP2 SLOAD DUP2 PUSH1 0xFF MUL NOT AND SWAP1 DUP4 PUSH1 0x4 DUP2 GT ISZERO PUSH2 0x43D JUMPI PUSH2 0x43C PUSH2 0x5C0 JUMP JUMPDEST JUMPDEST MUL OR SWAP1 SSTORE POP JUMPDEST JUMPDEST JUMPDEST JUMPDEST POP JUMP JUMPDEST PUSH1 0x0 DUP2 CALLDATALOAD SWAP1 POP PUSH2 0x458 DUP2 PUSH2 0x648 JUMP JUMPDEST SWAP3 SWAP2 POP POP JUMP JUMPDEST PUSH1 0x0 PUSH1 0x20 DUP3 DUP5 SUB SLT ISZERO PUSH2 0x474 JUMPI PUSH2 0x473 PUSH2 0x61E JUMP JUMPDEST JUMPDEST PUSH1 0x0 PUSH2 0x482 DUP5 DUP3 DUP6 ADD PUSH2 0x449 JUMP JUMPDEST SWAP2 POP POP SWAP3 SWAP2 POP POP JUMP JUMPDEST PUSH2 0x494 DUP2 PUSH2 0x549 JUMP JUMPDEST DUP3 MSTORE POP POP JUMP JUMPDEST PUSH1 0x0 PUSH2 0x4A5 DUP3 PUSH2 0x510 JUMP JUMPDEST PUSH2 0x4AF DUP2 DUP6 PUSH2 0x51B JUMP JUMPDEST SWAP4 POP PUSH2 0x4BF DUP2 DUP6 PUSH1 0x20 DUP7 ADD PUSH2 0x55B JUMP JUMPDEST PUSH2 0x4C8 DUP2 PUSH2 0x623 JUMP JUMPDEST DUP5 ADD SWAP2 POP POP SWAP3 SWAP2 POP POP JUMP JUMPDEST PUSH1 0x0 PUSH1 0x20 DUP3 ADD SWAP1 POP PUSH2 0x4E8 PUSH1 0x0 DUP4 ADD DUP5 PUSH2 0x48B JUMP JUMPDEST SWAP3 SWAP2 POP POP JUMP JUMPDEST PUSH1 0x0 PUSH1 0x20 DUP3 ADD SWAP1 POP DUP2 DUP2 SUB PUSH1 0x0 DUP4 ADD MSTORE PUSH2 0x508 DUP2 DUP5 PUSH2 0x49A JUMP JUMPDEST SWAP1 POP SWAP3 SWAP2 POP POP JUMP JUMPDEST PUSH1 0x0 DUP2 MLOAD SWAP1 POP SWAP2 SWAP1 POP JUMP JUMPDEST PUSH1 0x0 DUP3 DUP3 MSTORE PUSH1 0x20 DUP3 ADD SWAP1 POP SWAP3 SWAP2 POP POP JUMP JUMPDEST PUSH1 0x0 DUP2 SWAP1 POP PUSH2 0x53A DUP3 PUSH2 0x634 JUMP JUMPDEST SWAP2 SWAP1 POP JUMP JUMPDEST PUSH1 0x0 DUP2 SWAP1 POP SWAP2 SWAP1 POP JUMP JUMPDEST PUSH1 0x0 PUSH2 0x554 DUP3 PUSH2 0x52C JUMP JUMPDEST SWAP1 POP SWAP2 SWAP1 POP JUMP JUMPDEST PUSH1 0x0 JUMPDEST DUP4 DUP2 LT ISZERO PUSH2 0x579 JUMPI DUP1 DUP3 ADD MLOAD DUP2 DUP5 ADD MSTORE PUSH1 0x20 DUP2 ADD SWAP1 POP PUSH2 0x55E JUMP JUMPDEST DUP4 DUP2 GT ISZERO PUSH2 0x588 JUMPI PUSH1 0x0 DUP5 DUP5 ADD MSTORE JUMPDEST POP POP POP POP JUMP JUMPDEST PUSH1 0x0 PUSH1 0x2 DUP3 DIV SWAP1 POP PUSH1 0x1 DUP3 AND DUP1 PUSH2 0x5A6 JUMPI PUSH1 0x7F DUP3 AND SWAP2 POP JUMPDEST PUSH1 0x20 DUP3 LT DUP2 EQ ISZERO PUSH2 0x5BA JUMPI PUSH2 0x5B9 PUSH2 0x5EF JUMP JUMPDEST JUMPDEST POP SWAP2 SWAP1 POP JUMP JUMPDEST PUSH32 0x4E487B7100000000000000000000000000000000000000000000000000000000 PUSH1 0x0 MSTORE PUSH1 0x21 PUSH1 0x4 MSTORE PUSH1 0x24 PUSH1 0x0 REVERT JUMPDEST PUSH32 0x4E487B7100000000000000000000000000000000000000000000000000000000 PUSH1 0x0 MSTORE PUSH1 0x22 PUSH1 0x4 MSTORE PUSH1 0x24 PUSH1 0x0 REVERT JUMPDEST PUSH1 0x0 DUP1 REVERT JUMPDEST PUSH1 0x0 PUSH1 0x1F NOT PUSH1 0x1F DUP4 ADD AND SWAP1 POP SWAP2 SWAP1 POP JUMP JUMPDEST PUSH1 0x5 DUP2 LT PUSH2 0x645 JUMPI PUSH2 0x644 PUSH2 0x5C0 JUMP JUMPDEST JUMPDEST POP JUMP JUMPDEST PUSH2 0x651 DUP2 PUSH2 0x53F JUMP JUMPDEST DUP2 EQ PUSH2 0x65C JUMPI PUSH1 0x0 DUP1 REVERT JUMPDEST POP JUMP INVALID POP PUSH19 0x6F6475637420686173206265656E2044656C69 PUSH23 0x65726564205375636365737366756C6C7920212150726F PUSH5 0x7563742061 PUSH19 0x6520776973686C697374202841646465642069 PUSH15 0x20746865204661766F757269746573 0x29 POP PUSH19 0x6F647563742068617320536869707065642046 PUSH19 0x6F6D204D616E7566616374757265202121A264 PUSH10 0x70667358221220CA37C4 0x22 0xAC BLOCKHASH 0xB3 0xD9 0x4C DUP14 PUSH16 0x5955637DD8BB6C854649A956732E96A 0xFB 0xEA PUSH12 0xEDE464736F6C634300080700 CALLER MSTORE8 PUSH6 0x6C6563742074 PUSH9 0x652050726F64756374 KECCAK256 JUMPI PUSH9 0x696368206861732074 PUSH16 0x20706C61636520617320616E204F7264 PUSH6 0x722021210000 "
		},
		"gasEstimates": {
			"creation": {
				"codeDepositCost": "362400",
				"executionCost": "infinite",
				"totalCost": "infinite"
			},
			"external": {
				"Change_Status(uint256)": "24844",
				"Order_Product()": "infinite",
				"Product()": "infinite",
				"Product_Status()": "2579"
			}
		},
		"methodIdentifiers": {
			"Change_Status(uint256)": "bbe6a833",
			"Order_Product()": "56432888",
			"Product()": "75d3bda6",
			"Product_Status()": "8bc2eb4f"
		}
	},
	"abi": [
		{
			"inputs": [
				{
					"internalType": "uint256",
					"name": "Index",
					"type": "uint256"
				}
			],
			"name": "Change_Status",
			"outputs": [],
			"stateMutability": "nonpayable",
			"type": "function"
		},
		{
			"inputs": [],
			"name": "Order_Product",
			"outputs": [
				{
					"internalType": "string",
					"name": "MSG",
					"type": "string"
				}
			],
			"stateMutability": "view",
			"type": "function"
		},
		{
			"inputs": [],
			"name": "Product",
			"outputs": [
				{
					"internalType": "string",
					"name": "",
					"type": "string"
				}
			],
			"stateMutability": "view",
			"type": "function"
		},
		{
			"inputs": [],
			"name": "Product_Status",
			"outputs": [
				{
					"internalType": "enum Enum.Status",
					"name": "",
					"type": "uint8"
				}
			],
			"stateMutability": "view",
			"type": "function"
		}
	]
}