{
	"data": {
		"bytecode": {
			"linkReferences": {},
			"object": "608060405234801561001057600080fd5b5061029c806100206000396000f3fe6080604052600436106100225760003560e01c8063c71daccb1461009d57610062565b36610062577f82adb7855cee4e3b7147ce0c96a8286843d54bcab27c793ab4fd74a40cebee9e3334604051610058929190610170565b60405180910390a1005b7f82adb7855cee4e3b7147ce0c96a8286843d54bcab27c793ab4fd74a40cebee9e3334604051610093929190610134565b60405180910390a1005b3480156100a957600080fd5b506100b26100c8565b6040516100bf91906101ac565b60405180910390f35b600047905090565b6100d9816101d8565b82525050565b60006100ec6008836101c7565b91506100f782610214565b602082019050919050565b600061010f6007836101c7565b915061011a8261023d565b602082019050919050565b61012e8161020a565b82525050565b6000606082019050818103600083015261014d816100df565b905061015c60208301856100d0565b6101696040830184610125565b9392505050565b6000606082019050818103600083015261018981610102565b905061019860208301856100d0565b6101a56040830184610125565b9392505050565b60006020820190506101c16000830184610125565b92915050565b600082825260208201905092915050565b60006101e3826101ea565b9050919050565b600073ffffffffffffffffffffffffffffffffffffffff82169050919050565b6000819050919050565b7f46616c6c6261636b000000000000000000000000000000000000000000000000600082015250565b7f526563656976650000000000000000000000000000000000000000000000000060008201525056fea2646970667358221220c68f453893f46e39ffe84a00409da6fedfe4fe01f9ceabde1056a42ebbd6a16264736f6c63430008070033",
			"opcodes": "PUSH1 0x80 PUSH1 0x40 MSTORE CALLVALUE DUP1 ISZERO PUSH2 0x10 JUMPI PUSH1 0x0 DUP1 REVERT JUMPDEST POP PUSH2 0x29C DUP1 PUSH2 0x20 PUSH1 0x0 CODECOPY PUSH1 0x0 RETURN INVALID PUSH1 0x80 PUSH1 0x40 MSTORE PUSH1 0x4 CALLDATASIZE LT PUSH2 0x22 JUMPI PUSH1 0x0 CALLDATALOAD PUSH1 0xE0 SHR DUP1 PUSH4 0xC71DACCB EQ PUSH2 0x9D JUMPI PUSH2 0x62 JUMP JUMPDEST CALLDATASIZE PUSH2 0x62 JUMPI PUSH32 0x82ADB7855CEE4E3B7147CE0C96A8286843D54BCAB27C793AB4FD74A40CEBEE9E CALLER CALLVALUE PUSH1 0x40 MLOAD PUSH2 0x58 SWAP3 SWAP2 SWAP1 PUSH2 0x170 JUMP JUMPDEST PUSH1 0x40 MLOAD DUP1 SWAP2 SUB SWAP1 LOG1 STOP JUMPDEST PUSH32 0x82ADB7855CEE4E3B7147CE0C96A8286843D54BCAB27C793AB4FD74A40CEBEE9E CALLER CALLVALUE PUSH1 0x40 MLOAD PUSH2 0x93 SWAP3 SWAP2 SWAP1 PUSH2 0x134 JUMP JUMPDEST PUSH1 0x40 MLOAD DUP1 SWAP2 SUB SWAP1 LOG1 STOP JUMPDEST CALLVALUE DUP1 ISZERO PUSH2 0xA9 JUMPI PUSH1 0x0 DUP1 REVERT JUMPDEST POP PUSH2 0xB2 PUSH2 0xC8 JUMP JUMPDEST PUSH1 0x40 MLOAD PUSH2 0xBF SWAP2 SWAP1 PUSH2 0x1AC JUMP JUMPDEST PUSH1 0x40 MLOAD DUP1 SWAP2 SUB SWAP1 RETURN JUMPDEST PUSH1 0x0 SELFBALANCE SWAP1 POP SWAP1 JUMP JUMPDEST PUSH2 0xD9 DUP2 PUSH2 0x1D8 JUMP JUMPDEST DUP3 MSTORE POP POP JUMP JUMPDEST PUSH1 0x0 PUSH2 0xEC PUSH1 0x8 DUP4 PUSH2 0x1C7 JUMP JUMPDEST SWAP2 POP PUSH2 0xF7 DUP3 PUSH2 0x214 JUMP JUMPDEST PUSH1 0x20 DUP3 ADD SWAP1 POP SWAP2 SWAP1 POP JUMP JUMPDEST PUSH1 0x0 PUSH2 0x10F PUSH1 0x7 DUP4 PUSH2 0x1C7 JUMP JUMPDEST SWAP2 POP PUSH2 0x11A DUP3 PUSH2 0x23D JUMP JUMPDEST PUSH1 0x20 DUP3 ADD SWAP1 POP SWAP2 SWAP1 POP JUMP JUMPDEST PUSH2 0x12E DUP2 PUSH2 0x20A JUMP JUMPDEST DUP3 MSTORE POP POP JUMP JUMPDEST PUSH1 0x0 PUSH1 0x60 DUP3 ADD SWAP1 POP DUP2 DUP2 SUB PUSH1 0x0 DUP4 ADD MSTORE PUSH2 0x14D DUP2 PUSH2 0xDF JUMP JUMPDEST SWAP1 POP PUSH2 0x15C PUSH1 0x20 DUP4 ADD DUP6 PUSH2 0xD0 JUMP JUMPDEST PUSH2 0x169 PUSH1 0x40 DUP4 ADD DUP5 PUSH2 0x125 JUMP JUMPDEST SWAP4 SWAP3 POP POP POP JUMP JUMPDEST PUSH1 0x0 PUSH1 0x60 DUP3 ADD SWAP1 POP DUP2 DUP2 SUB PUSH1 0x0 DUP4 ADD MSTORE PUSH2 0x189 DUP2 PUSH2 0x102 JUMP JUMPDEST SWAP1 POP PUSH2 0x198 PUSH1 0x20 DUP4 ADD DUP6 PUSH2 0xD0 JUMP JUMPDEST PUSH2 0x1A5 PUSH1 0x40 DUP4 ADD DUP5 PUSH2 0x125 JUMP JUMPDEST SWAP4 SWAP3 POP POP POP JUMP JUMPDEST PUSH1 0x0 PUSH1 0x20 DUP3 ADD SWAP1 POP PUSH2 0x1C1 PUSH1 0x0 DUP4 ADD DUP5 PUSH2 0x125 JUMP JUMPDEST SWAP3 SWAP2 POP POP JUMP JUMPDEST PUSH1 0x0 DUP3 DUP3 MSTORE PUSH1 0x20 DUP3 ADD SWAP1 POP SWAP3 SWAP2 POP POP JUMP JUMPDEST PUSH1 0x0 PUSH2 0x1E3 DUP3 PUSH2 0x1EA JUMP JUMPDEST SWAP1 POP SWAP2 SWAP1 POP JUMP JUMPDEST PUSH1 0x0 PUSH20 0xFFFFFFFFFFFFFFFFFFFFFFFFFFFFFFFFFFFFFFFF DUP3 AND SWAP1 POP SWAP2 SWAP1 POP JUMP JUMPDEST PUSH1 0x0 DUP2 SWAP1 POP SWAP2 SWAP1 POP JUMP JUMPDEST PUSH32 0x46616C6C6261636B000000000000000000000000000000000000000000000000 PUSH1 0x0 DUP3 ADD MSTORE POP JUMP JUMPDEST PUSH32 0x5265636569766500000000000000000000000000000000000000000000000000 PUSH1 0x0 DUP3 ADD MSTORE POP JUMP INVALID LOG2 PUSH5 0x6970667358 0x22 SLT KECCAK256 0xC6 DUP16 GASLIMIT CODESIZE SWAP4 DELEGATECALL PUSH15 0x39FFE84A00409DA6FEDFE4FE01F9CE 0xAB 0xDE LT JUMP LOG4 0x2E 0xBB 0xD6 LOG1 PUSH3 0x64736F PUSH13 0x63430008070033000000000000 "
		},
		"gasEstimates": {
			"creation": {
				"codeDepositCost": "133600",
				"executionCost": "177",
				"totalCost": "133777"
			},
			"external": {
				"": "2652",
				"checkBalance()": "317"
			}
		},
		"methodIdentifiers": {
			"checkBalance()": "c71daccb"
		}
	},
	"abi": [
		{
			"anonymous": false,
			"inputs": [
				{
					"indexed": false,
					"internalType": "string",
					"name": "fun",
					"type": "string"
				},
				{
					"indexed": false,
					"internalType": "address",
					"name": "_sender",
					"type": "address"
				},
				{
					"indexed": false,
					"internalType": "uint256",
					"name": "_val",
					"type": "uint256"
				}
			],
			"name": "Check",
			"type": "event"
		},
		{
			"stateMutability": "payable",
			"type": "fallback"
		},
		{
			"inputs": [],
			"name": "checkBalance",
			"outputs": [
				{
					"internalType": "uint256",
					"name": "",
					"type": "uint256"
				}
			],
			"stateMutability": "view",
			"type": "function"
		},
		{
			"stateMutability": "payable",
			"type": "receive"
		}
	]
}