{
	"data": {
		"bytecode": {
			"linkReferences": {},
			"object": "60806040526212575b60005534801561001757600080fd5b50610120806100276000396000f3fe6080604052348015600f57600080fd5b506004361060325760003560e01c80636dc1b357146037578063f1068454146051575b600080fd5b603d606b565b6040516048919060c7565b60405180910390f35b605760b4565b6040516062919060c7565b60405180910390f35b6000806040518060400160405280600b81526020017f537572616a20506174696c0000000000000000000000000000000000000000008152509050600060159050809250505090565b60005481565b60c18160e0565b82525050565b600060208201905060da600083018460ba565b92915050565b600081905091905056fea26469706673582212202d36354d4e58415cdda285487ce751567b52aef41157d9da7bb678b2a3d54a1964736f6c63430008070033",
			"opcodes": "PUSH1 0x80 PUSH1 0x40 MSTORE PUSH3 0x12575B PUSH1 0x0 SSTORE CALLVALUE DUP1 ISZERO PUSH2 0x17 JUMPI PUSH1 0x0 DUP1 REVERT JUMPDEST POP PUSH2 0x120 DUP1 PUSH2 0x27 PUSH1 0x0 CODECOPY PUSH1 0x0 RETURN INVALID PUSH1 0x80 PUSH1 0x40 MSTORE CALLVALUE DUP1 ISZERO PUSH1 0xF JUMPI PUSH1 0x0 DUP1 REVERT JUMPDEST POP PUSH1 0x4 CALLDATASIZE LT PUSH1 0x32 JUMPI PUSH1 0x0 CALLDATALOAD PUSH1 0xE0 SHR DUP1 PUSH4 0x6DC1B357 EQ PUSH1 0x37 JUMPI DUP1 PUSH4 0xF1068454 EQ PUSH1 0x51 JUMPI JUMPDEST PUSH1 0x0 DUP1 REVERT JUMPDEST PUSH1 0x3D PUSH1 0x6B JUMP JUMPDEST PUSH1 0x40 MLOAD PUSH1 0x48 SWAP2 SWAP1 PUSH1 0xC7 JUMP JUMPDEST PUSH1 0x40 MLOAD DUP1 SWAP2 SUB SWAP1 RETURN JUMPDEST PUSH1 0x57 PUSH1 0xB4 JUMP JUMPDEST PUSH1 0x40 MLOAD PUSH1 0x62 SWAP2 SWAP1 PUSH1 0xC7 JUMP JUMPDEST PUSH1 0x40 MLOAD DUP1 SWAP2 SUB SWAP1 RETURN JUMPDEST PUSH1 0x0 DUP1 PUSH1 0x40 MLOAD DUP1 PUSH1 0x40 ADD PUSH1 0x40 MSTORE DUP1 PUSH1 0xB DUP2 MSTORE PUSH1 0x20 ADD PUSH32 0x537572616A20506174696C000000000000000000000000000000000000000000 DUP2 MSTORE POP SWAP1 POP PUSH1 0x0 PUSH1 0x15 SWAP1 POP DUP1 SWAP3 POP POP POP SWAP1 JUMP JUMPDEST PUSH1 0x0 SLOAD DUP2 JUMP JUMPDEST PUSH1 0xC1 DUP2 PUSH1 0xE0 JUMP JUMPDEST DUP3 MSTORE POP POP JUMP JUMPDEST PUSH1 0x0 PUSH1 0x20 DUP3 ADD SWAP1 POP PUSH1 0xDA PUSH1 0x0 DUP4 ADD DUP5 PUSH1 0xBA JUMP JUMPDEST SWAP3 SWAP2 POP POP JUMP JUMPDEST PUSH1 0x0 DUP2 SWAP1 POP SWAP2 SWAP1 POP JUMP INVALID LOG2 PUSH5 0x6970667358 0x22 SLT KECCAK256 0x2D CALLDATASIZE CALLDATALOAD 0x4D 0x4E PC COINBASE 0x5C 0xDD LOG2 DUP6 BASEFEE PUSH29 0xE751567B52AEF41157D9DA7BB678B2A3D54A1964736F6C634300080700 CALLER "
		},
		"gasEstimates": {
			"creation": {
				"codeDepositCost": "57600",
				"executionCost": "22211",
				"totalCost": "79811"
			},
			"external": {
				"Set_Local()": "394",
				"pid()": "2429"
			}
		},
		"methodIdentifiers": {
			"Set_Local()": "6dc1b357",
			"pid()": "f1068454"
		}
	},
	"abi": [
		{
			"inputs": [],
			"name": "Set_Local",
			"outputs": [
				{
					"internalType": "uint256",
					"name": "",
					"type": "uint256"
				}
			],
			"stateMutability": "pure",
			"type": "function"
		},
		{
			"inputs": [],
			"name": "pid",
			"outputs": [
				{
					"internalType": "uint256",
					"name": "",
					"type": "uint256"
				}
			],
			"stateMutability": "view",
			"type": "function"
		}
	]
}